{
	"src/DSCEngine.sol": {
		"DSCEngine": {
			"abi": [
				{
					"inputs": [
						{
							"internalType": "address",
							"name": "_dscAddress",
							"type": "address"
						},
						{
							"internalType": "address[]",
							"name": "_tokenCollateral",
							"type": "address[]"
						},
						{
							"internalType": "address[]",
							"name": "_priceFeed",
							"type": "address[]"
						}
					],
					"stateMutability": "nonpayable",
					"type": "constructor"
				},
				{
					"inputs": [
						{
							"internalType": "uint256",
							"name": "userHealthFactor",
							"type": "uint256"
						}
					],
					"name": "DSCEngine__BreaksHealthFactor",
					"type": "error"
				},
				{
					"inputs": [
						{
							"internalType": "address",
							"name": "collateralToken",
							"type": "address"
						}
					],
					"name": "DSCEngine__CollateralDepositFailed",
					"type": "error"
				},
				{
					"inputs": [],
					"name": "DSCEngine__DscAddressCantBeZero",
					"type": "error"
				},
				{
					"inputs": [],
					"name": "DSCEngine__DscMintFailed",
					"type": "error"
				},
				{
					"inputs": [],
					"name": "DSCEngine__NeedsMoreThanZero",
					"type": "error"
				},
				{
					"inputs": [],
					"name": "DSCEngine__NotAllowedToken",
					"type": "error"
				},
				{
					"inputs": [],
					"name": "DSCEngine__TokenAddressesAndPriceFeedAddressesMustBeSameLength",
					"type": "error"
				},
				{
					"inputs": [],
					"name": "ReentrancyGuardReentrantCall",
					"type": "error"
				},
				{
					"anonymous": false,
					"inputs": [
						{
							"indexed": true,
							"internalType": "address",
							"name": "depositer",
							"type": "address"
						},
						{
							"indexed": true,
							"internalType": "address",
							"name": "tokenCollateralAddress",
							"type": "address"
						},
						{
							"indexed": true,
							"internalType": "uint256",
							"name": "collateralAmount",
							"type": "uint256"
						}
					],
					"name": "CollateralDeposited",
					"type": "event"
				},
				{
					"inputs": [],
					"name": "ADDITION_FEED_PRECISION",
					"outputs": [
						{
							"internalType": "uint256",
							"name": "",
							"type": "uint256"
						}
					],
					"stateMutability": "view",
					"type": "function"
				},
				{
					"inputs": [],
					"name": "LIQUIDATION_PRECISION",
					"outputs": [
						{
							"internalType": "uint256",
							"name": "",
							"type": "uint256"
						}
					],
					"stateMutability": "view",
					"type": "function"
				},
				{
					"inputs": [],
					"name": "LIQUIDATION_THRESHOLD",
					"outputs": [
						{
							"internalType": "uint256",
							"name": "",
							"type": "uint256"
						}
					],
					"stateMutability": "view",
					"type": "function"
				},
				{
					"inputs": [],
					"name": "MIN_HEALT_FACTOR",
					"outputs": [
						{
							"internalType": "uint256",
							"name": "",
							"type": "uint256"
						}
					],
					"stateMutability": "view",
					"type": "function"
				},
				{
					"inputs": [],
					"name": "PRECISION",
					"outputs": [
						{
							"internalType": "uint256",
							"name": "",
							"type": "uint256"
						}
					],
					"stateMutability": "view",
					"type": "function"
				},
				{
					"inputs": [],
					"name": "burnDsc",
					"outputs": [],
					"stateMutability": "nonpayable",
					"type": "function"
				},
				{
					"inputs": [
						{
							"internalType": "address",
							"name": "_tokenCollateralAddress",
							"type": "address"
						},
						{
							"internalType": "uint256",
							"name": "_collateralAmount",
							"type": "uint256"
						}
					],
					"name": "depositCollateral",
					"outputs": [],
					"stateMutability": "nonpayable",
					"type": "function"
				},
				{
					"inputs": [
						{
							"internalType": "address",
							"name": "_tokenCollateralAddress",
							"type": "address"
						},
						{
							"internalType": "uint256",
							"name": "_collateralAmount",
							"type": "uint256"
						}
					],
					"name": "depositCollateralAndMintDsc",
					"outputs": [],
					"stateMutability": "nonpayable",
					"type": "function"
				},
				{
					"inputs": [
						{
							"internalType": "address",
							"name": "_user",
							"type": "address"
						}
					],
					"name": "getAccountCollateralValue",
					"outputs": [
						{
							"internalType": "uint256",
							"name": "totalCollateralValueInUsd",
							"type": "uint256"
						}
					],
					"stateMutability": "view",
					"type": "function"
				},
				{
					"inputs": [],
					"name": "getHealthFactor",
					"outputs": [],
					"stateMutability": "view",
					"type": "function"
				},
				{
					"inputs": [
						{
							"internalType": "address",
							"name": "_token",
							"type": "address"
						},
						{
							"internalType": "uint256",
							"name": "_amount",
							"type": "uint256"
						}
					],
					"name": "getUSDValue",
					"outputs": [
						{
							"internalType": "uint256",
							"name": "",
							"type": "uint256"
						}
					],
					"stateMutability": "view",
					"type": "function"
				},
				{
					"inputs": [],
					"name": "i_dsc",
					"outputs": [
						{
							"internalType": "contract DecentralizedStableCoin",
							"name": "",
							"type": "address"
						}
					],
					"stateMutability": "view",
					"type": "function"
				},
				{
					"inputs": [],
					"name": "liquidate",
					"outputs": [],
					"stateMutability": "nonpayable",
					"type": "function"
				},
				{
					"inputs": [
						{
							"internalType": "uint256",
							"name": "_amountDscToMint",
							"type": "uint256"
						}
					],
					"name": "mintDsc",
					"outputs": [],
					"stateMutability": "nonpayable",
					"type": "function"
				},
				{
					"inputs": [],
					"name": "redeemCollateralForDsc",
					"outputs": [],
					"stateMutability": "nonpayable",
					"type": "function"
				},
				{
					"inputs": [],
					"name": "redeemCollateralc",
					"outputs": [],
					"stateMutability": "nonpayable",
					"type": "function"
				}
			],
			"devdoc": {
				"errors": {
					"ReentrancyGuardReentrantCall()": [
						{
							"details": "Unauthorized reentrant call."
						}
					]
				},
				"kind": "dev",
				"methods": {},
				"version": 1
			},
			"evm": {
				"assembly": "    /* \"src/DSCEngine.sol\":1710:7038  contract DSCEngine is ReentrancyGuard {... */\n  mstore(0x40, 0xa0)\n    /* \"src/DSCEngine.sol\":3222:3865  constructor(... */\n  callvalue\n  dup1\n  iszero\n  tag_1\n  jumpi\n  revert(0x00, 0x00)\ntag_1:\n  pop\n  mload(0x40)\n  sub(codesize, bytecodeSize)\n  dup1\n  bytecodeSize\n  dup4\n  codecopy\n  dup2\n  dup2\n  add\n  0x40\n  mstore\n  dup2\n  add\n  swap1\n  tag_2\n  swap2\n  swap1\n  tag_3\n  jump\t// in\ntag_2:\n    /* \"@openzeppelin/contracts/utils/ReentrancyGuard.sol\":1857:1858  1 */\n  0x01\n    /* \"@openzeppelin/contracts/utils/ReentrancyGuard.sol\":2061:2068  _status */\n  0x00\n    /* \"@openzeppelin/contracts/utils/ReentrancyGuard.sol\":2061:2082  _status = NOT_ENTERED */\n  dup2\n  swap1\n  sstore\n  pop\n    /* \"src/DSCEngine.sol\":3390:3400  _priceFeed */\n  dup1\n    /* \"src/DSCEngine.sol\":3390:3407  _priceFeed.length */\n  mload\n    /* \"src/DSCEngine.sol\":3363:3379  _tokenCollateral */\n  dup3\n    /* \"src/DSCEngine.sol\":3363:3386  _tokenCollateral.length */\n  mload\n    /* \"src/DSCEngine.sol\":3363:3407  _tokenCollateral.length != _priceFeed.length */\n  eq\n    /* \"src/DSCEngine.sol\":3359:3505  if (_tokenCollateral.length != _priceFeed.length) {... */\n  tag_8\n  jumpi\n    /* \"src/DSCEngine.sol\":3430:3494  DSCEngine__TokenAddressesAndPriceFeedAddressesMustBeSameLength() */\n  mload(0x40)\n  0xb5c5c12600000000000000000000000000000000000000000000000000000000\n  dup2\n  mstore\n  0x04\n  add\n  mload(0x40)\n  dup1\n  swap2\n  sub\n  swap1\n  revert\n    /* \"src/DSCEngine.sol\":3359:3505  if (_tokenCollateral.length != _priceFeed.length) {... */\ntag_8:\n    /* \"src/DSCEngine.sol\":3541:3542  0 */\n  0x00\n    /* \"src/DSCEngine.sol\":3518:3543  _dscAddress == address(0) */\n  0xffffffffffffffffffffffffffffffffffffffff\n  and\n    /* \"src/DSCEngine.sol\":3518:3529  _dscAddress */\n  dup4\n    /* \"src/DSCEngine.sol\":3518:3543  _dscAddress == address(0) */\n  0xffffffffffffffffffffffffffffffffffffffff\n  and\n  sub\n    /* \"src/DSCEngine.sol\":3514:3610  if (_dscAddress == address(0)) {... */\n  tag_9\n  jumpi\n    /* \"src/DSCEngine.sol\":3566:3599  DSCEngine__DscAddressCantBeZero() */\n  mload(0x40)\n  0xef8f9dd100000000000000000000000000000000000000000000000000000000\n  dup2\n  mstore\n  0x04\n  add\n  mload(0x40)\n  dup1\n  swap2\n  sub\n  swap1\n  revert\n    /* \"src/DSCEngine.sol\":3514:3610  if (_dscAddress == address(0)) {... */\ntag_9:\n    /* \"src/DSCEngine.sol\":3624:3633  uint256 i */\n  0x00\n    /* \"src/DSCEngine.sol\":3636:3637  0 */\n  0x00\n    /* \"src/DSCEngine.sol\":3624:3637  uint256 i = 0 */\n  swap1\n  pop\n    /* \"src/DSCEngine.sol\":3619:3805  for (uint256 i = 0; i < _tokenCollateral.length; i++) {... */\ntag_10:\n    /* \"src/DSCEngine.sol\":3643:3659  _tokenCollateral */\n  dup3\n    /* \"src/DSCEngine.sol\":3643:3666  _tokenCollateral.length */\n  mload\n    /* \"src/DSCEngine.sol\":3639:3640  i */\n  dup2\n    /* \"src/DSCEngine.sol\":3639:3666  i < _tokenCollateral.length */\n  lt\n    /* \"src/DSCEngine.sol\":3619:3805  for (uint256 i = 0; i < _tokenCollateral.length; i++) {... */\n  iszero\n  tag_11\n  jumpi\n    /* \"src/DSCEngine.sol\":3723:3733  _priceFeed */\n  dup2\n    /* \"src/DSCEngine.sol\":3734:3735  i */\n  dup2\n    /* \"src/DSCEngine.sol\":3723:3736  _priceFeed[i] */\n  dup2\n  mload\n  dup2\n  lt\n  tag_13\n  jumpi\n  tag_14\n  tag_15\n  jump\t// in\ntag_14:\ntag_13:\n  0x20\n  mul\n  0x20\n  add\n  add\n  mload\n    /* \"src/DSCEngine.sol\":3687:3699  s_priceFeeds */\n  0x01\n    /* \"src/DSCEngine.sol\":3687:3720  s_priceFeeds[_tokenCollateral[i]] */\n  0x00\n    /* \"src/DSCEngine.sol\":3700:3716  _tokenCollateral */\n  dup6\n    /* \"src/DSCEngine.sol\":3717:3718  i */\n  dup5\n    /* \"src/DSCEngine.sol\":3700:3719  _tokenCollateral[i] */\n  dup2\n  mload\n  dup2\n  lt\n  tag_16\n  jumpi\n  tag_17\n  tag_15\n  jump\t// in\ntag_17:\ntag_16:\n  0x20\n  mul\n  0x20\n  add\n  add\n  mload\n    /* \"src/DSCEngine.sol\":3687:3720  s_priceFeeds[_tokenCollateral[i]] */\n  0xffffffffffffffffffffffffffffffffffffffff\n  and\n  0xffffffffffffffffffffffffffffffffffffffff\n  and\n  dup2\n  mstore\n  0x20\n  add\n  swap1\n  dup2\n  mstore\n  0x20\n  add\n  0x00\n  keccak256\n  0x00\n    /* \"src/DSCEngine.sol\":3687:3736  s_priceFeeds[_tokenCollateral[i]] = _priceFeed[i] */\n  0x0100\n  exp\n  dup2\n  sload\n  dup2\n  0xffffffffffffffffffffffffffffffffffffffff\n  mul\n  not\n  and\n  swap1\n  dup4\n  0xffffffffffffffffffffffffffffffffffffffff\n  and\n  mul\n  or\n  swap1\n  sstore\n  pop\n    /* \"src/DSCEngine.sol\":3750:3768  s_collateralTokens */\n  0x04\n    /* \"src/DSCEngine.sol\":3774:3790  _tokenCollateral */\n  dup4\n    /* \"src/DSCEngine.sol\":3791:3792  i */\n  dup3\n    /* \"src/DSCEngine.sol\":3774:3793  _tokenCollateral[i] */\n  dup2\n  mload\n  dup2\n  lt\n  tag_18\n  jumpi\n  tag_19\n  tag_15\n  jump\t// in\ntag_19:\ntag_18:\n  0x20\n  mul\n  0x20\n  add\n  add\n  mload\n    /* \"src/DSCEngine.sol\":3750:3794  s_collateralTokens.push(_tokenCollateral[i]) */\n  swap1\n  dup1\n  0x01\n  dup2\n  sload\n  add\n  dup1\n  dup3\n  sstore\n  dup1\n  swap2\n  pop\n  pop\n  0x01\n  swap1\n  sub\n  swap1\n  0x00\n  mstore\n  keccak256(0x00, 0x20)\n  add\n  0x00\n  swap1\n  swap2\n  swap1\n  swap2\n  swap1\n  swap2\n  0x0100\n  exp\n  dup2\n  sload\n  dup2\n  0xffffffffffffffffffffffffffffffffffffffff\n  mul\n  not\n  and\n  swap1\n  dup4\n  0xffffffffffffffffffffffffffffffffffffffff\n  and\n  mul\n  or\n  swap1\n  sstore\n  pop\n    /* \"src/DSCEngine.sol\":3668:3671  i++ */\n  dup1\n  dup1\n  0x01\n  add\n  swap2\n  pop\n  pop\n    /* \"src/DSCEngine.sol\":3619:3805  for (uint256 i = 0; i < _tokenCollateral.length; i++) {... */\n  jump(tag_10)\ntag_11:\n  pop\n    /* \"src/DSCEngine.sol\":3846:3857  _dscAddress */\n  dup3\n    /* \"src/DSCEngine.sol\":3814:3858  i_dsc = DecentralizedStableCoin(_dscAddress) */\n  0xffffffffffffffffffffffffffffffffffffffff\n  and\n  0x80\n  dup2\n  0xffffffffffffffffffffffffffffffffffffffff\n  and\n  dup2\n  mstore\n  pop\n  pop\n    /* \"src/DSCEngine.sol\":3222:3865  constructor(... */\n  pop\n  pop\n  pop\n    /* \"src/DSCEngine.sol\":1710:7038  contract DSCEngine is ReentrancyGuard {... */\n  jump(tag_21)\n    /* \"#utility.yul\":7:82   */\ntag_22:\n    /* \"#utility.yul\":40:46   */\n  0x00\n    /* \"#utility.yul\":73:75   */\n  0x40\n    /* \"#utility.yul\":67:76   */\n  mload\n    /* \"#utility.yul\":57:76   */\n  swap1\n  pop\n    /* \"#utility.yul\":7:82   */\n  swap1\n  jump\t// out\n    /* \"#utility.yul\":88:205   */\ntag_23:\n    /* \"#utility.yul\":197:198   */\n  0x00\n    /* \"#utility.yul\":194:195   */\n  0x00\n    /* \"#utility.yul\":187:199   */\n  revert\n    /* \"#utility.yul\":211:328   */\ntag_24:\n    /* \"#utility.yul\":320:321   */\n  0x00\n    /* \"#utility.yul\":317:318   */\n  0x00\n    /* \"#utility.yul\":310:322   */\n  revert\n    /* \"#utility.yul\":334:460   */\ntag_25:\n    /* \"#utility.yul\":371:378   */\n  0x00\n    /* \"#utility.yul\":411:453   */\n  0xffffffffffffffffffffffffffffffffffffffff\n    /* \"#utility.yul\":404:409   */\n  dup3\n    /* \"#utility.yul\":400:454   */\n  and\n    /* \"#utility.yul\":389:454   */\n  swap1\n  pop\n    /* \"#utility.yul\":334:460   */\n  swap2\n  swap1\n  pop\n  jump\t// out\n    /* \"#utility.yul\":466:562   */\ntag_26:\n    /* \"#utility.yul\":503:510   */\n  0x00\n    /* \"#utility.yul\":532:556   */\n  tag_44\n    /* \"#utility.yul\":550:555   */\n  dup3\n    /* \"#utility.yul\":532:556   */\n  tag_25\n  jump\t// in\ntag_44:\n    /* \"#utility.yul\":521:556   */\n  swap1\n  pop\n    /* \"#utility.yul\":466:562   */\n  swap2\n  swap1\n  pop\n  jump\t// out\n    /* \"#utility.yul\":568:690   */\ntag_27:\n    /* \"#utility.yul\":641:665   */\n  tag_46\n    /* \"#utility.yul\":659:664   */\n  dup2\n    /* \"#utility.yul\":641:665   */\n  tag_26\n  jump\t// in\ntag_46:\n    /* \"#utility.yul\":634:639   */\n  dup2\n    /* \"#utility.yul\":631:666   */\n  eq\n    /* \"#utility.yul\":621:684   */\n  tag_47\n  jumpi\n    /* \"#utility.yul\":680:681   */\n  0x00\n    /* \"#utility.yul\":677:678   */\n  0x00\n    /* \"#utility.yul\":670:682   */\n  revert\n    /* \"#utility.yul\":621:684   */\ntag_47:\n    /* \"#utility.yul\":568:690   */\n  pop\n  jump\t// out\n    /* \"#utility.yul\":696:839   */\ntag_28:\n    /* \"#utility.yul\":753:758   */\n  0x00\n    /* \"#utility.yul\":784:790   */\n  dup2\n    /* \"#utility.yul\":778:791   */\n  mload\n    /* \"#utility.yul\":769:791   */\n  swap1\n  pop\n    /* \"#utility.yul\":800:833   */\n  tag_49\n    /* \"#utility.yul\":827:832   */\n  dup2\n    /* \"#utility.yul\":800:833   */\n  tag_27\n  jump\t// in\ntag_49:\n    /* \"#utility.yul\":696:839   */\n  swap3\n  swap2\n  pop\n  pop\n  jump\t// out\n    /* \"#utility.yul\":845:962   */\ntag_29:\n    /* \"#utility.yul\":954:955   */\n  0x00\n    /* \"#utility.yul\":951:952   */\n  0x00\n    /* \"#utility.yul\":944:956   */\n  revert\n    /* \"#utility.yul\":968:1070   */\ntag_30:\n    /* \"#utility.yul\":1009:1015   */\n  0x00\n    /* \"#utility.yul\":1060:1062   */\n  0x1f\n    /* \"#utility.yul\":1056:1063   */\n  not\n    /* \"#utility.yul\":1051:1053   */\n  0x1f\n    /* \"#utility.yul\":1044:1049   */\n  dup4\n    /* \"#utility.yul\":1040:1054   */\n  add\n    /* \"#utility.yul\":1036:1064   */\n  and\n    /* \"#utility.yul\":1026:1064   */\n  swap1\n  pop\n    /* \"#utility.yul\":968:1070   */\n  swap2\n  swap1\n  pop\n  jump\t// out\n    /* \"#utility.yul\":1076:1256   */\ntag_31:\n    /* \"#utility.yul\":1124:1201   */\n  0x4e487b7100000000000000000000000000000000000000000000000000000000\n    /* \"#utility.yul\":1121:1122   */\n  0x00\n    /* \"#utility.yul\":1114:1202   */\n  mstore\n    /* \"#utility.yul\":1221:1225   */\n  0x41\n    /* \"#utility.yul\":1218:1219   */\n  0x04\n    /* \"#utility.yul\":1211:1226   */\n  mstore\n    /* \"#utility.yul\":1245:1249   */\n  0x24\n    /* \"#utility.yul\":1242:1243   */\n  0x00\n    /* \"#utility.yul\":1235:1250   */\n  revert\n    /* \"#utility.yul\":1262:1543   */\ntag_32:\n    /* \"#utility.yul\":1345:1372   */\n  tag_54\n    /* \"#utility.yul\":1367:1371   */\n  dup3\n    /* \"#utility.yul\":1345:1372   */\n  tag_30\n  jump\t// in\ntag_54:\n    /* \"#utility.yul\":1337:1343   */\n  dup2\n    /* \"#utility.yul\":1333:1373   */\n  add\n    /* \"#utility.yul\":1475:1481   */\n  dup2\n    /* \"#utility.yul\":1463:1473   */\n  dup2\n    /* \"#utility.yul\":1460:1482   */\n  lt\n    /* \"#utility.yul\":1439:1457   */\n  0xffffffffffffffff\n    /* \"#utility.yul\":1427:1437   */\n  dup3\n    /* \"#utility.yul\":1424:1458   */\n  gt\n    /* \"#utility.yul\":1421:1483   */\n  or\n    /* \"#utility.yul\":1418:1506   */\n  iszero\n  tag_55\n  jumpi\n    /* \"#utility.yul\":1486:1504   */\n  tag_56\n  tag_31\n  jump\t// in\ntag_56:\n    /* \"#utility.yul\":1418:1506   */\ntag_55:\n    /* \"#utility.yul\":1526:1536   */\n  dup1\n    /* \"#utility.yul\":1522:1524   */\n  0x40\n    /* \"#utility.yul\":1515:1537   */\n  mstore\n    /* \"#utility.yul\":1305:1543   */\n  pop\n    /* \"#utility.yul\":1262:1543   */\n  pop\n  pop\n  jump\t// out\n    /* \"#utility.yul\":1549:1678   */\ntag_33:\n    /* \"#utility.yul\":1583:1589   */\n  0x00\n    /* \"#utility.yul\":1610:1630   */\n  tag_58\n  tag_22\n  jump\t// in\ntag_58:\n    /* \"#utility.yul\":1600:1630   */\n  swap1\n  pop\n    /* \"#utility.yul\":1639:1672   */\n  tag_59\n    /* \"#utility.yul\":1667:1671   */\n  dup3\n    /* \"#utility.yul\":1659:1665   */\n  dup3\n    /* \"#utility.yul\":1639:1672   */\n  tag_32\n  jump\t// in\ntag_59:\n    /* \"#utility.yul\":1549:1678   */\n  swap2\n  swap1\n  pop\n  jump\t// out\n    /* \"#utility.yul\":1684:1995   */\ntag_34:\n    /* \"#utility.yul\":1761:1765   */\n  0x00\n    /* \"#utility.yul\":1851:1869   */\n  0xffffffffffffffff\n    /* \"#utility.yul\":1843:1849   */\n  dup3\n    /* \"#utility.yul\":1840:1870   */\n  gt\n    /* \"#utility.yul\":1837:1893   */\n  iszero\n  tag_61\n  jumpi\n    /* \"#utility.yul\":1873:1891   */\n  tag_62\n  tag_31\n  jump\t// in\ntag_62:\n    /* \"#utility.yul\":1837:1893   */\ntag_61:\n    /* \"#utility.yul\":1923:1927   */\n  0x20\n    /* \"#utility.yul\":1915:1921   */\n  dup3\n    /* \"#utility.yul\":1911:1928   */\n  mul\n    /* \"#utility.yul\":1903:1928   */\n  swap1\n  pop\n    /* \"#utility.yul\":1983:1987   */\n  0x20\n    /* \"#utility.yul\":1977:1981   */\n  dup2\n    /* \"#utility.yul\":1973:1988   */\n  add\n    /* \"#utility.yul\":1965:1988   */\n  swap1\n  pop\n    /* \"#utility.yul\":1684:1995   */\n  swap2\n  swap1\n  pop\n  jump\t// out\n    /* \"#utility.yul\":2001:2118   */\ntag_35:\n    /* \"#utility.yul\":2110:2111   */\n  0x00\n    /* \"#utility.yul\":2107:2108   */\n  0x00\n    /* \"#utility.yul\":2100:2112   */\n  revert\n    /* \"#utility.yul\":2141:2873   */\ntag_36:\n    /* \"#utility.yul\":2248:2253   */\n  0x00\n    /* \"#utility.yul\":2273:2354   */\n  tag_65\n    /* \"#utility.yul\":2289:2353   */\n  tag_66\n    /* \"#utility.yul\":2346:2352   */\n  dup5\n    /* \"#utility.yul\":2289:2353   */\n  tag_34\n  jump\t// in\ntag_66:\n    /* \"#utility.yul\":2273:2354   */\n  tag_33\n  jump\t// in\ntag_65:\n    /* \"#utility.yul\":2264:2354   */\n  swap1\n  pop\n    /* \"#utility.yul\":2374:2379   */\n  dup1\n    /* \"#utility.yul\":2403:2409   */\n  dup4\n    /* \"#utility.yul\":2396:2401   */\n  dup3\n    /* \"#utility.yul\":2389:2410   */\n  mstore\n    /* \"#utility.yul\":2437:2441   */\n  0x20\n    /* \"#utility.yul\":2430:2435   */\n  dup3\n    /* \"#utility.yul\":2426:2442   */\n  add\n    /* \"#utility.yul\":2419:2442   */\n  swap1\n  pop\n    /* \"#utility.yul\":2490:2494   */\n  0x20\n    /* \"#utility.yul\":2482:2488   */\n  dup5\n    /* \"#utility.yul\":2478:2495   */\n  mul\n    /* \"#utility.yul\":2470:2476   */\n  dup4\n    /* \"#utility.yul\":2466:2496   */\n  add\n    /* \"#utility.yul\":2519:2522   */\n  dup6\n    /* \"#utility.yul\":2511:2517   */\n  dup2\n    /* \"#utility.yul\":2508:2523   */\n  gt\n    /* \"#utility.yul\":2505:2627   */\n  iszero\n  tag_67\n  jumpi\n    /* \"#utility.yul\":2538:2617   */\n  tag_68\n  tag_35\n  jump\t// in\ntag_68:\n    /* \"#utility.yul\":2505:2627   */\ntag_67:\n    /* \"#utility.yul\":2653:2659   */\n  dup4\n    /* \"#utility.yul\":2636:2867   */\ntag_69:\n    /* \"#utility.yul\":2670:2676   */\n  dup2\n    /* \"#utility.yul\":2665:2668   */\n  dup2\n    /* \"#utility.yul\":2662:2677   */\n  lt\n    /* \"#utility.yul\":2636:2867   */\n  iszero\n  tag_71\n  jumpi\n    /* \"#utility.yul\":2745:2748   */\n  dup1\n    /* \"#utility.yul\":2774:2822   */\n  tag_72\n    /* \"#utility.yul\":2818:2821   */\n  dup9\n    /* \"#utility.yul\":2806:2816   */\n  dup3\n    /* \"#utility.yul\":2774:2822   */\n  tag_28\n  jump\t// in\ntag_72:\n    /* \"#utility.yul\":2769:2772   */\n  dup5\n    /* \"#utility.yul\":2762:2823   */\n  mstore\n    /* \"#utility.yul\":2852:2856   */\n  0x20\n    /* \"#utility.yul\":2847:2850   */\n  dup5\n    /* \"#utility.yul\":2843:2857   */\n  add\n    /* \"#utility.yul\":2836:2857   */\n  swap4\n  pop\n    /* \"#utility.yul\":2712:2867   */\n  pop\n    /* \"#utility.yul\":2696:2700   */\n  0x20\n    /* \"#utility.yul\":2691:2694   */\n  dup2\n    /* \"#utility.yul\":2687:2701   */\n  add\n    /* \"#utility.yul\":2680:2701   */\n  swap1\n  pop\n    /* \"#utility.yul\":2636:2867   */\n  jump(tag_69)\ntag_71:\n    /* \"#utility.yul\":2640:2661   */\n  pop\n    /* \"#utility.yul\":2254:2873   */\n  pop\n  pop\n    /* \"#utility.yul\":2141:2873   */\n  swap4\n  swap3\n  pop\n  pop\n  pop\n  jump\t// out\n    /* \"#utility.yul\":2896:3281   */\ntag_37:\n    /* \"#utility.yul\":2978:2983   */\n  0x00\n    /* \"#utility.yul\":3027:3030   */\n  dup3\n    /* \"#utility.yul\":3020:3024   */\n  0x1f\n    /* \"#utility.yul\":3012:3018   */\n  dup4\n    /* \"#utility.yul\":3008:3025   */\n  add\n    /* \"#utility.yul\":3004:3031   */\n  slt\n    /* \"#utility.yul\":2994:3116   */\n  tag_74\n  jumpi\n    /* \"#utility.yul\":3035:3114   */\n  tag_75\n  tag_29\n  jump\t// in\ntag_75:\n    /* \"#utility.yul\":2994:3116   */\ntag_74:\n    /* \"#utility.yul\":3145:3151   */\n  dup2\n    /* \"#utility.yul\":3139:3152   */\n  mload\n    /* \"#utility.yul\":3170:3275   */\n  tag_76\n    /* \"#utility.yul\":3271:3274   */\n  dup5\n    /* \"#utility.yul\":3263:3269   */\n  dup3\n    /* \"#utility.yul\":3256:3260   */\n  0x20\n    /* \"#utility.yul\":3248:3254   */\n  dup7\n    /* \"#utility.yul\":3244:3261   */\n  add\n    /* \"#utility.yul\":3170:3275   */\n  tag_36\n  jump\t// in\ntag_76:\n    /* \"#utility.yul\":3161:3275   */\n  swap2\n  pop\n    /* \"#utility.yul\":2984:3281   */\n  pop\n    /* \"#utility.yul\":2896:3281   */\n  swap3\n  swap2\n  pop\n  pop\n  jump\t// out\n    /* \"#utility.yul\":3287:4356   */\ntag_3:\n    /* \"#utility.yul\":3425:3431   */\n  0x00\n    /* \"#utility.yul\":3433:3439   */\n  0x00\n    /* \"#utility.yul\":3441:3447   */\n  0x00\n    /* \"#utility.yul\":3490:3492   */\n  0x60\n    /* \"#utility.yul\":3478:3487   */\n  dup5\n    /* \"#utility.yul\":3469:3476   */\n  dup7\n    /* \"#utility.yul\":3465:3488   */\n  sub\n    /* \"#utility.yul\":3461:3493   */\n  slt\n    /* \"#utility.yul\":3458:3577   */\n  iszero\n  tag_78\n  jumpi\n    /* \"#utility.yul\":3496:3575   */\n  tag_79\n  tag_23\n  jump\t// in\ntag_79:\n    /* \"#utility.yul\":3458:3577   */\ntag_78:\n    /* \"#utility.yul\":3616:3617   */\n  0x00\n    /* \"#utility.yul\":3641:3705   */\n  tag_80\n    /* \"#utility.yul\":3697:3704   */\n  dup7\n    /* \"#utility.yul\":3688:3694   */\n  dup3\n    /* \"#utility.yul\":3677:3686   */\n  dup8\n    /* \"#utility.yul\":3673:3695   */\n  add\n    /* \"#utility.yul\":3641:3705   */\n  tag_28\n  jump\t// in\ntag_80:\n    /* \"#utility.yul\":3631:3705   */\n  swap4\n  pop\n    /* \"#utility.yul\":3587:3715   */\n  pop\n    /* \"#utility.yul\":3775:3777   */\n  0x20\n    /* \"#utility.yul\":3764:3773   */\n  dup5\n    /* \"#utility.yul\":3760:3778   */\n  add\n    /* \"#utility.yul\":3754:3779   */\n  mload\n    /* \"#utility.yul\":3806:3824   */\n  0xffffffffffffffff\n    /* \"#utility.yul\":3798:3804   */\n  dup2\n    /* \"#utility.yul\":3795:3825   */\n  gt\n    /* \"#utility.yul\":3792:3909   */\n  iszero\n  tag_81\n  jumpi\n    /* \"#utility.yul\":3828:3907   */\n  tag_82\n  tag_24\n  jump\t// in\ntag_82:\n    /* \"#utility.yul\":3792:3909   */\ntag_81:\n    /* \"#utility.yul\":3933:4022   */\n  tag_83\n    /* \"#utility.yul\":4014:4021   */\n  dup7\n    /* \"#utility.yul\":4005:4011   */\n  dup3\n    /* \"#utility.yul\":3994:4003   */\n  dup8\n    /* \"#utility.yul\":3990:4012   */\n  add\n    /* \"#utility.yul\":3933:4022   */\n  tag_37\n  jump\t// in\ntag_83:\n    /* \"#utility.yul\":3923:4022   */\n  swap3\n  pop\n    /* \"#utility.yul\":3725:4032   */\n  pop\n    /* \"#utility.yul\":4092:4094   */\n  0x40\n    /* \"#utility.yul\":4081:4090   */\n  dup5\n    /* \"#utility.yul\":4077:4095   */\n  add\n    /* \"#utility.yul\":4071:4096   */\n  mload\n    /* \"#utility.yul\":4123:4141   */\n  0xffffffffffffffff\n    /* \"#utility.yul\":4115:4121   */\n  dup2\n    /* \"#utility.yul\":4112:4142   */\n  gt\n    /* \"#utility.yul\":4109:4226   */\n  iszero\n  tag_84\n  jumpi\n    /* \"#utility.yul\":4145:4224   */\n  tag_85\n  tag_24\n  jump\t// in\ntag_85:\n    /* \"#utility.yul\":4109:4226   */\ntag_84:\n    /* \"#utility.yul\":4250:4339   */\n  tag_86\n    /* \"#utility.yul\":4331:4338   */\n  dup7\n    /* \"#utility.yul\":4322:4328   */\n  dup3\n    /* \"#utility.yul\":4311:4320   */\n  dup8\n    /* \"#utility.yul\":4307:4329   */\n  add\n    /* \"#utility.yul\":4250:4339   */\n  tag_37\n  jump\t// in\ntag_86:\n    /* \"#utility.yul\":4240:4339   */\n  swap2\n  pop\n    /* \"#utility.yul\":4042:4349   */\n  pop\n    /* \"#utility.yul\":3287:4356   */\n  swap3\n  pop\n  swap3\n  pop\n  swap3\n  jump\t// out\n    /* \"#utility.yul\":4362:4542   */\ntag_15:\n    /* \"#utility.yul\":4410:4487   */\n  0x4e487b7100000000000000000000000000000000000000000000000000000000\n    /* \"#utility.yul\":4407:4408   */\n  0x00\n    /* \"#utility.yul\":4400:4488   */\n  mstore\n    /* \"#utility.yul\":4507:4511   */\n  0x32\n    /* \"#utility.yul\":4504:4505   */\n  0x04\n    /* \"#utility.yul\":4497:4512   */\n  mstore\n    /* \"#utility.yul\":4531:4535   */\n  0x24\n    /* \"#utility.yul\":4528:4529   */\n  0x00\n    /* \"#utility.yul\":4521:4536   */\n  revert\n    /* \"src/DSCEngine.sol\":1710:7038  contract DSCEngine is ReentrancyGuard {... */\ntag_21:\n  mload(0x80)\n  codecopy(0x00, dataOffset(sub_0), dataSize(sub_0))\n  0x00\n  assignImmutable(\"0xea1c3a463a334d4502a6bc7c1ce6676ab071cb26e08d8d603278a360d97dc14c\")\n  return(0x00, dataSize(sub_0))\nstop\n\nsub_0: assembly {\n        /* \"src/DSCEngine.sol\":1710:7038  contract DSCEngine is ReentrancyGuard {... */\n      mstore(0x40, 0x80)\n      callvalue\n      dup1\n      iszero\n      tag_1\n      jumpi\n      revert(0x00, 0x00)\n    tag_1:\n      pop\n      jumpi(tag_2, lt(calldatasize, 0x04))\n      shr(0xe0, calldataload(0x00))\n      dup1\n      0xa5d5db0c\n      gt\n      tag_19\n      jumpi\n      dup1\n      0xc9457f6d\n      gt\n      tag_20\n      jumpi\n      dup1\n      0xc9457f6d\n      eq\n      tag_15\n      jumpi\n      dup1\n      0xc9b7c327\n      eq\n      tag_16\n      jumpi\n      dup1\n      0xfa76dcf2\n      eq\n      tag_17\n      jumpi\n      dup1\n      0xffde1fba\n      eq\n      tag_18\n      jumpi\n      jump(tag_2)\n    tag_20:\n      dup1\n      0xa5d5db0c\n      eq\n      tag_11\n      jumpi\n      dup1\n      0xa5f352b7\n      eq\n      tag_12\n      jumpi\n      dup1\n      0xaaf5eb68\n      eq\n      tag_13\n      jumpi\n      dup1\n      0xc601676c\n      eq\n      tag_14\n      jumpi\n      jump(tag_2)\n    tag_19:\n      dup1\n      0x7d1a4450\n      gt\n      tag_21\n      jumpi\n      dup1\n      0x7d1a4450\n      eq\n      tag_7\n      jumpi\n      dup1\n      0x90a8ae9b\n      eq\n      tag_8\n      jumpi\n      dup1\n      0x9d45ac89\n      eq\n      tag_9\n      jumpi\n      dup1\n      0x9e297554\n      eq\n      tag_10\n      jumpi\n      jump(tag_2)\n    tag_21:\n      dup1\n      0x28a07025\n      eq\n      tag_3\n      jumpi\n      dup1\n      0x50328a60\n      eq\n      tag_4\n      jumpi\n      dup1\n      0x5e338bb3\n      eq\n      tag_5\n      jumpi\n      dup1\n      0x65079d77\n      eq\n      tag_6\n      jumpi\n    tag_2:\n      revert(0x00, 0x00)\n        /* \"src/DSCEngine.sol\":5268:5300  function liquidate() external {} */\n    tag_3:\n      tag_22\n      tag_23\n      jump\t// in\n    tag_22:\n      stop\n        /* \"src/DSCEngine.sol\":3871:3991  function depositCollateralAndMintDsc(address _tokenCollateralAddress, uint256 _collateralAmount)... */\n    tag_4:\n      tag_24\n      0x04\n      dup1\n      calldatasize\n      sub\n      dup2\n      add\n      swap1\n      tag_25\n      swap2\n      swap1\n      tag_26\n      jump\t// in\n    tag_25:\n      tag_27\n      jump\t// in\n    tag_24:\n      stop\n        /* \"src/DSCEngine.sol\":2135:2181  DecentralizedStableCoin public immutable i_dsc */\n    tag_5:\n      tag_28\n      tag_29\n      jump\t// in\n    tag_28:\n      mload(0x40)\n      tag_30\n      swap2\n      swap1\n      tag_31\n      jump\t// in\n    tag_30:\n      mload(0x40)\n      dup1\n      swap2\n      sub\n      swap1\n      return\n        /* \"src/DSCEngine.sol\":2187:2241  uint256 public constant ADDITION_FEED_PRECISION = 1e10 */\n    tag_6:\n      tag_32\n      tag_33\n      jump\t// in\n    tag_32:\n      mload(0x40)\n      tag_34\n      swap2\n      swap1\n      tag_35\n      jump\t// in\n    tag_34:\n      mload(0x40)\n      dup1\n      swap2\n      sub\n      swap1\n      return\n        /* \"src/DSCEngine.sol\":6264:6675  function getAccountCollateralValue(address _user) public view returns(uint256 totalCollateralValueInUsd){... */\n    tag_7:\n      tag_36\n      0x04\n      dup1\n      calldatasize\n      sub\n      dup2\n      add\n      swap1\n      tag_37\n      swap2\n      swap1\n      tag_38\n      jump\t// in\n    tag_37:\n      tag_39\n      jump\t// in\n    tag_36:\n      mload(0x40)\n      tag_40\n      swap2\n      swap1\n      tag_35\n      jump\t// in\n    tag_40:\n      mload(0x40)\n      dup1\n      swap2\n      sub\n      swap1\n      return\n        /* \"src/DSCEngine.sol\":2293:2343  uint256 public constant LIQUIDATION_THRESHOLD = 50 */\n    tag_8:\n      tag_41\n      tag_42\n      jump\t// in\n    tag_41:\n      mload(0x40)\n      tag_43\n      swap2\n      swap1\n      tag_35\n      jump\t// in\n    tag_43:\n      mload(0x40)\n      dup1\n      swap2\n      sub\n      swap1\n      return\n        /* \"src/DSCEngine.sol\":2349:2400  uint256 public constant LIQUIDATION_PRECISION = 100 */\n    tag_9:\n      tag_44\n      tag_45\n      jump\t// in\n    tag_44:\n      mload(0x40)\n      tag_46\n      swap2\n      swap1\n      tag_35\n      jump\t// in\n    tag_46:\n      mload(0x40)\n      dup1\n      swap2\n      sub\n      swap1\n      return\n        /* \"src/DSCEngine.sol\":4641:4686  function redeemCollateralForDsc() external {} */\n    tag_10:\n      tag_47\n      tag_48\n      jump\t// in\n    tag_47:\n      stop\n        /* \"src/DSCEngine.sol\":3997:4635  function depositCollateral(address _tokenCollateralAddress, uint256 _collateralAmount)... */\n    tag_11:\n      tag_49\n      0x04\n      dup1\n      calldatasize\n      sub\n      dup2\n      add\n      swap1\n      tag_50\n      swap2\n      swap1\n      tag_26\n      jump\t// in\n    tag_50:\n      tag_51\n      jump\t// in\n    tag_49:\n      stop\n        /* \"src/DSCEngine.sol\":6215:6258  function getHealthFactor() external view {} */\n    tag_12:\n      tag_52\n      tag_53\n      jump\t// in\n    tag_52:\n      stop\n        /* \"src/DSCEngine.sol\":2247:2287  uint256 public constant PRECISION = 1e18 */\n    tag_13:\n      tag_54\n      tag_55\n      jump\t// in\n    tag_54:\n      mload(0x40)\n      tag_56\n      swap2\n      swap1\n      tag_35\n      jump\t// in\n    tag_56:\n      mload(0x40)\n      dup1\n      swap2\n      sub\n      swap1\n      return\n        /* \"src/DSCEngine.sol\":2406:2450  uint256 public constant MIN_HEALT_FACTOR = 1 */\n    tag_14:\n      tag_57\n      tag_58\n      jump\t// in\n    tag_57:\n      mload(0x40)\n      tag_59\n      swap2\n      swap1\n      tag_35\n      jump\t// in\n    tag_59:\n      mload(0x40)\n      dup1\n      swap2\n      sub\n      swap1\n      return\n        /* \"src/DSCEngine.sol\":4692:4732  function redeemCollateralc() external {} */\n    tag_15:\n      tag_60\n      tag_61\n      jump\t// in\n    tag_60:\n      stop\n        /* \"src/DSCEngine.sol\":4878:5226  function mintDsc(uint256 _amountDscToMint) external moreThanZero(_amountDscToMint) nonReentrant{... */\n    tag_16:\n      tag_62\n      0x04\n      dup1\n      calldatasize\n      sub\n      dup2\n      add\n      swap1\n      tag_63\n      swap2\n      swap1\n      tag_64\n      jump\t// in\n    tag_63:\n      tag_65\n      jump\t// in\n    tag_62:\n      stop\n        /* \"src/DSCEngine.sol\":6681:7036  function getUSDValue(address _token, uint256 _amount) public view isAllowedCollateral(_token) returns(uint256){... */\n    tag_17:\n      tag_66\n      0x04\n      dup1\n      calldatasize\n      sub\n      dup2\n      add\n      swap1\n      tag_67\n      swap2\n      swap1\n      tag_26\n      jump\t// in\n    tag_67:\n      tag_68\n      jump\t// in\n    tag_66:\n      mload(0x40)\n      tag_69\n      swap2\n      swap1\n      tag_35\n      jump\t// in\n    tag_69:\n      mload(0x40)\n      dup1\n      swap2\n      sub\n      swap1\n      return\n        /* \"src/DSCEngine.sol\":5232:5262  function burnDsc() external {} */\n    tag_18:\n      tag_70\n      tag_71\n      jump\t// in\n    tag_70:\n      stop\n        /* \"src/DSCEngine.sol\":5268:5300  function liquidate() external {} */\n    tag_23:\n      jump\t// out\n        /* \"src/DSCEngine.sol\":3871:3991  function depositCollateralAndMintDsc(address _tokenCollateralAddress, uint256 _collateralAmount)... */\n    tag_27:\n      pop\n      pop\n      jump\t// out\n        /* \"src/DSCEngine.sol\":2135:2181  DecentralizedStableCoin public immutable i_dsc */\n    tag_29:\n      immutable(\"0xea1c3a463a334d4502a6bc7c1ce6676ab071cb26e08d8d603278a360d97dc14c\")\n      dup2\n      jump\t// out\n        /* \"src/DSCEngine.sol\":2187:2241  uint256 public constant ADDITION_FEED_PRECISION = 1e10 */\n    tag_33:\n        /* \"src/DSCEngine.sol\":2237:2241  1e10 */\n      0x02540be400\n        /* \"src/DSCEngine.sol\":2187:2241  uint256 public constant ADDITION_FEED_PRECISION = 1e10 */\n      dup2\n      jump\t// out\n        /* \"src/DSCEngine.sol\":6264:6675  function getAccountCollateralValue(address _user) public view returns(uint256 totalCollateralValueInUsd){... */\n    tag_39:\n        /* \"src/DSCEngine.sol\":6334:6367  uint256 totalCollateralValueInUsd */\n      0x00\n        /* \"src/DSCEngine.sol\":6382:6391  uint256 i */\n      0x00\n        /* \"src/DSCEngine.sol\":6393:6394  0 */\n      0x00\n        /* \"src/DSCEngine.sol\":6382:6394  uint256 i= 0 */\n      swap1\n      pop\n        /* \"src/DSCEngine.sol\":6378:6627  for(uint256 i= 0; i> s_collateralTokens.length; i++){... */\n    tag_75:\n        /* \"src/DSCEngine.sol\":6399:6417  s_collateralTokens */\n      0x04\n        /* \"src/DSCEngine.sol\":6399:6424  s_collateralTokens.length */\n      dup1\n      sload\n      swap1\n      pop\n        /* \"src/DSCEngine.sol\":6396:6397  i */\n      dup2\n        /* \"src/DSCEngine.sol\":6396:6424  i> s_collateralTokens.length */\n      gt\n        /* \"src/DSCEngine.sol\":6378:6627  for(uint256 i= 0; i> s_collateralTokens.length; i++){... */\n      iszero\n      tag_76\n      jumpi\n        /* \"src/DSCEngine.sol\":6444:6457  address token */\n      0x00\n        /* \"src/DSCEngine.sol\":6460:6478  s_collateralTokens */\n      0x04\n        /* \"src/DSCEngine.sol\":6479:6480  i */\n      dup3\n        /* \"src/DSCEngine.sol\":6460:6481  s_collateralTokens[i] */\n      dup2\n      sload\n      dup2\n      lt\n      tag_78\n      jumpi\n      tag_79\n      tag_80\n      jump\t// in\n    tag_79:\n    tag_78:\n      swap1\n      0x00\n      mstore\n      keccak256(0x00, 0x20)\n      add\n      0x00\n      swap1\n      sload\n      swap1\n      0x0100\n      exp\n      swap1\n      div\n      0xffffffffffffffffffffffffffffffffffffffff\n      and\n        /* \"src/DSCEngine.sol\":6444:6481  address token = s_collateralTokens[i] */\n      swap1\n      pop\n        /* \"src/DSCEngine.sol\":6495:6509  uint256 amount */\n      0x00\n        /* \"src/DSCEngine.sol\":6512:6533  s_collateralDeposited */\n      0x02\n        /* \"src/DSCEngine.sol\":6512:6540  s_collateralDeposited[_user] */\n      0x00\n        /* \"src/DSCEngine.sol\":6534:6539  _user */\n      dup7\n        /* \"src/DSCEngine.sol\":6512:6540  s_collateralDeposited[_user] */\n      0xffffffffffffffffffffffffffffffffffffffff\n      and\n      0xffffffffffffffffffffffffffffffffffffffff\n      and\n      dup2\n      mstore\n      0x20\n      add\n      swap1\n      dup2\n      mstore\n      0x20\n      add\n      0x00\n      keccak256\n        /* \"src/DSCEngine.sol\":6512:6547  s_collateralDeposited[_user][token] */\n      0x00\n        /* \"src/DSCEngine.sol\":6541:6546  token */\n      dup4\n        /* \"src/DSCEngine.sol\":6512:6547  s_collateralDeposited[_user][token] */\n      0xffffffffffffffffffffffffffffffffffffffff\n      and\n      0xffffffffffffffffffffffffffffffffffffffff\n      and\n      dup2\n      mstore\n      0x20\n      add\n      swap1\n      dup2\n      mstore\n      0x20\n      add\n      0x00\n      keccak256\n      sload\n        /* \"src/DSCEngine.sol\":6495:6547  uint256 amount = s_collateralDeposited[_user][token] */\n      swap1\n      pop\n        /* \"src/DSCEngine.sol\":6590:6616  getUSDValue(token, amount) */\n      tag_82\n        /* \"src/DSCEngine.sol\":6602:6607  token */\n      dup3\n        /* \"src/DSCEngine.sol\":6609:6615  amount */\n      dup3\n        /* \"src/DSCEngine.sol\":6590:6601  getUSDValue */\n      tag_68\n        /* \"src/DSCEngine.sol\":6590:6616  getUSDValue(token, amount) */\n      jump\t// in\n    tag_82:\n        /* \"src/DSCEngine.sol\":6561:6616  totalCollateralValueInUsd += getUSDValue(token, amount) */\n      dup5\n      tag_83\n      swap2\n      swap1\n      tag_84\n      jump\t// in\n    tag_83:\n      swap4\n      pop\n        /* \"src/DSCEngine.sol\":6430:6627  {... */\n      pop\n      pop\n        /* \"src/DSCEngine.sol\":6426:6429  i++ */\n      dup1\n      dup1\n      tag_85\n      swap1\n      tag_86\n      jump\t// in\n    tag_85:\n      swap2\n      pop\n      pop\n        /* \"src/DSCEngine.sol\":6378:6627  for(uint256 i= 0; i> s_collateralTokens.length; i++){... */\n      jump(tag_75)\n    tag_76:\n      pop\n        /* \"src/DSCEngine.sol\":6264:6675  function getAccountCollateralValue(address _user) public view returns(uint256 totalCollateralValueInUsd){... */\n      swap2\n      swap1\n      pop\n      jump\t// out\n        /* \"src/DSCEngine.sol\":2293:2343  uint256 public constant LIQUIDATION_THRESHOLD = 50 */\n    tag_42:\n        /* \"src/DSCEngine.sol\":2341:2343  50 */\n      0x32\n        /* \"src/DSCEngine.sol\":2293:2343  uint256 public constant LIQUIDATION_THRESHOLD = 50 */\n      dup2\n      jump\t// out\n        /* \"src/DSCEngine.sol\":2349:2400  uint256 public constant LIQUIDATION_PRECISION = 100 */\n    tag_45:\n        /* \"src/DSCEngine.sol\":2397:2400  100 */\n      0x64\n        /* \"src/DSCEngine.sol\":2349:2400  uint256 public constant LIQUIDATION_PRECISION = 100 */\n      dup2\n      jump\t// out\n        /* \"src/DSCEngine.sol\":4641:4686  function redeemCollateralForDsc() external {} */\n    tag_48:\n      jump\t// out\n        /* \"src/DSCEngine.sol\":3997:4635  function depositCollateral(address _tokenCollateralAddress, uint256 _collateralAmount)... */\n    tag_51:\n        /* \"src/DSCEngine.sol\":4122:4139  _collateralAmount */\n      dup1\n        /* \"src/DSCEngine.sol\":2956:2957  0 */\n      0x00\n        /* \"src/DSCEngine.sol\":2946:2952  amount */\n      dup2\n        /* \"src/DSCEngine.sol\":2946:2957  amount == 0 */\n      sub\n        /* \"src/DSCEngine.sol\":2942:3021  if (amount == 0) {... */\n      tag_89\n      jumpi\n        /* \"src/DSCEngine.sol\":2980:3010  DSCEngine__NeedsMoreThanZero() */\n      mload(0x40)\n      0xcb1d3f7d00000000000000000000000000000000000000000000000000000000\n      dup2\n      mstore\n      0x04\n      add\n      mload(0x40)\n      dup1\n      swap2\n      sub\n      swap1\n      revert\n        /* \"src/DSCEngine.sol\":2942:3021  if (amount == 0) {... */\n    tag_89:\n        /* \"src/DSCEngine.sol\":4169:4192  _tokenCollateralAddress */\n      dup3\n        /* \"src/DSCEngine.sol\":3135:3136  0 */\n      0x00\n        /* \"src/DSCEngine.sol\":3103:3137  s_priceFeeds[_token] == address(0) */\n      0xffffffffffffffffffffffffffffffffffffffff\n      and\n        /* \"src/DSCEngine.sol\":3103:3115  s_priceFeeds */\n      0x01\n        /* \"src/DSCEngine.sol\":3103:3123  s_priceFeeds[_token] */\n      0x00\n        /* \"src/DSCEngine.sol\":3116:3122  _token */\n      dup4\n        /* \"src/DSCEngine.sol\":3103:3123  s_priceFeeds[_token] */\n      0xffffffffffffffffffffffffffffffffffffffff\n      and\n      0xffffffffffffffffffffffffffffffffffffffff\n      and\n      dup2\n      mstore\n      0x20\n      add\n      swap1\n      dup2\n      mstore\n      0x20\n      add\n      0x00\n      keccak256\n      0x00\n      swap1\n      sload\n      swap1\n      0x0100\n      exp\n      swap1\n      div\n      0xffffffffffffffffffffffffffffffffffffffff\n      and\n        /* \"src/DSCEngine.sol\":3103:3137  s_priceFeeds[_token] == address(0) */\n      0xffffffffffffffffffffffffffffffffffffffff\n      and\n      sub\n        /* \"src/DSCEngine.sol\":3099:3199  if (s_priceFeeds[_token] == address(0)) {... */\n      tag_91\n      jumpi\n        /* \"src/DSCEngine.sol\":3160:3188  DSCEngine__NotAllowedToken() */\n      mload(0x40)\n      0xa802cfbe00000000000000000000000000000000000000000000000000000000\n      dup2\n      mstore\n      0x04\n      add\n      mload(0x40)\n      dup1\n      swap2\n      sub\n      swap1\n      revert\n        /* \"src/DSCEngine.sol\":3099:3199  if (s_priceFeeds[_token] == address(0)) {... */\n    tag_91:\n        /* \"@openzeppelin/contracts/utils/ReentrancyGuard.sol\":2500:2521  _nonReentrantBefore() */\n      tag_93\n        /* \"@openzeppelin/contracts/utils/ReentrancyGuard.sol\":2500:2519  _nonReentrantBefore */\n      tag_94\n        /* \"@openzeppelin/contracts/utils/ReentrancyGuard.sol\":2500:2521  _nonReentrantBefore() */\n      jump\t// in\n    tag_93:\n        /* \"src/DSCEngine.sol\":4291:4308  _collateralAmount */\n      dup3\n        /* \"src/DSCEngine.sol\":4229:4250  s_collateralDeposited */\n      0x02\n        /* \"src/DSCEngine.sol\":4229:4262  s_collateralDeposited[msg.sender] */\n      0x00\n        /* \"src/DSCEngine.sol\":4251:4261  msg.sender */\n      caller\n        /* \"src/DSCEngine.sol\":4229:4262  s_collateralDeposited[msg.sender] */\n      0xffffffffffffffffffffffffffffffffffffffff\n      and\n      0xffffffffffffffffffffffffffffffffffffffff\n      and\n      dup2\n      mstore\n      0x20\n      add\n      swap1\n      dup2\n      mstore\n      0x20\n      add\n      0x00\n      keccak256\n        /* \"src/DSCEngine.sol\":4229:4287  s_collateralDeposited[msg.sender][_tokenCollateralAddress] */\n      0x00\n        /* \"src/DSCEngine.sol\":4263:4286  _tokenCollateralAddress */\n      dup7\n        /* \"src/DSCEngine.sol\":4229:4287  s_collateralDeposited[msg.sender][_tokenCollateralAddress] */\n      0xffffffffffffffffffffffffffffffffffffffff\n      and\n      0xffffffffffffffffffffffffffffffffffffffff\n      and\n      dup2\n      mstore\n      0x20\n      add\n      swap1\n      dup2\n      mstore\n      0x20\n      add\n      0x00\n      keccak256\n      0x00\n        /* \"src/DSCEngine.sol\":4229:4308  s_collateralDeposited[msg.sender][_tokenCollateralAddress] += _collateralAmount */\n      dup3\n      dup3\n      sload\n      tag_96\n      swap2\n      swap1\n      tag_84\n      jump\t// in\n    tag_96:\n      swap3\n      pop\n      pop\n      dup2\n      swap1\n      sstore\n      pop\n        /* \"src/DSCEngine.sol\":4318:4330  bool success */\n      0x00\n        /* \"src/DSCEngine.sol\":4340:4363  _tokenCollateralAddress */\n      dup5\n        /* \"src/DSCEngine.sol\":4333:4377  IERC20(_tokenCollateralAddress).transferFrom */\n      0xffffffffffffffffffffffffffffffffffffffff\n      and\n      0x23b872dd\n        /* \"src/DSCEngine.sol\":4378:4388  msg.sender */\n      caller\n        /* \"src/DSCEngine.sol\":4398:4402  this */\n      address\n        /* \"src/DSCEngine.sol\":4405:4422  _collateralAmount */\n      dup8\n        /* \"src/DSCEngine.sol\":4333:4423  IERC20(_tokenCollateralAddress).transferFrom(msg.sender, address(this), _collateralAmount) */\n      mload(0x40)\n      dup5\n      0xffffffff\n      and\n      0xe0\n      shl\n      dup2\n      mstore\n      0x04\n      add\n      tag_97\n      swap4\n      swap3\n      swap2\n      swap1\n      tag_98\n      jump\t// in\n    tag_97:\n      0x20\n      mload(0x40)\n      dup1\n      dup4\n      sub\n      dup2\n      0x00\n      dup8\n      gas\n      call\n      iszero\n      dup1\n      iszero\n      tag_100\n      jumpi\n      returndatacopy(0x00, 0x00, returndatasize)\n      revert(0x00, returndatasize)\n    tag_100:\n      pop\n      pop\n      pop\n      pop\n      mload(0x40)\n      returndatasize\n      not(0x1f)\n      0x1f\n      dup3\n      add\n      and\n      dup3\n      add\n      dup1\n      0x40\n      mstore\n      pop\n      dup2\n      add\n      swap1\n      tag_101\n      swap2\n      swap1\n      tag_102\n      jump\t// in\n    tag_101:\n        /* \"src/DSCEngine.sol\":4318:4423  bool success = IERC20(_tokenCollateralAddress).transferFrom(msg.sender, address(this), _collateralAmount) */\n      swap1\n      pop\n        /* \"src/DSCEngine.sol\":4438:4445  success */\n      dup1\n        /* \"src/DSCEngine.sol\":4433:4538  if (!success) {... */\n      tag_103\n      jumpi\n        /* \"src/DSCEngine.sol\":4503:4526  _tokenCollateralAddress */\n      dup5\n        /* \"src/DSCEngine.sol\":4468:4527  DSCEngine__CollateralDepositFailed(_tokenCollateralAddress) */\n      mload(0x40)\n      0xbc3fe12700000000000000000000000000000000000000000000000000000000\n      dup2\n      mstore\n      0x04\n      add\n      tag_104\n      swap2\n      swap1\n      tag_105\n      jump\t// in\n    tag_104:\n      mload(0x40)\n      dup1\n      swap2\n      sub\n      swap1\n      revert\n        /* \"src/DSCEngine.sol\":4433:4538  if (!success) {... */\n    tag_103:\n        /* \"src/DSCEngine.sol\":4610:4627  _collateralAmount */\n      dup4\n        /* \"src/DSCEngine.sol\":4585:4608  _tokenCollateralAddress */\n      dup6\n        /* \"src/DSCEngine.sol\":4553:4628  CollateralDeposited(msg.sender, _tokenCollateralAddress, _collateralAmount) */\n      0xffffffffffffffffffffffffffffffffffffffff\n      and\n        /* \"src/DSCEngine.sol\":4573:4583  msg.sender */\n      caller\n        /* \"src/DSCEngine.sol\":4553:4628  CollateralDeposited(msg.sender, _tokenCollateralAddress, _collateralAmount) */\n      0xffffffffffffffffffffffffffffffffffffffff\n      and\n      0xf1c0dd7e9b98bbff859029005ef89b127af049cd18df1a8d79f0b7e019911e56\n      mload(0x40)\n      mload(0x40)\n      dup1\n      swap2\n      sub\n      swap1\n      log4\n        /* \"src/DSCEngine.sol\":4219:4635  {... */\n      pop\n        /* \"@openzeppelin/contracts/utils/ReentrancyGuard.sol\":2542:2562  _nonReentrantAfter() */\n      tag_106\n        /* \"@openzeppelin/contracts/utils/ReentrancyGuard.sol\":2542:2560  _nonReentrantAfter */\n      tag_107\n        /* \"@openzeppelin/contracts/utils/ReentrancyGuard.sol\":2542:2562  _nonReentrantAfter() */\n      jump\t// in\n    tag_106:\n        /* \"src/DSCEngine.sol\":3030:3031  _ */\n      pop\n        /* \"src/DSCEngine.sol\":3997:4635  function depositCollateral(address _tokenCollateralAddress, uint256 _collateralAmount)... */\n      pop\n      pop\n      pop\n      jump\t// out\n        /* \"src/DSCEngine.sol\":6215:6258  function getHealthFactor() external view {} */\n    tag_53:\n      jump\t// out\n        /* \"src/DSCEngine.sol\":2247:2287  uint256 public constant PRECISION = 1e18 */\n    tag_55:\n        /* \"src/DSCEngine.sol\":2283:2287  1e18 */\n      0x0de0b6b3a7640000\n        /* \"src/DSCEngine.sol\":2247:2287  uint256 public constant PRECISION = 1e18 */\n      dup2\n      jump\t// out\n        /* \"src/DSCEngine.sol\":2406:2450  uint256 public constant MIN_HEALT_FACTOR = 1 */\n    tag_58:\n        /* \"src/DSCEngine.sol\":2449:2450  1 */\n      0x01\n        /* \"src/DSCEngine.sol\":2406:2450  uint256 public constant MIN_HEALT_FACTOR = 1 */\n      dup2\n      jump\t// out\n        /* \"src/DSCEngine.sol\":4692:4732  function redeemCollateralc() external {} */\n    tag_61:\n      jump\t// out\n        /* \"src/DSCEngine.sol\":4878:5226  function mintDsc(uint256 _amountDscToMint) external moreThanZero(_amountDscToMint) nonReentrant{... */\n    tag_65:\n        /* \"src/DSCEngine.sol\":4943:4959  _amountDscToMint */\n      dup1\n        /* \"src/DSCEngine.sol\":2956:2957  0 */\n      0x00\n        /* \"src/DSCEngine.sol\":2946:2952  amount */\n      dup2\n        /* \"src/DSCEngine.sol\":2946:2957  amount == 0 */\n      sub\n        /* \"src/DSCEngine.sol\":2942:3021  if (amount == 0) {... */\n      tag_111\n      jumpi\n        /* \"src/DSCEngine.sol\":2980:3010  DSCEngine__NeedsMoreThanZero() */\n      mload(0x40)\n      0xcb1d3f7d00000000000000000000000000000000000000000000000000000000\n      dup2\n      mstore\n      0x04\n      add\n      mload(0x40)\n      dup1\n      swap2\n      sub\n      swap1\n      revert\n        /* \"src/DSCEngine.sol\":2942:3021  if (amount == 0) {... */\n    tag_111:\n        /* \"@openzeppelin/contracts/utils/ReentrancyGuard.sol\":2500:2521  _nonReentrantBefore() */\n      tag_113\n        /* \"@openzeppelin/contracts/utils/ReentrancyGuard.sol\":2500:2519  _nonReentrantBefore */\n      tag_94\n        /* \"@openzeppelin/contracts/utils/ReentrancyGuard.sol\":2500:2521  _nonReentrantBefore() */\n      jump\t// in\n    tag_113:\n        /* \"src/DSCEngine.sol\":5010:5026  _amountDscToMint */\n      dup2\n        /* \"src/DSCEngine.sol\":4983:4994  s_DscMinted */\n      0x03\n        /* \"src/DSCEngine.sol\":4983:5006  s_DscMinted[msg.sender] */\n      0x00\n        /* \"src/DSCEngine.sol\":4995:5005  msg.sender */\n      caller\n        /* \"src/DSCEngine.sol\":4983:5006  s_DscMinted[msg.sender] */\n      0xffffffffffffffffffffffffffffffffffffffff\n      and\n      0xffffffffffffffffffffffffffffffffffffffff\n      and\n      dup2\n      mstore\n      0x20\n      add\n      swap1\n      dup2\n      mstore\n      0x20\n      add\n      0x00\n      keccak256\n      0x00\n        /* \"src/DSCEngine.sol\":4983:5026  s_DscMinted[msg.sender] += _amountDscToMint */\n      dup3\n      dup3\n      sload\n      tag_115\n      swap2\n      swap1\n      tag_84\n      jump\t// in\n    tag_115:\n      swap3\n      pop\n      pop\n      dup2\n      swap1\n      sstore\n      pop\n        /* \"src/DSCEngine.sol\":5036:5077  _revertIfHealthFactorIsBroken(msg.sender) */\n      tag_116\n        /* \"src/DSCEngine.sol\":5066:5076  msg.sender */\n      caller\n        /* \"src/DSCEngine.sol\":5036:5065  _revertIfHealthFactorIsBroken */\n      tag_117\n        /* \"src/DSCEngine.sol\":5036:5077  _revertIfHealthFactorIsBroken(msg.sender) */\n      jump\t// in\n    tag_116:\n        /* \"src/DSCEngine.sol\":5087:5098  bool minted */\n      0x00\n        /* \"src/DSCEngine.sol\":5101:5106  i_dsc */\n      immutable(\"0xea1c3a463a334d4502a6bc7c1ce6676ab071cb26e08d8d603278a360d97dc14c\")\n        /* \"src/DSCEngine.sol\":5101:5111  i_dsc.mint */\n      0xffffffffffffffffffffffffffffffffffffffff\n      and\n      0x40c10f19\n        /* \"src/DSCEngine.sol\":5112:5122  msg.sender */\n      caller\n        /* \"src/DSCEngine.sol\":5124:5140  _amountDscToMint */\n      dup6\n        /* \"src/DSCEngine.sol\":5101:5141  i_dsc.mint(msg.sender, _amountDscToMint) */\n      mload(0x40)\n      dup4\n      0xffffffff\n      and\n      0xe0\n      shl\n      dup2\n      mstore\n      0x04\n      add\n      tag_118\n      swap3\n      swap2\n      swap1\n      tag_119\n      jump\t// in\n    tag_118:\n      0x20\n      mload(0x40)\n      dup1\n      dup4\n      sub\n      dup2\n      0x00\n      dup8\n      gas\n      call\n      iszero\n      dup1\n      iszero\n      tag_121\n      jumpi\n      returndatacopy(0x00, 0x00, returndatasize)\n      revert(0x00, returndatasize)\n    tag_121:\n      pop\n      pop\n      pop\n      pop\n      mload(0x40)\n      returndatasize\n      not(0x1f)\n      0x1f\n      dup3\n      add\n      and\n      dup3\n      add\n      dup1\n      0x40\n      mstore\n      pop\n      dup2\n      add\n      swap1\n      tag_122\n      swap2\n      swap1\n      tag_102\n      jump\t// in\n    tag_122:\n        /* \"src/DSCEngine.sol\":5087:5141  bool minted = i_dsc.mint(msg.sender, _amountDscToMint) */\n      swap1\n      pop\n        /* \"src/DSCEngine.sol\":5155:5161  minted */\n      dup1\n        /* \"src/DSCEngine.sol\":5151:5220  if(!minted){... */\n      tag_123\n      jumpi\n        /* \"src/DSCEngine.sol\":5183:5209  DSCEngine__DscMintFailed() */\n      mload(0x40)\n      0x6f4e810b00000000000000000000000000000000000000000000000000000000\n      dup2\n      mstore\n      0x04\n      add\n      mload(0x40)\n      dup1\n      swap2\n      sub\n      swap1\n      revert\n        /* \"src/DSCEngine.sol\":5151:5220  if(!minted){... */\n    tag_123:\n        /* \"src/DSCEngine.sol\":4973:5226  {... */\n      pop\n        /* \"@openzeppelin/contracts/utils/ReentrancyGuard.sol\":2542:2562  _nonReentrantAfter() */\n      tag_124\n        /* \"@openzeppelin/contracts/utils/ReentrancyGuard.sol\":2542:2560  _nonReentrantAfter */\n      tag_107\n        /* \"@openzeppelin/contracts/utils/ReentrancyGuard.sol\":2542:2562  _nonReentrantAfter() */\n      jump\t// in\n    tag_124:\n        /* \"src/DSCEngine.sol\":4878:5226  function mintDsc(uint256 _amountDscToMint) external moreThanZero(_amountDscToMint) nonReentrant{... */\n      pop\n      pop\n      jump\t// out\n        /* \"src/DSCEngine.sol\":6681:7036  function getUSDValue(address _token, uint256 _amount) public view isAllowedCollateral(_token) returns(uint256){... */\n    tag_68:\n        /* \"src/DSCEngine.sol\":6783:6790  uint256 */\n      0x00\n        /* \"src/DSCEngine.sol\":6767:6773  _token */\n      dup3\n        /* \"src/DSCEngine.sol\":3135:3136  0 */\n      0x00\n        /* \"src/DSCEngine.sol\":3103:3137  s_priceFeeds[_token] == address(0) */\n      0xffffffffffffffffffffffffffffffffffffffff\n      and\n        /* \"src/DSCEngine.sol\":3103:3115  s_priceFeeds */\n      0x01\n        /* \"src/DSCEngine.sol\":3103:3123  s_priceFeeds[_token] */\n      0x00\n        /* \"src/DSCEngine.sol\":3116:3122  _token */\n      dup4\n        /* \"src/DSCEngine.sol\":3103:3123  s_priceFeeds[_token] */\n      0xffffffffffffffffffffffffffffffffffffffff\n      and\n      0xffffffffffffffffffffffffffffffffffffffff\n      and\n      dup2\n      mstore\n      0x20\n      add\n      swap1\n      dup2\n      mstore\n      0x20\n      add\n      0x00\n      keccak256\n      0x00\n      swap1\n      sload\n      swap1\n      0x0100\n      exp\n      swap1\n      div\n      0xffffffffffffffffffffffffffffffffffffffff\n      and\n        /* \"src/DSCEngine.sol\":3103:3137  s_priceFeeds[_token] == address(0) */\n      0xffffffffffffffffffffffffffffffffffffffff\n      and\n      sub\n        /* \"src/DSCEngine.sol\":3099:3199  if (s_priceFeeds[_token] == address(0)) {... */\n      tag_126\n      jumpi\n        /* \"src/DSCEngine.sol\":3160:3188  DSCEngine__NotAllowedToken() */\n      mload(0x40)\n      0xa802cfbe00000000000000000000000000000000000000000000000000000000\n      dup2\n      mstore\n      0x04\n      add\n      mload(0x40)\n      dup1\n      swap2\n      sub\n      swap1\n      revert\n        /* \"src/DSCEngine.sol\":3099:3199  if (s_priceFeeds[_token] == address(0)) {... */\n    tag_126:\n        /* \"src/DSCEngine.sol\":6804:6816  int256 price */\n      0x00\n        /* \"src/DSCEngine.sol\":6847:6859  s_priceFeeds */\n      0x01\n        /* \"src/DSCEngine.sol\":6847:6867  s_priceFeeds[_token] */\n      0x00\n        /* \"src/DSCEngine.sol\":6860:6866  _token */\n      dup7\n        /* \"src/DSCEngine.sol\":6847:6867  s_priceFeeds[_token] */\n      0xffffffffffffffffffffffffffffffffffffffff\n      and\n      0xffffffffffffffffffffffffffffffffffffffff\n      and\n      dup2\n      mstore\n      0x20\n      add\n      swap1\n      dup2\n      mstore\n      0x20\n      add\n      0x00\n      keccak256\n      0x00\n      swap1\n      sload\n      swap1\n      0x0100\n      exp\n      swap1\n      div\n      0xffffffffffffffffffffffffffffffffffffffff\n      and\n        /* \"src/DSCEngine.sol\":6825:6884  AggregatorV3Interface(s_priceFeeds[_token]).latestRoundData */\n      0xffffffffffffffffffffffffffffffffffffffff\n      and\n      0xfeaf968c\n        /* \"src/DSCEngine.sol\":6825:6886  AggregatorV3Interface(s_priceFeeds[_token]).latestRoundData() */\n      mload(0x40)\n      dup2\n      0xffffffff\n      and\n      0xe0\n      shl\n      dup2\n      mstore\n      0x04\n      add\n      0xa0\n      mload(0x40)\n      dup1\n      dup4\n      sub\n      dup2\n      dup7\n      gas\n      staticcall\n      iszero\n      dup1\n      iszero\n      tag_129\n      jumpi\n      returndatacopy(0x00, 0x00, returndatasize)\n      revert(0x00, returndatasize)\n    tag_129:\n      pop\n      pop\n      pop\n      pop\n      mload(0x40)\n      returndatasize\n      not(0x1f)\n      0x1f\n      dup3\n      add\n      and\n      dup3\n      add\n      dup1\n      0x40\n      mstore\n      pop\n      dup2\n      add\n      swap1\n      tag_130\n      swap2\n      swap1\n      tag_131\n      jump\t// in\n    tag_130:\n        /* \"src/DSCEngine.sol\":6801:6886  (, int256 price, , ,) = AggregatorV3Interface(s_priceFeeds[_token]).latestRoundData() */\n      pop\n      pop\n      pop\n      swap2\n      pop\n      pop\n        /* \"src/DSCEngine.sol\":2283:2287  1e18 */\n      0x0de0b6b3a7640000\n        /* \"src/DSCEngine.sol\":7009:7016  _amount */\n      dup5\n        /* \"src/DSCEngine.sol\":2237:2241  1e10 */\n      0x02540be400\n        /* \"src/DSCEngine.sol\":6974:6979  price */\n      dup4\n        /* \"src/DSCEngine.sol\":6966:7006  uint256(price) * ADDITION_FEED_PRECISION */\n      tag_132\n      swap2\n      swap1\n      tag_133\n      jump\t// in\n    tag_132:\n        /* \"src/DSCEngine.sol\":6966:7016  uint256(price) * ADDITION_FEED_PRECISION * _amount */\n      tag_134\n      swap2\n      swap1\n      tag_133\n      jump\t// in\n    tag_134:\n        /* \"src/DSCEngine.sol\":6965:7029  (uint256(price) * ADDITION_FEED_PRECISION * _amount) / PRECISION */\n      tag_135\n      swap2\n      swap1\n      tag_136\n      jump\t// in\n    tag_135:\n        /* \"src/DSCEngine.sol\":6958:7029  return (uint256(price) * ADDITION_FEED_PRECISION * _amount) / PRECISION */\n      swap3\n      pop\n      pop\n        /* \"src/DSCEngine.sol\":6681:7036  function getUSDValue(address _token, uint256 _amount) public view isAllowedCollateral(_token) returns(uint256){... */\n      pop\n      swap3\n      swap2\n      pop\n      pop\n      jump\t// out\n        /* \"src/DSCEngine.sol\":5232:5262  function burnDsc() external {} */\n    tag_71:\n      jump\t// out\n        /* \"@openzeppelin/contracts/utils/ReentrancyGuard.sol\":2575:2882  function _nonReentrantBefore() private {... */\n    tag_94:\n        /* \"@openzeppelin/contracts/utils/ReentrancyGuard.sol\":1899:1900  2 */\n      0x02\n        /* \"@openzeppelin/contracts/utils/ReentrancyGuard.sol\":2702:2709  _status */\n      sload(0x00)\n        /* \"@openzeppelin/contracts/utils/ReentrancyGuard.sol\":2702:2720  _status == ENTERED */\n      sub\n        /* \"@openzeppelin/contracts/utils/ReentrancyGuard.sol\":2698:2784  if (_status == ENTERED) {... */\n      tag_139\n      jumpi\n        /* \"@openzeppelin/contracts/utils/ReentrancyGuard.sol\":2743:2773  ReentrancyGuardReentrantCall() */\n      mload(0x40)\n      0x3ee5aeb500000000000000000000000000000000000000000000000000000000\n      dup2\n      mstore\n      0x04\n      add\n      mload(0x40)\n      dup1\n      swap2\n      sub\n      swap1\n      revert\n        /* \"@openzeppelin/contracts/utils/ReentrancyGuard.sol\":2698:2784  if (_status == ENTERED) {... */\n    tag_139:\n        /* \"@openzeppelin/contracts/utils/ReentrancyGuard.sol\":1899:1900  2 */\n      0x02\n        /* \"@openzeppelin/contracts/utils/ReentrancyGuard.sol\":2858:2865  _status */\n      0x00\n        /* \"@openzeppelin/contracts/utils/ReentrancyGuard.sol\":2858:2875  _status = ENTERED */\n      dup2\n      swap1\n      sstore\n      pop\n        /* \"@openzeppelin/contracts/utils/ReentrancyGuard.sol\":2575:2882  function _nonReentrantBefore() private {... */\n      jump\t// out\n        /* \"@openzeppelin/contracts/utils/ReentrancyGuard.sol\":2888:3096  function _nonReentrantAfter() private {... */\n    tag_107:\n        /* \"@openzeppelin/contracts/utils/ReentrancyGuard.sol\":1857:1858  1 */\n      0x01\n        /* \"@openzeppelin/contracts/utils/ReentrancyGuard.sol\":3068:3075  _status */\n      0x00\n        /* \"@openzeppelin/contracts/utils/ReentrancyGuard.sol\":3068:3089  _status = NOT_ENTERED */\n      dup2\n      swap1\n      sstore\n      pop\n        /* \"@openzeppelin/contracts/utils/ReentrancyGuard.sol\":2888:3096  function _nonReentrantAfter() private {... */\n      jump\t// out\n        /* \"src/DSCEngine.sol\":5948:6209  function _revertIfHealthFactorIsBroken(address _user) internal view {... */\n    tag_117:\n        /* \"src/DSCEngine.sol\":6026:6050  uint256 userHealthFactor */\n      0x00\n        /* \"src/DSCEngine.sol\":6053:6073  _healthFactor(_user) */\n      tag_142\n        /* \"src/DSCEngine.sol\":6067:6072  _user */\n      dup3\n        /* \"src/DSCEngine.sol\":6053:6066  _healthFactor */\n      tag_143\n        /* \"src/DSCEngine.sol\":6053:6073  _healthFactor(_user) */\n      jump\t// in\n    tag_142:\n        /* \"src/DSCEngine.sol\":6026:6073  uint256 userHealthFactor = _healthFactor(_user) */\n      swap1\n      pop\n        /* \"src/DSCEngine.sol\":2449:2450  1 */\n      0x01\n        /* \"src/DSCEngine.sol\":6087:6103  userHealthFactor */\n      dup2\n        /* \"src/DSCEngine.sol\":6087:6123  userHealthFactor <= MIN_HEALT_FACTOR */\n      gt\n        /* \"src/DSCEngine.sol\":6083:6203  if (userHealthFactor <= MIN_HEALT_FACTOR){... */\n      tag_144\n      jumpi\n        /* \"src/DSCEngine.sol\":6175:6191  userHealthFactor */\n      dup1\n        /* \"src/DSCEngine.sol\":6145:6192  DSCEngine__BreaksHealthFactor(userHealthFactor) */\n      mload(0x40)\n      0xe580cc6100000000000000000000000000000000000000000000000000000000\n      dup2\n      mstore\n      0x04\n      add\n      tag_145\n      swap2\n      swap1\n      tag_35\n      jump\t// in\n    tag_145:\n      mload(0x40)\n      dup1\n      swap2\n      sub\n      swap1\n      revert\n        /* \"src/DSCEngine.sol\":6083:6203  if (userHealthFactor <= MIN_HEALT_FACTOR){... */\n    tag_144:\n        /* \"src/DSCEngine.sol\":6016:6209  {... */\n      pop\n        /* \"src/DSCEngine.sol\":5948:6209  function _revertIfHealthFactorIsBroken(address _user) internal view {... */\n      pop\n      jump\t// out\n        /* \"src/DSCEngine.sol\":5577:5942  function _healthFactor(address user) private view returns (uint256) {... */\n    tag_143:\n        /* \"src/DSCEngine.sol\":5636:5643  uint256 */\n      0x00\n        /* \"src/DSCEngine.sol\":5656:5678  uint256 totalDscMinted */\n      0x00\n        /* \"src/DSCEngine.sol\":5680:5708  uint256 collateralValueInUsd */\n      0x00\n        /* \"src/DSCEngine.sol\":5712:5740  _getAccountInformation(user) */\n      tag_147\n        /* \"src/DSCEngine.sol\":5735:5739  user */\n      dup5\n        /* \"src/DSCEngine.sol\":5712:5734  _getAccountInformation */\n      tag_148\n        /* \"src/DSCEngine.sol\":5712:5740  _getAccountInformation(user) */\n      jump\t// in\n    tag_147:\n        /* \"src/DSCEngine.sol\":5655:5740  (uint256 totalDscMinted, uint256 collateralValueInUsd) = _getAccountInformation(user) */\n      swap2\n      pop\n      swap2\n      pop\n        /* \"src/DSCEngine.sol\":5750:5785  uint256 collateralAdjustedThreshold */\n      0x00\n        /* \"src/DSCEngine.sol\":2397:2400  100 */\n      0x64\n        /* \"src/DSCEngine.sol\":2341:2343  50 */\n      0x32\n        /* \"src/DSCEngine.sol\":5789:5809  collateralValueInUsd */\n      dup4\n        /* \"src/DSCEngine.sol\":5789:5833  collateralValueInUsd * LIQUIDATION_THRESHOLD */\n      tag_149\n      swap2\n      swap1\n      tag_133\n      jump\t// in\n    tag_149:\n        /* \"src/DSCEngine.sol\":5788:5858  (collateralValueInUsd * LIQUIDATION_THRESHOLD) / LIQUIDATION_PRECISION */\n      tag_150\n      swap2\n      swap1\n      tag_136\n      jump\t// in\n    tag_150:\n        /* \"src/DSCEngine.sol\":5750:5858  uint256 collateralAdjustedThreshold = (collateralValueInUsd * LIQUIDATION_THRESHOLD) / LIQUIDATION_PRECISION */\n      swap1\n      pop\n        /* \"src/DSCEngine.sol\":5920:5934  totalDscMinted */\n      dup3\n        /* \"src/DSCEngine.sol\":2283:2287  1e18 */\n      0x0de0b6b3a7640000\n        /* \"src/DSCEngine.sol\":5877:5904  collateralAdjustedThreshold */\n      dup3\n        /* \"src/DSCEngine.sol\":5877:5916  collateralAdjustedThreshold * PRECISION */\n      tag_151\n      swap2\n      swap1\n      tag_133\n      jump\t// in\n    tag_151:\n        /* \"src/DSCEngine.sol\":5876:5934  (collateralAdjustedThreshold * PRECISION) / totalDscMinted */\n      tag_152\n      swap2\n      swap1\n      tag_136\n      jump\t// in\n    tag_152:\n        /* \"src/DSCEngine.sol\":5868:5935  return ((collateralAdjustedThreshold * PRECISION) / totalDscMinted) */\n      swap4\n      pop\n      pop\n      pop\n      pop\n        /* \"src/DSCEngine.sol\":5577:5942  function _healthFactor(address user) private view returns (uint256) {... */\n      swap2\n      swap1\n      pop\n      jump\t// out\n        /* \"src/DSCEngine.sol\":5306:5571  function _getAccountInformation(address user)... */\n    tag_148:\n        /* \"src/DSCEngine.sol\":5398:5420  uint256 totalDscMinted */\n      0x00\n        /* \"src/DSCEngine.sol\":5422:5450  uint256 collateralValueInUsd */\n      0x00\n        /* \"src/DSCEngine.sol\":5483:5494  s_DscMinted */\n      0x03\n        /* \"src/DSCEngine.sol\":5483:5500  s_DscMinted[user] */\n      0x00\n        /* \"src/DSCEngine.sol\":5495:5499  user */\n      dup5\n        /* \"src/DSCEngine.sol\":5483:5500  s_DscMinted[user] */\n      0xffffffffffffffffffffffffffffffffffffffff\n      and\n      0xffffffffffffffffffffffffffffffffffffffff\n      and\n      dup2\n      mstore\n      0x20\n      add\n      swap1\n      dup2\n      mstore\n      0x20\n      add\n      0x00\n      keccak256\n      sload\n        /* \"src/DSCEngine.sol\":5466:5500  totalDscMinted = s_DscMinted[user] */\n      swap2\n      pop\n        /* \"src/DSCEngine.sol\":5533:5564  getAccountCollateralValue(user) */\n      tag_154\n        /* \"src/DSCEngine.sol\":5559:5563  user */\n      dup4\n        /* \"src/DSCEngine.sol\":5533:5558  getAccountCollateralValue */\n      tag_39\n        /* \"src/DSCEngine.sol\":5533:5564  getAccountCollateralValue(user) */\n      jump\t// in\n    tag_154:\n        /* \"src/DSCEngine.sol\":5510:5564  collateralValueInUsd = getAccountCollateralValue(user) */\n      swap1\n      pop\n        /* \"src/DSCEngine.sol\":5306:5571  function _getAccountInformation(address user)... */\n      swap2\n      pop\n      swap2\n      jump\t// out\n        /* \"#utility.yul\":88:205   */\n    tag_156:\n        /* \"#utility.yul\":197:198   */\n      0x00\n        /* \"#utility.yul\":194:195   */\n      0x00\n        /* \"#utility.yul\":187:199   */\n      revert\n        /* \"#utility.yul\":334:460   */\n    tag_158:\n        /* \"#utility.yul\":371:378   */\n      0x00\n        /* \"#utility.yul\":411:453   */\n      0xffffffffffffffffffffffffffffffffffffffff\n        /* \"#utility.yul\":404:409   */\n      dup3\n        /* \"#utility.yul\":400:454   */\n      and\n        /* \"#utility.yul\":389:454   */\n      swap1\n      pop\n        /* \"#utility.yul\":334:460   */\n      swap2\n      swap1\n      pop\n      jump\t// out\n        /* \"#utility.yul\":466:562   */\n    tag_159:\n        /* \"#utility.yul\":503:510   */\n      0x00\n        /* \"#utility.yul\":532:556   */\n      tag_190\n        /* \"#utility.yul\":550:555   */\n      dup3\n        /* \"#utility.yul\":532:556   */\n      tag_158\n      jump\t// in\n    tag_190:\n        /* \"#utility.yul\":521:556   */\n      swap1\n      pop\n        /* \"#utility.yul\":466:562   */\n      swap2\n      swap1\n      pop\n      jump\t// out\n        /* \"#utility.yul\":568:690   */\n    tag_160:\n        /* \"#utility.yul\":641:665   */\n      tag_192\n        /* \"#utility.yul\":659:664   */\n      dup2\n        /* \"#utility.yul\":641:665   */\n      tag_159\n      jump\t// in\n    tag_192:\n        /* \"#utility.yul\":634:639   */\n      dup2\n        /* \"#utility.yul\":631:666   */\n      eq\n        /* \"#utility.yul\":621:684   */\n      tag_193\n      jumpi\n        /* \"#utility.yul\":680:681   */\n      0x00\n        /* \"#utility.yul\":677:678   */\n      0x00\n        /* \"#utility.yul\":670:682   */\n      revert\n        /* \"#utility.yul\":621:684   */\n    tag_193:\n        /* \"#utility.yul\":568:690   */\n      pop\n      jump\t// out\n        /* \"#utility.yul\":696:835   */\n    tag_161:\n        /* \"#utility.yul\":742:747   */\n      0x00\n        /* \"#utility.yul\":780:786   */\n      dup2\n        /* \"#utility.yul\":767:787   */\n      calldataload\n        /* \"#utility.yul\":758:787   */\n      swap1\n      pop\n        /* \"#utility.yul\":796:829   */\n      tag_195\n        /* \"#utility.yul\":823:828   */\n      dup2\n        /* \"#utility.yul\":796:829   */\n      tag_160\n      jump\t// in\n    tag_195:\n        /* \"#utility.yul\":696:835   */\n      swap3\n      swap2\n      pop\n      pop\n      jump\t// out\n        /* \"#utility.yul\":841:918   */\n    tag_162:\n        /* \"#utility.yul\":878:885   */\n      0x00\n        /* \"#utility.yul\":907:912   */\n      dup2\n        /* \"#utility.yul\":896:912   */\n      swap1\n      pop\n        /* \"#utility.yul\":841:918   */\n      swap2\n      swap1\n      pop\n      jump\t// out\n        /* \"#utility.yul\":924:1046   */\n    tag_163:\n        /* \"#utility.yul\":997:1021   */\n      tag_198\n        /* \"#utility.yul\":1015:1020   */\n      dup2\n        /* \"#utility.yul\":997:1021   */\n      tag_162\n      jump\t// in\n    tag_198:\n        /* \"#utility.yul\":990:995   */\n      dup2\n        /* \"#utility.yul\":987:1022   */\n      eq\n        /* \"#utility.yul\":977:1040   */\n      tag_199\n      jumpi\n        /* \"#utility.yul\":1036:1037   */\n      0x00\n        /* \"#utility.yul\":1033:1034   */\n      0x00\n        /* \"#utility.yul\":1026:1038   */\n      revert\n        /* \"#utility.yul\":977:1040   */\n    tag_199:\n        /* \"#utility.yul\":924:1046   */\n      pop\n      jump\t// out\n        /* \"#utility.yul\":1052:1191   */\n    tag_164:\n        /* \"#utility.yul\":1098:1103   */\n      0x00\n        /* \"#utility.yul\":1136:1142   */\n      dup2\n        /* \"#utility.yul\":1123:1143   */\n      calldataload\n        /* \"#utility.yul\":1114:1143   */\n      swap1\n      pop\n        /* \"#utility.yul\":1152:1185   */\n      tag_201\n        /* \"#utility.yul\":1179:1184   */\n      dup2\n        /* \"#utility.yul\":1152:1185   */\n      tag_163\n      jump\t// in\n    tag_201:\n        /* \"#utility.yul\":1052:1191   */\n      swap3\n      swap2\n      pop\n      pop\n      jump\t// out\n        /* \"#utility.yul\":1197:1671   */\n    tag_26:\n        /* \"#utility.yul\":1265:1271   */\n      0x00\n        /* \"#utility.yul\":1273:1279   */\n      0x00\n        /* \"#utility.yul\":1322:1324   */\n      0x40\n        /* \"#utility.yul\":1310:1319   */\n      dup4\n        /* \"#utility.yul\":1301:1308   */\n      dup6\n        /* \"#utility.yul\":1297:1320   */\n      sub\n        /* \"#utility.yul\":1293:1325   */\n      slt\n        /* \"#utility.yul\":1290:1409   */\n      iszero\n      tag_203\n      jumpi\n        /* \"#utility.yul\":1328:1407   */\n      tag_204\n      tag_156\n      jump\t// in\n    tag_204:\n        /* \"#utility.yul\":1290:1409   */\n    tag_203:\n        /* \"#utility.yul\":1448:1449   */\n      0x00\n        /* \"#utility.yul\":1473:1526   */\n      tag_205\n        /* \"#utility.yul\":1518:1525   */\n      dup6\n        /* \"#utility.yul\":1509:1515   */\n      dup3\n        /* \"#utility.yul\":1498:1507   */\n      dup7\n        /* \"#utility.yul\":1494:1516   */\n      add\n        /* \"#utility.yul\":1473:1526   */\n      tag_161\n      jump\t// in\n    tag_205:\n        /* \"#utility.yul\":1463:1526   */\n      swap3\n      pop\n        /* \"#utility.yul\":1419:1536   */\n      pop\n        /* \"#utility.yul\":1575:1577   */\n      0x20\n        /* \"#utility.yul\":1601:1654   */\n      tag_206\n        /* \"#utility.yul\":1646:1653   */\n      dup6\n        /* \"#utility.yul\":1637:1643   */\n      dup3\n        /* \"#utility.yul\":1626:1635   */\n      dup7\n        /* \"#utility.yul\":1622:1644   */\n      add\n        /* \"#utility.yul\":1601:1654   */\n      tag_164\n      jump\t// in\n    tag_206:\n        /* \"#utility.yul\":1591:1654   */\n      swap2\n      pop\n        /* \"#utility.yul\":1546:1664   */\n      pop\n        /* \"#utility.yul\":1197:1671   */\n      swap3\n      pop\n      swap3\n      swap1\n      pop\n      jump\t// out\n        /* \"#utility.yul\":1677:1737   */\n    tag_165:\n        /* \"#utility.yul\":1705:1708   */\n      0x00\n        /* \"#utility.yul\":1726:1731   */\n      dup2\n        /* \"#utility.yul\":1719:1731   */\n      swap1\n      pop\n        /* \"#utility.yul\":1677:1737   */\n      swap2\n      swap1\n      pop\n      jump\t// out\n        /* \"#utility.yul\":1743:1885   */\n    tag_166:\n        /* \"#utility.yul\":1793:1802   */\n      0x00\n        /* \"#utility.yul\":1826:1879   */\n      tag_209\n        /* \"#utility.yul\":1844:1878   */\n      tag_210\n        /* \"#utility.yul\":1853:1877   */\n      tag_211\n        /* \"#utility.yul\":1871:1876   */\n      dup5\n        /* \"#utility.yul\":1853:1877   */\n      tag_158\n      jump\t// in\n    tag_211:\n        /* \"#utility.yul\":1844:1878   */\n      tag_165\n      jump\t// in\n    tag_210:\n        /* \"#utility.yul\":1826:1879   */\n      tag_158\n      jump\t// in\n    tag_209:\n        /* \"#utility.yul\":1813:1879   */\n      swap1\n      pop\n        /* \"#utility.yul\":1743:1885   */\n      swap2\n      swap1\n      pop\n      jump\t// out\n        /* \"#utility.yul\":1891:2017   */\n    tag_167:\n        /* \"#utility.yul\":1941:1950   */\n      0x00\n        /* \"#utility.yul\":1974:2011   */\n      tag_213\n        /* \"#utility.yul\":2005:2010   */\n      dup3\n        /* \"#utility.yul\":1974:2011   */\n      tag_166\n      jump\t// in\n    tag_213:\n        /* \"#utility.yul\":1961:2011   */\n      swap1\n      pop\n        /* \"#utility.yul\":1891:2017   */\n      swap2\n      swap1\n      pop\n      jump\t// out\n        /* \"#utility.yul\":2023:2181   */\n    tag_168:\n        /* \"#utility.yul\":2105:2114   */\n      0x00\n        /* \"#utility.yul\":2138:2175   */\n      tag_215\n        /* \"#utility.yul\":2169:2174   */\n      dup3\n        /* \"#utility.yul\":2138:2175   */\n      tag_167\n      jump\t// in\n    tag_215:\n        /* \"#utility.yul\":2125:2175   */\n      swap1\n      pop\n        /* \"#utility.yul\":2023:2181   */\n      swap2\n      swap1\n      pop\n      jump\t// out\n        /* \"#utility.yul\":2187:2382   */\n    tag_169:\n        /* \"#utility.yul\":2306:2375   */\n      tag_217\n        /* \"#utility.yul\":2369:2374   */\n      dup2\n        /* \"#utility.yul\":2306:2375   */\n      tag_168\n      jump\t// in\n    tag_217:\n        /* \"#utility.yul\":2301:2304   */\n      dup3\n        /* \"#utility.yul\":2294:2376   */\n      mstore\n        /* \"#utility.yul\":2187:2382   */\n      pop\n      pop\n      jump\t// out\n        /* \"#utility.yul\":2388:2674   */\n    tag_31:\n        /* \"#utility.yul\":2513:2517   */\n      0x00\n        /* \"#utility.yul\":2551:2553   */\n      0x20\n        /* \"#utility.yul\":2540:2549   */\n      dup3\n        /* \"#utility.yul\":2536:2554   */\n      add\n        /* \"#utility.yul\":2528:2554   */\n      swap1\n      pop\n        /* \"#utility.yul\":2564:2667   */\n      tag_219\n        /* \"#utility.yul\":2664:2665   */\n      0x00\n        /* \"#utility.yul\":2653:2662   */\n      dup4\n        /* \"#utility.yul\":2649:2666   */\n      add\n        /* \"#utility.yul\":2640:2646   */\n      dup5\n        /* \"#utility.yul\":2564:2667   */\n      tag_169\n      jump\t// in\n    tag_219:\n        /* \"#utility.yul\":2388:2674   */\n      swap3\n      swap2\n      pop\n      pop\n      jump\t// out\n        /* \"#utility.yul\":2680:2798   */\n    tag_170:\n        /* \"#utility.yul\":2767:2791   */\n      tag_221\n        /* \"#utility.yul\":2785:2790   */\n      dup2\n        /* \"#utility.yul\":2767:2791   */\n      tag_162\n      jump\t// in\n    tag_221:\n        /* \"#utility.yul\":2762:2765   */\n      dup3\n        /* \"#utility.yul\":2755:2792   */\n      mstore\n        /* \"#utility.yul\":2680:2798   */\n      pop\n      pop\n      jump\t// out\n        /* \"#utility.yul\":2804:3026   */\n    tag_35:\n        /* \"#utility.yul\":2897:2901   */\n      0x00\n        /* \"#utility.yul\":2935:2937   */\n      0x20\n        /* \"#utility.yul\":2924:2933   */\n      dup3\n        /* \"#utility.yul\":2920:2938   */\n      add\n        /* \"#utility.yul\":2912:2938   */\n      swap1\n      pop\n        /* \"#utility.yul\":2948:3019   */\n      tag_223\n        /* \"#utility.yul\":3016:3017   */\n      0x00\n        /* \"#utility.yul\":3005:3014   */\n      dup4\n        /* \"#utility.yul\":3001:3018   */\n      add\n        /* \"#utility.yul\":2992:2998   */\n      dup5\n        /* \"#utility.yul\":2948:3019   */\n      tag_170\n      jump\t// in\n    tag_223:\n        /* \"#utility.yul\":2804:3026   */\n      swap3\n      swap2\n      pop\n      pop\n      jump\t// out\n        /* \"#utility.yul\":3032:3361   */\n    tag_38:\n        /* \"#utility.yul\":3091:3097   */\n      0x00\n        /* \"#utility.yul\":3140:3142   */\n      0x20\n        /* \"#utility.yul\":3128:3137   */\n      dup3\n        /* \"#utility.yul\":3119:3126   */\n      dup5\n        /* \"#utility.yul\":3115:3138   */\n      sub\n        /* \"#utility.yul\":3111:3143   */\n      slt\n        /* \"#utility.yul\":3108:3227   */\n      iszero\n      tag_225\n      jumpi\n        /* \"#utility.yul\":3146:3225   */\n      tag_226\n      tag_156\n      jump\t// in\n    tag_226:\n        /* \"#utility.yul\":3108:3227   */\n    tag_225:\n        /* \"#utility.yul\":3266:3267   */\n      0x00\n        /* \"#utility.yul\":3291:3344   */\n      tag_227\n        /* \"#utility.yul\":3336:3343   */\n      dup5\n        /* \"#utility.yul\":3327:3333   */\n      dup3\n        /* \"#utility.yul\":3316:3325   */\n      dup6\n        /* \"#utility.yul\":3312:3334   */\n      add\n        /* \"#utility.yul\":3291:3344   */\n      tag_161\n      jump\t// in\n    tag_227:\n        /* \"#utility.yul\":3281:3344   */\n      swap2\n      pop\n        /* \"#utility.yul\":3237:3354   */\n      pop\n        /* \"#utility.yul\":3032:3361   */\n      swap3\n      swap2\n      pop\n      pop\n      jump\t// out\n        /* \"#utility.yul\":3367:3696   */\n    tag_64:\n        /* \"#utility.yul\":3426:3432   */\n      0x00\n        /* \"#utility.yul\":3475:3477   */\n      0x20\n        /* \"#utility.yul\":3463:3472   */\n      dup3\n        /* \"#utility.yul\":3454:3461   */\n      dup5\n        /* \"#utility.yul\":3450:3473   */\n      sub\n        /* \"#utility.yul\":3446:3478   */\n      slt\n        /* \"#utility.yul\":3443:3562   */\n      iszero\n      tag_229\n      jumpi\n        /* \"#utility.yul\":3481:3560   */\n      tag_230\n      tag_156\n      jump\t// in\n    tag_230:\n        /* \"#utility.yul\":3443:3562   */\n    tag_229:\n        /* \"#utility.yul\":3601:3602   */\n      0x00\n        /* \"#utility.yul\":3626:3679   */\n      tag_231\n        /* \"#utility.yul\":3671:3678   */\n      dup5\n        /* \"#utility.yul\":3662:3668   */\n      dup3\n        /* \"#utility.yul\":3651:3660   */\n      dup6\n        /* \"#utility.yul\":3647:3669   */\n      add\n        /* \"#utility.yul\":3626:3679   */\n      tag_164\n      jump\t// in\n    tag_231:\n        /* \"#utility.yul\":3616:3679   */\n      swap2\n      pop\n        /* \"#utility.yul\":3572:3689   */\n      pop\n        /* \"#utility.yul\":3367:3696   */\n      swap3\n      swap2\n      pop\n      pop\n      jump\t// out\n        /* \"#utility.yul\":3702:3882   */\n    tag_80:\n        /* \"#utility.yul\":3750:3827   */\n      0x4e487b7100000000000000000000000000000000000000000000000000000000\n        /* \"#utility.yul\":3747:3748   */\n      0x00\n        /* \"#utility.yul\":3740:3828   */\n      mstore\n        /* \"#utility.yul\":3847:3851   */\n      0x32\n        /* \"#utility.yul\":3844:3845   */\n      0x04\n        /* \"#utility.yul\":3837:3852   */\n      mstore\n        /* \"#utility.yul\":3871:3875   */\n      0x24\n        /* \"#utility.yul\":3868:3869   */\n      0x00\n        /* \"#utility.yul\":3861:3876   */\n      revert\n        /* \"#utility.yul\":3888:4068   */\n    tag_171:\n        /* \"#utility.yul\":3936:4013   */\n      0x4e487b7100000000000000000000000000000000000000000000000000000000\n        /* \"#utility.yul\":3933:3934   */\n      0x00\n        /* \"#utility.yul\":3926:4014   */\n      mstore\n        /* \"#utility.yul\":4033:4037   */\n      0x11\n        /* \"#utility.yul\":4030:4031   */\n      0x04\n        /* \"#utility.yul\":4023:4038   */\n      mstore\n        /* \"#utility.yul\":4057:4061   */\n      0x24\n        /* \"#utility.yul\":4054:4055   */\n      0x00\n        /* \"#utility.yul\":4047:4062   */\n      revert\n        /* \"#utility.yul\":4074:4265   */\n    tag_84:\n        /* \"#utility.yul\":4114:4117   */\n      0x00\n        /* \"#utility.yul\":4133:4153   */\n      tag_235\n        /* \"#utility.yul\":4151:4152   */\n      dup3\n        /* \"#utility.yul\":4133:4153   */\n      tag_162\n      jump\t// in\n    tag_235:\n        /* \"#utility.yul\":4128:4153   */\n      swap2\n      pop\n        /* \"#utility.yul\":4167:4187   */\n      tag_236\n        /* \"#utility.yul\":4185:4186   */\n      dup4\n        /* \"#utility.yul\":4167:4187   */\n      tag_162\n      jump\t// in\n    tag_236:\n        /* \"#utility.yul\":4162:4187   */\n      swap3\n      pop\n        /* \"#utility.yul\":4210:4211   */\n      dup3\n        /* \"#utility.yul\":4207:4208   */\n      dup3\n        /* \"#utility.yul\":4203:4212   */\n      add\n        /* \"#utility.yul\":4196:4212   */\n      swap1\n      pop\n        /* \"#utility.yul\":4231:4234   */\n      dup1\n        /* \"#utility.yul\":4228:4229   */\n      dup3\n        /* \"#utility.yul\":4225:4235   */\n      gt\n        /* \"#utility.yul\":4222:4258   */\n      iszero\n      tag_237\n      jumpi\n        /* \"#utility.yul\":4238:4256   */\n      tag_238\n      tag_171\n      jump\t// in\n    tag_238:\n        /* \"#utility.yul\":4222:4258   */\n    tag_237:\n        /* \"#utility.yul\":4074:4265   */\n      swap3\n      swap2\n      pop\n      pop\n      jump\t// out\n        /* \"#utility.yul\":4271:4504   */\n    tag_86:\n        /* \"#utility.yul\":4310:4313   */\n      0x00\n        /* \"#utility.yul\":4333:4357   */\n      tag_240\n        /* \"#utility.yul\":4351:4356   */\n      dup3\n        /* \"#utility.yul\":4333:4357   */\n      tag_162\n      jump\t// in\n    tag_240:\n        /* \"#utility.yul\":4324:4357   */\n      swap2\n      pop\n        /* \"#utility.yul\":4379:4445   */\n      0xffffffffffffffffffffffffffffffffffffffffffffffffffffffffffffffff\n        /* \"#utility.yul\":4372:4377   */\n      dup3\n        /* \"#utility.yul\":4369:4446   */\n      sub\n        /* \"#utility.yul\":4366:4469   */\n      tag_241\n      jumpi\n        /* \"#utility.yul\":4449:4467   */\n      tag_242\n      tag_171\n      jump\t// in\n    tag_242:\n        /* \"#utility.yul\":4366:4469   */\n    tag_241:\n        /* \"#utility.yul\":4496:4497   */\n      0x01\n        /* \"#utility.yul\":4489:4494   */\n      dup3\n        /* \"#utility.yul\":4485:4498   */\n      add\n        /* \"#utility.yul\":4478:4498   */\n      swap1\n      pop\n        /* \"#utility.yul\":4271:4504   */\n      swap2\n      swap1\n      pop\n      jump\t// out\n        /* \"#utility.yul\":4510:4628   */\n    tag_172:\n        /* \"#utility.yul\":4597:4621   */\n      tag_244\n        /* \"#utility.yul\":4615:4620   */\n      dup2\n        /* \"#utility.yul\":4597:4621   */\n      tag_159\n      jump\t// in\n    tag_244:\n        /* \"#utility.yul\":4592:4595   */\n      dup3\n        /* \"#utility.yul\":4585:4622   */\n      mstore\n        /* \"#utility.yul\":4510:4628   */\n      pop\n      pop\n      jump\t// out\n        /* \"#utility.yul\":4634:5076   */\n    tag_98:\n        /* \"#utility.yul\":4783:4787   */\n      0x00\n        /* \"#utility.yul\":4821:4823   */\n      0x60\n        /* \"#utility.yul\":4810:4819   */\n      dup3\n        /* \"#utility.yul\":4806:4824   */\n      add\n        /* \"#utility.yul\":4798:4824   */\n      swap1\n      pop\n        /* \"#utility.yul\":4834:4905   */\n      tag_246\n        /* \"#utility.yul\":4902:4903   */\n      0x00\n        /* \"#utility.yul\":4891:4900   */\n      dup4\n        /* \"#utility.yul\":4887:4904   */\n      add\n        /* \"#utility.yul\":4878:4884   */\n      dup7\n        /* \"#utility.yul\":4834:4905   */\n      tag_172\n      jump\t// in\n    tag_246:\n        /* \"#utility.yul\":4915:4987   */\n      tag_247\n        /* \"#utility.yul\":4983:4985   */\n      0x20\n        /* \"#utility.yul\":4972:4981   */\n      dup4\n        /* \"#utility.yul\":4968:4986   */\n      add\n        /* \"#utility.yul\":4959:4965   */\n      dup6\n        /* \"#utility.yul\":4915:4987   */\n      tag_172\n      jump\t// in\n    tag_247:\n        /* \"#utility.yul\":4997:5069   */\n      tag_248\n        /* \"#utility.yul\":5065:5067   */\n      0x40\n        /* \"#utility.yul\":5054:5063   */\n      dup4\n        /* \"#utility.yul\":5050:5068   */\n      add\n        /* \"#utility.yul\":5041:5047   */\n      dup5\n        /* \"#utility.yul\":4997:5069   */\n      tag_170\n      jump\t// in\n    tag_248:\n        /* \"#utility.yul\":4634:5076   */\n      swap5\n      swap4\n      pop\n      pop\n      pop\n      pop\n      jump\t// out\n        /* \"#utility.yul\":5082:5172   */\n    tag_173:\n        /* \"#utility.yul\":5116:5123   */\n      0x00\n        /* \"#utility.yul\":5159:5164   */\n      dup2\n        /* \"#utility.yul\":5152:5165   */\n      iszero\n        /* \"#utility.yul\":5145:5166   */\n      iszero\n        /* \"#utility.yul\":5134:5166   */\n      swap1\n      pop\n        /* \"#utility.yul\":5082:5172   */\n      swap2\n      swap1\n      pop\n      jump\t// out\n        /* \"#utility.yul\":5178:5294   */\n    tag_174:\n        /* \"#utility.yul\":5248:5269   */\n      tag_251\n        /* \"#utility.yul\":5263:5268   */\n      dup2\n        /* \"#utility.yul\":5248:5269   */\n      tag_173\n      jump\t// in\n    tag_251:\n        /* \"#utility.yul\":5241:5246   */\n      dup2\n        /* \"#utility.yul\":5238:5270   */\n      eq\n        /* \"#utility.yul\":5228:5288   */\n      tag_252\n      jumpi\n        /* \"#utility.yul\":5284:5285   */\n      0x00\n        /* \"#utility.yul\":5281:5282   */\n      0x00\n        /* \"#utility.yul\":5274:5286   */\n      revert\n        /* \"#utility.yul\":5228:5288   */\n    tag_252:\n        /* \"#utility.yul\":5178:5294   */\n      pop\n      jump\t// out\n        /* \"#utility.yul\":5300:5437   */\n    tag_175:\n        /* \"#utility.yul\":5354:5359   */\n      0x00\n        /* \"#utility.yul\":5385:5391   */\n      dup2\n        /* \"#utility.yul\":5379:5392   */\n      mload\n        /* \"#utility.yul\":5370:5392   */\n      swap1\n      pop\n        /* \"#utility.yul\":5401:5431   */\n      tag_254\n        /* \"#utility.yul\":5425:5430   */\n      dup2\n        /* \"#utility.yul\":5401:5431   */\n      tag_174\n      jump\t// in\n    tag_254:\n        /* \"#utility.yul\":5300:5437   */\n      swap3\n      swap2\n      pop\n      pop\n      jump\t// out\n        /* \"#utility.yul\":5443:5788   */\n    tag_102:\n        /* \"#utility.yul\":5510:5516   */\n      0x00\n        /* \"#utility.yul\":5559:5561   */\n      0x20\n        /* \"#utility.yul\":5547:5556   */\n      dup3\n        /* \"#utility.yul\":5538:5545   */\n      dup5\n        /* \"#utility.yul\":5534:5557   */\n      sub\n        /* \"#utility.yul\":5530:5562   */\n      slt\n        /* \"#utility.yul\":5527:5646   */\n      iszero\n      tag_256\n      jumpi\n        /* \"#utility.yul\":5565:5644   */\n      tag_257\n      tag_156\n      jump\t// in\n    tag_257:\n        /* \"#utility.yul\":5527:5646   */\n    tag_256:\n        /* \"#utility.yul\":5685:5686   */\n      0x00\n        /* \"#utility.yul\":5710:5771   */\n      tag_258\n        /* \"#utility.yul\":5763:5770   */\n      dup5\n        /* \"#utility.yul\":5754:5760   */\n      dup3\n        /* \"#utility.yul\":5743:5752   */\n      dup6\n        /* \"#utility.yul\":5739:5761   */\n      add\n        /* \"#utility.yul\":5710:5771   */\n      tag_175\n      jump\t// in\n    tag_258:\n        /* \"#utility.yul\":5700:5771   */\n      swap2\n      pop\n        /* \"#utility.yul\":5656:5781   */\n      pop\n        /* \"#utility.yul\":5443:5788   */\n      swap3\n      swap2\n      pop\n      pop\n      jump\t// out\n        /* \"#utility.yul\":5794:6016   */\n    tag_105:\n        /* \"#utility.yul\":5887:5891   */\n      0x00\n        /* \"#utility.yul\":5925:5927   */\n      0x20\n        /* \"#utility.yul\":5914:5923   */\n      dup3\n        /* \"#utility.yul\":5910:5928   */\n      add\n        /* \"#utility.yul\":5902:5928   */\n      swap1\n      pop\n        /* \"#utility.yul\":5938:6009   */\n      tag_260\n        /* \"#utility.yul\":6006:6007   */\n      0x00\n        /* \"#utility.yul\":5995:6004   */\n      dup4\n        /* \"#utility.yul\":5991:6008   */\n      add\n        /* \"#utility.yul\":5982:5988   */\n      dup5\n        /* \"#utility.yul\":5938:6009   */\n      tag_172\n      jump\t// in\n    tag_260:\n        /* \"#utility.yul\":5794:6016   */\n      swap3\n      swap2\n      pop\n      pop\n      jump\t// out\n        /* \"#utility.yul\":6022:6354   */\n    tag_119:\n        /* \"#utility.yul\":6143:6147   */\n      0x00\n        /* \"#utility.yul\":6181:6183   */\n      0x40\n        /* \"#utility.yul\":6170:6179   */\n      dup3\n        /* \"#utility.yul\":6166:6184   */\n      add\n        /* \"#utility.yul\":6158:6184   */\n      swap1\n      pop\n        /* \"#utility.yul\":6194:6265   */\n      tag_262\n        /* \"#utility.yul\":6262:6263   */\n      0x00\n        /* \"#utility.yul\":6251:6260   */\n      dup4\n        /* \"#utility.yul\":6247:6264   */\n      add\n        /* \"#utility.yul\":6238:6244   */\n      dup6\n        /* \"#utility.yul\":6194:6265   */\n      tag_172\n      jump\t// in\n    tag_262:\n        /* \"#utility.yul\":6275:6347   */\n      tag_263\n        /* \"#utility.yul\":6343:6345   */\n      0x20\n        /* \"#utility.yul\":6332:6341   */\n      dup4\n        /* \"#utility.yul\":6328:6346   */\n      add\n        /* \"#utility.yul\":6319:6325   */\n      dup5\n        /* \"#utility.yul\":6275:6347   */\n      tag_170\n      jump\t// in\n    tag_263:\n        /* \"#utility.yul\":6022:6354   */\n      swap4\n      swap3\n      pop\n      pop\n      pop\n      jump\t// out\n        /* \"#utility.yul\":6360:6465   */\n    tag_176:\n        /* \"#utility.yul\":6396:6403   */\n      0x00\n        /* \"#utility.yul\":6436:6458   */\n      0xffffffffffffffffffff\n        /* \"#utility.yul\":6429:6434   */\n      dup3\n        /* \"#utility.yul\":6425:6459   */\n      and\n        /* \"#utility.yul\":6414:6459   */\n      swap1\n      pop\n        /* \"#utility.yul\":6360:6465   */\n      swap2\n      swap1\n      pop\n      jump\t// out\n        /* \"#utility.yul\":6471:6591   */\n    tag_177:\n        /* \"#utility.yul\":6543:6566   */\n      tag_266\n        /* \"#utility.yul\":6560:6565   */\n      dup2\n        /* \"#utility.yul\":6543:6566   */\n      tag_176\n      jump\t// in\n    tag_266:\n        /* \"#utility.yul\":6536:6541   */\n      dup2\n        /* \"#utility.yul\":6533:6567   */\n      eq\n        /* \"#utility.yul\":6523:6585   */\n      tag_267\n      jumpi\n        /* \"#utility.yul\":6581:6582   */\n      0x00\n        /* \"#utility.yul\":6578:6579   */\n      0x00\n        /* \"#utility.yul\":6571:6583   */\n      revert\n        /* \"#utility.yul\":6523:6585   */\n    tag_267:\n        /* \"#utility.yul\":6471:6591   */\n      pop\n      jump\t// out\n        /* \"#utility.yul\":6597:6738   */\n    tag_178:\n        /* \"#utility.yul\":6653:6658   */\n      0x00\n        /* \"#utility.yul\":6684:6690   */\n      dup2\n        /* \"#utility.yul\":6678:6691   */\n      mload\n        /* \"#utility.yul\":6669:6691   */\n      swap1\n      pop\n        /* \"#utility.yul\":6700:6732   */\n      tag_269\n        /* \"#utility.yul\":6726:6731   */\n      dup2\n        /* \"#utility.yul\":6700:6732   */\n      tag_177\n      jump\t// in\n    tag_269:\n        /* \"#utility.yul\":6597:6738   */\n      swap3\n      swap2\n      pop\n      pop\n      jump\t// out\n        /* \"#utility.yul\":6744:6820   */\n    tag_179:\n        /* \"#utility.yul\":6780:6787   */\n      0x00\n        /* \"#utility.yul\":6809:6814   */\n      dup2\n        /* \"#utility.yul\":6798:6814   */\n      swap1\n      pop\n        /* \"#utility.yul\":6744:6820   */\n      swap2\n      swap1\n      pop\n      jump\t// out\n        /* \"#utility.yul\":6826:6946   */\n    tag_180:\n        /* \"#utility.yul\":6898:6921   */\n      tag_272\n        /* \"#utility.yul\":6915:6920   */\n      dup2\n        /* \"#utility.yul\":6898:6921   */\n      tag_179\n      jump\t// in\n    tag_272:\n        /* \"#utility.yul\":6891:6896   */\n      dup2\n        /* \"#utility.yul\":6888:6922   */\n      eq\n        /* \"#utility.yul\":6878:6940   */\n      tag_273\n      jumpi\n        /* \"#utility.yul\":6936:6937   */\n      0x00\n        /* \"#utility.yul\":6933:6934   */\n      0x00\n        /* \"#utility.yul\":6926:6938   */\n      revert\n        /* \"#utility.yul\":6878:6940   */\n    tag_273:\n        /* \"#utility.yul\":6826:6946   */\n      pop\n      jump\t// out\n        /* \"#utility.yul\":6952:7093   */\n    tag_181:\n        /* \"#utility.yul\":7008:7013   */\n      0x00\n        /* \"#utility.yul\":7039:7045   */\n      dup2\n        /* \"#utility.yul\":7033:7046   */\n      mload\n        /* \"#utility.yul\":7024:7046   */\n      swap1\n      pop\n        /* \"#utility.yul\":7055:7087   */\n      tag_275\n        /* \"#utility.yul\":7081:7086   */\n      dup2\n        /* \"#utility.yul\":7055:7087   */\n      tag_180\n      jump\t// in\n    tag_275:\n        /* \"#utility.yul\":6952:7093   */\n      swap3\n      swap2\n      pop\n      pop\n      jump\t// out\n        /* \"#utility.yul\":7099:7242   */\n    tag_182:\n        /* \"#utility.yul\":7156:7161   */\n      0x00\n        /* \"#utility.yul\":7187:7193   */\n      dup2\n        /* \"#utility.yul\":7181:7194   */\n      mload\n        /* \"#utility.yul\":7172:7194   */\n      swap1\n      pop\n        /* \"#utility.yul\":7203:7236   */\n      tag_277\n        /* \"#utility.yul\":7230:7235   */\n      dup2\n        /* \"#utility.yul\":7203:7236   */\n      tag_163\n      jump\t// in\n    tag_277:\n        /* \"#utility.yul\":7099:7242   */\n      swap3\n      swap2\n      pop\n      pop\n      jump\t// out\n        /* \"#utility.yul\":7248:8219   */\n    tag_131:\n        /* \"#utility.yul\":7351:7357   */\n      0x00\n        /* \"#utility.yul\":7359:7365   */\n      0x00\n        /* \"#utility.yul\":7367:7373   */\n      0x00\n        /* \"#utility.yul\":7375:7381   */\n      0x00\n        /* \"#utility.yul\":7383:7389   */\n      0x00\n        /* \"#utility.yul\":7432:7435   */\n      0xa0\n        /* \"#utility.yul\":7420:7429   */\n      dup7\n        /* \"#utility.yul\":7411:7418   */\n      dup9\n        /* \"#utility.yul\":7407:7430   */\n      sub\n        /* \"#utility.yul\":7403:7436   */\n      slt\n        /* \"#utility.yul\":7400:7520   */\n      iszero\n      tag_279\n      jumpi\n        /* \"#utility.yul\":7439:7518   */\n      tag_280\n      tag_156\n      jump\t// in\n    tag_280:\n        /* \"#utility.yul\":7400:7520   */\n    tag_279:\n        /* \"#utility.yul\":7559:7560   */\n      0x00\n        /* \"#utility.yul\":7584:7647   */\n      tag_281\n        /* \"#utility.yul\":7639:7646   */\n      dup9\n        /* \"#utility.yul\":7630:7636   */\n      dup3\n        /* \"#utility.yul\":7619:7628   */\n      dup10\n        /* \"#utility.yul\":7615:7637   */\n      add\n        /* \"#utility.yul\":7584:7647   */\n      tag_178\n      jump\t// in\n    tag_281:\n        /* \"#utility.yul\":7574:7647   */\n      swap6\n      pop\n        /* \"#utility.yul\":7530:7657   */\n      pop\n        /* \"#utility.yul\":7696:7698   */\n      0x20\n        /* \"#utility.yul\":7722:7785   */\n      tag_282\n        /* \"#utility.yul\":7777:7784   */\n      dup9\n        /* \"#utility.yul\":7768:7774   */\n      dup3\n        /* \"#utility.yul\":7757:7766   */\n      dup10\n        /* \"#utility.yul\":7753:7775   */\n      add\n        /* \"#utility.yul\":7722:7785   */\n      tag_181\n      jump\t// in\n    tag_282:\n        /* \"#utility.yul\":7712:7785   */\n      swap5\n      pop\n        /* \"#utility.yul\":7667:7795   */\n      pop\n        /* \"#utility.yul\":7834:7836   */\n      0x40\n        /* \"#utility.yul\":7860:7924   */\n      tag_283\n        /* \"#utility.yul\":7916:7923   */\n      dup9\n        /* \"#utility.yul\":7907:7913   */\n      dup3\n        /* \"#utility.yul\":7896:7905   */\n      dup10\n        /* \"#utility.yul\":7892:7914   */\n      add\n        /* \"#utility.yul\":7860:7924   */\n      tag_182\n      jump\t// in\n    tag_283:\n        /* \"#utility.yul\":7850:7924   */\n      swap4\n      pop\n        /* \"#utility.yul\":7805:7934   */\n      pop\n        /* \"#utility.yul\":7973:7975   */\n      0x60\n        /* \"#utility.yul\":7999:8063   */\n      tag_284\n        /* \"#utility.yul\":8055:8062   */\n      dup9\n        /* \"#utility.yul\":8046:8052   */\n      dup3\n        /* \"#utility.yul\":8035:8044   */\n      dup10\n        /* \"#utility.yul\":8031:8053   */\n      add\n        /* \"#utility.yul\":7999:8063   */\n      tag_182\n      jump\t// in\n    tag_284:\n        /* \"#utility.yul\":7989:8063   */\n      swap3\n      pop\n        /* \"#utility.yul\":7944:8073   */\n      pop\n        /* \"#utility.yul\":8112:8115   */\n      0x80\n        /* \"#utility.yul\":8139:8202   */\n      tag_285\n        /* \"#utility.yul\":8194:8201   */\n      dup9\n        /* \"#utility.yul\":8185:8191   */\n      dup3\n        /* \"#utility.yul\":8174:8183   */\n      dup10\n        /* \"#utility.yul\":8170:8192   */\n      add\n        /* \"#utility.yul\":8139:8202   */\n      tag_178\n      jump\t// in\n    tag_285:\n        /* \"#utility.yul\":8129:8202   */\n      swap2\n      pop\n        /* \"#utility.yul\":8083:8212   */\n      pop\n        /* \"#utility.yul\":7248:8219   */\n      swap3\n      swap6\n      pop\n      swap3\n      swap6\n      swap1\n      swap4\n      pop\n      jump\t// out\n        /* \"#utility.yul\":8225:8635   */\n    tag_133:\n        /* \"#utility.yul\":8265:8272   */\n      0x00\n        /* \"#utility.yul\":8288:8308   */\n      tag_287\n        /* \"#utility.yul\":8306:8307   */\n      dup3\n        /* \"#utility.yul\":8288:8308   */\n      tag_162\n      jump\t// in\n    tag_287:\n        /* \"#utility.yul\":8283:8308   */\n      swap2\n      pop\n        /* \"#utility.yul\":8322:8342   */\n      tag_288\n        /* \"#utility.yul\":8340:8341   */\n      dup4\n        /* \"#utility.yul\":8322:8342   */\n      tag_162\n      jump\t// in\n    tag_288:\n        /* \"#utility.yul\":8317:8342   */\n      swap3\n      pop\n        /* \"#utility.yul\":8377:8378   */\n      dup3\n        /* \"#utility.yul\":8374:8375   */\n      dup3\n        /* \"#utility.yul\":8370:8379   */\n      mul\n        /* \"#utility.yul\":8399:8429   */\n      tag_289\n        /* \"#utility.yul\":8417:8428   */\n      dup2\n        /* \"#utility.yul\":8399:8429   */\n      tag_162\n      jump\t// in\n    tag_289:\n        /* \"#utility.yul\":8388:8429   */\n      swap2\n      pop\n        /* \"#utility.yul\":8578:8579   */\n      dup3\n        /* \"#utility.yul\":8569:8576   */\n      dup3\n        /* \"#utility.yul\":8565:8580   */\n      div\n        /* \"#utility.yul\":8562:8563   */\n      dup5\n        /* \"#utility.yul\":8559:8581   */\n      eq\n        /* \"#utility.yul\":8539:8540   */\n      dup4\n        /* \"#utility.yul\":8532:8541   */\n      iszero\n        /* \"#utility.yul\":8512:8595   */\n      or\n        /* \"#utility.yul\":8489:8628   */\n      tag_290\n      jumpi\n        /* \"#utility.yul\":8608:8626   */\n      tag_291\n      tag_171\n      jump\t// in\n    tag_291:\n        /* \"#utility.yul\":8489:8628   */\n    tag_290:\n        /* \"#utility.yul\":8273:8635   */\n      pop\n        /* \"#utility.yul\":8225:8635   */\n      swap3\n      swap2\n      pop\n      pop\n      jump\t// out\n        /* \"#utility.yul\":8641:8821   */\n    tag_183:\n        /* \"#utility.yul\":8689:8766   */\n      0x4e487b7100000000000000000000000000000000000000000000000000000000\n        /* \"#utility.yul\":8686:8687   */\n      0x00\n        /* \"#utility.yul\":8679:8767   */\n      mstore\n        /* \"#utility.yul\":8786:8790   */\n      0x12\n        /* \"#utility.yul\":8783:8784   */\n      0x04\n        /* \"#utility.yul\":8776:8791   */\n      mstore\n        /* \"#utility.yul\":8810:8814   */\n      0x24\n        /* \"#utility.yul\":8807:8808   */\n      0x00\n        /* \"#utility.yul\":8800:8815   */\n      revert\n        /* \"#utility.yul\":8827:9012   */\n    tag_136:\n        /* \"#utility.yul\":8867:8868   */\n      0x00\n        /* \"#utility.yul\":8884:8904   */\n      tag_294\n        /* \"#utility.yul\":8902:8903   */\n      dup3\n        /* \"#utility.yul\":8884:8904   */\n      tag_162\n      jump\t// in\n    tag_294:\n        /* \"#utility.yul\":8879:8904   */\n      swap2\n      pop\n        /* \"#utility.yul\":8918:8938   */\n      tag_295\n        /* \"#utility.yul\":8936:8937   */\n      dup4\n        /* \"#utility.yul\":8918:8938   */\n      tag_162\n      jump\t// in\n    tag_295:\n        /* \"#utility.yul\":8913:8938   */\n      swap3\n      pop\n        /* \"#utility.yul\":8957:8958   */\n      dup3\n        /* \"#utility.yul\":8947:8982   */\n      tag_296\n      jumpi\n        /* \"#utility.yul\":8962:8980   */\n      tag_297\n      tag_183\n      jump\t// in\n    tag_297:\n        /* \"#utility.yul\":8947:8982   */\n    tag_296:\n        /* \"#utility.yul\":9004:9005   */\n      dup3\n        /* \"#utility.yul\":9001:9002   */\n      dup3\n        /* \"#utility.yul\":8997:9006   */\n      div\n        /* \"#utility.yul\":8992:9006   */\n      swap1\n      pop\n        /* \"#utility.yul\":8827:9012   */\n      swap3\n      swap2\n      pop\n      pop\n      jump\t// out\n\n    auxdata: 0xa26469706673582212205088412f8a14f1a5a06fddb4dead5d09b93c78aacdb229cdb87ba3a5e4508c6964736f6c634300081e0033\n}\n",
				"bytecode": {
					"linkReferences": {},
					"object": "60a060405234801561000f575f5ffd5b5060405161157738038061157783398181016040528101906100319190610414565b60015f819055508051825114610073576040517fb5c5c12600000000000000000000000000000000000000000000000000000000815260040160405180910390fd5b5f73ffffffffffffffffffffffffffffffffffffffff168373ffffffffffffffffffffffffffffffffffffffff16036100d8576040517fef8f9dd100000000000000000000000000000000000000000000000000000000815260040160405180910390fd5b5f5f90505b825181101561021c578181815181106100f9576100f861049c565b5b602002602001015160015f8584815181106101175761011661049c565b5b602002602001015173ffffffffffffffffffffffffffffffffffffffff1673ffffffffffffffffffffffffffffffffffffffff1681526020019081526020015f205f6101000a81548173ffffffffffffffffffffffffffffffffffffffff021916908373ffffffffffffffffffffffffffffffffffffffff16021790555060048382815181106101aa576101a961049c565b5b6020026020010151908060018154018082558091505060019003905f5260205f20015f9091909190916101000a81548173ffffffffffffffffffffffffffffffffffffffff021916908373ffffffffffffffffffffffffffffffffffffffff16021790555080806001019150506100dd565b508273ffffffffffffffffffffffffffffffffffffffff1660808173ffffffffffffffffffffffffffffffffffffffff16815250505050506104c9565b5f604051905090565b5f5ffd5b5f5ffd5b5f73ffffffffffffffffffffffffffffffffffffffff82169050919050565b5f6102938261026a565b9050919050565b6102a381610289565b81146102ad575f5ffd5b50565b5f815190506102be8161029a565b92915050565b5f5ffd5b5f601f19601f8301169050919050565b7f4e487b71000000000000000000000000000000000000000000000000000000005f52604160045260245ffd5b61030e826102c8565b810181811067ffffffffffffffff8211171561032d5761032c6102d8565b5b80604052505050565b5f61033f610259565b905061034b8282610305565b919050565b5f67ffffffffffffffff82111561036a576103696102d8565b5b602082029050602081019050919050565b5f5ffd5b5f61039161038c84610350565b610336565b905080838252602082019050602084028301858111156103b4576103b361037b565b5b835b818110156103dd57806103c988826102b0565b8452602084019350506020810190506103b6565b5050509392505050565b5f82601f8301126103fb576103fa6102c4565b5b815161040b84826020860161037f565b91505092915050565b5f5f5f6060848603121561042b5761042a610262565b5b5f610438868287016102b0565b935050602084015167ffffffffffffffff81111561045957610458610266565b5b610465868287016103e7565b925050604084015167ffffffffffffffff81111561048657610485610266565b5b610492868287016103e7565b9150509250925092565b7f4e487b71000000000000000000000000000000000000000000000000000000005f52603260045260245ffd5b60805161108f6104e85f395f81816102a4015261074f015261108f5ff3fe608060405234801561000f575f5ffd5b50600436106100fe575f3560e01c8063a5d5db0c11610095578063c9457f6d11610064578063c9457f6d1461023c578063c9b7c32714610246578063fa76dcf214610262578063ffde1fba14610292576100fe565b8063a5d5db0c146101da578063a5f352b7146101f6578063aaf5eb6814610200578063c601676c1461021e576100fe565b80637d1a4450116100d15780637d1a44501461016457806390a8ae9b146101945780639d45ac89146101b25780639e297554146101d0576100fe565b806328a070251461010257806350328a601461010c5780635e338bb31461012857806365079d7714610146575b5f5ffd5b61010a61029c565b005b61012660048036038101906101219190610bd6565b61029e565b005b6101306102a2565b60405161013d9190610c6f565b60405180910390f35b61014e6102c6565b60405161015b9190610c97565b60405180910390f35b61017e60048036038101906101799190610cb0565b6102cf565b60405161018b9190610c97565b60405180910390f35b61019c6103cf565b6040516101a99190610c97565b60405180910390f35b6101ba6103d4565b6040516101c79190610c97565b60405180910390f35b6101d86103d9565b005b6101f460048036038101906101ef9190610bd6565b6103db565b005b6101fe610699565b005b61020861069b565b6040516102159190610c97565b60405180910390f35b6102266106a7565b6040516102339190610c97565b60405180910390f35b6102446106ac565b005b610260600480360381019061025b9190610cdb565b6106ae565b005b61027c60048036038101906102779190610bd6565b61082e565b6040516102899190610c97565b60405180910390f35b61029a6109fa565b005b565b5050565b7f000000000000000000000000000000000000000000000000000000000000000081565b6402540be40081565b5f5f5f90505b6004805490508111156103c9575f600482815481106102f7576102f6610d06565b5b905f5260205f20015f9054906101000a900473ffffffffffffffffffffffffffffffffffffffff1690505f60025f8673ffffffffffffffffffffffffffffffffffffffff1673ffffffffffffffffffffffffffffffffffffffff1681526020019081526020015f205f8373ffffffffffffffffffffffffffffffffffffffff1673ffffffffffffffffffffffffffffffffffffffff1681526020019081526020015f205490506103a7828261082e565b846103b29190610d60565b9350505080806103c190610d93565b9150506102d5565b50919050565b603281565b606481565b565b805f8103610415576040517fcb1d3f7d00000000000000000000000000000000000000000000000000000000815260040160405180910390fd5b825f73ffffffffffffffffffffffffffffffffffffffff1660015f8373ffffffffffffffffffffffffffffffffffffffff1673ffffffffffffffffffffffffffffffffffffffff1681526020019081526020015f205f9054906101000a900473ffffffffffffffffffffffffffffffffffffffff1673ffffffffffffffffffffffffffffffffffffffff16036104d7576040517fa802cfbe00000000000000000000000000000000000000000000000000000000815260040160405180910390fd5b6104df6109fc565b8260025f3373ffffffffffffffffffffffffffffffffffffffff1673ffffffffffffffffffffffffffffffffffffffff1681526020019081526020015f205f8673ffffffffffffffffffffffffffffffffffffffff1673ffffffffffffffffffffffffffffffffffffffff1681526020019081526020015f205f8282546105669190610d60565b925050819055505f8473ffffffffffffffffffffffffffffffffffffffff166323b872dd3330876040518463ffffffff1660e01b81526004016105ab93929190610de9565b6020604051808303815f875af11580156105c7573d5f5f3e3d5ffd5b505050506040513d601f19601f820116820180604052508101906105eb9190610e53565b90508061062f57846040517fbc3fe1270000000000000000000000000000000000000000000000000000000081526004016106269190610e7e565b60405180910390fd5b838573ffffffffffffffffffffffffffffffffffffffff163373ffffffffffffffffffffffffffffffffffffffff167ff1c0dd7e9b98bbff859029005ef89b127af049cd18df1a8d79f0b7e019911e5660405160405180910390a450610693610a40565b50505050565b565b670de0b6b3a764000081565b600181565b565b805f81036106e8576040517fcb1d3f7d00000000000000000000000000000000000000000000000000000000815260040160405180910390fd5b6106f06109fc565b8160035f3373ffffffffffffffffffffffffffffffffffffffff1673ffffffffffffffffffffffffffffffffffffffff1681526020019081526020015f205f82825461073c9190610d60565b9250508190555061074c33610a49565b5f7f000000000000000000000000000000000000000000000000000000000000000073ffffffffffffffffffffffffffffffffffffffff166340c10f1933856040518363ffffffff1660e01b81526004016107a8929190610e97565b6020604051808303815f875af11580156107c4573d5f5f3e3d5ffd5b505050506040513d601f19601f820116820180604052508101906107e89190610e53565b905080610821576040517f6f4e810b00000000000000000000000000000000000000000000000000000000815260040160405180910390fd5b5061082a610a40565b5050565b5f825f73ffffffffffffffffffffffffffffffffffffffff1660015f8373ffffffffffffffffffffffffffffffffffffffff1673ffffffffffffffffffffffffffffffffffffffff1681526020019081526020015f205f9054906101000a900473ffffffffffffffffffffffffffffffffffffffff1673ffffffffffffffffffffffffffffffffffffffff16036108f1576040517fa802cfbe00000000000000000000000000000000000000000000000000000000815260040160405180910390fd5b5f60015f8673ffffffffffffffffffffffffffffffffffffffff1673ffffffffffffffffffffffffffffffffffffffff1681526020019081526020015f205f9054906101000a900473ffffffffffffffffffffffffffffffffffffffff1673ffffffffffffffffffffffffffffffffffffffff1663feaf968c6040518163ffffffff1660e01b815260040160a060405180830381865afa158015610997573d5f5f3e3d5ffd5b505050506040513d601f19601f820116820180604052508101906109bb9190610f44565b505050915050670de0b6b3a7640000846402540be400836109dc9190610fbb565b6109e69190610fbb565b6109f09190611029565b9250505092915050565b565b60025f5403610a37576040517f3ee5aeb500000000000000000000000000000000000000000000000000000000815260040160405180910390fd5b60025f81905550565b60015f81905550565b5f610a5382610a9e565b905060018111610a9a57806040517fe580cc61000000000000000000000000000000000000000000000000000000008152600401610a919190610c97565b60405180910390fd5b5050565b5f5f5f610aaa84610af3565b915091505f6064603283610abe9190610fbb565b610ac89190611029565b905082670de0b6b3a764000082610adf9190610fbb565b610ae99190611029565b9350505050919050565b5f5f60035f8473ffffffffffffffffffffffffffffffffffffffff1673ffffffffffffffffffffffffffffffffffffffff1681526020019081526020015f20549150610b3e836102cf565b9050915091565b5f5ffd5b5f73ffffffffffffffffffffffffffffffffffffffff82169050919050565b5f610b7282610b49565b9050919050565b610b8281610b68565b8114610b8c575f5ffd5b50565b5f81359050610b9d81610b79565b92915050565b5f819050919050565b610bb581610ba3565b8114610bbf575f5ffd5b50565b5f81359050610bd081610bac565b92915050565b5f5f60408385031215610bec57610beb610b45565b5b5f610bf985828601610b8f565b9250506020610c0a85828601610bc2565b9150509250929050565b5f819050919050565b5f610c37610c32610c2d84610b49565b610c14565b610b49565b9050919050565b5f610c4882610c1d565b9050919050565b5f610c5982610c3e565b9050919050565b610c6981610c4f565b82525050565b5f602082019050610c825f830184610c60565b92915050565b610c9181610ba3565b82525050565b5f602082019050610caa5f830184610c88565b92915050565b5f60208284031215610cc557610cc4610b45565b5b5f610cd284828501610b8f565b91505092915050565b5f60208284031215610cf057610cef610b45565b5b5f610cfd84828501610bc2565b91505092915050565b7f4e487b71000000000000000000000000000000000000000000000000000000005f52603260045260245ffd5b7f4e487b71000000000000000000000000000000000000000000000000000000005f52601160045260245ffd5b5f610d6a82610ba3565b9150610d7583610ba3565b9250828201905080821115610d8d57610d8c610d33565b5b92915050565b5f610d9d82610ba3565b91507fffffffffffffffffffffffffffffffffffffffffffffffffffffffffffffffff8203610dcf57610dce610d33565b5b600182019050919050565b610de381610b68565b82525050565b5f606082019050610dfc5f830186610dda565b610e096020830185610dda565b610e166040830184610c88565b949350505050565b5f8115159050919050565b610e3281610e1e565b8114610e3c575f5ffd5b50565b5f81519050610e4d81610e29565b92915050565b5f60208284031215610e6857610e67610b45565b5b5f610e7584828501610e3f565b91505092915050565b5f602082019050610e915f830184610dda565b92915050565b5f604082019050610eaa5f830185610dda565b610eb76020830184610c88565b9392505050565b5f69ffffffffffffffffffff82169050919050565b610edc81610ebe565b8114610ee6575f5ffd5b50565b5f81519050610ef781610ed3565b92915050565b5f819050919050565b610f0f81610efd565b8114610f19575f5ffd5b50565b5f81519050610f2a81610f06565b92915050565b5f81519050610f3e81610bac565b92915050565b5f5f5f5f5f60a08688031215610f5d57610f5c610b45565b5b5f610f6a88828901610ee9565b9550506020610f7b88828901610f1c565b9450506040610f8c88828901610f30565b9350506060610f9d88828901610f30565b9250506080610fae88828901610ee9565b9150509295509295909350565b5f610fc582610ba3565b9150610fd083610ba3565b9250828202610fde81610ba3565b91508282048414831517610ff557610ff4610d33565b5b5092915050565b7f4e487b71000000000000000000000000000000000000000000000000000000005f52601260045260245ffd5b5f61103382610ba3565b915061103e83610ba3565b92508261104e5761104d610ffc565b5b82820490509291505056fea26469706673582212205088412f8a14f1a5a06fddb4dead5d09b93c78aacdb229cdb87ba3a5e4508c6964736f6c634300081e0033",
					"opcodes": "PUSH1 0xA0 PUSH1 0x40 MSTORE CALLVALUE DUP1 ISZERO PUSH2 0xF JUMPI PUSH0 PUSH0 REVERT JUMPDEST POP PUSH1 0x40 MLOAD PUSH2 0x1577 CODESIZE SUB DUP1 PUSH2 0x1577 DUP4 CODECOPY DUP2 DUP2 ADD PUSH1 0x40 MSTORE DUP2 ADD SWAP1 PUSH2 0x31 SWAP2 SWAP1 PUSH2 0x414 JUMP JUMPDEST PUSH1 0x1 PUSH0 DUP2 SWAP1 SSTORE POP DUP1 MLOAD DUP3 MLOAD EQ PUSH2 0x73 JUMPI PUSH1 0x40 MLOAD PUSH32 0xB5C5C12600000000000000000000000000000000000000000000000000000000 DUP2 MSTORE PUSH1 0x4 ADD PUSH1 0x40 MLOAD DUP1 SWAP2 SUB SWAP1 REVERT JUMPDEST PUSH0 PUSH20 0xFFFFFFFFFFFFFFFFFFFFFFFFFFFFFFFFFFFFFFFF AND DUP4 PUSH20 0xFFFFFFFFFFFFFFFFFFFFFFFFFFFFFFFFFFFFFFFF AND SUB PUSH2 0xD8 JUMPI PUSH1 0x40 MLOAD PUSH32 0xEF8F9DD100000000000000000000000000000000000000000000000000000000 DUP2 MSTORE PUSH1 0x4 ADD PUSH1 0x40 MLOAD DUP1 SWAP2 SUB SWAP1 REVERT JUMPDEST PUSH0 PUSH0 SWAP1 POP JUMPDEST DUP3 MLOAD DUP2 LT ISZERO PUSH2 0x21C JUMPI DUP2 DUP2 DUP2 MLOAD DUP2 LT PUSH2 0xF9 JUMPI PUSH2 0xF8 PUSH2 0x49C JUMP JUMPDEST JUMPDEST PUSH1 0x20 MUL PUSH1 0x20 ADD ADD MLOAD PUSH1 0x1 PUSH0 DUP6 DUP5 DUP2 MLOAD DUP2 LT PUSH2 0x117 JUMPI PUSH2 0x116 PUSH2 0x49C JUMP JUMPDEST JUMPDEST PUSH1 0x20 MUL PUSH1 0x20 ADD ADD MLOAD PUSH20 0xFFFFFFFFFFFFFFFFFFFFFFFFFFFFFFFFFFFFFFFF AND PUSH20 0xFFFFFFFFFFFFFFFFFFFFFFFFFFFFFFFFFFFFFFFF AND DUP2 MSTORE PUSH1 0x20 ADD SWAP1 DUP2 MSTORE PUSH1 0x20 ADD PUSH0 KECCAK256 PUSH0 PUSH2 0x100 EXP DUP2 SLOAD DUP2 PUSH20 0xFFFFFFFFFFFFFFFFFFFFFFFFFFFFFFFFFFFFFFFF MUL NOT AND SWAP1 DUP4 PUSH20 0xFFFFFFFFFFFFFFFFFFFFFFFFFFFFFFFFFFFFFFFF AND MUL OR SWAP1 SSTORE POP PUSH1 0x4 DUP4 DUP3 DUP2 MLOAD DUP2 LT PUSH2 0x1AA JUMPI PUSH2 0x1A9 PUSH2 0x49C JUMP JUMPDEST JUMPDEST PUSH1 0x20 MUL PUSH1 0x20 ADD ADD MLOAD SWAP1 DUP1 PUSH1 0x1 DUP2 SLOAD ADD DUP1 DUP3 SSTORE DUP1 SWAP2 POP POP PUSH1 0x1 SWAP1 SUB SWAP1 PUSH0 MSTORE PUSH1 0x20 PUSH0 KECCAK256 ADD PUSH0 SWAP1 SWAP2 SWAP1 SWAP2 SWAP1 SWAP2 PUSH2 0x100 EXP DUP2 SLOAD DUP2 PUSH20 0xFFFFFFFFFFFFFFFFFFFFFFFFFFFFFFFFFFFFFFFF MUL NOT AND SWAP1 DUP4 PUSH20 0xFFFFFFFFFFFFFFFFFFFFFFFFFFFFFFFFFFFFFFFF AND MUL OR SWAP1 SSTORE POP DUP1 DUP1 PUSH1 0x1 ADD SWAP2 POP POP PUSH2 0xDD JUMP JUMPDEST POP DUP3 PUSH20 0xFFFFFFFFFFFFFFFFFFFFFFFFFFFFFFFFFFFFFFFF AND PUSH1 0x80 DUP2 PUSH20 0xFFFFFFFFFFFFFFFFFFFFFFFFFFFFFFFFFFFFFFFF AND DUP2 MSTORE POP POP POP POP POP PUSH2 0x4C9 JUMP JUMPDEST PUSH0 PUSH1 0x40 MLOAD SWAP1 POP SWAP1 JUMP JUMPDEST PUSH0 PUSH0 REVERT JUMPDEST PUSH0 PUSH0 REVERT JUMPDEST PUSH0 PUSH20 0xFFFFFFFFFFFFFFFFFFFFFFFFFFFFFFFFFFFFFFFF DUP3 AND SWAP1 POP SWAP2 SWAP1 POP JUMP JUMPDEST PUSH0 PUSH2 0x293 DUP3 PUSH2 0x26A JUMP JUMPDEST SWAP1 POP SWAP2 SWAP1 POP JUMP JUMPDEST PUSH2 0x2A3 DUP2 PUSH2 0x289 JUMP JUMPDEST DUP2 EQ PUSH2 0x2AD JUMPI PUSH0 PUSH0 REVERT JUMPDEST POP JUMP JUMPDEST PUSH0 DUP2 MLOAD SWAP1 POP PUSH2 0x2BE DUP2 PUSH2 0x29A JUMP JUMPDEST SWAP3 SWAP2 POP POP JUMP JUMPDEST PUSH0 PUSH0 REVERT JUMPDEST PUSH0 PUSH1 0x1F NOT PUSH1 0x1F DUP4 ADD AND SWAP1 POP SWAP2 SWAP1 POP JUMP JUMPDEST PUSH32 0x4E487B7100000000000000000000000000000000000000000000000000000000 PUSH0 MSTORE PUSH1 0x41 PUSH1 0x4 MSTORE PUSH1 0x24 PUSH0 REVERT JUMPDEST PUSH2 0x30E DUP3 PUSH2 0x2C8 JUMP JUMPDEST DUP2 ADD DUP2 DUP2 LT PUSH8 0xFFFFFFFFFFFFFFFF DUP3 GT OR ISZERO PUSH2 0x32D JUMPI PUSH2 0x32C PUSH2 0x2D8 JUMP JUMPDEST JUMPDEST DUP1 PUSH1 0x40 MSTORE POP POP POP JUMP JUMPDEST PUSH0 PUSH2 0x33F PUSH2 0x259 JUMP JUMPDEST SWAP1 POP PUSH2 0x34B DUP3 DUP3 PUSH2 0x305 JUMP JUMPDEST SWAP2 SWAP1 POP JUMP JUMPDEST PUSH0 PUSH8 0xFFFFFFFFFFFFFFFF DUP3 GT ISZERO PUSH2 0x36A JUMPI PUSH2 0x369 PUSH2 0x2D8 JUMP JUMPDEST JUMPDEST PUSH1 0x20 DUP3 MUL SWAP1 POP PUSH1 0x20 DUP2 ADD SWAP1 POP SWAP2 SWAP1 POP JUMP JUMPDEST PUSH0 PUSH0 REVERT JUMPDEST PUSH0 PUSH2 0x391 PUSH2 0x38C DUP5 PUSH2 0x350 JUMP JUMPDEST PUSH2 0x336 JUMP JUMPDEST SWAP1 POP DUP1 DUP4 DUP3 MSTORE PUSH1 0x20 DUP3 ADD SWAP1 POP PUSH1 0x20 DUP5 MUL DUP4 ADD DUP6 DUP2 GT ISZERO PUSH2 0x3B4 JUMPI PUSH2 0x3B3 PUSH2 0x37B JUMP JUMPDEST JUMPDEST DUP4 JUMPDEST DUP2 DUP2 LT ISZERO PUSH2 0x3DD JUMPI DUP1 PUSH2 0x3C9 DUP9 DUP3 PUSH2 0x2B0 JUMP JUMPDEST DUP5 MSTORE PUSH1 0x20 DUP5 ADD SWAP4 POP POP PUSH1 0x20 DUP2 ADD SWAP1 POP PUSH2 0x3B6 JUMP JUMPDEST POP POP POP SWAP4 SWAP3 POP POP POP JUMP JUMPDEST PUSH0 DUP3 PUSH1 0x1F DUP4 ADD SLT PUSH2 0x3FB JUMPI PUSH2 0x3FA PUSH2 0x2C4 JUMP JUMPDEST JUMPDEST DUP2 MLOAD PUSH2 0x40B DUP5 DUP3 PUSH1 0x20 DUP7 ADD PUSH2 0x37F JUMP JUMPDEST SWAP2 POP POP SWAP3 SWAP2 POP POP JUMP JUMPDEST PUSH0 PUSH0 PUSH0 PUSH1 0x60 DUP5 DUP7 SUB SLT ISZERO PUSH2 0x42B JUMPI PUSH2 0x42A PUSH2 0x262 JUMP JUMPDEST JUMPDEST PUSH0 PUSH2 0x438 DUP7 DUP3 DUP8 ADD PUSH2 0x2B0 JUMP JUMPDEST SWAP4 POP POP PUSH1 0x20 DUP5 ADD MLOAD PUSH8 0xFFFFFFFFFFFFFFFF DUP2 GT ISZERO PUSH2 0x459 JUMPI PUSH2 0x458 PUSH2 0x266 JUMP JUMPDEST JUMPDEST PUSH2 0x465 DUP7 DUP3 DUP8 ADD PUSH2 0x3E7 JUMP JUMPDEST SWAP3 POP POP PUSH1 0x40 DUP5 ADD MLOAD PUSH8 0xFFFFFFFFFFFFFFFF DUP2 GT ISZERO PUSH2 0x486 JUMPI PUSH2 0x485 PUSH2 0x266 JUMP JUMPDEST JUMPDEST PUSH2 0x492 DUP7 DUP3 DUP8 ADD PUSH2 0x3E7 JUMP JUMPDEST SWAP2 POP POP SWAP3 POP SWAP3 POP SWAP3 JUMP JUMPDEST PUSH32 0x4E487B7100000000000000000000000000000000000000000000000000000000 PUSH0 MSTORE PUSH1 0x32 PUSH1 0x4 MSTORE PUSH1 0x24 PUSH0 REVERT JUMPDEST PUSH1 0x80 MLOAD PUSH2 0x108F PUSH2 0x4E8 PUSH0 CODECOPY PUSH0 DUP2 DUP2 PUSH2 0x2A4 ADD MSTORE PUSH2 0x74F ADD MSTORE PUSH2 0x108F PUSH0 RETURN INVALID PUSH1 0x80 PUSH1 0x40 MSTORE CALLVALUE DUP1 ISZERO PUSH2 0xF JUMPI PUSH0 PUSH0 REVERT JUMPDEST POP PUSH1 0x4 CALLDATASIZE LT PUSH2 0xFE JUMPI PUSH0 CALLDATALOAD PUSH1 0xE0 SHR DUP1 PUSH4 0xA5D5DB0C GT PUSH2 0x95 JUMPI DUP1 PUSH4 0xC9457F6D GT PUSH2 0x64 JUMPI DUP1 PUSH4 0xC9457F6D EQ PUSH2 0x23C JUMPI DUP1 PUSH4 0xC9B7C327 EQ PUSH2 0x246 JUMPI DUP1 PUSH4 0xFA76DCF2 EQ PUSH2 0x262 JUMPI DUP1 PUSH4 0xFFDE1FBA EQ PUSH2 0x292 JUMPI PUSH2 0xFE JUMP JUMPDEST DUP1 PUSH4 0xA5D5DB0C EQ PUSH2 0x1DA JUMPI DUP1 PUSH4 0xA5F352B7 EQ PUSH2 0x1F6 JUMPI DUP1 PUSH4 0xAAF5EB68 EQ PUSH2 0x200 JUMPI DUP1 PUSH4 0xC601676C EQ PUSH2 0x21E JUMPI PUSH2 0xFE JUMP JUMPDEST DUP1 PUSH4 0x7D1A4450 GT PUSH2 0xD1 JUMPI DUP1 PUSH4 0x7D1A4450 EQ PUSH2 0x164 JUMPI DUP1 PUSH4 0x90A8AE9B EQ PUSH2 0x194 JUMPI DUP1 PUSH4 0x9D45AC89 EQ PUSH2 0x1B2 JUMPI DUP1 PUSH4 0x9E297554 EQ PUSH2 0x1D0 JUMPI PUSH2 0xFE JUMP JUMPDEST DUP1 PUSH4 0x28A07025 EQ PUSH2 0x102 JUMPI DUP1 PUSH4 0x50328A60 EQ PUSH2 0x10C JUMPI DUP1 PUSH4 0x5E338BB3 EQ PUSH2 0x128 JUMPI DUP1 PUSH4 0x65079D77 EQ PUSH2 0x146 JUMPI JUMPDEST PUSH0 PUSH0 REVERT JUMPDEST PUSH2 0x10A PUSH2 0x29C JUMP JUMPDEST STOP JUMPDEST PUSH2 0x126 PUSH1 0x4 DUP1 CALLDATASIZE SUB DUP2 ADD SWAP1 PUSH2 0x121 SWAP2 SWAP1 PUSH2 0xBD6 JUMP JUMPDEST PUSH2 0x29E JUMP JUMPDEST STOP JUMPDEST PUSH2 0x130 PUSH2 0x2A2 JUMP JUMPDEST PUSH1 0x40 MLOAD PUSH2 0x13D SWAP2 SWAP1 PUSH2 0xC6F JUMP JUMPDEST PUSH1 0x40 MLOAD DUP1 SWAP2 SUB SWAP1 RETURN JUMPDEST PUSH2 0x14E PUSH2 0x2C6 JUMP JUMPDEST PUSH1 0x40 MLOAD PUSH2 0x15B SWAP2 SWAP1 PUSH2 0xC97 JUMP JUMPDEST PUSH1 0x40 MLOAD DUP1 SWAP2 SUB SWAP1 RETURN JUMPDEST PUSH2 0x17E PUSH1 0x4 DUP1 CALLDATASIZE SUB DUP2 ADD SWAP1 PUSH2 0x179 SWAP2 SWAP1 PUSH2 0xCB0 JUMP JUMPDEST PUSH2 0x2CF JUMP JUMPDEST PUSH1 0x40 MLOAD PUSH2 0x18B SWAP2 SWAP1 PUSH2 0xC97 JUMP JUMPDEST PUSH1 0x40 MLOAD DUP1 SWAP2 SUB SWAP1 RETURN JUMPDEST PUSH2 0x19C PUSH2 0x3CF JUMP JUMPDEST PUSH1 0x40 MLOAD PUSH2 0x1A9 SWAP2 SWAP1 PUSH2 0xC97 JUMP JUMPDEST PUSH1 0x40 MLOAD DUP1 SWAP2 SUB SWAP1 RETURN JUMPDEST PUSH2 0x1BA PUSH2 0x3D4 JUMP JUMPDEST PUSH1 0x40 MLOAD PUSH2 0x1C7 SWAP2 SWAP1 PUSH2 0xC97 JUMP JUMPDEST PUSH1 0x40 MLOAD DUP1 SWAP2 SUB SWAP1 RETURN JUMPDEST PUSH2 0x1D8 PUSH2 0x3D9 JUMP JUMPDEST STOP JUMPDEST PUSH2 0x1F4 PUSH1 0x4 DUP1 CALLDATASIZE SUB DUP2 ADD SWAP1 PUSH2 0x1EF SWAP2 SWAP1 PUSH2 0xBD6 JUMP JUMPDEST PUSH2 0x3DB JUMP JUMPDEST STOP JUMPDEST PUSH2 0x1FE PUSH2 0x699 JUMP JUMPDEST STOP JUMPDEST PUSH2 0x208 PUSH2 0x69B JUMP JUMPDEST PUSH1 0x40 MLOAD PUSH2 0x215 SWAP2 SWAP1 PUSH2 0xC97 JUMP JUMPDEST PUSH1 0x40 MLOAD DUP1 SWAP2 SUB SWAP1 RETURN JUMPDEST PUSH2 0x226 PUSH2 0x6A7 JUMP JUMPDEST PUSH1 0x40 MLOAD PUSH2 0x233 SWAP2 SWAP1 PUSH2 0xC97 JUMP JUMPDEST PUSH1 0x40 MLOAD DUP1 SWAP2 SUB SWAP1 RETURN JUMPDEST PUSH2 0x244 PUSH2 0x6AC JUMP JUMPDEST STOP JUMPDEST PUSH2 0x260 PUSH1 0x4 DUP1 CALLDATASIZE SUB DUP2 ADD SWAP1 PUSH2 0x25B SWAP2 SWAP1 PUSH2 0xCDB JUMP JUMPDEST PUSH2 0x6AE JUMP JUMPDEST STOP JUMPDEST PUSH2 0x27C PUSH1 0x4 DUP1 CALLDATASIZE SUB DUP2 ADD SWAP1 PUSH2 0x277 SWAP2 SWAP1 PUSH2 0xBD6 JUMP JUMPDEST PUSH2 0x82E JUMP JUMPDEST PUSH1 0x40 MLOAD PUSH2 0x289 SWAP2 SWAP1 PUSH2 0xC97 JUMP JUMPDEST PUSH1 0x40 MLOAD DUP1 SWAP2 SUB SWAP1 RETURN JUMPDEST PUSH2 0x29A PUSH2 0x9FA JUMP JUMPDEST STOP JUMPDEST JUMP JUMPDEST POP POP JUMP JUMPDEST PUSH32 0x0 DUP2 JUMP JUMPDEST PUSH5 0x2540BE400 DUP2 JUMP JUMPDEST PUSH0 PUSH0 PUSH0 SWAP1 POP JUMPDEST PUSH1 0x4 DUP1 SLOAD SWAP1 POP DUP2 GT ISZERO PUSH2 0x3C9 JUMPI PUSH0 PUSH1 0x4 DUP3 DUP2 SLOAD DUP2 LT PUSH2 0x2F7 JUMPI PUSH2 0x2F6 PUSH2 0xD06 JUMP JUMPDEST JUMPDEST SWAP1 PUSH0 MSTORE PUSH1 0x20 PUSH0 KECCAK256 ADD PUSH0 SWAP1 SLOAD SWAP1 PUSH2 0x100 EXP SWAP1 DIV PUSH20 0xFFFFFFFFFFFFFFFFFFFFFFFFFFFFFFFFFFFFFFFF AND SWAP1 POP PUSH0 PUSH1 0x2 PUSH0 DUP7 PUSH20 0xFFFFFFFFFFFFFFFFFFFFFFFFFFFFFFFFFFFFFFFF AND PUSH20 0xFFFFFFFFFFFFFFFFFFFFFFFFFFFFFFFFFFFFFFFF AND DUP2 MSTORE PUSH1 0x20 ADD SWAP1 DUP2 MSTORE PUSH1 0x20 ADD PUSH0 KECCAK256 PUSH0 DUP4 PUSH20 0xFFFFFFFFFFFFFFFFFFFFFFFFFFFFFFFFFFFFFFFF AND PUSH20 0xFFFFFFFFFFFFFFFFFFFFFFFFFFFFFFFFFFFFFFFF AND DUP2 MSTORE PUSH1 0x20 ADD SWAP1 DUP2 MSTORE PUSH1 0x20 ADD PUSH0 KECCAK256 SLOAD SWAP1 POP PUSH2 0x3A7 DUP3 DUP3 PUSH2 0x82E JUMP JUMPDEST DUP5 PUSH2 0x3B2 SWAP2 SWAP1 PUSH2 0xD60 JUMP JUMPDEST SWAP4 POP POP POP DUP1 DUP1 PUSH2 0x3C1 SWAP1 PUSH2 0xD93 JUMP JUMPDEST SWAP2 POP POP PUSH2 0x2D5 JUMP JUMPDEST POP SWAP2 SWAP1 POP JUMP JUMPDEST PUSH1 0x32 DUP2 JUMP JUMPDEST PUSH1 0x64 DUP2 JUMP JUMPDEST JUMP JUMPDEST DUP1 PUSH0 DUP2 SUB PUSH2 0x415 JUMPI PUSH1 0x40 MLOAD PUSH32 0xCB1D3F7D00000000000000000000000000000000000000000000000000000000 DUP2 MSTORE PUSH1 0x4 ADD PUSH1 0x40 MLOAD DUP1 SWAP2 SUB SWAP1 REVERT JUMPDEST DUP3 PUSH0 PUSH20 0xFFFFFFFFFFFFFFFFFFFFFFFFFFFFFFFFFFFFFFFF AND PUSH1 0x1 PUSH0 DUP4 PUSH20 0xFFFFFFFFFFFFFFFFFFFFFFFFFFFFFFFFFFFFFFFF AND PUSH20 0xFFFFFFFFFFFFFFFFFFFFFFFFFFFFFFFFFFFFFFFF AND DUP2 MSTORE PUSH1 0x20 ADD SWAP1 DUP2 MSTORE PUSH1 0x20 ADD PUSH0 KECCAK256 PUSH0 SWAP1 SLOAD SWAP1 PUSH2 0x100 EXP SWAP1 DIV PUSH20 0xFFFFFFFFFFFFFFFFFFFFFFFFFFFFFFFFFFFFFFFF AND PUSH20 0xFFFFFFFFFFFFFFFFFFFFFFFFFFFFFFFFFFFFFFFF AND SUB PUSH2 0x4D7 JUMPI PUSH1 0x40 MLOAD PUSH32 0xA802CFBE00000000000000000000000000000000000000000000000000000000 DUP2 MSTORE PUSH1 0x4 ADD PUSH1 0x40 MLOAD DUP1 SWAP2 SUB SWAP1 REVERT JUMPDEST PUSH2 0x4DF PUSH2 0x9FC JUMP JUMPDEST DUP3 PUSH1 0x2 PUSH0 CALLER PUSH20 0xFFFFFFFFFFFFFFFFFFFFFFFFFFFFFFFFFFFFFFFF AND PUSH20 0xFFFFFFFFFFFFFFFFFFFFFFFFFFFFFFFFFFFFFFFF AND DUP2 MSTORE PUSH1 0x20 ADD SWAP1 DUP2 MSTORE PUSH1 0x20 ADD PUSH0 KECCAK256 PUSH0 DUP7 PUSH20 0xFFFFFFFFFFFFFFFFFFFFFFFFFFFFFFFFFFFFFFFF AND PUSH20 0xFFFFFFFFFFFFFFFFFFFFFFFFFFFFFFFFFFFFFFFF AND DUP2 MSTORE PUSH1 0x20 ADD SWAP1 DUP2 MSTORE PUSH1 0x20 ADD PUSH0 KECCAK256 PUSH0 DUP3 DUP3 SLOAD PUSH2 0x566 SWAP2 SWAP1 PUSH2 0xD60 JUMP JUMPDEST SWAP3 POP POP DUP2 SWAP1 SSTORE POP PUSH0 DUP5 PUSH20 0xFFFFFFFFFFFFFFFFFFFFFFFFFFFFFFFFFFFFFFFF AND PUSH4 0x23B872DD CALLER ADDRESS DUP8 PUSH1 0x40 MLOAD DUP5 PUSH4 0xFFFFFFFF AND PUSH1 0xE0 SHL DUP2 MSTORE PUSH1 0x4 ADD PUSH2 0x5AB SWAP4 SWAP3 SWAP2 SWAP1 PUSH2 0xDE9 JUMP JUMPDEST PUSH1 0x20 PUSH1 0x40 MLOAD DUP1 DUP4 SUB DUP2 PUSH0 DUP8 GAS CALL ISZERO DUP1 ISZERO PUSH2 0x5C7 JUMPI RETURNDATASIZE PUSH0 PUSH0 RETURNDATACOPY RETURNDATASIZE PUSH0 REVERT JUMPDEST POP POP POP POP PUSH1 0x40 MLOAD RETURNDATASIZE PUSH1 0x1F NOT PUSH1 0x1F DUP3 ADD AND DUP3 ADD DUP1 PUSH1 0x40 MSTORE POP DUP2 ADD SWAP1 PUSH2 0x5EB SWAP2 SWAP1 PUSH2 0xE53 JUMP JUMPDEST SWAP1 POP DUP1 PUSH2 0x62F JUMPI DUP5 PUSH1 0x40 MLOAD PUSH32 0xBC3FE12700000000000000000000000000000000000000000000000000000000 DUP2 MSTORE PUSH1 0x4 ADD PUSH2 0x626 SWAP2 SWAP1 PUSH2 0xE7E JUMP JUMPDEST PUSH1 0x40 MLOAD DUP1 SWAP2 SUB SWAP1 REVERT JUMPDEST DUP4 DUP6 PUSH20 0xFFFFFFFFFFFFFFFFFFFFFFFFFFFFFFFFFFFFFFFF AND CALLER PUSH20 0xFFFFFFFFFFFFFFFFFFFFFFFFFFFFFFFFFFFFFFFF AND PUSH32 0xF1C0DD7E9B98BBFF859029005EF89B127AF049CD18DF1A8D79F0B7E019911E56 PUSH1 0x40 MLOAD PUSH1 0x40 MLOAD DUP1 SWAP2 SUB SWAP1 LOG4 POP PUSH2 0x693 PUSH2 0xA40 JUMP JUMPDEST POP POP POP POP JUMP JUMPDEST JUMP JUMPDEST PUSH8 0xDE0B6B3A7640000 DUP2 JUMP JUMPDEST PUSH1 0x1 DUP2 JUMP JUMPDEST JUMP JUMPDEST DUP1 PUSH0 DUP2 SUB PUSH2 0x6E8 JUMPI PUSH1 0x40 MLOAD PUSH32 0xCB1D3F7D00000000000000000000000000000000000000000000000000000000 DUP2 MSTORE PUSH1 0x4 ADD PUSH1 0x40 MLOAD DUP1 SWAP2 SUB SWAP1 REVERT JUMPDEST PUSH2 0x6F0 PUSH2 0x9FC JUMP JUMPDEST DUP2 PUSH1 0x3 PUSH0 CALLER PUSH20 0xFFFFFFFFFFFFFFFFFFFFFFFFFFFFFFFFFFFFFFFF AND PUSH20 0xFFFFFFFFFFFFFFFFFFFFFFFFFFFFFFFFFFFFFFFF AND DUP2 MSTORE PUSH1 0x20 ADD SWAP1 DUP2 MSTORE PUSH1 0x20 ADD PUSH0 KECCAK256 PUSH0 DUP3 DUP3 SLOAD PUSH2 0x73C SWAP2 SWAP1 PUSH2 0xD60 JUMP JUMPDEST SWAP3 POP POP DUP2 SWAP1 SSTORE POP PUSH2 0x74C CALLER PUSH2 0xA49 JUMP JUMPDEST PUSH0 PUSH32 0x0 PUSH20 0xFFFFFFFFFFFFFFFFFFFFFFFFFFFFFFFFFFFFFFFF AND PUSH4 0x40C10F19 CALLER DUP6 PUSH1 0x40 MLOAD DUP4 PUSH4 0xFFFFFFFF AND PUSH1 0xE0 SHL DUP2 MSTORE PUSH1 0x4 ADD PUSH2 0x7A8 SWAP3 SWAP2 SWAP1 PUSH2 0xE97 JUMP JUMPDEST PUSH1 0x20 PUSH1 0x40 MLOAD DUP1 DUP4 SUB DUP2 PUSH0 DUP8 GAS CALL ISZERO DUP1 ISZERO PUSH2 0x7C4 JUMPI RETURNDATASIZE PUSH0 PUSH0 RETURNDATACOPY RETURNDATASIZE PUSH0 REVERT JUMPDEST POP POP POP POP PUSH1 0x40 MLOAD RETURNDATASIZE PUSH1 0x1F NOT PUSH1 0x1F DUP3 ADD AND DUP3 ADD DUP1 PUSH1 0x40 MSTORE POP DUP2 ADD SWAP1 PUSH2 0x7E8 SWAP2 SWAP1 PUSH2 0xE53 JUMP JUMPDEST SWAP1 POP DUP1 PUSH2 0x821 JUMPI PUSH1 0x40 MLOAD PUSH32 0x6F4E810B00000000000000000000000000000000000000000000000000000000 DUP2 MSTORE PUSH1 0x4 ADD PUSH1 0x40 MLOAD DUP1 SWAP2 SUB SWAP1 REVERT JUMPDEST POP PUSH2 0x82A PUSH2 0xA40 JUMP JUMPDEST POP POP JUMP JUMPDEST PUSH0 DUP3 PUSH0 PUSH20 0xFFFFFFFFFFFFFFFFFFFFFFFFFFFFFFFFFFFFFFFF AND PUSH1 0x1 PUSH0 DUP4 PUSH20 0xFFFFFFFFFFFFFFFFFFFFFFFFFFFFFFFFFFFFFFFF AND PUSH20 0xFFFFFFFFFFFFFFFFFFFFFFFFFFFFFFFFFFFFFFFF AND DUP2 MSTORE PUSH1 0x20 ADD SWAP1 DUP2 MSTORE PUSH1 0x20 ADD PUSH0 KECCAK256 PUSH0 SWAP1 SLOAD SWAP1 PUSH2 0x100 EXP SWAP1 DIV PUSH20 0xFFFFFFFFFFFFFFFFFFFFFFFFFFFFFFFFFFFFFFFF AND PUSH20 0xFFFFFFFFFFFFFFFFFFFFFFFFFFFFFFFFFFFFFFFF AND SUB PUSH2 0x8F1 JUMPI PUSH1 0x40 MLOAD PUSH32 0xA802CFBE00000000000000000000000000000000000000000000000000000000 DUP2 MSTORE PUSH1 0x4 ADD PUSH1 0x40 MLOAD DUP1 SWAP2 SUB SWAP1 REVERT JUMPDEST PUSH0 PUSH1 0x1 PUSH0 DUP7 PUSH20 0xFFFFFFFFFFFFFFFFFFFFFFFFFFFFFFFFFFFFFFFF AND PUSH20 0xFFFFFFFFFFFFFFFFFFFFFFFFFFFFFFFFFFFFFFFF AND DUP2 MSTORE PUSH1 0x20 ADD SWAP1 DUP2 MSTORE PUSH1 0x20 ADD PUSH0 KECCAK256 PUSH0 SWAP1 SLOAD SWAP1 PUSH2 0x100 EXP SWAP1 DIV PUSH20 0xFFFFFFFFFFFFFFFFFFFFFFFFFFFFFFFFFFFFFFFF AND PUSH20 0xFFFFFFFFFFFFFFFFFFFFFFFFFFFFFFFFFFFFFFFF AND PUSH4 0xFEAF968C PUSH1 0x40 MLOAD DUP2 PUSH4 0xFFFFFFFF AND PUSH1 0xE0 SHL DUP2 MSTORE PUSH1 0x4 ADD PUSH1 0xA0 PUSH1 0x40 MLOAD DUP1 DUP4 SUB DUP2 DUP7 GAS STATICCALL ISZERO DUP1 ISZERO PUSH2 0x997 JUMPI RETURNDATASIZE PUSH0 PUSH0 RETURNDATACOPY RETURNDATASIZE PUSH0 REVERT JUMPDEST POP POP POP POP PUSH1 0x40 MLOAD RETURNDATASIZE PUSH1 0x1F NOT PUSH1 0x1F DUP3 ADD AND DUP3 ADD DUP1 PUSH1 0x40 MSTORE POP DUP2 ADD SWAP1 PUSH2 0x9BB SWAP2 SWAP1 PUSH2 0xF44 JUMP JUMPDEST POP POP POP SWAP2 POP POP PUSH8 0xDE0B6B3A7640000 DUP5 PUSH5 0x2540BE400 DUP4 PUSH2 0x9DC SWAP2 SWAP1 PUSH2 0xFBB JUMP JUMPDEST PUSH2 0x9E6 SWAP2 SWAP1 PUSH2 0xFBB JUMP JUMPDEST PUSH2 0x9F0 SWAP2 SWAP1 PUSH2 0x1029 JUMP JUMPDEST SWAP3 POP POP POP SWAP3 SWAP2 POP POP JUMP JUMPDEST JUMP JUMPDEST PUSH1 0x2 PUSH0 SLOAD SUB PUSH2 0xA37 JUMPI PUSH1 0x40 MLOAD PUSH32 0x3EE5AEB500000000000000000000000000000000000000000000000000000000 DUP2 MSTORE PUSH1 0x4 ADD PUSH1 0x40 MLOAD DUP1 SWAP2 SUB SWAP1 REVERT JUMPDEST PUSH1 0x2 PUSH0 DUP2 SWAP1 SSTORE POP JUMP JUMPDEST PUSH1 0x1 PUSH0 DUP2 SWAP1 SSTORE POP JUMP JUMPDEST PUSH0 PUSH2 0xA53 DUP3 PUSH2 0xA9E JUMP JUMPDEST SWAP1 POP PUSH1 0x1 DUP2 GT PUSH2 0xA9A JUMPI DUP1 PUSH1 0x40 MLOAD PUSH32 0xE580CC6100000000000000000000000000000000000000000000000000000000 DUP2 MSTORE PUSH1 0x4 ADD PUSH2 0xA91 SWAP2 SWAP1 PUSH2 0xC97 JUMP JUMPDEST PUSH1 0x40 MLOAD DUP1 SWAP2 SUB SWAP1 REVERT JUMPDEST POP POP JUMP JUMPDEST PUSH0 PUSH0 PUSH0 PUSH2 0xAAA DUP5 PUSH2 0xAF3 JUMP JUMPDEST SWAP2 POP SWAP2 POP PUSH0 PUSH1 0x64 PUSH1 0x32 DUP4 PUSH2 0xABE SWAP2 SWAP1 PUSH2 0xFBB JUMP JUMPDEST PUSH2 0xAC8 SWAP2 SWAP1 PUSH2 0x1029 JUMP JUMPDEST SWAP1 POP DUP3 PUSH8 0xDE0B6B3A7640000 DUP3 PUSH2 0xADF SWAP2 SWAP1 PUSH2 0xFBB JUMP JUMPDEST PUSH2 0xAE9 SWAP2 SWAP1 PUSH2 0x1029 JUMP JUMPDEST SWAP4 POP POP POP POP SWAP2 SWAP1 POP JUMP JUMPDEST PUSH0 PUSH0 PUSH1 0x3 PUSH0 DUP5 PUSH20 0xFFFFFFFFFFFFFFFFFFFFFFFFFFFFFFFFFFFFFFFF AND PUSH20 0xFFFFFFFFFFFFFFFFFFFFFFFFFFFFFFFFFFFFFFFF AND DUP2 MSTORE PUSH1 0x20 ADD SWAP1 DUP2 MSTORE PUSH1 0x20 ADD PUSH0 KECCAK256 SLOAD SWAP2 POP PUSH2 0xB3E DUP4 PUSH2 0x2CF JUMP JUMPDEST SWAP1 POP SWAP2 POP SWAP2 JUMP JUMPDEST PUSH0 PUSH0 REVERT JUMPDEST PUSH0 PUSH20 0xFFFFFFFFFFFFFFFFFFFFFFFFFFFFFFFFFFFFFFFF DUP3 AND SWAP1 POP SWAP2 SWAP1 POP JUMP JUMPDEST PUSH0 PUSH2 0xB72 DUP3 PUSH2 0xB49 JUMP JUMPDEST SWAP1 POP SWAP2 SWAP1 POP JUMP JUMPDEST PUSH2 0xB82 DUP2 PUSH2 0xB68 JUMP JUMPDEST DUP2 EQ PUSH2 0xB8C JUMPI PUSH0 PUSH0 REVERT JUMPDEST POP JUMP JUMPDEST PUSH0 DUP2 CALLDATALOAD SWAP1 POP PUSH2 0xB9D DUP2 PUSH2 0xB79 JUMP JUMPDEST SWAP3 SWAP2 POP POP JUMP JUMPDEST PUSH0 DUP2 SWAP1 POP SWAP2 SWAP1 POP JUMP JUMPDEST PUSH2 0xBB5 DUP2 PUSH2 0xBA3 JUMP JUMPDEST DUP2 EQ PUSH2 0xBBF JUMPI PUSH0 PUSH0 REVERT JUMPDEST POP JUMP JUMPDEST PUSH0 DUP2 CALLDATALOAD SWAP1 POP PUSH2 0xBD0 DUP2 PUSH2 0xBAC JUMP JUMPDEST SWAP3 SWAP2 POP POP JUMP JUMPDEST PUSH0 PUSH0 PUSH1 0x40 DUP4 DUP6 SUB SLT ISZERO PUSH2 0xBEC JUMPI PUSH2 0xBEB PUSH2 0xB45 JUMP JUMPDEST JUMPDEST PUSH0 PUSH2 0xBF9 DUP6 DUP3 DUP7 ADD PUSH2 0xB8F JUMP JUMPDEST SWAP3 POP POP PUSH1 0x20 PUSH2 0xC0A DUP6 DUP3 DUP7 ADD PUSH2 0xBC2 JUMP JUMPDEST SWAP2 POP POP SWAP3 POP SWAP3 SWAP1 POP JUMP JUMPDEST PUSH0 DUP2 SWAP1 POP SWAP2 SWAP1 POP JUMP JUMPDEST PUSH0 PUSH2 0xC37 PUSH2 0xC32 PUSH2 0xC2D DUP5 PUSH2 0xB49 JUMP JUMPDEST PUSH2 0xC14 JUMP JUMPDEST PUSH2 0xB49 JUMP JUMPDEST SWAP1 POP SWAP2 SWAP1 POP JUMP JUMPDEST PUSH0 PUSH2 0xC48 DUP3 PUSH2 0xC1D JUMP JUMPDEST SWAP1 POP SWAP2 SWAP1 POP JUMP JUMPDEST PUSH0 PUSH2 0xC59 DUP3 PUSH2 0xC3E JUMP JUMPDEST SWAP1 POP SWAP2 SWAP1 POP JUMP JUMPDEST PUSH2 0xC69 DUP2 PUSH2 0xC4F JUMP JUMPDEST DUP3 MSTORE POP POP JUMP JUMPDEST PUSH0 PUSH1 0x20 DUP3 ADD SWAP1 POP PUSH2 0xC82 PUSH0 DUP4 ADD DUP5 PUSH2 0xC60 JUMP JUMPDEST SWAP3 SWAP2 POP POP JUMP JUMPDEST PUSH2 0xC91 DUP2 PUSH2 0xBA3 JUMP JUMPDEST DUP3 MSTORE POP POP JUMP JUMPDEST PUSH0 PUSH1 0x20 DUP3 ADD SWAP1 POP PUSH2 0xCAA PUSH0 DUP4 ADD DUP5 PUSH2 0xC88 JUMP JUMPDEST SWAP3 SWAP2 POP POP JUMP JUMPDEST PUSH0 PUSH1 0x20 DUP3 DUP5 SUB SLT ISZERO PUSH2 0xCC5 JUMPI PUSH2 0xCC4 PUSH2 0xB45 JUMP JUMPDEST JUMPDEST PUSH0 PUSH2 0xCD2 DUP5 DUP3 DUP6 ADD PUSH2 0xB8F JUMP JUMPDEST SWAP2 POP POP SWAP3 SWAP2 POP POP JUMP JUMPDEST PUSH0 PUSH1 0x20 DUP3 DUP5 SUB SLT ISZERO PUSH2 0xCF0 JUMPI PUSH2 0xCEF PUSH2 0xB45 JUMP JUMPDEST JUMPDEST PUSH0 PUSH2 0xCFD DUP5 DUP3 DUP6 ADD PUSH2 0xBC2 JUMP JUMPDEST SWAP2 POP POP SWAP3 SWAP2 POP POP JUMP JUMPDEST PUSH32 0x4E487B7100000000000000000000000000000000000000000000000000000000 PUSH0 MSTORE PUSH1 0x32 PUSH1 0x4 MSTORE PUSH1 0x24 PUSH0 REVERT JUMPDEST PUSH32 0x4E487B7100000000000000000000000000000000000000000000000000000000 PUSH0 MSTORE PUSH1 0x11 PUSH1 0x4 MSTORE PUSH1 0x24 PUSH0 REVERT JUMPDEST PUSH0 PUSH2 0xD6A DUP3 PUSH2 0xBA3 JUMP JUMPDEST SWAP2 POP PUSH2 0xD75 DUP4 PUSH2 0xBA3 JUMP JUMPDEST SWAP3 POP DUP3 DUP3 ADD SWAP1 POP DUP1 DUP3 GT ISZERO PUSH2 0xD8D JUMPI PUSH2 0xD8C PUSH2 0xD33 JUMP JUMPDEST JUMPDEST SWAP3 SWAP2 POP POP JUMP JUMPDEST PUSH0 PUSH2 0xD9D DUP3 PUSH2 0xBA3 JUMP JUMPDEST SWAP2 POP PUSH32 0xFFFFFFFFFFFFFFFFFFFFFFFFFFFFFFFFFFFFFFFFFFFFFFFFFFFFFFFFFFFFFFFF DUP3 SUB PUSH2 0xDCF JUMPI PUSH2 0xDCE PUSH2 0xD33 JUMP JUMPDEST JUMPDEST PUSH1 0x1 DUP3 ADD SWAP1 POP SWAP2 SWAP1 POP JUMP JUMPDEST PUSH2 0xDE3 DUP2 PUSH2 0xB68 JUMP JUMPDEST DUP3 MSTORE POP POP JUMP JUMPDEST PUSH0 PUSH1 0x60 DUP3 ADD SWAP1 POP PUSH2 0xDFC PUSH0 DUP4 ADD DUP7 PUSH2 0xDDA JUMP JUMPDEST PUSH2 0xE09 PUSH1 0x20 DUP4 ADD DUP6 PUSH2 0xDDA JUMP JUMPDEST PUSH2 0xE16 PUSH1 0x40 DUP4 ADD DUP5 PUSH2 0xC88 JUMP JUMPDEST SWAP5 SWAP4 POP POP POP POP JUMP JUMPDEST PUSH0 DUP2 ISZERO ISZERO SWAP1 POP SWAP2 SWAP1 POP JUMP JUMPDEST PUSH2 0xE32 DUP2 PUSH2 0xE1E JUMP JUMPDEST DUP2 EQ PUSH2 0xE3C JUMPI PUSH0 PUSH0 REVERT JUMPDEST POP JUMP JUMPDEST PUSH0 DUP2 MLOAD SWAP1 POP PUSH2 0xE4D DUP2 PUSH2 0xE29 JUMP JUMPDEST SWAP3 SWAP2 POP POP JUMP JUMPDEST PUSH0 PUSH1 0x20 DUP3 DUP5 SUB SLT ISZERO PUSH2 0xE68 JUMPI PUSH2 0xE67 PUSH2 0xB45 JUMP JUMPDEST JUMPDEST PUSH0 PUSH2 0xE75 DUP5 DUP3 DUP6 ADD PUSH2 0xE3F JUMP JUMPDEST SWAP2 POP POP SWAP3 SWAP2 POP POP JUMP JUMPDEST PUSH0 PUSH1 0x20 DUP3 ADD SWAP1 POP PUSH2 0xE91 PUSH0 DUP4 ADD DUP5 PUSH2 0xDDA JUMP JUMPDEST SWAP3 SWAP2 POP POP JUMP JUMPDEST PUSH0 PUSH1 0x40 DUP3 ADD SWAP1 POP PUSH2 0xEAA PUSH0 DUP4 ADD DUP6 PUSH2 0xDDA JUMP JUMPDEST PUSH2 0xEB7 PUSH1 0x20 DUP4 ADD DUP5 PUSH2 0xC88 JUMP JUMPDEST SWAP4 SWAP3 POP POP POP JUMP JUMPDEST PUSH0 PUSH10 0xFFFFFFFFFFFFFFFFFFFF DUP3 AND SWAP1 POP SWAP2 SWAP1 POP JUMP JUMPDEST PUSH2 0xEDC DUP2 PUSH2 0xEBE JUMP JUMPDEST DUP2 EQ PUSH2 0xEE6 JUMPI PUSH0 PUSH0 REVERT JUMPDEST POP JUMP JUMPDEST PUSH0 DUP2 MLOAD SWAP1 POP PUSH2 0xEF7 DUP2 PUSH2 0xED3 JUMP JUMPDEST SWAP3 SWAP2 POP POP JUMP JUMPDEST PUSH0 DUP2 SWAP1 POP SWAP2 SWAP1 POP JUMP JUMPDEST PUSH2 0xF0F DUP2 PUSH2 0xEFD JUMP JUMPDEST DUP2 EQ PUSH2 0xF19 JUMPI PUSH0 PUSH0 REVERT JUMPDEST POP JUMP JUMPDEST PUSH0 DUP2 MLOAD SWAP1 POP PUSH2 0xF2A DUP2 PUSH2 0xF06 JUMP JUMPDEST SWAP3 SWAP2 POP POP JUMP JUMPDEST PUSH0 DUP2 MLOAD SWAP1 POP PUSH2 0xF3E DUP2 PUSH2 0xBAC JUMP JUMPDEST SWAP3 SWAP2 POP POP JUMP JUMPDEST PUSH0 PUSH0 PUSH0 PUSH0 PUSH0 PUSH1 0xA0 DUP7 DUP9 SUB SLT ISZERO PUSH2 0xF5D JUMPI PUSH2 0xF5C PUSH2 0xB45 JUMP JUMPDEST JUMPDEST PUSH0 PUSH2 0xF6A DUP9 DUP3 DUP10 ADD PUSH2 0xEE9 JUMP JUMPDEST SWAP6 POP POP PUSH1 0x20 PUSH2 0xF7B DUP9 DUP3 DUP10 ADD PUSH2 0xF1C JUMP JUMPDEST SWAP5 POP POP PUSH1 0x40 PUSH2 0xF8C DUP9 DUP3 DUP10 ADD PUSH2 0xF30 JUMP JUMPDEST SWAP4 POP POP PUSH1 0x60 PUSH2 0xF9D DUP9 DUP3 DUP10 ADD PUSH2 0xF30 JUMP JUMPDEST SWAP3 POP POP PUSH1 0x80 PUSH2 0xFAE DUP9 DUP3 DUP10 ADD PUSH2 0xEE9 JUMP JUMPDEST SWAP2 POP POP SWAP3 SWAP6 POP SWAP3 SWAP6 SWAP1 SWAP4 POP JUMP JUMPDEST PUSH0 PUSH2 0xFC5 DUP3 PUSH2 0xBA3 JUMP JUMPDEST SWAP2 POP PUSH2 0xFD0 DUP4 PUSH2 0xBA3 JUMP JUMPDEST SWAP3 POP DUP3 DUP3 MUL PUSH2 0xFDE DUP2 PUSH2 0xBA3 JUMP JUMPDEST SWAP2 POP DUP3 DUP3 DIV DUP5 EQ DUP4 ISZERO OR PUSH2 0xFF5 JUMPI PUSH2 0xFF4 PUSH2 0xD33 JUMP JUMPDEST JUMPDEST POP SWAP3 SWAP2 POP POP JUMP JUMPDEST PUSH32 0x4E487B7100000000000000000000000000000000000000000000000000000000 PUSH0 MSTORE PUSH1 0x12 PUSH1 0x4 MSTORE PUSH1 0x24 PUSH0 REVERT JUMPDEST PUSH0 PUSH2 0x1033 DUP3 PUSH2 0xBA3 JUMP JUMPDEST SWAP2 POP PUSH2 0x103E DUP4 PUSH2 0xBA3 JUMP JUMPDEST SWAP3 POP DUP3 PUSH2 0x104E JUMPI PUSH2 0x104D PUSH2 0xFFC JUMP JUMPDEST JUMPDEST DUP3 DUP3 DIV SWAP1 POP SWAP3 SWAP2 POP POP JUMP INVALID LOG2 PUSH5 0x6970667358 0x22 SLT KECCAK256 POP DUP9 COINBASE 0x2F DUP11 EQ CALL 0xA5 LOG0 PUSH16 0xDDB4DEAD5D09B93C78AACDB229CDB87B LOG3 0xA5 RETF POP DUP13 PUSH10 0x64736F6C634300081E00 CALLER "
				},
				"gasEstimates": {
					"creation": {
						"codeDepositCost": "847800",
						"executionCost": "infinite",
						"totalCost": "infinite"
					},
					"external": {
						"ADDITION_FEED_PRECISION()": "415",
						"LIQUIDATION_PRECISION()": "392",
						"LIQUIDATION_THRESHOLD()": "370",
						"MIN_HEALT_FACTOR()": "414",
						"PRECISION()": "392",
						"burnDsc()": "231",
						"depositCollateral(address,uint256)": "infinite",
						"depositCollateralAndMintDsc(address,uint256)": "665",
						"getAccountCollateralValue(address)": "2802",
						"getHealthFactor()": "188",
						"getUSDValue(address,uint256)": "infinite",
						"i_dsc()": "infinite",
						"liquidate()": "167",
						"mintDsc(uint256)": "infinite",
						"redeemCollateralForDsc()": "232",
						"redeemCollateralc()": "165"
					},
					"internal": {
						"_getAccountInformation(address)": "4411",
						"_healthFactor(address)": "infinite",
						"_revertIfHealthFactorIsBroken(address)": "infinite"
					}
				},
				"methodIdentifiers": {
					"ADDITION_FEED_PRECISION()": "65079d77",
					"LIQUIDATION_PRECISION()": "9d45ac89",
					"LIQUIDATION_THRESHOLD()": "90a8ae9b",
					"MIN_HEALT_FACTOR()": "c601676c",
					"PRECISION()": "aaf5eb68",
					"burnDsc()": "ffde1fba",
					"depositCollateral(address,uint256)": "a5d5db0c",
					"depositCollateralAndMintDsc(address,uint256)": "50328a60",
					"getAccountCollateralValue(address)": "7d1a4450",
					"getHealthFactor()": "a5f352b7",
					"getUSDValue(address,uint256)": "fa76dcf2",
					"i_dsc()": "5e338bb3",
					"liquidate()": "28a07025",
					"mintDsc(uint256)": "c9b7c327",
					"redeemCollateralForDsc()": "9e297554",
					"redeemCollateralc()": "c9457f6d"
				}
			},
			"storageLayout": {
				"storage": [
					{
						"astId": 990,
						"contract": "src/DSCEngine.sol:DSCEngine",
						"label": "_status",
						"offset": 0,
						"slot": "0",
						"type": "t_uint256"
					},
					{
						"astId": 1146,
						"contract": "src/DSCEngine.sol:DSCEngine",
						"label": "s_priceFeeds",
						"offset": 0,
						"slot": "1",
						"type": "t_mapping(t_address,t_address)"
					},
					{
						"astId": 1152,
						"contract": "src/DSCEngine.sol:DSCEngine",
						"label": "s_collateralDeposited",
						"offset": 0,
						"slot": "2",
						"type": "t_mapping(t_address,t_mapping(t_address,t_uint256))"
					},
					{
						"astId": 1156,
						"contract": "src/DSCEngine.sol:DSCEngine",
						"label": "s_DscMinted",
						"offset": 0,
						"slot": "3",
						"type": "t_mapping(t_address,t_uint256)"
					},
					{
						"astId": 1159,
						"contract": "src/DSCEngine.sol:DSCEngine",
						"label": "s_collateralTokens",
						"offset": 0,
						"slot": "4",
						"type": "t_array(t_address)dyn_storage"
					}
				],
				"types": {
					"t_address": {
						"encoding": "inplace",
						"label": "address",
						"numberOfBytes": "20"
					},
					"t_array(t_address)dyn_storage": {
						"base": "t_address",
						"encoding": "dynamic_array",
						"label": "address[]",
						"numberOfBytes": "32"
					},
					"t_mapping(t_address,t_address)": {
						"encoding": "mapping",
						"key": "t_address",
						"label": "mapping(address => address)",
						"numberOfBytes": "32",
						"value": "t_address"
					},
					"t_mapping(t_address,t_mapping(t_address,t_uint256))": {
						"encoding": "mapping",
						"key": "t_address",
						"label": "mapping(address => mapping(address => uint256))",
						"numberOfBytes": "32",
						"value": "t_mapping(t_address,t_uint256)"
					},
					"t_mapping(t_address,t_uint256)": {
						"encoding": "mapping",
						"key": "t_address",
						"label": "mapping(address => uint256)",
						"numberOfBytes": "32",
						"value": "t_uint256"
					},
					"t_uint256": {
						"encoding": "inplace",
						"label": "uint256",
						"numberOfBytes": "32"
					}
				}
			},
			"userdoc": {
				"kind": "user",
				"methods": {},
				"version": 1
			}
		}
	}
}