{
	"src/DSCEngine.sol": {
		"DSCEngine": {
			"abi": [
				{
					"inputs": [
						{
							"internalType": "address",
							"name": "_dscAddress",
							"type": "address"
						},
						{
							"internalType": "address[]",
							"name": "_tokenCollateral",
							"type": "address[]"
						},
						{
							"internalType": "address[]",
							"name": "_priceFeed",
							"type": "address[]"
						}
					],
					"stateMutability": "nonpayable",
					"type": "constructor"
				},
				{
					"inputs": [
						{
							"internalType": "uint256",
							"name": "userHealthFactor",
							"type": "uint256"
						}
					],
					"name": "DSCEngine__BreaksHealthFactor",
					"type": "error"
				},
				{
					"inputs": [
						{
							"internalType": "address",
							"name": "collateralToken",
							"type": "address"
						}
					],
					"name": "DSCEngine__CollateralDepositFailed",
					"type": "error"
				},
				{
					"inputs": [
						{
							"internalType": "address",
							"name": "tokenCollateral",
							"type": "address"
						}
					],
					"name": "DSCEngine__CollateralRedeemFailed",
					"type": "error"
				},
				{
					"inputs": [],
					"name": "DSCEngine__DscAddressCantBeZero",
					"type": "error"
				},
				{
					"inputs": [],
					"name": "DSCEngine__DscBurnFailed",
					"type": "error"
				},
				{
					"inputs": [],
					"name": "DSCEngine__DscMintFailed",
					"type": "error"
				},
				{
					"inputs": [],
					"name": "DSCEngine__HealthFactorNotImproved",
					"type": "error"
				},
				{
					"inputs": [],
					"name": "DSCEngine__NeedsMoreThanZero",
					"type": "error"
				},
				{
					"inputs": [],
					"name": "DSCEngine__NotAllowedToken",
					"type": "error"
				},
				{
					"inputs": [],
					"name": "DSCEngine__TokenAddressesAndPriceFeedAddressesMustBeSameLength",
					"type": "error"
				},
				{
					"inputs": [],
					"name": "DSGEngine__HealtFactorOk",
					"type": "error"
				},
				{
					"inputs": [],
					"name": "ReentrancyGuardReentrantCall",
					"type": "error"
				},
				{
					"anonymous": false,
					"inputs": [
						{
							"indexed": true,
							"internalType": "address",
							"name": "depositer",
							"type": "address"
						},
						{
							"indexed": true,
							"internalType": "address",
							"name": "tokenCollateral",
							"type": "address"
						},
						{
							"indexed": true,
							"internalType": "uint256",
							"name": "collateralAmount",
							"type": "uint256"
						}
					],
					"name": "CollateralDeposited",
					"type": "event"
				},
				{
					"anonymous": false,
					"inputs": [
						{
							"indexed": true,
							"internalType": "address",
							"name": "redeemeFrom",
							"type": "address"
						},
						{
							"indexed": true,
							"internalType": "address",
							"name": "redeemeTo",
							"type": "address"
						},
						{
							"indexed": true,
							"internalType": "address",
							"name": "tokenCollateral",
							"type": "address"
						},
						{
							"indexed": false,
							"internalType": "uint256",
							"name": "collateralAmount",
							"type": "uint256"
						}
					],
					"name": "CollateralRedeemed",
					"type": "event"
				},
				{
					"inputs": [],
					"name": "ADDITION_FEED_PRECISION",
					"outputs": [
						{
							"internalType": "uint256",
							"name": "",
							"type": "uint256"
						}
					],
					"stateMutability": "view",
					"type": "function"
				},
				{
					"inputs": [],
					"name": "LIQUIDATION_BONUS",
					"outputs": [
						{
							"internalType": "uint256",
							"name": "",
							"type": "uint256"
						}
					],
					"stateMutability": "view",
					"type": "function"
				},
				{
					"inputs": [],
					"name": "LIQUIDATION_PRECISION",
					"outputs": [
						{
							"internalType": "uint256",
							"name": "",
							"type": "uint256"
						}
					],
					"stateMutability": "view",
					"type": "function"
				},
				{
					"inputs": [],
					"name": "LIQUIDATION_THRESHOLD",
					"outputs": [
						{
							"internalType": "uint256",
							"name": "",
							"type": "uint256"
						}
					],
					"stateMutability": "view",
					"type": "function"
				},
				{
					"inputs": [],
					"name": "MIN_HEALT_FACTOR",
					"outputs": [
						{
							"internalType": "uint256",
							"name": "",
							"type": "uint256"
						}
					],
					"stateMutability": "view",
					"type": "function"
				},
				{
					"inputs": [],
					"name": "PRECISION",
					"outputs": [
						{
							"internalType": "uint256",
							"name": "",
							"type": "uint256"
						}
					],
					"stateMutability": "view",
					"type": "function"
				},
				{
					"inputs": [
						{
							"internalType": "uint256",
							"name": "_amountToBurn",
							"type": "uint256"
						}
					],
					"name": "burnDsc",
					"outputs": [],
					"stateMutability": "nonpayable",
					"type": "function"
				},
				{
					"inputs": [
						{
							"internalType": "address",
							"name": "_tokenCollateral",
							"type": "address"
						},
						{
							"internalType": "uint256",
							"name": "_collateralAmount",
							"type": "uint256"
						}
					],
					"name": "depositCollateral",
					"outputs": [],
					"stateMutability": "nonpayable",
					"type": "function"
				},
				{
					"inputs": [
						{
							"internalType": "address",
							"name": "_tokenCollateral",
							"type": "address"
						},
						{
							"internalType": "uint256",
							"name": "_collateralAmount",
							"type": "uint256"
						},
						{
							"internalType": "uint256",
							"name": "_amountDscToMint",
							"type": "uint256"
						}
					],
					"name": "depositCollateralAndMintDsc",
					"outputs": [],
					"stateMutability": "nonpayable",
					"type": "function"
				},
				{
					"inputs": [
						{
							"internalType": "address",
							"name": "_user",
							"type": "address"
						}
					],
					"name": "getAccountCollateralValue",
					"outputs": [
						{
							"internalType": "uint256",
							"name": "totalCollateralValueInUsd",
							"type": "uint256"
						}
					],
					"stateMutability": "view",
					"type": "function"
				},
				{
					"inputs": [],
					"name": "getHealthFactor",
					"outputs": [],
					"stateMutability": "view",
					"type": "function"
				},
				{
					"inputs": [
						{
							"internalType": "address",
							"name": "_token",
							"type": "address"
						},
						{
							"internalType": "uint256",
							"name": "usdAmountInWei",
							"type": "uint256"
						}
					],
					"name": "getTokenAmountFromUsd",
					"outputs": [
						{
							"internalType": "uint256",
							"name": "",
							"type": "uint256"
						}
					],
					"stateMutability": "view",
					"type": "function"
				},
				{
					"inputs": [
						{
							"internalType": "address",
							"name": "_token",
							"type": "address"
						},
						{
							"internalType": "uint256",
							"name": "_amount",
							"type": "uint256"
						}
					],
					"name": "getUSDValue",
					"outputs": [
						{
							"internalType": "uint256",
							"name": "",
							"type": "uint256"
						}
					],
					"stateMutability": "view",
					"type": "function"
				},
				{
					"inputs": [],
					"name": "i_dsc",
					"outputs": [
						{
							"internalType": "contract DecentralizedStableCoin",
							"name": "",
							"type": "address"
						}
					],
					"stateMutability": "view",
					"type": "function"
				},
				{
					"inputs": [
						{
							"internalType": "address",
							"name": "_tokenCollateral",
							"type": "address"
						},
						{
							"internalType": "address",
							"name": "_user",
							"type": "address"
						},
						{
							"internalType": "uint256",
							"name": "_debtToCover",
							"type": "uint256"
						}
					],
					"name": "liquidate",
					"outputs": [],
					"stateMutability": "nonpayable",
					"type": "function"
				},
				{
					"inputs": [
						{
							"internalType": "uint256",
							"name": "_amountDscToMint",
							"type": "uint256"
						}
					],
					"name": "mintDsc",
					"outputs": [],
					"stateMutability": "nonpayable",
					"type": "function"
				},
				{
					"inputs": [
						{
							"internalType": "address",
							"name": "_tokenCollateral",
							"type": "address"
						},
						{
							"internalType": "uint256",
							"name": "_collateralAmount",
							"type": "uint256"
						}
					],
					"name": "redeemCollateral",
					"outputs": [],
					"stateMutability": "nonpayable",
					"type": "function"
				},
				{
					"inputs": [
						{
							"internalType": "address",
							"name": "_tokenCollateral",
							"type": "address"
						},
						{
							"internalType": "uint256",
							"name": "_collateralAmount",
							"type": "uint256"
						},
						{
							"internalType": "uint256",
							"name": "_amountDscToBurn",
							"type": "uint256"
						}
					],
					"name": "redeemCollateralForDsc",
					"outputs": [],
					"stateMutability": "nonpayable",
					"type": "function"
				}
			],
			"devdoc": {
				"errors": {
					"ReentrancyGuardReentrantCall()": [
						{
							"details": "Unauthorized reentrant call."
						}
					]
				},
				"kind": "dev",
				"methods": {},
				"version": 1
			},
			"evm": {
				"assembly": "    /* \"src/DSCEngine.sol\":1710:10326  contract DSCEngine is ReentrancyGuard {... */\n  mstore(0x40, 0xa0)\n    /* \"src/DSCEngine.sol\":3648:4291  constructor(... */\n  callvalue\n  dup1\n  iszero\n  tag_1\n  jumpi\n  revert(0x00, 0x00)\ntag_1:\n  pop\n  mload(0x40)\n  sub(codesize, bytecodeSize)\n  dup1\n  bytecodeSize\n  dup4\n  codecopy\n  dup2\n  dup2\n  add\n  0x40\n  mstore\n  dup2\n  add\n  swap1\n  tag_2\n  swap2\n  swap1\n  tag_3\n  jump\t// in\ntag_2:\n    /* \"@openzeppelin/contracts/utils/ReentrancyGuard.sol\":1857:1858  1 */\n  0x01\n    /* \"@openzeppelin/contracts/utils/ReentrancyGuard.sol\":2061:2068  _status */\n  0x00\n    /* \"@openzeppelin/contracts/utils/ReentrancyGuard.sol\":2061:2082  _status = NOT_ENTERED */\n  dup2\n  swap1\n  sstore\n  pop\n    /* \"src/DSCEngine.sol\":3816:3826  _priceFeed */\n  dup1\n    /* \"src/DSCEngine.sol\":3816:3833  _priceFeed.length */\n  mload\n    /* \"src/DSCEngine.sol\":3789:3805  _tokenCollateral */\n  dup3\n    /* \"src/DSCEngine.sol\":3789:3812  _tokenCollateral.length */\n  mload\n    /* \"src/DSCEngine.sol\":3789:3833  _tokenCollateral.length != _priceFeed.length */\n  eq\n    /* \"src/DSCEngine.sol\":3785:3931  if (_tokenCollateral.length != _priceFeed.length) {... */\n  tag_8\n  jumpi\n    /* \"src/DSCEngine.sol\":3856:3920  DSCEngine__TokenAddressesAndPriceFeedAddressesMustBeSameLength() */\n  mload(0x40)\n  0xb5c5c12600000000000000000000000000000000000000000000000000000000\n  dup2\n  mstore\n  0x04\n  add\n  mload(0x40)\n  dup1\n  swap2\n  sub\n  swap1\n  revert\n    /* \"src/DSCEngine.sol\":3785:3931  if (_tokenCollateral.length != _priceFeed.length) {... */\ntag_8:\n    /* \"src/DSCEngine.sol\":3967:3968  0 */\n  0x00\n    /* \"src/DSCEngine.sol\":3944:3969  _dscAddress == address(0) */\n  0xffffffffffffffffffffffffffffffffffffffff\n  and\n    /* \"src/DSCEngine.sol\":3944:3955  _dscAddress */\n  dup4\n    /* \"src/DSCEngine.sol\":3944:3969  _dscAddress == address(0) */\n  0xffffffffffffffffffffffffffffffffffffffff\n  and\n  sub\n    /* \"src/DSCEngine.sol\":3940:4036  if (_dscAddress == address(0)) {... */\n  tag_9\n  jumpi\n    /* \"src/DSCEngine.sol\":3992:4025  DSCEngine__DscAddressCantBeZero() */\n  mload(0x40)\n  0xef8f9dd100000000000000000000000000000000000000000000000000000000\n  dup2\n  mstore\n  0x04\n  add\n  mload(0x40)\n  dup1\n  swap2\n  sub\n  swap1\n  revert\n    /* \"src/DSCEngine.sol\":3940:4036  if (_dscAddress == address(0)) {... */\ntag_9:\n    /* \"src/DSCEngine.sol\":4050:4059  uint256 i */\n  0x00\n    /* \"src/DSCEngine.sol\":4062:4063  0 */\n  0x00\n    /* \"src/DSCEngine.sol\":4050:4063  uint256 i = 0 */\n  swap1\n  pop\n    /* \"src/DSCEngine.sol\":4045:4231  for (uint256 i = 0; i < _tokenCollateral.length; i++) {... */\ntag_10:\n    /* \"src/DSCEngine.sol\":4069:4085  _tokenCollateral */\n  dup3\n    /* \"src/DSCEngine.sol\":4069:4092  _tokenCollateral.length */\n  mload\n    /* \"src/DSCEngine.sol\":4065:4066  i */\n  dup2\n    /* \"src/DSCEngine.sol\":4065:4092  i < _tokenCollateral.length */\n  lt\n    /* \"src/DSCEngine.sol\":4045:4231  for (uint256 i = 0; i < _tokenCollateral.length; i++) {... */\n  iszero\n  tag_11\n  jumpi\n    /* \"src/DSCEngine.sol\":4149:4159  _priceFeed */\n  dup2\n    /* \"src/DSCEngine.sol\":4160:4161  i */\n  dup2\n    /* \"src/DSCEngine.sol\":4149:4162  _priceFeed[i] */\n  dup2\n  mload\n  dup2\n  lt\n  tag_13\n  jumpi\n  tag_14\n  tag_15\n  jump\t// in\ntag_14:\ntag_13:\n  0x20\n  mul\n  0x20\n  add\n  add\n  mload\n    /* \"src/DSCEngine.sol\":4113:4125  s_priceFeeds */\n  0x01\n    /* \"src/DSCEngine.sol\":4113:4146  s_priceFeeds[_tokenCollateral[i]] */\n  0x00\n    /* \"src/DSCEngine.sol\":4126:4142  _tokenCollateral */\n  dup6\n    /* \"src/DSCEngine.sol\":4143:4144  i */\n  dup5\n    /* \"src/DSCEngine.sol\":4126:4145  _tokenCollateral[i] */\n  dup2\n  mload\n  dup2\n  lt\n  tag_16\n  jumpi\n  tag_17\n  tag_15\n  jump\t// in\ntag_17:\ntag_16:\n  0x20\n  mul\n  0x20\n  add\n  add\n  mload\n    /* \"src/DSCEngine.sol\":4113:4146  s_priceFeeds[_tokenCollateral[i]] */\n  0xffffffffffffffffffffffffffffffffffffffff\n  and\n  0xffffffffffffffffffffffffffffffffffffffff\n  and\n  dup2\n  mstore\n  0x20\n  add\n  swap1\n  dup2\n  mstore\n  0x20\n  add\n  0x00\n  keccak256\n  0x00\n    /* \"src/DSCEngine.sol\":4113:4162  s_priceFeeds[_tokenCollateral[i]] = _priceFeed[i] */\n  0x0100\n  exp\n  dup2\n  sload\n  dup2\n  0xffffffffffffffffffffffffffffffffffffffff\n  mul\n  not\n  and\n  swap1\n  dup4\n  0xffffffffffffffffffffffffffffffffffffffff\n  and\n  mul\n  or\n  swap1\n  sstore\n  pop\n    /* \"src/DSCEngine.sol\":4176:4194  s_collateralTokens */\n  0x04\n    /* \"src/DSCEngine.sol\":4200:4216  _tokenCollateral */\n  dup4\n    /* \"src/DSCEngine.sol\":4217:4218  i */\n  dup3\n    /* \"src/DSCEngine.sol\":4200:4219  _tokenCollateral[i] */\n  dup2\n  mload\n  dup2\n  lt\n  tag_18\n  jumpi\n  tag_19\n  tag_15\n  jump\t// in\ntag_19:\ntag_18:\n  0x20\n  mul\n  0x20\n  add\n  add\n  mload\n    /* \"src/DSCEngine.sol\":4176:4220  s_collateralTokens.push(_tokenCollateral[i]) */\n  swap1\n  dup1\n  0x01\n  dup2\n  sload\n  add\n  dup1\n  dup3\n  sstore\n  dup1\n  swap2\n  pop\n  pop\n  0x01\n  swap1\n  sub\n  swap1\n  0x00\n  mstore\n  keccak256(0x00, 0x20)\n  add\n  0x00\n  swap1\n  swap2\n  swap1\n  swap2\n  swap1\n  swap2\n  0x0100\n  exp\n  dup2\n  sload\n  dup2\n  0xffffffffffffffffffffffffffffffffffffffff\n  mul\n  not\n  and\n  swap1\n  dup4\n  0xffffffffffffffffffffffffffffffffffffffff\n  and\n  mul\n  or\n  swap1\n  sstore\n  pop\n    /* \"src/DSCEngine.sol\":4094:4097  i++ */\n  dup1\n  dup1\n  0x01\n  add\n  swap2\n  pop\n  pop\n    /* \"src/DSCEngine.sol\":4045:4231  for (uint256 i = 0; i < _tokenCollateral.length; i++) {... */\n  jump(tag_10)\ntag_11:\n  pop\n    /* \"src/DSCEngine.sol\":4272:4283  _dscAddress */\n  dup3\n    /* \"src/DSCEngine.sol\":4240:4284  i_dsc = DecentralizedStableCoin(_dscAddress) */\n  0xffffffffffffffffffffffffffffffffffffffff\n  and\n  0x80\n  dup2\n  0xffffffffffffffffffffffffffffffffffffffff\n  and\n  dup2\n  mstore\n  pop\n  pop\n    /* \"src/DSCEngine.sol\":3648:4291  constructor(... */\n  pop\n  pop\n  pop\n    /* \"src/DSCEngine.sol\":1710:10326  contract DSCEngine is ReentrancyGuard {... */\n  jump(tag_21)\n    /* \"#utility.yul\":7:82   */\ntag_22:\n    /* \"#utility.yul\":40:46   */\n  0x00\n    /* \"#utility.yul\":73:75   */\n  0x40\n    /* \"#utility.yul\":67:76   */\n  mload\n    /* \"#utility.yul\":57:76   */\n  swap1\n  pop\n    /* \"#utility.yul\":7:82   */\n  swap1\n  jump\t// out\n    /* \"#utility.yul\":88:205   */\ntag_23:\n    /* \"#utility.yul\":197:198   */\n  0x00\n    /* \"#utility.yul\":194:195   */\n  0x00\n    /* \"#utility.yul\":187:199   */\n  revert\n    /* \"#utility.yul\":211:328   */\ntag_24:\n    /* \"#utility.yul\":320:321   */\n  0x00\n    /* \"#utility.yul\":317:318   */\n  0x00\n    /* \"#utility.yul\":310:322   */\n  revert\n    /* \"#utility.yul\":334:460   */\ntag_25:\n    /* \"#utility.yul\":371:378   */\n  0x00\n    /* \"#utility.yul\":411:453   */\n  0xffffffffffffffffffffffffffffffffffffffff\n    /* \"#utility.yul\":404:409   */\n  dup3\n    /* \"#utility.yul\":400:454   */\n  and\n    /* \"#utility.yul\":389:454   */\n  swap1\n  pop\n    /* \"#utility.yul\":334:460   */\n  swap2\n  swap1\n  pop\n  jump\t// out\n    /* \"#utility.yul\":466:562   */\ntag_26:\n    /* \"#utility.yul\":503:510   */\n  0x00\n    /* \"#utility.yul\":532:556   */\n  tag_44\n    /* \"#utility.yul\":550:555   */\n  dup3\n    /* \"#utility.yul\":532:556   */\n  tag_25\n  jump\t// in\ntag_44:\n    /* \"#utility.yul\":521:556   */\n  swap1\n  pop\n    /* \"#utility.yul\":466:562   */\n  swap2\n  swap1\n  pop\n  jump\t// out\n    /* \"#utility.yul\":568:690   */\ntag_27:\n    /* \"#utility.yul\":641:665   */\n  tag_46\n    /* \"#utility.yul\":659:664   */\n  dup2\n    /* \"#utility.yul\":641:665   */\n  tag_26\n  jump\t// in\ntag_46:\n    /* \"#utility.yul\":634:639   */\n  dup2\n    /* \"#utility.yul\":631:666   */\n  eq\n    /* \"#utility.yul\":621:684   */\n  tag_47\n  jumpi\n    /* \"#utility.yul\":680:681   */\n  0x00\n    /* \"#utility.yul\":677:678   */\n  0x00\n    /* \"#utility.yul\":670:682   */\n  revert\n    /* \"#utility.yul\":621:684   */\ntag_47:\n    /* \"#utility.yul\":568:690   */\n  pop\n  jump\t// out\n    /* \"#utility.yul\":696:839   */\ntag_28:\n    /* \"#utility.yul\":753:758   */\n  0x00\n    /* \"#utility.yul\":784:790   */\n  dup2\n    /* \"#utility.yul\":778:791   */\n  mload\n    /* \"#utility.yul\":769:791   */\n  swap1\n  pop\n    /* \"#utility.yul\":800:833   */\n  tag_49\n    /* \"#utility.yul\":827:832   */\n  dup2\n    /* \"#utility.yul\":800:833   */\n  tag_27\n  jump\t// in\ntag_49:\n    /* \"#utility.yul\":696:839   */\n  swap3\n  swap2\n  pop\n  pop\n  jump\t// out\n    /* \"#utility.yul\":845:962   */\ntag_29:\n    /* \"#utility.yul\":954:955   */\n  0x00\n    /* \"#utility.yul\":951:952   */\n  0x00\n    /* \"#utility.yul\":944:956   */\n  revert\n    /* \"#utility.yul\":968:1070   */\ntag_30:\n    /* \"#utility.yul\":1009:1015   */\n  0x00\n    /* \"#utility.yul\":1060:1062   */\n  0x1f\n    /* \"#utility.yul\":1056:1063   */\n  not\n    /* \"#utility.yul\":1051:1053   */\n  0x1f\n    /* \"#utility.yul\":1044:1049   */\n  dup4\n    /* \"#utility.yul\":1040:1054   */\n  add\n    /* \"#utility.yul\":1036:1064   */\n  and\n    /* \"#utility.yul\":1026:1064   */\n  swap1\n  pop\n    /* \"#utility.yul\":968:1070   */\n  swap2\n  swap1\n  pop\n  jump\t// out\n    /* \"#utility.yul\":1076:1256   */\ntag_31:\n    /* \"#utility.yul\":1124:1201   */\n  0x4e487b7100000000000000000000000000000000000000000000000000000000\n    /* \"#utility.yul\":1121:1122   */\n  0x00\n    /* \"#utility.yul\":1114:1202   */\n  mstore\n    /* \"#utility.yul\":1221:1225   */\n  0x41\n    /* \"#utility.yul\":1218:1219   */\n  0x04\n    /* \"#utility.yul\":1211:1226   */\n  mstore\n    /* \"#utility.yul\":1245:1249   */\n  0x24\n    /* \"#utility.yul\":1242:1243   */\n  0x00\n    /* \"#utility.yul\":1235:1250   */\n  revert\n    /* \"#utility.yul\":1262:1543   */\ntag_32:\n    /* \"#utility.yul\":1345:1372   */\n  tag_54\n    /* \"#utility.yul\":1367:1371   */\n  dup3\n    /* \"#utility.yul\":1345:1372   */\n  tag_30\n  jump\t// in\ntag_54:\n    /* \"#utility.yul\":1337:1343   */\n  dup2\n    /* \"#utility.yul\":1333:1373   */\n  add\n    /* \"#utility.yul\":1475:1481   */\n  dup2\n    /* \"#utility.yul\":1463:1473   */\n  dup2\n    /* \"#utility.yul\":1460:1482   */\n  lt\n    /* \"#utility.yul\":1439:1457   */\n  0xffffffffffffffff\n    /* \"#utility.yul\":1427:1437   */\n  dup3\n    /* \"#utility.yul\":1424:1458   */\n  gt\n    /* \"#utility.yul\":1421:1483   */\n  or\n    /* \"#utility.yul\":1418:1506   */\n  iszero\n  tag_55\n  jumpi\n    /* \"#utility.yul\":1486:1504   */\n  tag_56\n  tag_31\n  jump\t// in\ntag_56:\n    /* \"#utility.yul\":1418:1506   */\ntag_55:\n    /* \"#utility.yul\":1526:1536   */\n  dup1\n    /* \"#utility.yul\":1522:1524   */\n  0x40\n    /* \"#utility.yul\":1515:1537   */\n  mstore\n    /* \"#utility.yul\":1305:1543   */\n  pop\n    /* \"#utility.yul\":1262:1543   */\n  pop\n  pop\n  jump\t// out\n    /* \"#utility.yul\":1549:1678   */\ntag_33:\n    /* \"#utility.yul\":1583:1589   */\n  0x00\n    /* \"#utility.yul\":1610:1630   */\n  tag_58\n  tag_22\n  jump\t// in\ntag_58:\n    /* \"#utility.yul\":1600:1630   */\n  swap1\n  pop\n    /* \"#utility.yul\":1639:1672   */\n  tag_59\n    /* \"#utility.yul\":1667:1671   */\n  dup3\n    /* \"#utility.yul\":1659:1665   */\n  dup3\n    /* \"#utility.yul\":1639:1672   */\n  tag_32\n  jump\t// in\ntag_59:\n    /* \"#utility.yul\":1549:1678   */\n  swap2\n  swap1\n  pop\n  jump\t// out\n    /* \"#utility.yul\":1684:1995   */\ntag_34:\n    /* \"#utility.yul\":1761:1765   */\n  0x00\n    /* \"#utility.yul\":1851:1869   */\n  0xffffffffffffffff\n    /* \"#utility.yul\":1843:1849   */\n  dup3\n    /* \"#utility.yul\":1840:1870   */\n  gt\n    /* \"#utility.yul\":1837:1893   */\n  iszero\n  tag_61\n  jumpi\n    /* \"#utility.yul\":1873:1891   */\n  tag_62\n  tag_31\n  jump\t// in\ntag_62:\n    /* \"#utility.yul\":1837:1893   */\ntag_61:\n    /* \"#utility.yul\":1923:1927   */\n  0x20\n    /* \"#utility.yul\":1915:1921   */\n  dup3\n    /* \"#utility.yul\":1911:1928   */\n  mul\n    /* \"#utility.yul\":1903:1928   */\n  swap1\n  pop\n    /* \"#utility.yul\":1983:1987   */\n  0x20\n    /* \"#utility.yul\":1977:1981   */\n  dup2\n    /* \"#utility.yul\":1973:1988   */\n  add\n    /* \"#utility.yul\":1965:1988   */\n  swap1\n  pop\n    /* \"#utility.yul\":1684:1995   */\n  swap2\n  swap1\n  pop\n  jump\t// out\n    /* \"#utility.yul\":2001:2118   */\ntag_35:\n    /* \"#utility.yul\":2110:2111   */\n  0x00\n    /* \"#utility.yul\":2107:2108   */\n  0x00\n    /* \"#utility.yul\":2100:2112   */\n  revert\n    /* \"#utility.yul\":2141:2873   */\ntag_36:\n    /* \"#utility.yul\":2248:2253   */\n  0x00\n    /* \"#utility.yul\":2273:2354   */\n  tag_65\n    /* \"#utility.yul\":2289:2353   */\n  tag_66\n    /* \"#utility.yul\":2346:2352   */\n  dup5\n    /* \"#utility.yul\":2289:2353   */\n  tag_34\n  jump\t// in\ntag_66:\n    /* \"#utility.yul\":2273:2354   */\n  tag_33\n  jump\t// in\ntag_65:\n    /* \"#utility.yul\":2264:2354   */\n  swap1\n  pop\n    /* \"#utility.yul\":2374:2379   */\n  dup1\n    /* \"#utility.yul\":2403:2409   */\n  dup4\n    /* \"#utility.yul\":2396:2401   */\n  dup3\n    /* \"#utility.yul\":2389:2410   */\n  mstore\n    /* \"#utility.yul\":2437:2441   */\n  0x20\n    /* \"#utility.yul\":2430:2435   */\n  dup3\n    /* \"#utility.yul\":2426:2442   */\n  add\n    /* \"#utility.yul\":2419:2442   */\n  swap1\n  pop\n    /* \"#utility.yul\":2490:2494   */\n  0x20\n    /* \"#utility.yul\":2482:2488   */\n  dup5\n    /* \"#utility.yul\":2478:2495   */\n  mul\n    /* \"#utility.yul\":2470:2476   */\n  dup4\n    /* \"#utility.yul\":2466:2496   */\n  add\n    /* \"#utility.yul\":2519:2522   */\n  dup6\n    /* \"#utility.yul\":2511:2517   */\n  dup2\n    /* \"#utility.yul\":2508:2523   */\n  gt\n    /* \"#utility.yul\":2505:2627   */\n  iszero\n  tag_67\n  jumpi\n    /* \"#utility.yul\":2538:2617   */\n  tag_68\n  tag_35\n  jump\t// in\ntag_68:\n    /* \"#utility.yul\":2505:2627   */\ntag_67:\n    /* \"#utility.yul\":2653:2659   */\n  dup4\n    /* \"#utility.yul\":2636:2867   */\ntag_69:\n    /* \"#utility.yul\":2670:2676   */\n  dup2\n    /* \"#utility.yul\":2665:2668   */\n  dup2\n    /* \"#utility.yul\":2662:2677   */\n  lt\n    /* \"#utility.yul\":2636:2867   */\n  iszero\n  tag_71\n  jumpi\n    /* \"#utility.yul\":2745:2748   */\n  dup1\n    /* \"#utility.yul\":2774:2822   */\n  tag_72\n    /* \"#utility.yul\":2818:2821   */\n  dup9\n    /* \"#utility.yul\":2806:2816   */\n  dup3\n    /* \"#utility.yul\":2774:2822   */\n  tag_28\n  jump\t// in\ntag_72:\n    /* \"#utility.yul\":2769:2772   */\n  dup5\n    /* \"#utility.yul\":2762:2823   */\n  mstore\n    /* \"#utility.yul\":2852:2856   */\n  0x20\n    /* \"#utility.yul\":2847:2850   */\n  dup5\n    /* \"#utility.yul\":2843:2857   */\n  add\n    /* \"#utility.yul\":2836:2857   */\n  swap4\n  pop\n    /* \"#utility.yul\":2712:2867   */\n  pop\n    /* \"#utility.yul\":2696:2700   */\n  0x20\n    /* \"#utility.yul\":2691:2694   */\n  dup2\n    /* \"#utility.yul\":2687:2701   */\n  add\n    /* \"#utility.yul\":2680:2701   */\n  swap1\n  pop\n    /* \"#utility.yul\":2636:2867   */\n  jump(tag_69)\ntag_71:\n    /* \"#utility.yul\":2640:2661   */\n  pop\n    /* \"#utility.yul\":2254:2873   */\n  pop\n  pop\n    /* \"#utility.yul\":2141:2873   */\n  swap4\n  swap3\n  pop\n  pop\n  pop\n  jump\t// out\n    /* \"#utility.yul\":2896:3281   */\ntag_37:\n    /* \"#utility.yul\":2978:2983   */\n  0x00\n    /* \"#utility.yul\":3027:3030   */\n  dup3\n    /* \"#utility.yul\":3020:3024   */\n  0x1f\n    /* \"#utility.yul\":3012:3018   */\n  dup4\n    /* \"#utility.yul\":3008:3025   */\n  add\n    /* \"#utility.yul\":3004:3031   */\n  slt\n    /* \"#utility.yul\":2994:3116   */\n  tag_74\n  jumpi\n    /* \"#utility.yul\":3035:3114   */\n  tag_75\n  tag_29\n  jump\t// in\ntag_75:\n    /* \"#utility.yul\":2994:3116   */\ntag_74:\n    /* \"#utility.yul\":3145:3151   */\n  dup2\n    /* \"#utility.yul\":3139:3152   */\n  mload\n    /* \"#utility.yul\":3170:3275   */\n  tag_76\n    /* \"#utility.yul\":3271:3274   */\n  dup5\n    /* \"#utility.yul\":3263:3269   */\n  dup3\n    /* \"#utility.yul\":3256:3260   */\n  0x20\n    /* \"#utility.yul\":3248:3254   */\n  dup7\n    /* \"#utility.yul\":3244:3261   */\n  add\n    /* \"#utility.yul\":3170:3275   */\n  tag_36\n  jump\t// in\ntag_76:\n    /* \"#utility.yul\":3161:3275   */\n  swap2\n  pop\n    /* \"#utility.yul\":2984:3281   */\n  pop\n    /* \"#utility.yul\":2896:3281   */\n  swap3\n  swap2\n  pop\n  pop\n  jump\t// out\n    /* \"#utility.yul\":3287:4356   */\ntag_3:\n    /* \"#utility.yul\":3425:3431   */\n  0x00\n    /* \"#utility.yul\":3433:3439   */\n  0x00\n    /* \"#utility.yul\":3441:3447   */\n  0x00\n    /* \"#utility.yul\":3490:3492   */\n  0x60\n    /* \"#utility.yul\":3478:3487   */\n  dup5\n    /* \"#utility.yul\":3469:3476   */\n  dup7\n    /* \"#utility.yul\":3465:3488   */\n  sub\n    /* \"#utility.yul\":3461:3493   */\n  slt\n    /* \"#utility.yul\":3458:3577   */\n  iszero\n  tag_78\n  jumpi\n    /* \"#utility.yul\":3496:3575   */\n  tag_79\n  tag_23\n  jump\t// in\ntag_79:\n    /* \"#utility.yul\":3458:3577   */\ntag_78:\n    /* \"#utility.yul\":3616:3617   */\n  0x00\n    /* \"#utility.yul\":3641:3705   */\n  tag_80\n    /* \"#utility.yul\":3697:3704   */\n  dup7\n    /* \"#utility.yul\":3688:3694   */\n  dup3\n    /* \"#utility.yul\":3677:3686   */\n  dup8\n    /* \"#utility.yul\":3673:3695   */\n  add\n    /* \"#utility.yul\":3641:3705   */\n  tag_28\n  jump\t// in\ntag_80:\n    /* \"#utility.yul\":3631:3705   */\n  swap4\n  pop\n    /* \"#utility.yul\":3587:3715   */\n  pop\n    /* \"#utility.yul\":3775:3777   */\n  0x20\n    /* \"#utility.yul\":3764:3773   */\n  dup5\n    /* \"#utility.yul\":3760:3778   */\n  add\n    /* \"#utility.yul\":3754:3779   */\n  mload\n    /* \"#utility.yul\":3806:3824   */\n  0xffffffffffffffff\n    /* \"#utility.yul\":3798:3804   */\n  dup2\n    /* \"#utility.yul\":3795:3825   */\n  gt\n    /* \"#utility.yul\":3792:3909   */\n  iszero\n  tag_81\n  jumpi\n    /* \"#utility.yul\":3828:3907   */\n  tag_82\n  tag_24\n  jump\t// in\ntag_82:\n    /* \"#utility.yul\":3792:3909   */\ntag_81:\n    /* \"#utility.yul\":3933:4022   */\n  tag_83\n    /* \"#utility.yul\":4014:4021   */\n  dup7\n    /* \"#utility.yul\":4005:4011   */\n  dup3\n    /* \"#utility.yul\":3994:4003   */\n  dup8\n    /* \"#utility.yul\":3990:4012   */\n  add\n    /* \"#utility.yul\":3933:4022   */\n  tag_37\n  jump\t// in\ntag_83:\n    /* \"#utility.yul\":3923:4022   */\n  swap3\n  pop\n    /* \"#utility.yul\":3725:4032   */\n  pop\n    /* \"#utility.yul\":4092:4094   */\n  0x40\n    /* \"#utility.yul\":4081:4090   */\n  dup5\n    /* \"#utility.yul\":4077:4095   */\n  add\n    /* \"#utility.yul\":4071:4096   */\n  mload\n    /* \"#utility.yul\":4123:4141   */\n  0xffffffffffffffff\n    /* \"#utility.yul\":4115:4121   */\n  dup2\n    /* \"#utility.yul\":4112:4142   */\n  gt\n    /* \"#utility.yul\":4109:4226   */\n  iszero\n  tag_84\n  jumpi\n    /* \"#utility.yul\":4145:4224   */\n  tag_85\n  tag_24\n  jump\t// in\ntag_85:\n    /* \"#utility.yul\":4109:4226   */\ntag_84:\n    /* \"#utility.yul\":4250:4339   */\n  tag_86\n    /* \"#utility.yul\":4331:4338   */\n  dup7\n    /* \"#utility.yul\":4322:4328   */\n  dup3\n    /* \"#utility.yul\":4311:4320   */\n  dup8\n    /* \"#utility.yul\":4307:4329   */\n  add\n    /* \"#utility.yul\":4250:4339   */\n  tag_37\n  jump\t// in\ntag_86:\n    /* \"#utility.yul\":4240:4339   */\n  swap2\n  pop\n    /* \"#utility.yul\":4042:4349   */\n  pop\n    /* \"#utility.yul\":3287:4356   */\n  swap3\n  pop\n  swap3\n  pop\n  swap3\n  jump\t// out\n    /* \"#utility.yul\":4362:4542   */\ntag_15:\n    /* \"#utility.yul\":4410:4487   */\n  0x4e487b7100000000000000000000000000000000000000000000000000000000\n    /* \"#utility.yul\":4407:4408   */\n  0x00\n    /* \"#utility.yul\":4400:4488   */\n  mstore\n    /* \"#utility.yul\":4507:4511   */\n  0x32\n    /* \"#utility.yul\":4504:4505   */\n  0x04\n    /* \"#utility.yul\":4497:4512   */\n  mstore\n    /* \"#utility.yul\":4531:4535   */\n  0x24\n    /* \"#utility.yul\":4528:4529   */\n  0x00\n    /* \"#utility.yul\":4521:4536   */\n  revert\n    /* \"src/DSCEngine.sol\":1710:10326  contract DSCEngine is ReentrancyGuard {... */\ntag_21:\n  mload(0x80)\n  codecopy(0x00, dataOffset(sub_0), dataSize(sub_0))\n  0x00\n  assignImmutable(\"0x3162021e9b05ce40d88cdbc2e7ffcbde44bff3377e4655bd30398eb60600692d\")\n  return(0x00, dataSize(sub_0))\nstop\n\nsub_0: assembly {\n        /* \"src/DSCEngine.sol\":1710:10326  contract DSCEngine is ReentrancyGuard {... */\n      mstore(0x40, 0x80)\n      callvalue\n      dup1\n      iszero\n      tag_1\n      jumpi\n      revert(0x00, 0x00)\n    tag_1:\n      pop\n      jumpi(tag_2, lt(calldatasize, 0x04))\n      shr(0xe0, calldataload(0x00))\n      dup1\n      0xa5f352b7\n      gt\n      tag_21\n      jumpi\n      dup1\n      0xc9b7c327\n      gt\n      tag_22\n      jumpi\n      dup1\n      0xc9b7c327\n      eq\n      tag_16\n      jumpi\n      dup1\n      0xe90db8a3\n      eq\n      tag_17\n      jumpi\n      dup1\n      0xf419ea9c\n      eq\n      tag_18\n      jumpi\n      dup1\n      0xf6876608\n      eq\n      tag_19\n      jumpi\n      dup1\n      0xfa76dcf2\n      eq\n      tag_20\n      jumpi\n      jump(tag_2)\n    tag_22:\n      dup1\n      0xa5f352b7\n      eq\n      tag_12\n      jumpi\n      dup1\n      0xaaf5eb68\n      eq\n      tag_13\n      jumpi\n      dup1\n      0xafea2e48\n      eq\n      tag_14\n      jumpi\n      dup1\n      0xc601676c\n      eq\n      tag_15\n      jumpi\n      jump(tag_2)\n    tag_21:\n      dup1\n      0x7d1a4450\n      gt\n      tag_23\n      jumpi\n      dup1\n      0x7d1a4450\n      eq\n      tag_7\n      jumpi\n      dup1\n      0x90a8ae9b\n      eq\n      tag_8\n      jumpi\n      dup1\n      0x9acd81b3\n      eq\n      tag_9\n      jumpi\n      dup1\n      0x9d45ac89\n      eq\n      tag_10\n      jumpi\n      dup1\n      0xa5d5db0c\n      eq\n      tag_11\n      jumpi\n      jump(tag_2)\n    tag_23:\n      dup1\n      0x26c01303\n      eq\n      tag_3\n      jumpi\n      dup1\n      0x3574d4c4\n      eq\n      tag_4\n      jumpi\n      dup1\n      0x5e338bb3\n      eq\n      tag_5\n      jumpi\n      dup1\n      0x65079d77\n      eq\n      tag_6\n      jumpi\n    tag_2:\n      revert(0x00, 0x00)\n        /* \"src/DSCEngine.sol\":6284:7439  function liquidate(address _tokenCollateral,  address _user, uint256 _debtToCover) external moreThanZero(_debtToCover) nonReentrant{... */\n    tag_3:\n      tag_24\n      0x04\n      dup1\n      calldatasize\n      sub\n      dup2\n      add\n      swap1\n      tag_25\n      swap2\n      swap1\n      tag_26\n      jump\t// in\n    tag_25:\n      tag_27\n      jump\t// in\n    tag_24:\n      stop\n        /* \"src/DSCEngine.sol\":2626:2672  uint256 public constant LIQUIDATION_BONUS = 10 */\n    tag_4:\n      tag_28\n      tag_29\n      jump\t// in\n    tag_28:\n      mload(0x40)\n      tag_30\n      swap2\n      swap1\n      tag_31\n      jump\t// in\n    tag_30:\n      mload(0x40)\n      dup1\n      swap2\n      sub\n      swap1\n      return\n        /* \"src/DSCEngine.sol\":2329:2375  DecentralizedStableCoin public immutable i_dsc */\n    tag_5:\n      tag_32\n      tag_33\n      jump\t// in\n    tag_32:\n      mload(0x40)\n      tag_34\n      swap2\n      swap1\n      tag_35\n      jump\t// in\n    tag_34:\n      mload(0x40)\n      dup1\n      swap2\n      sub\n      swap1\n      return\n        /* \"src/DSCEngine.sol\":2381:2435  uint256 public constant ADDITION_FEED_PRECISION = 1e10 */\n    tag_6:\n      tag_36\n      tag_37\n      jump\t// in\n    tag_36:\n      mload(0x40)\n      tag_38\n      swap2\n      swap1\n      tag_31\n      jump\t// in\n    tag_38:\n      mload(0x40)\n      dup1\n      swap2\n      sub\n      swap1\n      return\n        /* \"src/DSCEngine.sol\":9552:9963  function getAccountCollateralValue(address _user) public view returns(uint256 totalCollateralValueInUsd){... */\n    tag_7:\n      tag_39\n      0x04\n      dup1\n      calldatasize\n      sub\n      dup2\n      add\n      swap1\n      tag_40\n      swap2\n      swap1\n      tag_41\n      jump\t// in\n    tag_40:\n      tag_42\n      jump\t// in\n    tag_39:\n      mload(0x40)\n      tag_43\n      swap2\n      swap1\n      tag_31\n      jump\t// in\n    tag_43:\n      mload(0x40)\n      dup1\n      swap2\n      sub\n      swap1\n      return\n        /* \"src/DSCEngine.sol\":2487:2537  uint256 public constant LIQUIDATION_THRESHOLD = 50 */\n    tag_8:\n      tag_44\n      tag_45\n      jump\t// in\n    tag_44:\n      mload(0x40)\n      tag_46\n      swap2\n      swap1\n      tag_31\n      jump\t// in\n    tag_46:\n      mload(0x40)\n      dup1\n      swap2\n      sub\n      swap1\n      return\n        /* \"src/DSCEngine.sol\":5419:5695  function redeemCollateral(address _tokenCollateral, uint256 _collateralAmount) public nonReentrant moreThanZero(_collateralAmount){... */\n    tag_9:\n      tag_47\n      0x04\n      dup1\n      calldatasize\n      sub\n      dup2\n      add\n      swap1\n      tag_48\n      swap2\n      swap1\n      tag_49\n      jump\t// in\n    tag_48:\n      tag_50\n      jump\t// in\n    tag_47:\n      stop\n        /* \"src/DSCEngine.sol\":2569:2620  uint256 public constant LIQUIDATION_PRECISION = 100 */\n    tag_10:\n      tag_51\n      tag_52\n      jump\t// in\n    tag_51:\n      mload(0x40)\n      tag_53\n      swap2\n      swap1\n      tag_31\n      jump\t// in\n    tag_53:\n      mload(0x40)\n      dup1\n      swap2\n      sub\n      swap1\n      return\n        /* \"src/DSCEngine.sol\":4533:5127  function depositCollateral(address _tokenCollateral, uint256 _collateralAmount)... */\n    tag_11:\n      tag_54\n      0x04\n      dup1\n      calldatasize\n      sub\n      dup2\n      add\n      swap1\n      tag_55\n      swap2\n      swap1\n      tag_49\n      jump\t// in\n    tag_55:\n      tag_56\n      jump\t// in\n    tag_54:\n      stop\n        /* \"src/DSCEngine.sol\":7445:7488  function getHealthFactor() external view {} */\n    tag_12:\n      tag_57\n      tag_58\n      jump\t// in\n    tag_57:\n      stop\n        /* \"src/DSCEngine.sol\":2441:2481  uint256 public constant PRECISION = 1e18 */\n    tag_13:\n      tag_59\n      tag_60\n      jump\t// in\n    tag_59:\n      mload(0x40)\n      tag_61\n      swap2\n      swap1\n      tag_31\n      jump\t// in\n    tag_61:\n      mload(0x40)\n      dup1\n      swap2\n      sub\n      swap1\n      return\n        /* \"src/DSCEngine.sol\":9255:9546  function getTokenAmountFromUsd(address _token, uint256 usdAmountInWei) public view returns(uint256){... */\n    tag_14:\n      tag_62\n      0x04\n      dup1\n      calldatasize\n      sub\n      dup2\n      add\n      swap1\n      tag_63\n      swap2\n      swap1\n      tag_49\n      jump\t// in\n    tag_63:\n      tag_64\n      jump\t// in\n    tag_62:\n      mload(0x40)\n      tag_65\n      swap2\n      swap1\n      tag_31\n      jump\t// in\n    tag_65:\n      mload(0x40)\n      dup1\n      swap2\n      sub\n      swap1\n      return\n        /* \"src/DSCEngine.sol\":2691:2738  uint256 public constant MIN_HEALT_FACTOR = 1e18 */\n    tag_15:\n      tag_66\n      tag_67\n      jump\t// in\n    tag_66:\n      mload(0x40)\n      tag_68\n      swap2\n      swap1\n      tag_31\n      jump\t// in\n    tag_68:\n      mload(0x40)\n      dup1\n      swap2\n      sub\n      swap1\n      return\n        /* \"src/DSCEngine.sol\":5701:6047  function mintDsc(uint256 _amountDscToMint) public moreThanZero(_amountDscToMint) nonReentrant{... */\n    tag_16:\n      tag_69\n      0x04\n      dup1\n      calldatasize\n      sub\n      dup2\n      add\n      swap1\n      tag_70\n      swap2\n      swap1\n      tag_71\n      jump\t// in\n    tag_70:\n      tag_72\n      jump\t// in\n    tag_69:\n      stop\n        /* \"src/DSCEngine.sol\":4297:4527  function depositCollateralAndMintDsc(address _tokenCollateral, uint256 _collateralAmount, uint256 _amountDscToMint) external{... */\n    tag_17:\n      tag_73\n      0x04\n      dup1\n      calldatasize\n      sub\n      dup2\n      add\n      swap1\n      tag_74\n      swap2\n      swap1\n      tag_75\n      jump\t// in\n    tag_74:\n      tag_76\n      jump\t// in\n    tag_73:\n      stop\n        /* \"src/DSCEngine.sol\":5133:5413  function redeemCollateralForDsc(address _tokenCollateral, uint256 _collateralAmount, uint256 _amountDscToBurn) external {... */\n    tag_18:\n      tag_77\n      0x04\n      dup1\n      calldatasize\n      sub\n      dup2\n      add\n      swap1\n      tag_78\n      swap2\n      swap1\n      tag_75\n      jump\t// in\n    tag_78:\n      tag_79\n      jump\t// in\n    tag_77:\n      stop\n        /* \"src/DSCEngine.sol\":6053:6278  function burnDsc(uint256 _amountToBurn) public moreThanZero(_amountToBurn){... */\n    tag_19:\n      tag_80\n      0x04\n      dup1\n      calldatasize\n      sub\n      dup2\n      add\n      swap1\n      tag_81\n      swap2\n      swap1\n      tag_71\n      jump\t// in\n    tag_81:\n      tag_82\n      jump\t// in\n    tag_80:\n      stop\n        /* \"src/DSCEngine.sol\":9969:10324  function getUSDValue(address _token, uint256 _amount) public view isAllowedCollateral(_token) returns(uint256){... */\n    tag_20:\n      tag_83\n      0x04\n      dup1\n      calldatasize\n      sub\n      dup2\n      add\n      swap1\n      tag_84\n      swap2\n      swap1\n      tag_49\n      jump\t// in\n    tag_84:\n      tag_85\n      jump\t// in\n    tag_83:\n      mload(0x40)\n      tag_86\n      swap2\n      swap1\n      tag_31\n      jump\t// in\n    tag_86:\n      mload(0x40)\n      dup1\n      swap2\n      sub\n      swap1\n      return\n        /* \"src/DSCEngine.sol\":6284:7439  function liquidate(address _tokenCollateral,  address _user, uint256 _debtToCover) external moreThanZero(_debtToCover) nonReentrant{... */\n    tag_27:\n        /* \"src/DSCEngine.sol\":6389:6401  _debtToCover */\n      dup1\n        /* \"src/DSCEngine.sol\":3382:3383  0 */\n      0x00\n        /* \"src/DSCEngine.sol\":3372:3378  amount */\n      dup2\n        /* \"src/DSCEngine.sol\":3372:3383  amount == 0 */\n      sub\n        /* \"src/DSCEngine.sol\":3368:3447  if (amount == 0) {... */\n      tag_88\n      jumpi\n        /* \"src/DSCEngine.sol\":3406:3436  DSCEngine__NeedsMoreThanZero() */\n      mload(0x40)\n      0xcb1d3f7d00000000000000000000000000000000000000000000000000000000\n      dup2\n      mstore\n      0x04\n      add\n      mload(0x40)\n      dup1\n      swap2\n      sub\n      swap1\n      revert\n        /* \"src/DSCEngine.sol\":3368:3447  if (amount == 0) {... */\n    tag_88:\n        /* \"@openzeppelin/contracts/utils/ReentrancyGuard.sol\":2500:2521  _nonReentrantBefore() */\n      tag_90\n        /* \"@openzeppelin/contracts/utils/ReentrancyGuard.sol\":2500:2519  _nonReentrantBefore */\n      tag_91\n        /* \"@openzeppelin/contracts/utils/ReentrancyGuard.sol\":2500:2521  _nonReentrantBefore() */\n      jump\t// in\n    tag_90:\n        /* \"src/DSCEngine.sol\":6425:6456  uint256 startingUserHealtFactor */\n      0x00\n        /* \"src/DSCEngine.sol\":6459:6479  _healthFactor(_user) */\n      tag_93\n        /* \"src/DSCEngine.sol\":6473:6478  _user */\n      dup5\n        /* \"src/DSCEngine.sol\":6459:6472  _healthFactor */\n      tag_94\n        /* \"src/DSCEngine.sol\":6459:6479  _healthFactor(_user) */\n      jump\t// in\n    tag_93:\n        /* \"src/DSCEngine.sol\":6425:6479  uint256 startingUserHealtFactor = _healthFactor(_user) */\n      swap1\n      pop\n        /* \"src/DSCEngine.sol\":2734:2738  1e18 */\n      0x0de0b6b3a7640000\n        /* \"src/DSCEngine.sol\":6492:6515  startingUserHealtFactor */\n      dup2\n        /* \"src/DSCEngine.sol\":6492:6535  startingUserHealtFactor >= MIN_HEALT_FACTOR */\n      lt\n        /* \"src/DSCEngine.sol\":6489:6594  if(startingUserHealtFactor >= MIN_HEALT_FACTOR){... */\n      tag_95\n      jumpi\n        /* \"src/DSCEngine.sol\":6557:6583  DSGEngine__HealtFactorOk() */\n      mload(0x40)\n      0x4dc824ba00000000000000000000000000000000000000000000000000000000\n      dup2\n      mstore\n      0x04\n      add\n      mload(0x40)\n      dup1\n      swap2\n      sub\n      swap1\n      revert\n        /* \"src/DSCEngine.sol\":6489:6594  if(startingUserHealtFactor >= MIN_HEALT_FACTOR){... */\n    tag_95:\n        /* \"src/DSCEngine.sol\":6604:6638  uint256 tokenAmountFromDebtCovered */\n      0x00\n        /* \"src/DSCEngine.sol\":6641:6694  getTokenAmountFromUsd(_tokenCollateral, _debtToCover) */\n      tag_96\n        /* \"src/DSCEngine.sol\":6663:6679  _tokenCollateral */\n      dup7\n        /* \"src/DSCEngine.sol\":6681:6693  _debtToCover */\n      dup6\n        /* \"src/DSCEngine.sol\":6641:6662  getTokenAmountFromUsd */\n      tag_64\n        /* \"src/DSCEngine.sol\":6641:6694  getTokenAmountFromUsd(_tokenCollateral, _debtToCover) */\n      jump\t// in\n    tag_96:\n        /* \"src/DSCEngine.sol\":6604:6694  uint256 tokenAmountFromDebtCovered = getTokenAmountFromUsd(_tokenCollateral, _debtToCover) */\n      swap1\n      pop\n        /* \"src/DSCEngine.sol\":6770:6793  uint256 bonusCollateral */\n      0x00\n        /* \"src/DSCEngine.sol\":2617:2620  100 */\n      0x64\n        /* \"src/DSCEngine.sol\":2670:2672  10 */\n      0x0a\n        /* \"src/DSCEngine.sol\":6797:6823  tokenAmountFromDebtCovered */\n      dup4\n        /* \"src/DSCEngine.sol\":6797:6843  tokenAmountFromDebtCovered * LIQUIDATION_BONUS */\n      tag_97\n      swap2\n      swap1\n      tag_98\n      jump\t// in\n    tag_97:\n        /* \"src/DSCEngine.sol\":6796:6868  (tokenAmountFromDebtCovered * LIQUIDATION_BONUS) / LIQUIDATION_PRECISION */\n      tag_99\n      swap2\n      swap1\n      tag_100\n      jump\t// in\n    tag_99:\n        /* \"src/DSCEngine.sol\":6770:6868  uint256 bonusCollateral = (tokenAmountFromDebtCovered * LIQUIDATION_BONUS) / LIQUIDATION_PRECISION */\n      swap1\n      pop\n        /* \"src/DSCEngine.sol\":6940:6971  uint256 totalCollateralToRedeem */\n      0x00\n        /* \"src/DSCEngine.sol\":7003:7018  bonusCollateral */\n      dup2\n        /* \"src/DSCEngine.sol\":6974:7000  tokenAmountFromDebtCovered */\n      dup4\n        /* \"src/DSCEngine.sol\":6974:7018  tokenAmountFromDebtCovered + bonusCollateral */\n      tag_101\n      swap2\n      swap1\n      tag_102\n      jump\t// in\n    tag_101:\n        /* \"src/DSCEngine.sol\":6940:7018  uint256 totalCollateralToRedeem = tokenAmountFromDebtCovered + bonusCollateral */\n      swap1\n      pop\n        /* \"src/DSCEngine.sol\":7028:7107  _redeemCollateral(_tokenCollateral, totalCollateralToRedeem, _user, msg.sender) */\n      tag_103\n        /* \"src/DSCEngine.sol\":7046:7062  _tokenCollateral */\n      dup9\n        /* \"src/DSCEngine.sol\":7064:7087  totalCollateralToRedeem */\n      dup3\n        /* \"src/DSCEngine.sol\":7089:7094  _user */\n      dup10\n        /* \"src/DSCEngine.sol\":7096:7106  msg.sender */\n      caller\n        /* \"src/DSCEngine.sol\":7028:7045  _redeemCollateral */\n      tag_104\n        /* \"src/DSCEngine.sol\":7028:7107  _redeemCollateral(_tokenCollateral, totalCollateralToRedeem, _user, msg.sender) */\n      jump\t// in\n    tag_103:\n        /* \"src/DSCEngine.sol\":7146:7187  _burnDsc(_debtToCover, _user, msg.sender) */\n      tag_105\n        /* \"src/DSCEngine.sol\":7155:7167  _debtToCover */\n      dup7\n        /* \"src/DSCEngine.sol\":7169:7174  _user */\n      dup9\n        /* \"src/DSCEngine.sol\":7176:7186  msg.sender */\n      caller\n        /* \"src/DSCEngine.sol\":7146:7154  _burnDsc */\n      tag_106\n        /* \"src/DSCEngine.sol\":7146:7187  _burnDsc(_debtToCover, _user, msg.sender) */\n      jump\t// in\n    tag_105:\n        /* \"src/DSCEngine.sol\":7198:7228  uint256 endingUserHealthFactor */\n      0x00\n        /* \"src/DSCEngine.sol\":7231:7251  _healthFactor(_user) */\n      tag_107\n        /* \"src/DSCEngine.sol\":7245:7250  _user */\n      dup9\n        /* \"src/DSCEngine.sol\":7231:7244  _healthFactor */\n      tag_94\n        /* \"src/DSCEngine.sol\":7231:7251  _healthFactor(_user) */\n      jump\t// in\n    tag_107:\n        /* \"src/DSCEngine.sol\":7198:7251  uint256 endingUserHealthFactor = _healthFactor(_user) */\n      swap1\n      pop\n        /* \"src/DSCEngine.sol\":7290:7313  startingUserHealtFactor */\n      dup5\n        /* \"src/DSCEngine.sol\":7264:7286  endingUserHealthFactor */\n      dup2\n        /* \"src/DSCEngine.sol\":7264:7313  endingUserHealthFactor <= startingUserHealtFactor */\n      gt\n        /* \"src/DSCEngine.sol\":7261:7382  if(endingUserHealthFactor <= startingUserHealtFactor){... */\n      tag_108\n      jumpi\n        /* \"src/DSCEngine.sol\":7335:7371  DSCEngine__HealthFactorNotImproved() */\n      mload(0x40)\n      0x7c28362000000000000000000000000000000000000000000000000000000000\n      dup2\n      mstore\n      0x04\n      add\n      mload(0x40)\n      dup1\n      swap2\n      sub\n      swap1\n      revert\n        /* \"src/DSCEngine.sol\":7261:7382  if(endingUserHealthFactor <= startingUserHealtFactor){... */\n    tag_108:\n        /* \"src/DSCEngine.sol\":7391:7432  _revertIfHealthFactorIsBroken(msg.sender) */\n      tag_109\n        /* \"src/DSCEngine.sol\":7421:7431  msg.sender */\n      caller\n        /* \"src/DSCEngine.sol\":7391:7420  _revertIfHealthFactorIsBroken */\n      tag_110\n        /* \"src/DSCEngine.sol\":7391:7432  _revertIfHealthFactorIsBroken(msg.sender) */\n      jump\t// in\n    tag_109:\n        /* \"src/DSCEngine.sol\":6415:7439  {... */\n      pop\n      pop\n      pop\n      pop\n      pop\n        /* \"@openzeppelin/contracts/utils/ReentrancyGuard.sol\":2542:2562  _nonReentrantAfter() */\n      tag_111\n        /* \"@openzeppelin/contracts/utils/ReentrancyGuard.sol\":2542:2560  _nonReentrantAfter */\n      tag_112\n        /* \"@openzeppelin/contracts/utils/ReentrancyGuard.sol\":2542:2562  _nonReentrantAfter() */\n      jump\t// in\n    tag_111:\n        /* \"src/DSCEngine.sol\":6284:7439  function liquidate(address _tokenCollateral,  address _user, uint256 _debtToCover) external moreThanZero(_debtToCover) nonReentrant{... */\n      pop\n      pop\n      pop\n      pop\n      jump\t// out\n        /* \"src/DSCEngine.sol\":2626:2672  uint256 public constant LIQUIDATION_BONUS = 10 */\n    tag_29:\n        /* \"src/DSCEngine.sol\":2670:2672  10 */\n      0x0a\n        /* \"src/DSCEngine.sol\":2626:2672  uint256 public constant LIQUIDATION_BONUS = 10 */\n      dup2\n      jump\t// out\n        /* \"src/DSCEngine.sol\":2329:2375  DecentralizedStableCoin public immutable i_dsc */\n    tag_33:\n      immutable(\"0x3162021e9b05ce40d88cdbc2e7ffcbde44bff3377e4655bd30398eb60600692d\")\n      dup2\n      jump\t// out\n        /* \"src/DSCEngine.sol\":2381:2435  uint256 public constant ADDITION_FEED_PRECISION = 1e10 */\n    tag_37:\n        /* \"src/DSCEngine.sol\":2431:2435  1e10 */\n      0x02540be400\n        /* \"src/DSCEngine.sol\":2381:2435  uint256 public constant ADDITION_FEED_PRECISION = 1e10 */\n      dup2\n      jump\t// out\n        /* \"src/DSCEngine.sol\":9552:9963  function getAccountCollateralValue(address _user) public view returns(uint256 totalCollateralValueInUsd){... */\n    tag_42:\n        /* \"src/DSCEngine.sol\":9622:9655  uint256 totalCollateralValueInUsd */\n      0x00\n        /* \"src/DSCEngine.sol\":9670:9679  uint256 i */\n      0x00\n        /* \"src/DSCEngine.sol\":9681:9682  0 */\n      0x00\n        /* \"src/DSCEngine.sol\":9670:9682  uint256 i= 0 */\n      swap1\n      pop\n        /* \"src/DSCEngine.sol\":9666:9915  for(uint256 i= 0; i> s_collateralTokens.length; i++){... */\n    tag_114:\n        /* \"src/DSCEngine.sol\":9687:9705  s_collateralTokens */\n      0x04\n        /* \"src/DSCEngine.sol\":9687:9712  s_collateralTokens.length */\n      dup1\n      sload\n      swap1\n      pop\n        /* \"src/DSCEngine.sol\":9684:9685  i */\n      dup2\n        /* \"src/DSCEngine.sol\":9684:9712  i> s_collateralTokens.length */\n      gt\n        /* \"src/DSCEngine.sol\":9666:9915  for(uint256 i= 0; i> s_collateralTokens.length; i++){... */\n      iszero\n      tag_115\n      jumpi\n        /* \"src/DSCEngine.sol\":9732:9745  address token */\n      0x00\n        /* \"src/DSCEngine.sol\":9748:9766  s_collateralTokens */\n      0x04\n        /* \"src/DSCEngine.sol\":9767:9768  i */\n      dup3\n        /* \"src/DSCEngine.sol\":9748:9769  s_collateralTokens[i] */\n      dup2\n      sload\n      dup2\n      lt\n      tag_117\n      jumpi\n      tag_118\n      tag_119\n      jump\t// in\n    tag_118:\n    tag_117:\n      swap1\n      0x00\n      mstore\n      keccak256(0x00, 0x20)\n      add\n      0x00\n      swap1\n      sload\n      swap1\n      0x0100\n      exp\n      swap1\n      div\n      0xffffffffffffffffffffffffffffffffffffffff\n      and\n        /* \"src/DSCEngine.sol\":9732:9769  address token = s_collateralTokens[i] */\n      swap1\n      pop\n        /* \"src/DSCEngine.sol\":9783:9797  uint256 amount */\n      0x00\n        /* \"src/DSCEngine.sol\":9800:9821  s_collateralDeposited */\n      0x02\n        /* \"src/DSCEngine.sol\":9800:9828  s_collateralDeposited[_user] */\n      0x00\n        /* \"src/DSCEngine.sol\":9822:9827  _user */\n      dup7\n        /* \"src/DSCEngine.sol\":9800:9828  s_collateralDeposited[_user] */\n      0xffffffffffffffffffffffffffffffffffffffff\n      and\n      0xffffffffffffffffffffffffffffffffffffffff\n      and\n      dup2\n      mstore\n      0x20\n      add\n      swap1\n      dup2\n      mstore\n      0x20\n      add\n      0x00\n      keccak256\n        /* \"src/DSCEngine.sol\":9800:9835  s_collateralDeposited[_user][token] */\n      0x00\n        /* \"src/DSCEngine.sol\":9829:9834  token */\n      dup4\n        /* \"src/DSCEngine.sol\":9800:9835  s_collateralDeposited[_user][token] */\n      0xffffffffffffffffffffffffffffffffffffffff\n      and\n      0xffffffffffffffffffffffffffffffffffffffff\n      and\n      dup2\n      mstore\n      0x20\n      add\n      swap1\n      dup2\n      mstore\n      0x20\n      add\n      0x00\n      keccak256\n      sload\n        /* \"src/DSCEngine.sol\":9783:9835  uint256 amount = s_collateralDeposited[_user][token] */\n      swap1\n      pop\n        /* \"src/DSCEngine.sol\":9878:9904  getUSDValue(token, amount) */\n      tag_121\n        /* \"src/DSCEngine.sol\":9890:9895  token */\n      dup3\n        /* \"src/DSCEngine.sol\":9897:9903  amount */\n      dup3\n        /* \"src/DSCEngine.sol\":9878:9889  getUSDValue */\n      tag_85\n        /* \"src/DSCEngine.sol\":9878:9904  getUSDValue(token, amount) */\n      jump\t// in\n    tag_121:\n        /* \"src/DSCEngine.sol\":9849:9904  totalCollateralValueInUsd += getUSDValue(token, amount) */\n      dup5\n      tag_122\n      swap2\n      swap1\n      tag_102\n      jump\t// in\n    tag_122:\n      swap4\n      pop\n        /* \"src/DSCEngine.sol\":9718:9915  {... */\n      pop\n      pop\n        /* \"src/DSCEngine.sol\":9714:9717  i++ */\n      dup1\n      dup1\n      tag_123\n      swap1\n      tag_124\n      jump\t// in\n    tag_123:\n      swap2\n      pop\n      pop\n        /* \"src/DSCEngine.sol\":9666:9915  for(uint256 i= 0; i> s_collateralTokens.length; i++){... */\n      jump(tag_114)\n    tag_115:\n      pop\n        /* \"src/DSCEngine.sol\":9552:9963  function getAccountCollateralValue(address _user) public view returns(uint256 totalCollateralValueInUsd){... */\n      swap2\n      swap1\n      pop\n      jump\t// out\n        /* \"src/DSCEngine.sol\":2487:2537  uint256 public constant LIQUIDATION_THRESHOLD = 50 */\n    tag_45:\n        /* \"src/DSCEngine.sol\":2535:2537  50 */\n      0x32\n        /* \"src/DSCEngine.sol\":2487:2537  uint256 public constant LIQUIDATION_THRESHOLD = 50 */\n      dup2\n      jump\t// out\n        /* \"src/DSCEngine.sol\":5419:5695  function redeemCollateral(address _tokenCollateral, uint256 _collateralAmount) public nonReentrant moreThanZero(_collateralAmount){... */\n    tag_50:\n        /* \"@openzeppelin/contracts/utils/ReentrancyGuard.sol\":2500:2521  _nonReentrantBefore() */\n      tag_126\n        /* \"@openzeppelin/contracts/utils/ReentrancyGuard.sol\":2500:2519  _nonReentrantBefore */\n      tag_91\n        /* \"@openzeppelin/contracts/utils/ReentrancyGuard.sol\":2500:2521  _nonReentrantBefore() */\n      jump\t// in\n    tag_126:\n        /* \"src/DSCEngine.sol\":5531:5548  _collateralAmount */\n      dup1\n        /* \"src/DSCEngine.sol\":3382:3383  0 */\n      0x00\n        /* \"src/DSCEngine.sol\":3372:3378  amount */\n      dup2\n        /* \"src/DSCEngine.sol\":3372:3383  amount == 0 */\n      sub\n        /* \"src/DSCEngine.sol\":3368:3447  if (amount == 0) {... */\n      tag_128\n      jumpi\n        /* \"src/DSCEngine.sol\":3406:3436  DSCEngine__NeedsMoreThanZero() */\n      mload(0x40)\n      0xcb1d3f7d00000000000000000000000000000000000000000000000000000000\n      dup2\n      mstore\n      0x04\n      add\n      mload(0x40)\n      dup1\n      swap2\n      sub\n      swap1\n      revert\n        /* \"src/DSCEngine.sol\":3368:3447  if (amount == 0) {... */\n    tag_128:\n        /* \"src/DSCEngine.sol\":5559:5637  _redeemCollateral(_tokenCollateral, _collateralAmount, msg.sender, msg.sender) */\n      tag_130\n        /* \"src/DSCEngine.sol\":5577:5593  _tokenCollateral */\n      dup4\n        /* \"src/DSCEngine.sol\":5595:5612  _collateralAmount */\n      dup4\n        /* \"src/DSCEngine.sol\":5614:5624  msg.sender */\n      caller\n        /* \"src/DSCEngine.sol\":5626:5636  msg.sender */\n      caller\n        /* \"src/DSCEngine.sol\":5559:5576  _redeemCollateral */\n      tag_104\n        /* \"src/DSCEngine.sol\":5559:5637  _redeemCollateral(_tokenCollateral, _collateralAmount, msg.sender, msg.sender) */\n      jump\t// in\n    tag_130:\n        /* \"src/DSCEngine.sol\":5647:5688  _revertIfHealthFactorIsBroken(msg.sender) */\n      tag_131\n        /* \"src/DSCEngine.sol\":5677:5687  msg.sender */\n      caller\n        /* \"src/DSCEngine.sol\":5647:5676  _revertIfHealthFactorIsBroken */\n      tag_110\n        /* \"src/DSCEngine.sol\":5647:5688  _revertIfHealthFactorIsBroken(msg.sender) */\n      jump\t// in\n    tag_131:\n        /* \"@openzeppelin/contracts/utils/ReentrancyGuard.sol\":2531:2532  _ */\n      pop\n        /* \"@openzeppelin/contracts/utils/ReentrancyGuard.sol\":2542:2562  _nonReentrantAfter() */\n      tag_132\n        /* \"@openzeppelin/contracts/utils/ReentrancyGuard.sol\":2542:2560  _nonReentrantAfter */\n      tag_112\n        /* \"@openzeppelin/contracts/utils/ReentrancyGuard.sol\":2542:2562  _nonReentrantAfter() */\n      jump\t// in\n    tag_132:\n        /* \"src/DSCEngine.sol\":5419:5695  function redeemCollateral(address _tokenCollateral, uint256 _collateralAmount) public nonReentrant moreThanZero(_collateralAmount){... */\n      pop\n      pop\n      jump\t// out\n        /* \"src/DSCEngine.sol\":2569:2620  uint256 public constant LIQUIDATION_PRECISION = 100 */\n    tag_52:\n        /* \"src/DSCEngine.sol\":2617:2620  100 */\n      0x64\n        /* \"src/DSCEngine.sol\":2569:2620  uint256 public constant LIQUIDATION_PRECISION = 100 */\n      dup2\n      jump\t// out\n        /* \"src/DSCEngine.sol\":4533:5127  function depositCollateral(address _tokenCollateral, uint256 _collateralAmount)... */\n    tag_56:\n        /* \"src/DSCEngine.sol\":4649:4666  _collateralAmount */\n      dup1\n        /* \"src/DSCEngine.sol\":3382:3383  0 */\n      0x00\n        /* \"src/DSCEngine.sol\":3372:3378  amount */\n      dup2\n        /* \"src/DSCEngine.sol\":3372:3383  amount == 0 */\n      sub\n        /* \"src/DSCEngine.sol\":3368:3447  if (amount == 0) {... */\n      tag_134\n      jumpi\n        /* \"src/DSCEngine.sol\":3406:3436  DSCEngine__NeedsMoreThanZero() */\n      mload(0x40)\n      0xcb1d3f7d00000000000000000000000000000000000000000000000000000000\n      dup2\n      mstore\n      0x04\n      add\n      mload(0x40)\n      dup1\n      swap2\n      sub\n      swap1\n      revert\n        /* \"src/DSCEngine.sol\":3368:3447  if (amount == 0) {... */\n    tag_134:\n        /* \"src/DSCEngine.sol\":4696:4712  _tokenCollateral */\n      dup3\n        /* \"src/DSCEngine.sol\":3561:3562  0 */\n      0x00\n        /* \"src/DSCEngine.sol\":3529:3563  s_priceFeeds[_token] == address(0) */\n      0xffffffffffffffffffffffffffffffffffffffff\n      and\n        /* \"src/DSCEngine.sol\":3529:3541  s_priceFeeds */\n      0x01\n        /* \"src/DSCEngine.sol\":3529:3549  s_priceFeeds[_token] */\n      0x00\n        /* \"src/DSCEngine.sol\":3542:3548  _token */\n      dup4\n        /* \"src/DSCEngine.sol\":3529:3549  s_priceFeeds[_token] */\n      0xffffffffffffffffffffffffffffffffffffffff\n      and\n      0xffffffffffffffffffffffffffffffffffffffff\n      and\n      dup2\n      mstore\n      0x20\n      add\n      swap1\n      dup2\n      mstore\n      0x20\n      add\n      0x00\n      keccak256\n      0x00\n      swap1\n      sload\n      swap1\n      0x0100\n      exp\n      swap1\n      div\n      0xffffffffffffffffffffffffffffffffffffffff\n      and\n        /* \"src/DSCEngine.sol\":3529:3563  s_priceFeeds[_token] == address(0) */\n      0xffffffffffffffffffffffffffffffffffffffff\n      and\n      sub\n        /* \"src/DSCEngine.sol\":3525:3625  if (s_priceFeeds[_token] == address(0)) {... */\n      tag_136\n      jumpi\n        /* \"src/DSCEngine.sol\":3586:3614  DSCEngine__NotAllowedToken() */\n      mload(0x40)\n      0xa802cfbe00000000000000000000000000000000000000000000000000000000\n      dup2\n      mstore\n      0x04\n      add\n      mload(0x40)\n      dup1\n      swap2\n      sub\n      swap1\n      revert\n        /* \"src/DSCEngine.sol\":3525:3625  if (s_priceFeeds[_token] == address(0)) {... */\n    tag_136:\n        /* \"@openzeppelin/contracts/utils/ReentrancyGuard.sol\":2500:2521  _nonReentrantBefore() */\n      tag_138\n        /* \"@openzeppelin/contracts/utils/ReentrancyGuard.sol\":2500:2519  _nonReentrantBefore */\n      tag_91\n        /* \"@openzeppelin/contracts/utils/ReentrancyGuard.sol\":2500:2521  _nonReentrantBefore() */\n      jump\t// in\n    tag_138:\n        /* \"src/DSCEngine.sol\":4804:4821  _collateralAmount */\n      dup3\n        /* \"src/DSCEngine.sol\":4749:4770  s_collateralDeposited */\n      0x02\n        /* \"src/DSCEngine.sol\":4749:4782  s_collateralDeposited[msg.sender] */\n      0x00\n        /* \"src/DSCEngine.sol\":4771:4781  msg.sender */\n      caller\n        /* \"src/DSCEngine.sol\":4749:4782  s_collateralDeposited[msg.sender] */\n      0xffffffffffffffffffffffffffffffffffffffff\n      and\n      0xffffffffffffffffffffffffffffffffffffffff\n      and\n      dup2\n      mstore\n      0x20\n      add\n      swap1\n      dup2\n      mstore\n      0x20\n      add\n      0x00\n      keccak256\n        /* \"src/DSCEngine.sol\":4749:4800  s_collateralDeposited[msg.sender][_tokenCollateral] */\n      0x00\n        /* \"src/DSCEngine.sol\":4783:4799  _tokenCollateral */\n      dup7\n        /* \"src/DSCEngine.sol\":4749:4800  s_collateralDeposited[msg.sender][_tokenCollateral] */\n      0xffffffffffffffffffffffffffffffffffffffff\n      and\n      0xffffffffffffffffffffffffffffffffffffffff\n      and\n      dup2\n      mstore\n      0x20\n      add\n      swap1\n      dup2\n      mstore\n      0x20\n      add\n      0x00\n      keccak256\n      0x00\n        /* \"src/DSCEngine.sol\":4749:4821  s_collateralDeposited[msg.sender][_tokenCollateral] += _collateralAmount */\n      dup3\n      dup3\n      sload\n      tag_140\n      swap2\n      swap1\n      tag_102\n      jump\t// in\n    tag_140:\n      swap3\n      pop\n      pop\n      dup2\n      swap1\n      sstore\n      pop\n        /* \"src/DSCEngine.sol\":4831:4843  bool success */\n      0x00\n        /* \"src/DSCEngine.sol\":4853:4869  _tokenCollateral */\n      dup5\n        /* \"src/DSCEngine.sol\":4846:4883  IERC20(_tokenCollateral).transferFrom */\n      0xffffffffffffffffffffffffffffffffffffffff\n      and\n      0x23b872dd\n        /* \"src/DSCEngine.sol\":4884:4894  msg.sender */\n      caller\n        /* \"src/DSCEngine.sol\":4904:4908  this */\n      address\n        /* \"src/DSCEngine.sol\":4911:4928  _collateralAmount */\n      dup8\n        /* \"src/DSCEngine.sol\":4846:4929  IERC20(_tokenCollateral).transferFrom(msg.sender, address(this), _collateralAmount) */\n      mload(0x40)\n      dup5\n      0xffffffff\n      and\n      0xe0\n      shl\n      dup2\n      mstore\n      0x04\n      add\n      tag_141\n      swap4\n      swap3\n      swap2\n      swap1\n      tag_142\n      jump\t// in\n    tag_141:\n      0x20\n      mload(0x40)\n      dup1\n      dup4\n      sub\n      dup2\n      0x00\n      dup8\n      gas\n      call\n      iszero\n      dup1\n      iszero\n      tag_144\n      jumpi\n      returndatacopy(0x00, 0x00, returndatasize)\n      revert(0x00, returndatasize)\n    tag_144:\n      pop\n      pop\n      pop\n      pop\n      mload(0x40)\n      returndatasize\n      not(0x1f)\n      0x1f\n      dup3\n      add\n      and\n      dup3\n      add\n      dup1\n      0x40\n      mstore\n      pop\n      dup2\n      add\n      swap1\n      tag_145\n      swap2\n      swap1\n      tag_146\n      jump\t// in\n    tag_145:\n        /* \"src/DSCEngine.sol\":4831:4929  bool success = IERC20(_tokenCollateral).transferFrom(msg.sender, address(this), _collateralAmount) */\n      swap1\n      pop\n        /* \"src/DSCEngine.sol\":4944:4951  success */\n      dup1\n        /* \"src/DSCEngine.sol\":4939:5037  if (!success) {... */\n      tag_147\n      jumpi\n        /* \"src/DSCEngine.sol\":5009:5025  _tokenCollateral */\n      dup5\n        /* \"src/DSCEngine.sol\":4974:5026  DSCEngine__CollateralDepositFailed(_tokenCollateral) */\n      mload(0x40)\n      0xbc3fe12700000000000000000000000000000000000000000000000000000000\n      dup2\n      mstore\n      0x04\n      add\n      tag_148\n      swap2\n      swap1\n      tag_149\n      jump\t// in\n    tag_148:\n      mload(0x40)\n      dup1\n      swap2\n      sub\n      swap1\n      revert\n        /* \"src/DSCEngine.sol\":4939:5037  if (!success) {... */\n    tag_147:\n        /* \"src/DSCEngine.sol\":5102:5119  _collateralAmount */\n      dup4\n        /* \"src/DSCEngine.sol\":5084:5100  _tokenCollateral */\n      dup6\n        /* \"src/DSCEngine.sol\":5052:5120  CollateralDeposited(msg.sender, _tokenCollateral, _collateralAmount) */\n      0xffffffffffffffffffffffffffffffffffffffff\n      and\n        /* \"src/DSCEngine.sol\":5072:5082  msg.sender */\n      caller\n        /* \"src/DSCEngine.sol\":5052:5120  CollateralDeposited(msg.sender, _tokenCollateral, _collateralAmount) */\n      0xffffffffffffffffffffffffffffffffffffffff\n      and\n      0xf1c0dd7e9b98bbff859029005ef89b127af049cd18df1a8d79f0b7e019911e56\n      mload(0x40)\n      mload(0x40)\n      dup1\n      swap2\n      sub\n      swap1\n      log4\n        /* \"src/DSCEngine.sol\":4739:5127  {... */\n      pop\n        /* \"@openzeppelin/contracts/utils/ReentrancyGuard.sol\":2542:2562  _nonReentrantAfter() */\n      tag_150\n        /* \"@openzeppelin/contracts/utils/ReentrancyGuard.sol\":2542:2560  _nonReentrantAfter */\n      tag_112\n        /* \"@openzeppelin/contracts/utils/ReentrancyGuard.sol\":2542:2562  _nonReentrantAfter() */\n      jump\t// in\n    tag_150:\n        /* \"src/DSCEngine.sol\":3456:3457  _ */\n      pop\n        /* \"src/DSCEngine.sol\":4533:5127  function depositCollateral(address _tokenCollateral, uint256 _collateralAmount)... */\n      pop\n      pop\n      pop\n      jump\t// out\n        /* \"src/DSCEngine.sol\":7445:7488  function getHealthFactor() external view {} */\n    tag_58:\n      jump\t// out\n        /* \"src/DSCEngine.sol\":2441:2481  uint256 public constant PRECISION = 1e18 */\n    tag_60:\n        /* \"src/DSCEngine.sol\":2477:2481  1e18 */\n      0x0de0b6b3a7640000\n        /* \"src/DSCEngine.sol\":2441:2481  uint256 public constant PRECISION = 1e18 */\n      dup2\n      jump\t// out\n        /* \"src/DSCEngine.sol\":9255:9546  function getTokenAmountFromUsd(address _token, uint256 usdAmountInWei) public view returns(uint256){... */\n    tag_64:\n        /* \"src/DSCEngine.sol\":9346:9353  uint256 */\n      0x00\n        /* \"src/DSCEngine.sol\":9367:9379  int256 price */\n      0x00\n        /* \"src/DSCEngine.sol\":9410:9422  s_priceFeeds */\n      0x01\n        /* \"src/DSCEngine.sol\":9410:9430  s_priceFeeds[_token] */\n      0x00\n        /* \"src/DSCEngine.sol\":9423:9429  _token */\n      dup6\n        /* \"src/DSCEngine.sol\":9410:9430  s_priceFeeds[_token] */\n      0xffffffffffffffffffffffffffffffffffffffff\n      and\n      0xffffffffffffffffffffffffffffffffffffffff\n      and\n      dup2\n      mstore\n      0x20\n      add\n      swap1\n      dup2\n      mstore\n      0x20\n      add\n      0x00\n      keccak256\n      0x00\n      swap1\n      sload\n      swap1\n      0x0100\n      exp\n      swap1\n      div\n      0xffffffffffffffffffffffffffffffffffffffff\n      and\n        /* \"src/DSCEngine.sol\":9388:9447  AggregatorV3Interface(s_priceFeeds[_token]).latestRoundData */\n      0xffffffffffffffffffffffffffffffffffffffff\n      and\n      0xfeaf968c\n        /* \"src/DSCEngine.sol\":9388:9449  AggregatorV3Interface(s_priceFeeds[_token]).latestRoundData() */\n      mload(0x40)\n      dup2\n      0xffffffff\n      and\n      0xe0\n      shl\n      dup2\n      mstore\n      0x04\n      add\n      0xa0\n      mload(0x40)\n      dup1\n      dup4\n      sub\n      dup2\n      dup7\n      gas\n      staticcall\n      iszero\n      dup1\n      iszero\n      tag_154\n      jumpi\n      returndatacopy(0x00, 0x00, returndatasize)\n      revert(0x00, returndatasize)\n    tag_154:\n      pop\n      pop\n      pop\n      pop\n      mload(0x40)\n      returndatasize\n      not(0x1f)\n      0x1f\n      dup3\n      add\n      and\n      dup3\n      add\n      dup1\n      0x40\n      mstore\n      pop\n      dup2\n      add\n      swap1\n      tag_155\n      swap2\n      swap1\n      tag_156\n      jump\t// in\n    tag_155:\n        /* \"src/DSCEngine.sol\":9364:9449  (, int256 price, , ,) = AggregatorV3Interface(s_priceFeeds[_token]).latestRoundData() */\n      pop\n      pop\n      pop\n      swap2\n      pop\n      pop\n        /* \"src/DSCEngine.sol\":2431:2435  1e10 */\n      0x02540be400\n        /* \"src/DSCEngine.sol\":9506:9511  price */\n      dup2\n        /* \"src/DSCEngine.sol\":9498:9538  uint256(price) * ADDITION_FEED_PRECISION */\n      tag_157\n      swap2\n      swap1\n      tag_98\n      jump\t// in\n    tag_157:\n        /* \"src/DSCEngine.sol\":2477:2481  1e18 */\n      0x0de0b6b3a7640000\n        /* \"src/DSCEngine.sol\":9467:9481  usdAmountInWei */\n      dup5\n        /* \"src/DSCEngine.sol\":9467:9493  usdAmountInWei * PRECISION */\n      tag_158\n      swap2\n      swap1\n      tag_98\n      jump\t// in\n    tag_158:\n        /* \"src/DSCEngine.sol\":9466:9539  (usdAmountInWei * PRECISION) / (uint256(price) * ADDITION_FEED_PRECISION) */\n      tag_159\n      swap2\n      swap1\n      tag_100\n      jump\t// in\n    tag_159:\n        /* \"src/DSCEngine.sol\":9459:9539  return (usdAmountInWei * PRECISION) / (uint256(price) * ADDITION_FEED_PRECISION) */\n      swap2\n      pop\n      pop\n        /* \"src/DSCEngine.sol\":9255:9546  function getTokenAmountFromUsd(address _token, uint256 usdAmountInWei) public view returns(uint256){... */\n      swap3\n      swap2\n      pop\n      pop\n      jump\t// out\n        /* \"src/DSCEngine.sol\":2691:2738  uint256 public constant MIN_HEALT_FACTOR = 1e18 */\n    tag_67:\n        /* \"src/DSCEngine.sol\":2734:2738  1e18 */\n      0x0de0b6b3a7640000\n        /* \"src/DSCEngine.sol\":2691:2738  uint256 public constant MIN_HEALT_FACTOR = 1e18 */\n      dup2\n      jump\t// out\n        /* \"src/DSCEngine.sol\":5701:6047  function mintDsc(uint256 _amountDscToMint) public moreThanZero(_amountDscToMint) nonReentrant{... */\n    tag_72:\n        /* \"src/DSCEngine.sol\":5764:5780  _amountDscToMint */\n      dup1\n        /* \"src/DSCEngine.sol\":3382:3383  0 */\n      0x00\n        /* \"src/DSCEngine.sol\":3372:3378  amount */\n      dup2\n        /* \"src/DSCEngine.sol\":3372:3383  amount == 0 */\n      sub\n        /* \"src/DSCEngine.sol\":3368:3447  if (amount == 0) {... */\n      tag_161\n      jumpi\n        /* \"src/DSCEngine.sol\":3406:3436  DSCEngine__NeedsMoreThanZero() */\n      mload(0x40)\n      0xcb1d3f7d00000000000000000000000000000000000000000000000000000000\n      dup2\n      mstore\n      0x04\n      add\n      mload(0x40)\n      dup1\n      swap2\n      sub\n      swap1\n      revert\n        /* \"src/DSCEngine.sol\":3368:3447  if (amount == 0) {... */\n    tag_161:\n        /* \"@openzeppelin/contracts/utils/ReentrancyGuard.sol\":2500:2521  _nonReentrantBefore() */\n      tag_163\n        /* \"@openzeppelin/contracts/utils/ReentrancyGuard.sol\":2500:2519  _nonReentrantBefore */\n      tag_91\n        /* \"@openzeppelin/contracts/utils/ReentrancyGuard.sol\":2500:2521  _nonReentrantBefore() */\n      jump\t// in\n    tag_163:\n        /* \"src/DSCEngine.sol\":5831:5847  _amountDscToMint */\n      dup2\n        /* \"src/DSCEngine.sol\":5804:5815  s_DscMinted */\n      0x03\n        /* \"src/DSCEngine.sol\":5804:5827  s_DscMinted[msg.sender] */\n      0x00\n        /* \"src/DSCEngine.sol\":5816:5826  msg.sender */\n      caller\n        /* \"src/DSCEngine.sol\":5804:5827  s_DscMinted[msg.sender] */\n      0xffffffffffffffffffffffffffffffffffffffff\n      and\n      0xffffffffffffffffffffffffffffffffffffffff\n      and\n      dup2\n      mstore\n      0x20\n      add\n      swap1\n      dup2\n      mstore\n      0x20\n      add\n      0x00\n      keccak256\n      0x00\n        /* \"src/DSCEngine.sol\":5804:5847  s_DscMinted[msg.sender] += _amountDscToMint */\n      dup3\n      dup3\n      sload\n      tag_165\n      swap2\n      swap1\n      tag_102\n      jump\t// in\n    tag_165:\n      swap3\n      pop\n      pop\n      dup2\n      swap1\n      sstore\n      pop\n        /* \"src/DSCEngine.sol\":5857:5898  _revertIfHealthFactorIsBroken(msg.sender) */\n      tag_166\n        /* \"src/DSCEngine.sol\":5887:5897  msg.sender */\n      caller\n        /* \"src/DSCEngine.sol\":5857:5886  _revertIfHealthFactorIsBroken */\n      tag_110\n        /* \"src/DSCEngine.sol\":5857:5898  _revertIfHealthFactorIsBroken(msg.sender) */\n      jump\t// in\n    tag_166:\n        /* \"src/DSCEngine.sol\":5908:5919  bool minted */\n      0x00\n        /* \"src/DSCEngine.sol\":5922:5927  i_dsc */\n      immutable(\"0x3162021e9b05ce40d88cdbc2e7ffcbde44bff3377e4655bd30398eb60600692d\")\n        /* \"src/DSCEngine.sol\":5922:5932  i_dsc.mint */\n      0xffffffffffffffffffffffffffffffffffffffff\n      and\n      0x40c10f19\n        /* \"src/DSCEngine.sol\":5933:5943  msg.sender */\n      caller\n        /* \"src/DSCEngine.sol\":5945:5961  _amountDscToMint */\n      dup6\n        /* \"src/DSCEngine.sol\":5922:5962  i_dsc.mint(msg.sender, _amountDscToMint) */\n      mload(0x40)\n      dup4\n      0xffffffff\n      and\n      0xe0\n      shl\n      dup2\n      mstore\n      0x04\n      add\n      tag_167\n      swap3\n      swap2\n      swap1\n      tag_168\n      jump\t// in\n    tag_167:\n      0x20\n      mload(0x40)\n      dup1\n      dup4\n      sub\n      dup2\n      0x00\n      dup8\n      gas\n      call\n      iszero\n      dup1\n      iszero\n      tag_170\n      jumpi\n      returndatacopy(0x00, 0x00, returndatasize)\n      revert(0x00, returndatasize)\n    tag_170:\n      pop\n      pop\n      pop\n      pop\n      mload(0x40)\n      returndatasize\n      not(0x1f)\n      0x1f\n      dup3\n      add\n      and\n      dup3\n      add\n      dup1\n      0x40\n      mstore\n      pop\n      dup2\n      add\n      swap1\n      tag_171\n      swap2\n      swap1\n      tag_146\n      jump\t// in\n    tag_171:\n        /* \"src/DSCEngine.sol\":5908:5962  bool minted = i_dsc.mint(msg.sender, _amountDscToMint) */\n      swap1\n      pop\n        /* \"src/DSCEngine.sol\":5976:5982  minted */\n      dup1\n        /* \"src/DSCEngine.sol\":5972:6041  if(!minted){... */\n      tag_172\n      jumpi\n        /* \"src/DSCEngine.sol\":6004:6030  DSCEngine__DscMintFailed() */\n      mload(0x40)\n      0x6f4e810b00000000000000000000000000000000000000000000000000000000\n      dup2\n      mstore\n      0x04\n      add\n      mload(0x40)\n      dup1\n      swap2\n      sub\n      swap1\n      revert\n        /* \"src/DSCEngine.sol\":5972:6041  if(!minted){... */\n    tag_172:\n        /* \"src/DSCEngine.sol\":5794:6047  {... */\n      pop\n        /* \"@openzeppelin/contracts/utils/ReentrancyGuard.sol\":2542:2562  _nonReentrantAfter() */\n      tag_173\n        /* \"@openzeppelin/contracts/utils/ReentrancyGuard.sol\":2542:2560  _nonReentrantAfter */\n      tag_112\n        /* \"@openzeppelin/contracts/utils/ReentrancyGuard.sol\":2542:2562  _nonReentrantAfter() */\n      jump\t// in\n    tag_173:\n        /* \"src/DSCEngine.sol\":5701:6047  function mintDsc(uint256 _amountDscToMint) public moreThanZero(_amountDscToMint) nonReentrant{... */\n      pop\n      pop\n      jump\t// out\n        /* \"src/DSCEngine.sol\":4297:4527  function depositCollateralAndMintDsc(address _tokenCollateral, uint256 _collateralAmount, uint256 _amountDscToMint) external{... */\n    tag_76:\n        /* \"src/DSCEngine.sol\":4431:4485  depositCollateral(_tokenCollateral, _collateralAmount) */\n      tag_175\n        /* \"src/DSCEngine.sol\":4449:4465  _tokenCollateral */\n      dup4\n        /* \"src/DSCEngine.sol\":4467:4484  _collateralAmount */\n      dup4\n        /* \"src/DSCEngine.sol\":4431:4448  depositCollateral */\n      tag_56\n        /* \"src/DSCEngine.sol\":4431:4485  depositCollateral(_tokenCollateral, _collateralAmount) */\n      jump\t// in\n    tag_175:\n        /* \"src/DSCEngine.sol\":4495:4520  mintDsc(_amountDscToMint) */\n      tag_176\n        /* \"src/DSCEngine.sol\":4503:4519  _amountDscToMint */\n      dup2\n        /* \"src/DSCEngine.sol\":4495:4502  mintDsc */\n      tag_72\n        /* \"src/DSCEngine.sol\":4495:4520  mintDsc(_amountDscToMint) */\n      jump\t// in\n    tag_176:\n        /* \"src/DSCEngine.sol\":4297:4527  function depositCollateralAndMintDsc(address _tokenCollateral, uint256 _collateralAmount, uint256 _amountDscToMint) external{... */\n      pop\n      pop\n      pop\n      jump\t// out\n        /* \"src/DSCEngine.sol\":5133:5413  function redeemCollateralForDsc(address _tokenCollateral, uint256 _collateralAmount, uint256 _amountDscToBurn) external {... */\n    tag_79:\n        /* \"src/DSCEngine.sol\":5263:5288  burnDsc(_amountDscToBurn) */\n      tag_178\n        /* \"src/DSCEngine.sol\":5271:5287  _amountDscToBurn */\n      dup2\n        /* \"src/DSCEngine.sol\":5263:5270  burnDsc */\n      tag_82\n        /* \"src/DSCEngine.sol\":5263:5288  burnDsc(_amountDscToBurn) */\n      jump\t// in\n    tag_178:\n        /* \"src/DSCEngine.sol\":5298:5351  redeemCollateral(_tokenCollateral, _collateralAmount) */\n      tag_179\n        /* \"src/DSCEngine.sol\":5315:5331  _tokenCollateral */\n      dup4\n        /* \"src/DSCEngine.sol\":5333:5350  _collateralAmount */\n      dup4\n        /* \"src/DSCEngine.sol\":5298:5314  redeemCollateral */\n      tag_50\n        /* \"src/DSCEngine.sol\":5298:5351  redeemCollateral(_tokenCollateral, _collateralAmount) */\n      jump\t// in\n    tag_179:\n        /* \"src/DSCEngine.sol\":5133:5413  function redeemCollateralForDsc(address _tokenCollateral, uint256 _collateralAmount, uint256 _amountDscToBurn) external {... */\n      pop\n      pop\n      pop\n      jump\t// out\n        /* \"src/DSCEngine.sol\":6053:6278  function burnDsc(uint256 _amountToBurn) public moreThanZero(_amountToBurn){... */\n    tag_82:\n        /* \"src/DSCEngine.sol\":6113:6126  _amountToBurn */\n      dup1\n        /* \"src/DSCEngine.sol\":3382:3383  0 */\n      0x00\n        /* \"src/DSCEngine.sol\":3372:3378  amount */\n      dup2\n        /* \"src/DSCEngine.sol\":3372:3383  amount == 0 */\n      sub\n        /* \"src/DSCEngine.sol\":3368:3447  if (amount == 0) {... */\n      tag_181\n      jumpi\n        /* \"src/DSCEngine.sol\":3406:3436  DSCEngine__NeedsMoreThanZero() */\n      mload(0x40)\n      0xcb1d3f7d00000000000000000000000000000000000000000000000000000000\n      dup2\n      mstore\n      0x04\n      add\n      mload(0x40)\n      dup1\n      swap2\n      sub\n      swap1\n      revert\n        /* \"src/DSCEngine.sol\":3368:3447  if (amount == 0) {... */\n    tag_181:\n        /* \"src/DSCEngine.sol\":6137:6183  _burnDsc(_amountToBurn, msg.sender,msg.sender) */\n      tag_183\n        /* \"src/DSCEngine.sol\":6146:6159  _amountToBurn */\n      dup3\n        /* \"src/DSCEngine.sol\":6161:6171  msg.sender */\n      caller\n        /* \"src/DSCEngine.sol\":6172:6182  msg.sender */\n      caller\n        /* \"src/DSCEngine.sol\":6137:6145  _burnDsc */\n      tag_106\n        /* \"src/DSCEngine.sol\":6137:6183  _burnDsc(_amountToBurn, msg.sender,msg.sender) */\n      jump\t// in\n    tag_183:\n        /* \"src/DSCEngine.sol\":6193:6234  _revertIfHealthFactorIsBroken(msg.sender) */\n      tag_184\n        /* \"src/DSCEngine.sol\":6223:6233  msg.sender */\n      caller\n        /* \"src/DSCEngine.sol\":6193:6222  _revertIfHealthFactorIsBroken */\n      tag_110\n        /* \"src/DSCEngine.sol\":6193:6234  _revertIfHealthFactorIsBroken(msg.sender) */\n      jump\t// in\n    tag_184:\n        /* \"src/DSCEngine.sol\":6053:6278  function burnDsc(uint256 _amountToBurn) public moreThanZero(_amountToBurn){... */\n      pop\n      pop\n      jump\t// out\n        /* \"src/DSCEngine.sol\":9969:10324  function getUSDValue(address _token, uint256 _amount) public view isAllowedCollateral(_token) returns(uint256){... */\n    tag_85:\n        /* \"src/DSCEngine.sol\":10071:10078  uint256 */\n      0x00\n        /* \"src/DSCEngine.sol\":10055:10061  _token */\n      dup3\n        /* \"src/DSCEngine.sol\":3561:3562  0 */\n      0x00\n        /* \"src/DSCEngine.sol\":3529:3563  s_priceFeeds[_token] == address(0) */\n      0xffffffffffffffffffffffffffffffffffffffff\n      and\n        /* \"src/DSCEngine.sol\":3529:3541  s_priceFeeds */\n      0x01\n        /* \"src/DSCEngine.sol\":3529:3549  s_priceFeeds[_token] */\n      0x00\n        /* \"src/DSCEngine.sol\":3542:3548  _token */\n      dup4\n        /* \"src/DSCEngine.sol\":3529:3549  s_priceFeeds[_token] */\n      0xffffffffffffffffffffffffffffffffffffffff\n      and\n      0xffffffffffffffffffffffffffffffffffffffff\n      and\n      dup2\n      mstore\n      0x20\n      add\n      swap1\n      dup2\n      mstore\n      0x20\n      add\n      0x00\n      keccak256\n      0x00\n      swap1\n      sload\n      swap1\n      0x0100\n      exp\n      swap1\n      div\n      0xffffffffffffffffffffffffffffffffffffffff\n      and\n        /* \"src/DSCEngine.sol\":3529:3563  s_priceFeeds[_token] == address(0) */\n      0xffffffffffffffffffffffffffffffffffffffff\n      and\n      sub\n        /* \"src/DSCEngine.sol\":3525:3625  if (s_priceFeeds[_token] == address(0)) {... */\n      tag_186\n      jumpi\n        /* \"src/DSCEngine.sol\":3586:3614  DSCEngine__NotAllowedToken() */\n      mload(0x40)\n      0xa802cfbe00000000000000000000000000000000000000000000000000000000\n      dup2\n      mstore\n      0x04\n      add\n      mload(0x40)\n      dup1\n      swap2\n      sub\n      swap1\n      revert\n        /* \"src/DSCEngine.sol\":3525:3625  if (s_priceFeeds[_token] == address(0)) {... */\n    tag_186:\n        /* \"src/DSCEngine.sol\":10092:10104  int256 price */\n      0x00\n        /* \"src/DSCEngine.sol\":10135:10147  s_priceFeeds */\n      0x01\n        /* \"src/DSCEngine.sol\":10135:10155  s_priceFeeds[_token] */\n      0x00\n        /* \"src/DSCEngine.sol\":10148:10154  _token */\n      dup7\n        /* \"src/DSCEngine.sol\":10135:10155  s_priceFeeds[_token] */\n      0xffffffffffffffffffffffffffffffffffffffff\n      and\n      0xffffffffffffffffffffffffffffffffffffffff\n      and\n      dup2\n      mstore\n      0x20\n      add\n      swap1\n      dup2\n      mstore\n      0x20\n      add\n      0x00\n      keccak256\n      0x00\n      swap1\n      sload\n      swap1\n      0x0100\n      exp\n      swap1\n      div\n      0xffffffffffffffffffffffffffffffffffffffff\n      and\n        /* \"src/DSCEngine.sol\":10113:10172  AggregatorV3Interface(s_priceFeeds[_token]).latestRoundData */\n      0xffffffffffffffffffffffffffffffffffffffff\n      and\n      0xfeaf968c\n        /* \"src/DSCEngine.sol\":10113:10174  AggregatorV3Interface(s_priceFeeds[_token]).latestRoundData() */\n      mload(0x40)\n      dup2\n      0xffffffff\n      and\n      0xe0\n      shl\n      dup2\n      mstore\n      0x04\n      add\n      0xa0\n      mload(0x40)\n      dup1\n      dup4\n      sub\n      dup2\n      dup7\n      gas\n      staticcall\n      iszero\n      dup1\n      iszero\n      tag_189\n      jumpi\n      returndatacopy(0x00, 0x00, returndatasize)\n      revert(0x00, returndatasize)\n    tag_189:\n      pop\n      pop\n      pop\n      pop\n      mload(0x40)\n      returndatasize\n      not(0x1f)\n      0x1f\n      dup3\n      add\n      and\n      dup3\n      add\n      dup1\n      0x40\n      mstore\n      pop\n      dup2\n      add\n      swap1\n      tag_190\n      swap2\n      swap1\n      tag_156\n      jump\t// in\n    tag_190:\n        /* \"src/DSCEngine.sol\":10089:10174  (, int256 price, , ,) = AggregatorV3Interface(s_priceFeeds[_token]).latestRoundData() */\n      pop\n      pop\n      pop\n      swap2\n      pop\n      pop\n        /* \"src/DSCEngine.sol\":2477:2481  1e18 */\n      0x0de0b6b3a7640000\n        /* \"src/DSCEngine.sol\":10297:10304  _amount */\n      dup5\n        /* \"src/DSCEngine.sol\":2431:2435  1e10 */\n      0x02540be400\n        /* \"src/DSCEngine.sol\":10262:10267  price */\n      dup4\n        /* \"src/DSCEngine.sol\":10254:10294  uint256(price) * ADDITION_FEED_PRECISION */\n      tag_191\n      swap2\n      swap1\n      tag_98\n      jump\t// in\n    tag_191:\n        /* \"src/DSCEngine.sol\":10254:10304  uint256(price) * ADDITION_FEED_PRECISION * _amount */\n      tag_192\n      swap2\n      swap1\n      tag_98\n      jump\t// in\n    tag_192:\n        /* \"src/DSCEngine.sol\":10253:10317  (uint256(price) * ADDITION_FEED_PRECISION * _amount) / PRECISION */\n      tag_193\n      swap2\n      swap1\n      tag_100\n      jump\t// in\n    tag_193:\n        /* \"src/DSCEngine.sol\":10246:10317  return (uint256(price) * ADDITION_FEED_PRECISION * _amount) / PRECISION */\n      swap3\n      pop\n      pop\n        /* \"src/DSCEngine.sol\":9969:10324  function getUSDValue(address _token, uint256 _amount) public view isAllowedCollateral(_token) returns(uint256){... */\n      pop\n      swap3\n      swap2\n      pop\n      pop\n      jump\t// out\n        /* \"@openzeppelin/contracts/utils/ReentrancyGuard.sol\":2575:2882  function _nonReentrantBefore() private {... */\n    tag_91:\n        /* \"@openzeppelin/contracts/utils/ReentrancyGuard.sol\":1899:1900  2 */\n      0x02\n        /* \"@openzeppelin/contracts/utils/ReentrancyGuard.sol\":2702:2709  _status */\n      sload(0x00)\n        /* \"@openzeppelin/contracts/utils/ReentrancyGuard.sol\":2702:2720  _status == ENTERED */\n      sub\n        /* \"@openzeppelin/contracts/utils/ReentrancyGuard.sol\":2698:2784  if (_status == ENTERED) {... */\n      tag_195\n      jumpi\n        /* \"@openzeppelin/contracts/utils/ReentrancyGuard.sol\":2743:2773  ReentrancyGuardReentrantCall() */\n      mload(0x40)\n      0x3ee5aeb500000000000000000000000000000000000000000000000000000000\n      dup2\n      mstore\n      0x04\n      add\n      mload(0x40)\n      dup1\n      swap2\n      sub\n      swap1\n      revert\n        /* \"@openzeppelin/contracts/utils/ReentrancyGuard.sol\":2698:2784  if (_status == ENTERED) {... */\n    tag_195:\n        /* \"@openzeppelin/contracts/utils/ReentrancyGuard.sol\":1899:1900  2 */\n      0x02\n        /* \"@openzeppelin/contracts/utils/ReentrancyGuard.sol\":2858:2865  _status */\n      0x00\n        /* \"@openzeppelin/contracts/utils/ReentrancyGuard.sol\":2858:2875  _status = ENTERED */\n      dup2\n      swap1\n      sstore\n      pop\n        /* \"@openzeppelin/contracts/utils/ReentrancyGuard.sol\":2575:2882  function _nonReentrantBefore() private {... */\n      jump\t// out\n        /* \"src/DSCEngine.sol\":7765:8130  function _healthFactor(address user) private view returns (uint256) {... */\n    tag_94:\n        /* \"src/DSCEngine.sol\":7824:7831  uint256 */\n      0x00\n        /* \"src/DSCEngine.sol\":7844:7866  uint256 totalDscMinted */\n      0x00\n        /* \"src/DSCEngine.sol\":7868:7896  uint256 collateralValueInUsd */\n      0x00\n        /* \"src/DSCEngine.sol\":7900:7928  _getAccountInformation(user) */\n      tag_197\n        /* \"src/DSCEngine.sol\":7923:7927  user */\n      dup5\n        /* \"src/DSCEngine.sol\":7900:7922  _getAccountInformation */\n      tag_198\n        /* \"src/DSCEngine.sol\":7900:7928  _getAccountInformation(user) */\n      jump\t// in\n    tag_197:\n        /* \"src/DSCEngine.sol\":7843:7928  (uint256 totalDscMinted, uint256 collateralValueInUsd) = _getAccountInformation(user) */\n      swap2\n      pop\n      swap2\n      pop\n        /* \"src/DSCEngine.sol\":7938:7973  uint256 collateralAdjustedThreshold */\n      0x00\n        /* \"src/DSCEngine.sol\":2617:2620  100 */\n      0x64\n        /* \"src/DSCEngine.sol\":2535:2537  50 */\n      0x32\n        /* \"src/DSCEngine.sol\":7977:7997  collateralValueInUsd */\n      dup4\n        /* \"src/DSCEngine.sol\":7977:8021  collateralValueInUsd * LIQUIDATION_THRESHOLD */\n      tag_199\n      swap2\n      swap1\n      tag_98\n      jump\t// in\n    tag_199:\n        /* \"src/DSCEngine.sol\":7976:8046  (collateralValueInUsd * LIQUIDATION_THRESHOLD) / LIQUIDATION_PRECISION */\n      tag_200\n      swap2\n      swap1\n      tag_100\n      jump\t// in\n    tag_200:\n        /* \"src/DSCEngine.sol\":7938:8046  uint256 collateralAdjustedThreshold = (collateralValueInUsd * LIQUIDATION_THRESHOLD) / LIQUIDATION_PRECISION */\n      swap1\n      pop\n        /* \"src/DSCEngine.sol\":8108:8122  totalDscMinted */\n      dup3\n        /* \"src/DSCEngine.sol\":2477:2481  1e18 */\n      0x0de0b6b3a7640000\n        /* \"src/DSCEngine.sol\":8065:8092  collateralAdjustedThreshold */\n      dup3\n        /* \"src/DSCEngine.sol\":8065:8104  collateralAdjustedThreshold * PRECISION */\n      tag_201\n      swap2\n      swap1\n      tag_98\n      jump\t// in\n    tag_201:\n        /* \"src/DSCEngine.sol\":8064:8122  (collateralAdjustedThreshold * PRECISION) / totalDscMinted */\n      tag_202\n      swap2\n      swap1\n      tag_100\n      jump\t// in\n    tag_202:\n        /* \"src/DSCEngine.sol\":8056:8123  return ((collateralAdjustedThreshold * PRECISION) / totalDscMinted) */\n      swap4\n      pop\n      pop\n      pop\n      pop\n        /* \"src/DSCEngine.sol\":7765:8130  function _healthFactor(address user) private view returns (uint256) {... */\n      swap2\n      swap1\n      pop\n      jump\t// out\n        /* \"src/DSCEngine.sol\":8752:9223  function _redeemCollateral(address _tokenCollateral, uint256 _collateralAmount, address _from, address _to) private {... */\n    tag_104:\n        /* \"src/DSCEngine.sol\":8928:8945  _collateralAmount */\n      dup3\n        /* \"src/DSCEngine.sol\":8878:8899  s_collateralDeposited */\n      0x02\n        /* \"src/DSCEngine.sol\":8878:8906  s_collateralDeposited[_from] */\n      0x00\n        /* \"src/DSCEngine.sol\":8900:8905  _from */\n      dup5\n        /* \"src/DSCEngine.sol\":8878:8906  s_collateralDeposited[_from] */\n      0xffffffffffffffffffffffffffffffffffffffff\n      and\n      0xffffffffffffffffffffffffffffffffffffffff\n      and\n      dup2\n      mstore\n      0x20\n      add\n      swap1\n      dup2\n      mstore\n      0x20\n      add\n      0x00\n      keccak256\n        /* \"src/DSCEngine.sol\":8878:8924  s_collateralDeposited[_from][_tokenCollateral] */\n      0x00\n        /* \"src/DSCEngine.sol\":8907:8923  _tokenCollateral */\n      dup7\n        /* \"src/DSCEngine.sol\":8878:8924  s_collateralDeposited[_from][_tokenCollateral] */\n      0xffffffffffffffffffffffffffffffffffffffff\n      and\n      0xffffffffffffffffffffffffffffffffffffffff\n      and\n      dup2\n      mstore\n      0x20\n      add\n      swap1\n      dup2\n      mstore\n      0x20\n      add\n      0x00\n      keccak256\n      0x00\n        /* \"src/DSCEngine.sol\":8878:8945  s_collateralDeposited[_from][_tokenCollateral] -= _collateralAmount */\n      dup3\n      dup3\n      sload\n      tag_204\n      swap2\n      swap1\n      tag_205\n      jump\t// in\n    tag_204:\n      swap3\n      pop\n      pop\n      dup2\n      swap1\n      sstore\n      pop\n        /* \"src/DSCEngine.sol\":8991:9007  _tokenCollateral */\n      dup4\n        /* \"src/DSCEngine.sol\":8960:9027  CollateralRedeemed(_from, _to, _tokenCollateral, _collateralAmount) */\n      0xffffffffffffffffffffffffffffffffffffffff\n      and\n        /* \"src/DSCEngine.sol\":8986:8989  _to */\n      dup2\n        /* \"src/DSCEngine.sol\":8960:9027  CollateralRedeemed(_from, _to, _tokenCollateral, _collateralAmount) */\n      0xffffffffffffffffffffffffffffffffffffffff\n      and\n        /* \"src/DSCEngine.sol\":8979:8984  _from */\n      dup4\n        /* \"src/DSCEngine.sol\":8960:9027  CollateralRedeemed(_from, _to, _tokenCollateral, _collateralAmount) */\n      0xffffffffffffffffffffffffffffffffffffffff\n      and\n      0xb292db12b8dfa23b760ee5e3bd1d3be184cd8f0eeeacd27ce120d4de4e4721f6\n        /* \"src/DSCEngine.sol\":9009:9026  _collateralAmount */\n      dup7\n        /* \"src/DSCEngine.sol\":8960:9027  CollateralRedeemed(_from, _to, _tokenCollateral, _collateralAmount) */\n      mload(0x40)\n      tag_206\n      swap2\n      swap1\n      tag_31\n      jump\t// in\n    tag_206:\n      mload(0x40)\n      dup1\n      swap2\n      sub\n      swap1\n      log4\n        /* \"src/DSCEngine.sol\":9038:9050  bool success */\n      0x00\n        /* \"src/DSCEngine.sol\":9060:9076  _tokenCollateral */\n      dup5\n        /* \"src/DSCEngine.sol\":9053:9086  IERC20(_tokenCollateral).transfer */\n      0xffffffffffffffffffffffffffffffffffffffff\n      and\n      0xa9059cbb\n        /* \"src/DSCEngine.sol\":9087:9090  _to */\n      dup4\n        /* \"src/DSCEngine.sol\":9092:9109  _collateralAmount */\n      dup7\n        /* \"src/DSCEngine.sol\":9053:9110  IERC20(_tokenCollateral).transfer(_to, _collateralAmount) */\n      mload(0x40)\n      dup4\n      0xffffffff\n      and\n      0xe0\n      shl\n      dup2\n      mstore\n      0x04\n      add\n      tag_207\n      swap3\n      swap2\n      swap1\n      tag_168\n      jump\t// in\n    tag_207:\n      0x20\n      mload(0x40)\n      dup1\n      dup4\n      sub\n      dup2\n      0x00\n      dup8\n      gas\n      call\n      iszero\n      dup1\n      iszero\n      tag_209\n      jumpi\n      returndatacopy(0x00, 0x00, returndatasize)\n      revert(0x00, returndatasize)\n    tag_209:\n      pop\n      pop\n      pop\n      pop\n      mload(0x40)\n      returndatasize\n      not(0x1f)\n      0x1f\n      dup3\n      add\n      and\n      dup3\n      add\n      dup1\n      0x40\n      mstore\n      pop\n      dup2\n      add\n      swap1\n      tag_210\n      swap2\n      swap1\n      tag_146\n      jump\t// in\n    tag_210:\n        /* \"src/DSCEngine.sol\":9038:9110  bool success = IERC20(_tokenCollateral).transfer(_to, _collateralAmount) */\n      swap1\n      pop\n        /* \"src/DSCEngine.sol\":9125:9132  success */\n      dup1\n        /* \"src/DSCEngine.sol\":9120:9217  if (!success) {... */\n      tag_211\n      jumpi\n        /* \"src/DSCEngine.sol\":9189:9205  _tokenCollateral */\n      dup5\n        /* \"src/DSCEngine.sol\":9155:9206  DSCEngine__CollateralRedeemFailed(_tokenCollateral) */\n      mload(0x40)\n      0x2851f43200000000000000000000000000000000000000000000000000000000\n      dup2\n      mstore\n      0x04\n      add\n      tag_212\n      swap2\n      swap1\n      tag_149\n      jump\t// in\n    tag_212:\n      mload(0x40)\n      dup1\n      swap2\n      sub\n      swap1\n      revert\n        /* \"src/DSCEngine.sol\":9120:9217  if (!success) {... */\n    tag_211:\n        /* \"src/DSCEngine.sol\":8868:9223  {... */\n      pop\n        /* \"src/DSCEngine.sol\":8752:9223  function _redeemCollateral(address _tokenCollateral, uint256 _collateralAmount, address _from, address _to) private {... */\n      pop\n      pop\n      pop\n      pop\n      jump\t// out\n        /* \"src/DSCEngine.sol\":8403:8746  function _burnDsc(uint256 _amountToBurn, address _onBehalfOf, address _dscFrom) private {... */\n    tag_106:\n        /* \"src/DSCEngine.sol\":8529:8542  _amountToBurn */\n      dup3\n        /* \"src/DSCEngine.sol\":8501:8512  s_DscMinted */\n      0x03\n        /* \"src/DSCEngine.sol\":8501:8525  s_DscMinted[_onBehalfOf] */\n      0x00\n        /* \"src/DSCEngine.sol\":8513:8524  _onBehalfOf */\n      dup5\n        /* \"src/DSCEngine.sol\":8501:8525  s_DscMinted[_onBehalfOf] */\n      0xffffffffffffffffffffffffffffffffffffffff\n      and\n      0xffffffffffffffffffffffffffffffffffffffff\n      and\n      dup2\n      mstore\n      0x20\n      add\n      swap1\n      dup2\n      mstore\n      0x20\n      add\n      0x00\n      keccak256\n      0x00\n        /* \"src/DSCEngine.sol\":8501:8542  s_DscMinted[_onBehalfOf] -= _amountToBurn */\n      dup3\n      dup3\n      sload\n      tag_214\n      swap2\n      swap1\n      tag_205\n      jump\t// in\n    tag_214:\n      swap3\n      pop\n      pop\n      dup2\n      swap1\n      sstore\n      pop\n        /* \"src/DSCEngine.sol\":8552:8564  bool success */\n      0x00\n        /* \"src/DSCEngine.sol\":8567:8572  i_dsc */\n      immutable(\"0x3162021e9b05ce40d88cdbc2e7ffcbde44bff3377e4655bd30398eb60600692d\")\n        /* \"src/DSCEngine.sol\":8567:8585  i_dsc.transferFrom */\n      0xffffffffffffffffffffffffffffffffffffffff\n      and\n      0x23b872dd\n        /* \"src/DSCEngine.sol\":8586:8594  _dscFrom */\n      dup4\n        /* \"src/DSCEngine.sol\":8604:8608  this */\n      address\n        /* \"src/DSCEngine.sol\":8611:8624  _amountToBurn */\n      dup8\n        /* \"src/DSCEngine.sol\":8567:8625  i_dsc.transferFrom(_dscFrom, address(this), _amountToBurn) */\n      mload(0x40)\n      dup5\n      0xffffffff\n      and\n      0xe0\n      shl\n      dup2\n      mstore\n      0x04\n      add\n      tag_215\n      swap4\n      swap3\n      swap2\n      swap1\n      tag_142\n      jump\t// in\n    tag_215:\n      0x20\n      mload(0x40)\n      dup1\n      dup4\n      sub\n      dup2\n      0x00\n      dup8\n      gas\n      call\n      iszero\n      dup1\n      iszero\n      tag_217\n      jumpi\n      returndatacopy(0x00, 0x00, returndatasize)\n      revert(0x00, returndatasize)\n    tag_217:\n      pop\n      pop\n      pop\n      pop\n      mload(0x40)\n      returndatasize\n      not(0x1f)\n      0x1f\n      dup3\n      add\n      and\n      dup3\n      add\n      dup1\n      0x40\n      mstore\n      pop\n      dup2\n      add\n      swap1\n      tag_218\n      swap2\n      swap1\n      tag_146\n      jump\t// in\n    tag_218:\n        /* \"src/DSCEngine.sol\":8552:8625  bool success = i_dsc.transferFrom(_dscFrom, address(this), _amountToBurn) */\n      swap1\n      pop\n        /* \"src/DSCEngine.sol\":8639:8646  success */\n      dup1\n        /* \"src/DSCEngine.sol\":8635:8705  if(!success){... */\n      tag_219\n      jumpi\n        /* \"src/DSCEngine.sol\":8668:8694  DSCEngine__DscBurnFailed() */\n      mload(0x40)\n      0x3a29ac6d00000000000000000000000000000000000000000000000000000000\n      dup2\n      mstore\n      0x04\n      add\n      mload(0x40)\n      dup1\n      swap2\n      sub\n      swap1\n      revert\n        /* \"src/DSCEngine.sol\":8635:8705  if(!success){... */\n    tag_219:\n        /* \"src/DSCEngine.sol\":8714:8719  i_dsc */\n      immutable(\"0x3162021e9b05ce40d88cdbc2e7ffcbde44bff3377e4655bd30398eb60600692d\")\n        /* \"src/DSCEngine.sol\":8714:8724  i_dsc.burn */\n      0xffffffffffffffffffffffffffffffffffffffff\n      and\n      0x42966c68\n        /* \"src/DSCEngine.sol\":8725:8738  _amountToBurn */\n      dup6\n        /* \"src/DSCEngine.sol\":8714:8739  i_dsc.burn(_amountToBurn) */\n      mload(0x40)\n      dup3\n      0xffffffff\n      and\n      0xe0\n      shl\n      dup2\n      mstore\n      0x04\n      add\n      tag_220\n      swap2\n      swap1\n      tag_31\n      jump\t// in\n    tag_220:\n      0x00\n      mload(0x40)\n      dup1\n      dup4\n      sub\n      dup2\n      0x00\n      dup8\n      dup1\n      extcodesize\n      iszero\n      dup1\n      iszero\n      tag_221\n      jumpi\n      revert(0x00, 0x00)\n    tag_221:\n      pop\n      gas\n      call\n      iszero\n      dup1\n      iszero\n      tag_223\n      jumpi\n      returndatacopy(0x00, 0x00, returndatasize)\n      revert(0x00, returndatasize)\n    tag_223:\n      pop\n      pop\n      pop\n      pop\n        /* \"src/DSCEngine.sol\":8491:8746  {... */\n      pop\n        /* \"src/DSCEngine.sol\":8403:8746  function _burnDsc(uint256 _amountToBurn, address _onBehalfOf, address _dscFrom) private {... */\n      pop\n      pop\n      pop\n      jump\t// out\n        /* \"src/DSCEngine.sol\":8136:8397  function _revertIfHealthFactorIsBroken(address _user) internal view {... */\n    tag_110:\n        /* \"src/DSCEngine.sol\":8214:8238  uint256 userHealthFactor */\n      0x00\n        /* \"src/DSCEngine.sol\":8241:8261  _healthFactor(_user) */\n      tag_225\n        /* \"src/DSCEngine.sol\":8255:8260  _user */\n      dup3\n        /* \"src/DSCEngine.sol\":8241:8254  _healthFactor */\n      tag_94\n        /* \"src/DSCEngine.sol\":8241:8261  _healthFactor(_user) */\n      jump\t// in\n    tag_225:\n        /* \"src/DSCEngine.sol\":8214:8261  uint256 userHealthFactor = _healthFactor(_user) */\n      swap1\n      pop\n        /* \"src/DSCEngine.sol\":2734:2738  1e18 */\n      0x0de0b6b3a7640000\n        /* \"src/DSCEngine.sol\":8275:8291  userHealthFactor */\n      dup2\n        /* \"src/DSCEngine.sol\":8275:8311  userHealthFactor <= MIN_HEALT_FACTOR */\n      gt\n        /* \"src/DSCEngine.sol\":8271:8391  if (userHealthFactor <= MIN_HEALT_FACTOR){... */\n      tag_226\n      jumpi\n        /* \"src/DSCEngine.sol\":8363:8379  userHealthFactor */\n      dup1\n        /* \"src/DSCEngine.sol\":8333:8380  DSCEngine__BreaksHealthFactor(userHealthFactor) */\n      mload(0x40)\n      0xe580cc6100000000000000000000000000000000000000000000000000000000\n      dup2\n      mstore\n      0x04\n      add\n      tag_227\n      swap2\n      swap1\n      tag_31\n      jump\t// in\n    tag_227:\n      mload(0x40)\n      dup1\n      swap2\n      sub\n      swap1\n      revert\n        /* \"src/DSCEngine.sol\":8271:8391  if (userHealthFactor <= MIN_HEALT_FACTOR){... */\n    tag_226:\n        /* \"src/DSCEngine.sol\":8204:8397  {... */\n      pop\n        /* \"src/DSCEngine.sol\":8136:8397  function _revertIfHealthFactorIsBroken(address _user) internal view {... */\n      pop\n      jump\t// out\n        /* \"@openzeppelin/contracts/utils/ReentrancyGuard.sol\":2888:3096  function _nonReentrantAfter() private {... */\n    tag_112:\n        /* \"@openzeppelin/contracts/utils/ReentrancyGuard.sol\":1857:1858  1 */\n      0x01\n        /* \"@openzeppelin/contracts/utils/ReentrancyGuard.sol\":3068:3075  _status */\n      0x00\n        /* \"@openzeppelin/contracts/utils/ReentrancyGuard.sol\":3068:3089  _status = NOT_ENTERED */\n      dup2\n      swap1\n      sstore\n      pop\n        /* \"@openzeppelin/contracts/utils/ReentrancyGuard.sol\":2888:3096  function _nonReentrantAfter() private {... */\n      jump\t// out\n        /* \"src/DSCEngine.sol\":7494:7759  function _getAccountInformation(address user)... */\n    tag_198:\n        /* \"src/DSCEngine.sol\":7586:7608  uint256 totalDscMinted */\n      0x00\n        /* \"src/DSCEngine.sol\":7610:7638  uint256 collateralValueInUsd */\n      0x00\n        /* \"src/DSCEngine.sol\":7671:7682  s_DscMinted */\n      0x03\n        /* \"src/DSCEngine.sol\":7671:7688  s_DscMinted[user] */\n      0x00\n        /* \"src/DSCEngine.sol\":7683:7687  user */\n      dup5\n        /* \"src/DSCEngine.sol\":7671:7688  s_DscMinted[user] */\n      0xffffffffffffffffffffffffffffffffffffffff\n      and\n      0xffffffffffffffffffffffffffffffffffffffff\n      and\n      dup2\n      mstore\n      0x20\n      add\n      swap1\n      dup2\n      mstore\n      0x20\n      add\n      0x00\n      keccak256\n      sload\n        /* \"src/DSCEngine.sol\":7654:7688  totalDscMinted = s_DscMinted[user] */\n      swap2\n      pop\n        /* \"src/DSCEngine.sol\":7721:7752  getAccountCollateralValue(user) */\n      tag_230\n        /* \"src/DSCEngine.sol\":7747:7751  user */\n      dup4\n        /* \"src/DSCEngine.sol\":7721:7746  getAccountCollateralValue */\n      tag_42\n        /* \"src/DSCEngine.sol\":7721:7752  getAccountCollateralValue(user) */\n      jump\t// in\n    tag_230:\n        /* \"src/DSCEngine.sol\":7698:7752  collateralValueInUsd = getAccountCollateralValue(user) */\n      swap1\n      pop\n        /* \"src/DSCEngine.sol\":7494:7759  function _getAccountInformation(address user)... */\n      swap2\n      pop\n      swap2\n      jump\t// out\n        /* \"#utility.yul\":88:205   */\n    tag_232:\n        /* \"#utility.yul\":197:198   */\n      0x00\n        /* \"#utility.yul\":194:195   */\n      0x00\n        /* \"#utility.yul\":187:199   */\n      revert\n        /* \"#utility.yul\":334:460   */\n    tag_234:\n        /* \"#utility.yul\":371:378   */\n      0x00\n        /* \"#utility.yul\":411:453   */\n      0xffffffffffffffffffffffffffffffffffffffff\n        /* \"#utility.yul\":404:409   */\n      dup3\n        /* \"#utility.yul\":400:454   */\n      and\n        /* \"#utility.yul\":389:454   */\n      swap1\n      pop\n        /* \"#utility.yul\":334:460   */\n      swap2\n      swap1\n      pop\n      jump\t// out\n        /* \"#utility.yul\":466:562   */\n    tag_235:\n        /* \"#utility.yul\":503:510   */\n      0x00\n        /* \"#utility.yul\":532:556   */\n      tag_266\n        /* \"#utility.yul\":550:555   */\n      dup3\n        /* \"#utility.yul\":532:556   */\n      tag_234\n      jump\t// in\n    tag_266:\n        /* \"#utility.yul\":521:556   */\n      swap1\n      pop\n        /* \"#utility.yul\":466:562   */\n      swap2\n      swap1\n      pop\n      jump\t// out\n        /* \"#utility.yul\":568:690   */\n    tag_236:\n        /* \"#utility.yul\":641:665   */\n      tag_268\n        /* \"#utility.yul\":659:664   */\n      dup2\n        /* \"#utility.yul\":641:665   */\n      tag_235\n      jump\t// in\n    tag_268:\n        /* \"#utility.yul\":634:639   */\n      dup2\n        /* \"#utility.yul\":631:666   */\n      eq\n        /* \"#utility.yul\":621:684   */\n      tag_269\n      jumpi\n        /* \"#utility.yul\":680:681   */\n      0x00\n        /* \"#utility.yul\":677:678   */\n      0x00\n        /* \"#utility.yul\":670:682   */\n      revert\n        /* \"#utility.yul\":621:684   */\n    tag_269:\n        /* \"#utility.yul\":568:690   */\n      pop\n      jump\t// out\n        /* \"#utility.yul\":696:835   */\n    tag_237:\n        /* \"#utility.yul\":742:747   */\n      0x00\n        /* \"#utility.yul\":780:786   */\n      dup2\n        /* \"#utility.yul\":767:787   */\n      calldataload\n        /* \"#utility.yul\":758:787   */\n      swap1\n      pop\n        /* \"#utility.yul\":796:829   */\n      tag_271\n        /* \"#utility.yul\":823:828   */\n      dup2\n        /* \"#utility.yul\":796:829   */\n      tag_236\n      jump\t// in\n    tag_271:\n        /* \"#utility.yul\":696:835   */\n      swap3\n      swap2\n      pop\n      pop\n      jump\t// out\n        /* \"#utility.yul\":841:918   */\n    tag_238:\n        /* \"#utility.yul\":878:885   */\n      0x00\n        /* \"#utility.yul\":907:912   */\n      dup2\n        /* \"#utility.yul\":896:912   */\n      swap1\n      pop\n        /* \"#utility.yul\":841:918   */\n      swap2\n      swap1\n      pop\n      jump\t// out\n        /* \"#utility.yul\":924:1046   */\n    tag_239:\n        /* \"#utility.yul\":997:1021   */\n      tag_274\n        /* \"#utility.yul\":1015:1020   */\n      dup2\n        /* \"#utility.yul\":997:1021   */\n      tag_238\n      jump\t// in\n    tag_274:\n        /* \"#utility.yul\":990:995   */\n      dup2\n        /* \"#utility.yul\":987:1022   */\n      eq\n        /* \"#utility.yul\":977:1040   */\n      tag_275\n      jumpi\n        /* \"#utility.yul\":1036:1037   */\n      0x00\n        /* \"#utility.yul\":1033:1034   */\n      0x00\n        /* \"#utility.yul\":1026:1038   */\n      revert\n        /* \"#utility.yul\":977:1040   */\n    tag_275:\n        /* \"#utility.yul\":924:1046   */\n      pop\n      jump\t// out\n        /* \"#utility.yul\":1052:1191   */\n    tag_240:\n        /* \"#utility.yul\":1098:1103   */\n      0x00\n        /* \"#utility.yul\":1136:1142   */\n      dup2\n        /* \"#utility.yul\":1123:1143   */\n      calldataload\n        /* \"#utility.yul\":1114:1143   */\n      swap1\n      pop\n        /* \"#utility.yul\":1152:1185   */\n      tag_277\n        /* \"#utility.yul\":1179:1184   */\n      dup2\n        /* \"#utility.yul\":1152:1185   */\n      tag_239\n      jump\t// in\n    tag_277:\n        /* \"#utility.yul\":1052:1191   */\n      swap3\n      swap2\n      pop\n      pop\n      jump\t// out\n        /* \"#utility.yul\":1197:1816   */\n    tag_26:\n        /* \"#utility.yul\":1274:1280   */\n      0x00\n        /* \"#utility.yul\":1282:1288   */\n      0x00\n        /* \"#utility.yul\":1290:1296   */\n      0x00\n        /* \"#utility.yul\":1339:1341   */\n      0x60\n        /* \"#utility.yul\":1327:1336   */\n      dup5\n        /* \"#utility.yul\":1318:1325   */\n      dup7\n        /* \"#utility.yul\":1314:1337   */\n      sub\n        /* \"#utility.yul\":1310:1342   */\n      slt\n        /* \"#utility.yul\":1307:1426   */\n      iszero\n      tag_279\n      jumpi\n        /* \"#utility.yul\":1345:1424   */\n      tag_280\n      tag_232\n      jump\t// in\n    tag_280:\n        /* \"#utility.yul\":1307:1426   */\n    tag_279:\n        /* \"#utility.yul\":1465:1466   */\n      0x00\n        /* \"#utility.yul\":1490:1543   */\n      tag_281\n        /* \"#utility.yul\":1535:1542   */\n      dup7\n        /* \"#utility.yul\":1526:1532   */\n      dup3\n        /* \"#utility.yul\":1515:1524   */\n      dup8\n        /* \"#utility.yul\":1511:1533   */\n      add\n        /* \"#utility.yul\":1490:1543   */\n      tag_237\n      jump\t// in\n    tag_281:\n        /* \"#utility.yul\":1480:1543   */\n      swap4\n      pop\n        /* \"#utility.yul\":1436:1553   */\n      pop\n        /* \"#utility.yul\":1592:1594   */\n      0x20\n        /* \"#utility.yul\":1618:1671   */\n      tag_282\n        /* \"#utility.yul\":1663:1670   */\n      dup7\n        /* \"#utility.yul\":1654:1660   */\n      dup3\n        /* \"#utility.yul\":1643:1652   */\n      dup8\n        /* \"#utility.yul\":1639:1661   */\n      add\n        /* \"#utility.yul\":1618:1671   */\n      tag_237\n      jump\t// in\n    tag_282:\n        /* \"#utility.yul\":1608:1671   */\n      swap3\n      pop\n        /* \"#utility.yul\":1563:1681   */\n      pop\n        /* \"#utility.yul\":1720:1722   */\n      0x40\n        /* \"#utility.yul\":1746:1799   */\n      tag_283\n        /* \"#utility.yul\":1791:1798   */\n      dup7\n        /* \"#utility.yul\":1782:1788   */\n      dup3\n        /* \"#utility.yul\":1771:1780   */\n      dup8\n        /* \"#utility.yul\":1767:1789   */\n      add\n        /* \"#utility.yul\":1746:1799   */\n      tag_240\n      jump\t// in\n    tag_283:\n        /* \"#utility.yul\":1736:1799   */\n      swap2\n      pop\n        /* \"#utility.yul\":1691:1809   */\n      pop\n        /* \"#utility.yul\":1197:1816   */\n      swap3\n      pop\n      swap3\n      pop\n      swap3\n      jump\t// out\n        /* \"#utility.yul\":1822:1940   */\n    tag_241:\n        /* \"#utility.yul\":1909:1933   */\n      tag_285\n        /* \"#utility.yul\":1927:1932   */\n      dup2\n        /* \"#utility.yul\":1909:1933   */\n      tag_238\n      jump\t// in\n    tag_285:\n        /* \"#utility.yul\":1904:1907   */\n      dup3\n        /* \"#utility.yul\":1897:1934   */\n      mstore\n        /* \"#utility.yul\":1822:1940   */\n      pop\n      pop\n      jump\t// out\n        /* \"#utility.yul\":1946:2168   */\n    tag_31:\n        /* \"#utility.yul\":2039:2043   */\n      0x00\n        /* \"#utility.yul\":2077:2079   */\n      0x20\n        /* \"#utility.yul\":2066:2075   */\n      dup3\n        /* \"#utility.yul\":2062:2080   */\n      add\n        /* \"#utility.yul\":2054:2080   */\n      swap1\n      pop\n        /* \"#utility.yul\":2090:2161   */\n      tag_287\n        /* \"#utility.yul\":2158:2159   */\n      0x00\n        /* \"#utility.yul\":2147:2156   */\n      dup4\n        /* \"#utility.yul\":2143:2160   */\n      add\n        /* \"#utility.yul\":2134:2140   */\n      dup5\n        /* \"#utility.yul\":2090:2161   */\n      tag_241\n      jump\t// in\n    tag_287:\n        /* \"#utility.yul\":1946:2168   */\n      swap3\n      swap2\n      pop\n      pop\n      jump\t// out\n        /* \"#utility.yul\":2174:2234   */\n    tag_242:\n        /* \"#utility.yul\":2202:2205   */\n      0x00\n        /* \"#utility.yul\":2223:2228   */\n      dup2\n        /* \"#utility.yul\":2216:2228   */\n      swap1\n      pop\n        /* \"#utility.yul\":2174:2234   */\n      swap2\n      swap1\n      pop\n      jump\t// out\n        /* \"#utility.yul\":2240:2382   */\n    tag_243:\n        /* \"#utility.yul\":2290:2299   */\n      0x00\n        /* \"#utility.yul\":2323:2376   */\n      tag_290\n        /* \"#utility.yul\":2341:2375   */\n      tag_291\n        /* \"#utility.yul\":2350:2374   */\n      tag_292\n        /* \"#utility.yul\":2368:2373   */\n      dup5\n        /* \"#utility.yul\":2350:2374   */\n      tag_234\n      jump\t// in\n    tag_292:\n        /* \"#utility.yul\":2341:2375   */\n      tag_242\n      jump\t// in\n    tag_291:\n        /* \"#utility.yul\":2323:2376   */\n      tag_234\n      jump\t// in\n    tag_290:\n        /* \"#utility.yul\":2310:2376   */\n      swap1\n      pop\n        /* \"#utility.yul\":2240:2382   */\n      swap2\n      swap1\n      pop\n      jump\t// out\n        /* \"#utility.yul\":2388:2514   */\n    tag_244:\n        /* \"#utility.yul\":2438:2447   */\n      0x00\n        /* \"#utility.yul\":2471:2508   */\n      tag_294\n        /* \"#utility.yul\":2502:2507   */\n      dup3\n        /* \"#utility.yul\":2471:2508   */\n      tag_243\n      jump\t// in\n    tag_294:\n        /* \"#utility.yul\":2458:2508   */\n      swap1\n      pop\n        /* \"#utility.yul\":2388:2514   */\n      swap2\n      swap1\n      pop\n      jump\t// out\n        /* \"#utility.yul\":2520:2678   */\n    tag_245:\n        /* \"#utility.yul\":2602:2611   */\n      0x00\n        /* \"#utility.yul\":2635:2672   */\n      tag_296\n        /* \"#utility.yul\":2666:2671   */\n      dup3\n        /* \"#utility.yul\":2635:2672   */\n      tag_244\n      jump\t// in\n    tag_296:\n        /* \"#utility.yul\":2622:2672   */\n      swap1\n      pop\n        /* \"#utility.yul\":2520:2678   */\n      swap2\n      swap1\n      pop\n      jump\t// out\n        /* \"#utility.yul\":2684:2879   */\n    tag_246:\n        /* \"#utility.yul\":2803:2872   */\n      tag_298\n        /* \"#utility.yul\":2866:2871   */\n      dup2\n        /* \"#utility.yul\":2803:2872   */\n      tag_245\n      jump\t// in\n    tag_298:\n        /* \"#utility.yul\":2798:2801   */\n      dup3\n        /* \"#utility.yul\":2791:2873   */\n      mstore\n        /* \"#utility.yul\":2684:2879   */\n      pop\n      pop\n      jump\t// out\n        /* \"#utility.yul\":2885:3171   */\n    tag_35:\n        /* \"#utility.yul\":3010:3014   */\n      0x00\n        /* \"#utility.yul\":3048:3050   */\n      0x20\n        /* \"#utility.yul\":3037:3046   */\n      dup3\n        /* \"#utility.yul\":3033:3051   */\n      add\n        /* \"#utility.yul\":3025:3051   */\n      swap1\n      pop\n        /* \"#utility.yul\":3061:3164   */\n      tag_300\n        /* \"#utility.yul\":3161:3162   */\n      0x00\n        /* \"#utility.yul\":3150:3159   */\n      dup4\n        /* \"#utility.yul\":3146:3163   */\n      add\n        /* \"#utility.yul\":3137:3143   */\n      dup5\n        /* \"#utility.yul\":3061:3164   */\n      tag_246\n      jump\t// in\n    tag_300:\n        /* \"#utility.yul\":2885:3171   */\n      swap3\n      swap2\n      pop\n      pop\n      jump\t// out\n        /* \"#utility.yul\":3177:3506   */\n    tag_41:\n        /* \"#utility.yul\":3236:3242   */\n      0x00\n        /* \"#utility.yul\":3285:3287   */\n      0x20\n        /* \"#utility.yul\":3273:3282   */\n      dup3\n        /* \"#utility.yul\":3264:3271   */\n      dup5\n        /* \"#utility.yul\":3260:3283   */\n      sub\n        /* \"#utility.yul\":3256:3288   */\n      slt\n        /* \"#utility.yul\":3253:3372   */\n      iszero\n      tag_302\n      jumpi\n        /* \"#utility.yul\":3291:3370   */\n      tag_303\n      tag_232\n      jump\t// in\n    tag_303:\n        /* \"#utility.yul\":3253:3372   */\n    tag_302:\n        /* \"#utility.yul\":3411:3412   */\n      0x00\n        /* \"#utility.yul\":3436:3489   */\n      tag_304\n        /* \"#utility.yul\":3481:3488   */\n      dup5\n        /* \"#utility.yul\":3472:3478   */\n      dup3\n        /* \"#utility.yul\":3461:3470   */\n      dup6\n        /* \"#utility.yul\":3457:3479   */\n      add\n        /* \"#utility.yul\":3436:3489   */\n      tag_237\n      jump\t// in\n    tag_304:\n        /* \"#utility.yul\":3426:3489   */\n      swap2\n      pop\n        /* \"#utility.yul\":3382:3499   */\n      pop\n        /* \"#utility.yul\":3177:3506   */\n      swap3\n      swap2\n      pop\n      pop\n      jump\t// out\n        /* \"#utility.yul\":3512:3986   */\n    tag_49:\n        /* \"#utility.yul\":3580:3586   */\n      0x00\n        /* \"#utility.yul\":3588:3594   */\n      0x00\n        /* \"#utility.yul\":3637:3639   */\n      0x40\n        /* \"#utility.yul\":3625:3634   */\n      dup4\n        /* \"#utility.yul\":3616:3623   */\n      dup6\n        /* \"#utility.yul\":3612:3635   */\n      sub\n        /* \"#utility.yul\":3608:3640   */\n      slt\n        /* \"#utility.yul\":3605:3724   */\n      iszero\n      tag_306\n      jumpi\n        /* \"#utility.yul\":3643:3722   */\n      tag_307\n      tag_232\n      jump\t// in\n    tag_307:\n        /* \"#utility.yul\":3605:3724   */\n    tag_306:\n        /* \"#utility.yul\":3763:3764   */\n      0x00\n        /* \"#utility.yul\":3788:3841   */\n      tag_308\n        /* \"#utility.yul\":3833:3840   */\n      dup6\n        /* \"#utility.yul\":3824:3830   */\n      dup3\n        /* \"#utility.yul\":3813:3822   */\n      dup7\n        /* \"#utility.yul\":3809:3831   */\n      add\n        /* \"#utility.yul\":3788:3841   */\n      tag_237\n      jump\t// in\n    tag_308:\n        /* \"#utility.yul\":3778:3841   */\n      swap3\n      pop\n        /* \"#utility.yul\":3734:3851   */\n      pop\n        /* \"#utility.yul\":3890:3892   */\n      0x20\n        /* \"#utility.yul\":3916:3969   */\n      tag_309\n        /* \"#utility.yul\":3961:3968   */\n      dup6\n        /* \"#utility.yul\":3952:3958   */\n      dup3\n        /* \"#utility.yul\":3941:3950   */\n      dup7\n        /* \"#utility.yul\":3937:3959   */\n      add\n        /* \"#utility.yul\":3916:3969   */\n      tag_240\n      jump\t// in\n    tag_309:\n        /* \"#utility.yul\":3906:3969   */\n      swap2\n      pop\n        /* \"#utility.yul\":3861:3979   */\n      pop\n        /* \"#utility.yul\":3512:3986   */\n      swap3\n      pop\n      swap3\n      swap1\n      pop\n      jump\t// out\n        /* \"#utility.yul\":3992:4321   */\n    tag_71:\n        /* \"#utility.yul\":4051:4057   */\n      0x00\n        /* \"#utility.yul\":4100:4102   */\n      0x20\n        /* \"#utility.yul\":4088:4097   */\n      dup3\n        /* \"#utility.yul\":4079:4086   */\n      dup5\n        /* \"#utility.yul\":4075:4098   */\n      sub\n        /* \"#utility.yul\":4071:4103   */\n      slt\n        /* \"#utility.yul\":4068:4187   */\n      iszero\n      tag_311\n      jumpi\n        /* \"#utility.yul\":4106:4185   */\n      tag_312\n      tag_232\n      jump\t// in\n    tag_312:\n        /* \"#utility.yul\":4068:4187   */\n    tag_311:\n        /* \"#utility.yul\":4226:4227   */\n      0x00\n        /* \"#utility.yul\":4251:4304   */\n      tag_313\n        /* \"#utility.yul\":4296:4303   */\n      dup5\n        /* \"#utility.yul\":4287:4293   */\n      dup3\n        /* \"#utility.yul\":4276:4285   */\n      dup6\n        /* \"#utility.yul\":4272:4294   */\n      add\n        /* \"#utility.yul\":4251:4304   */\n      tag_240\n      jump\t// in\n    tag_313:\n        /* \"#utility.yul\":4241:4304   */\n      swap2\n      pop\n        /* \"#utility.yul\":4197:4314   */\n      pop\n        /* \"#utility.yul\":3992:4321   */\n      swap3\n      swap2\n      pop\n      pop\n      jump\t// out\n        /* \"#utility.yul\":4327:4946   */\n    tag_75:\n        /* \"#utility.yul\":4404:4410   */\n      0x00\n        /* \"#utility.yul\":4412:4418   */\n      0x00\n        /* \"#utility.yul\":4420:4426   */\n      0x00\n        /* \"#utility.yul\":4469:4471   */\n      0x60\n        /* \"#utility.yul\":4457:4466   */\n      dup5\n        /* \"#utility.yul\":4448:4455   */\n      dup7\n        /* \"#utility.yul\":4444:4467   */\n      sub\n        /* \"#utility.yul\":4440:4472   */\n      slt\n        /* \"#utility.yul\":4437:4556   */\n      iszero\n      tag_315\n      jumpi\n        /* \"#utility.yul\":4475:4554   */\n      tag_316\n      tag_232\n      jump\t// in\n    tag_316:\n        /* \"#utility.yul\":4437:4556   */\n    tag_315:\n        /* \"#utility.yul\":4595:4596   */\n      0x00\n        /* \"#utility.yul\":4620:4673   */\n      tag_317\n        /* \"#utility.yul\":4665:4672   */\n      dup7\n        /* \"#utility.yul\":4656:4662   */\n      dup3\n        /* \"#utility.yul\":4645:4654   */\n      dup8\n        /* \"#utility.yul\":4641:4663   */\n      add\n        /* \"#utility.yul\":4620:4673   */\n      tag_237\n      jump\t// in\n    tag_317:\n        /* \"#utility.yul\":4610:4673   */\n      swap4\n      pop\n        /* \"#utility.yul\":4566:4683   */\n      pop\n        /* \"#utility.yul\":4722:4724   */\n      0x20\n        /* \"#utility.yul\":4748:4801   */\n      tag_318\n        /* \"#utility.yul\":4793:4800   */\n      dup7\n        /* \"#utility.yul\":4784:4790   */\n      dup3\n        /* \"#utility.yul\":4773:4782   */\n      dup8\n        /* \"#utility.yul\":4769:4791   */\n      add\n        /* \"#utility.yul\":4748:4801   */\n      tag_240\n      jump\t// in\n    tag_318:\n        /* \"#utility.yul\":4738:4801   */\n      swap3\n      pop\n        /* \"#utility.yul\":4693:4811   */\n      pop\n        /* \"#utility.yul\":4850:4852   */\n      0x40\n        /* \"#utility.yul\":4876:4929   */\n      tag_319\n        /* \"#utility.yul\":4921:4928   */\n      dup7\n        /* \"#utility.yul\":4912:4918   */\n      dup3\n        /* \"#utility.yul\":4901:4910   */\n      dup8\n        /* \"#utility.yul\":4897:4919   */\n      add\n        /* \"#utility.yul\":4876:4929   */\n      tag_240\n      jump\t// in\n    tag_319:\n        /* \"#utility.yul\":4866:4929   */\n      swap2\n      pop\n        /* \"#utility.yul\":4821:4939   */\n      pop\n        /* \"#utility.yul\":4327:4946   */\n      swap3\n      pop\n      swap3\n      pop\n      swap3\n      jump\t// out\n        /* \"#utility.yul\":4952:5132   */\n    tag_247:\n        /* \"#utility.yul\":5000:5077   */\n      0x4e487b7100000000000000000000000000000000000000000000000000000000\n        /* \"#utility.yul\":4997:4998   */\n      0x00\n        /* \"#utility.yul\":4990:5078   */\n      mstore\n        /* \"#utility.yul\":5097:5101   */\n      0x11\n        /* \"#utility.yul\":5094:5095   */\n      0x04\n        /* \"#utility.yul\":5087:5102   */\n      mstore\n        /* \"#utility.yul\":5121:5125   */\n      0x24\n        /* \"#utility.yul\":5118:5119   */\n      0x00\n        /* \"#utility.yul\":5111:5126   */\n      revert\n        /* \"#utility.yul\":5138:5548   */\n    tag_98:\n        /* \"#utility.yul\":5178:5185   */\n      0x00\n        /* \"#utility.yul\":5201:5221   */\n      tag_322\n        /* \"#utility.yul\":5219:5220   */\n      dup3\n        /* \"#utility.yul\":5201:5221   */\n      tag_238\n      jump\t// in\n    tag_322:\n        /* \"#utility.yul\":5196:5221   */\n      swap2\n      pop\n        /* \"#utility.yul\":5235:5255   */\n      tag_323\n        /* \"#utility.yul\":5253:5254   */\n      dup4\n        /* \"#utility.yul\":5235:5255   */\n      tag_238\n      jump\t// in\n    tag_323:\n        /* \"#utility.yul\":5230:5255   */\n      swap3\n      pop\n        /* \"#utility.yul\":5290:5291   */\n      dup3\n        /* \"#utility.yul\":5287:5288   */\n      dup3\n        /* \"#utility.yul\":5283:5292   */\n      mul\n        /* \"#utility.yul\":5312:5342   */\n      tag_324\n        /* \"#utility.yul\":5330:5341   */\n      dup2\n        /* \"#utility.yul\":5312:5342   */\n      tag_238\n      jump\t// in\n    tag_324:\n        /* \"#utility.yul\":5301:5342   */\n      swap2\n      pop\n        /* \"#utility.yul\":5491:5492   */\n      dup3\n        /* \"#utility.yul\":5482:5489   */\n      dup3\n        /* \"#utility.yul\":5478:5493   */\n      div\n        /* \"#utility.yul\":5475:5476   */\n      dup5\n        /* \"#utility.yul\":5472:5494   */\n      eq\n        /* \"#utility.yul\":5452:5453   */\n      dup4\n        /* \"#utility.yul\":5445:5454   */\n      iszero\n        /* \"#utility.yul\":5425:5508   */\n      or\n        /* \"#utility.yul\":5402:5541   */\n      tag_325\n      jumpi\n        /* \"#utility.yul\":5521:5539   */\n      tag_326\n      tag_247\n      jump\t// in\n    tag_326:\n        /* \"#utility.yul\":5402:5541   */\n    tag_325:\n        /* \"#utility.yul\":5186:5548   */\n      pop\n        /* \"#utility.yul\":5138:5548   */\n      swap3\n      swap2\n      pop\n      pop\n      jump\t// out\n        /* \"#utility.yul\":5554:5734   */\n    tag_248:\n        /* \"#utility.yul\":5602:5679   */\n      0x4e487b7100000000000000000000000000000000000000000000000000000000\n        /* \"#utility.yul\":5599:5600   */\n      0x00\n        /* \"#utility.yul\":5592:5680   */\n      mstore\n        /* \"#utility.yul\":5699:5703   */\n      0x12\n        /* \"#utility.yul\":5696:5697   */\n      0x04\n        /* \"#utility.yul\":5689:5704   */\n      mstore\n        /* \"#utility.yul\":5723:5727   */\n      0x24\n        /* \"#utility.yul\":5720:5721   */\n      0x00\n        /* \"#utility.yul\":5713:5728   */\n      revert\n        /* \"#utility.yul\":5740:5925   */\n    tag_100:\n        /* \"#utility.yul\":5780:5781   */\n      0x00\n        /* \"#utility.yul\":5797:5817   */\n      tag_329\n        /* \"#utility.yul\":5815:5816   */\n      dup3\n        /* \"#utility.yul\":5797:5817   */\n      tag_238\n      jump\t// in\n    tag_329:\n        /* \"#utility.yul\":5792:5817   */\n      swap2\n      pop\n        /* \"#utility.yul\":5831:5851   */\n      tag_330\n        /* \"#utility.yul\":5849:5850   */\n      dup4\n        /* \"#utility.yul\":5831:5851   */\n      tag_238\n      jump\t// in\n    tag_330:\n        /* \"#utility.yul\":5826:5851   */\n      swap3\n      pop\n        /* \"#utility.yul\":5870:5871   */\n      dup3\n        /* \"#utility.yul\":5860:5895   */\n      tag_331\n      jumpi\n        /* \"#utility.yul\":5875:5893   */\n      tag_332\n      tag_248\n      jump\t// in\n    tag_332:\n        /* \"#utility.yul\":5860:5895   */\n    tag_331:\n        /* \"#utility.yul\":5917:5918   */\n      dup3\n        /* \"#utility.yul\":5914:5915   */\n      dup3\n        /* \"#utility.yul\":5910:5919   */\n      div\n        /* \"#utility.yul\":5905:5919   */\n      swap1\n      pop\n        /* \"#utility.yul\":5740:5925   */\n      swap3\n      swap2\n      pop\n      pop\n      jump\t// out\n        /* \"#utility.yul\":5931:6122   */\n    tag_102:\n        /* \"#utility.yul\":5971:5974   */\n      0x00\n        /* \"#utility.yul\":5990:6010   */\n      tag_334\n        /* \"#utility.yul\":6008:6009   */\n      dup3\n        /* \"#utility.yul\":5990:6010   */\n      tag_238\n      jump\t// in\n    tag_334:\n        /* \"#utility.yul\":5985:6010   */\n      swap2\n      pop\n        /* \"#utility.yul\":6024:6044   */\n      tag_335\n        /* \"#utility.yul\":6042:6043   */\n      dup4\n        /* \"#utility.yul\":6024:6044   */\n      tag_238\n      jump\t// in\n    tag_335:\n        /* \"#utility.yul\":6019:6044   */\n      swap3\n      pop\n        /* \"#utility.yul\":6067:6068   */\n      dup3\n        /* \"#utility.yul\":6064:6065   */\n      dup3\n        /* \"#utility.yul\":6060:6069   */\n      add\n        /* \"#utility.yul\":6053:6069   */\n      swap1\n      pop\n        /* \"#utility.yul\":6088:6091   */\n      dup1\n        /* \"#utility.yul\":6085:6086   */\n      dup3\n        /* \"#utility.yul\":6082:6092   */\n      gt\n        /* \"#utility.yul\":6079:6115   */\n      iszero\n      tag_336\n      jumpi\n        /* \"#utility.yul\":6095:6113   */\n      tag_337\n      tag_247\n      jump\t// in\n    tag_337:\n        /* \"#utility.yul\":6079:6115   */\n    tag_336:\n        /* \"#utility.yul\":5931:6122   */\n      swap3\n      swap2\n      pop\n      pop\n      jump\t// out\n        /* \"#utility.yul\":6128:6308   */\n    tag_119:\n        /* \"#utility.yul\":6176:6253   */\n      0x4e487b7100000000000000000000000000000000000000000000000000000000\n        /* \"#utility.yul\":6173:6174   */\n      0x00\n        /* \"#utility.yul\":6166:6254   */\n      mstore\n        /* \"#utility.yul\":6273:6277   */\n      0x32\n        /* \"#utility.yul\":6270:6271   */\n      0x04\n        /* \"#utility.yul\":6263:6278   */\n      mstore\n        /* \"#utility.yul\":6297:6301   */\n      0x24\n        /* \"#utility.yul\":6294:6295   */\n      0x00\n        /* \"#utility.yul\":6287:6302   */\n      revert\n        /* \"#utility.yul\":6314:6547   */\n    tag_124:\n        /* \"#utility.yul\":6353:6356   */\n      0x00\n        /* \"#utility.yul\":6376:6400   */\n      tag_340\n        /* \"#utility.yul\":6394:6399   */\n      dup3\n        /* \"#utility.yul\":6376:6400   */\n      tag_238\n      jump\t// in\n    tag_340:\n        /* \"#utility.yul\":6367:6400   */\n      swap2\n      pop\n        /* \"#utility.yul\":6422:6488   */\n      0xffffffffffffffffffffffffffffffffffffffffffffffffffffffffffffffff\n        /* \"#utility.yul\":6415:6420   */\n      dup3\n        /* \"#utility.yul\":6412:6489   */\n      sub\n        /* \"#utility.yul\":6409:6512   */\n      tag_341\n      jumpi\n        /* \"#utility.yul\":6492:6510   */\n      tag_342\n      tag_247\n      jump\t// in\n    tag_342:\n        /* \"#utility.yul\":6409:6512   */\n    tag_341:\n        /* \"#utility.yul\":6539:6540   */\n      0x01\n        /* \"#utility.yul\":6532:6537   */\n      dup3\n        /* \"#utility.yul\":6528:6541   */\n      add\n        /* \"#utility.yul\":6521:6541   */\n      swap1\n      pop\n        /* \"#utility.yul\":6314:6547   */\n      swap2\n      swap1\n      pop\n      jump\t// out\n        /* \"#utility.yul\":6553:6671   */\n    tag_249:\n        /* \"#utility.yul\":6640:6664   */\n      tag_344\n        /* \"#utility.yul\":6658:6663   */\n      dup2\n        /* \"#utility.yul\":6640:6664   */\n      tag_235\n      jump\t// in\n    tag_344:\n        /* \"#utility.yul\":6635:6638   */\n      dup3\n        /* \"#utility.yul\":6628:6665   */\n      mstore\n        /* \"#utility.yul\":6553:6671   */\n      pop\n      pop\n      jump\t// out\n        /* \"#utility.yul\":6677:7119   */\n    tag_142:\n        /* \"#utility.yul\":6826:6830   */\n      0x00\n        /* \"#utility.yul\":6864:6866   */\n      0x60\n        /* \"#utility.yul\":6853:6862   */\n      dup3\n        /* \"#utility.yul\":6849:6867   */\n      add\n        /* \"#utility.yul\":6841:6867   */\n      swap1\n      pop\n        /* \"#utility.yul\":6877:6948   */\n      tag_346\n        /* \"#utility.yul\":6945:6946   */\n      0x00\n        /* \"#utility.yul\":6934:6943   */\n      dup4\n        /* \"#utility.yul\":6930:6947   */\n      add\n        /* \"#utility.yul\":6921:6927   */\n      dup7\n        /* \"#utility.yul\":6877:6948   */\n      tag_249\n      jump\t// in\n    tag_346:\n        /* \"#utility.yul\":6958:7030   */\n      tag_347\n        /* \"#utility.yul\":7026:7028   */\n      0x20\n        /* \"#utility.yul\":7015:7024   */\n      dup4\n        /* \"#utility.yul\":7011:7029   */\n      add\n        /* \"#utility.yul\":7002:7008   */\n      dup6\n        /* \"#utility.yul\":6958:7030   */\n      tag_249\n      jump\t// in\n    tag_347:\n        /* \"#utility.yul\":7040:7112   */\n      tag_348\n        /* \"#utility.yul\":7108:7110   */\n      0x40\n        /* \"#utility.yul\":7097:7106   */\n      dup4\n        /* \"#utility.yul\":7093:7111   */\n      add\n        /* \"#utility.yul\":7084:7090   */\n      dup5\n        /* \"#utility.yul\":7040:7112   */\n      tag_241\n      jump\t// in\n    tag_348:\n        /* \"#utility.yul\":6677:7119   */\n      swap5\n      swap4\n      pop\n      pop\n      pop\n      pop\n      jump\t// out\n        /* \"#utility.yul\":7125:7215   */\n    tag_250:\n        /* \"#utility.yul\":7159:7166   */\n      0x00\n        /* \"#utility.yul\":7202:7207   */\n      dup2\n        /* \"#utility.yul\":7195:7208   */\n      iszero\n        /* \"#utility.yul\":7188:7209   */\n      iszero\n        /* \"#utility.yul\":7177:7209   */\n      swap1\n      pop\n        /* \"#utility.yul\":7125:7215   */\n      swap2\n      swap1\n      pop\n      jump\t// out\n        /* \"#utility.yul\":7221:7337   */\n    tag_251:\n        /* \"#utility.yul\":7291:7312   */\n      tag_351\n        /* \"#utility.yul\":7306:7311   */\n      dup2\n        /* \"#utility.yul\":7291:7312   */\n      tag_250\n      jump\t// in\n    tag_351:\n        /* \"#utility.yul\":7284:7289   */\n      dup2\n        /* \"#utility.yul\":7281:7313   */\n      eq\n        /* \"#utility.yul\":7271:7331   */\n      tag_352\n      jumpi\n        /* \"#utility.yul\":7327:7328   */\n      0x00\n        /* \"#utility.yul\":7324:7325   */\n      0x00\n        /* \"#utility.yul\":7317:7329   */\n      revert\n        /* \"#utility.yul\":7271:7331   */\n    tag_352:\n        /* \"#utility.yul\":7221:7337   */\n      pop\n      jump\t// out\n        /* \"#utility.yul\":7343:7480   */\n    tag_252:\n        /* \"#utility.yul\":7397:7402   */\n      0x00\n        /* \"#utility.yul\":7428:7434   */\n      dup2\n        /* \"#utility.yul\":7422:7435   */\n      mload\n        /* \"#utility.yul\":7413:7435   */\n      swap1\n      pop\n        /* \"#utility.yul\":7444:7474   */\n      tag_354\n        /* \"#utility.yul\":7468:7473   */\n      dup2\n        /* \"#utility.yul\":7444:7474   */\n      tag_251\n      jump\t// in\n    tag_354:\n        /* \"#utility.yul\":7343:7480   */\n      swap3\n      swap2\n      pop\n      pop\n      jump\t// out\n        /* \"#utility.yul\":7486:7831   */\n    tag_146:\n        /* \"#utility.yul\":7553:7559   */\n      0x00\n        /* \"#utility.yul\":7602:7604   */\n      0x20\n        /* \"#utility.yul\":7590:7599   */\n      dup3\n        /* \"#utility.yul\":7581:7588   */\n      dup5\n        /* \"#utility.yul\":7577:7600   */\n      sub\n        /* \"#utility.yul\":7573:7605   */\n      slt\n        /* \"#utility.yul\":7570:7689   */\n      iszero\n      tag_356\n      jumpi\n        /* \"#utility.yul\":7608:7687   */\n      tag_357\n      tag_232\n      jump\t// in\n    tag_357:\n        /* \"#utility.yul\":7570:7689   */\n    tag_356:\n        /* \"#utility.yul\":7728:7729   */\n      0x00\n        /* \"#utility.yul\":7753:7814   */\n      tag_358\n        /* \"#utility.yul\":7806:7813   */\n      dup5\n        /* \"#utility.yul\":7797:7803   */\n      dup3\n        /* \"#utility.yul\":7786:7795   */\n      dup6\n        /* \"#utility.yul\":7782:7804   */\n      add\n        /* \"#utility.yul\":7753:7814   */\n      tag_252\n      jump\t// in\n    tag_358:\n        /* \"#utility.yul\":7743:7814   */\n      swap2\n      pop\n        /* \"#utility.yul\":7699:7824   */\n      pop\n        /* \"#utility.yul\":7486:7831   */\n      swap3\n      swap2\n      pop\n      pop\n      jump\t// out\n        /* \"#utility.yul\":7837:8059   */\n    tag_149:\n        /* \"#utility.yul\":7930:7934   */\n      0x00\n        /* \"#utility.yul\":7968:7970   */\n      0x20\n        /* \"#utility.yul\":7957:7966   */\n      dup3\n        /* \"#utility.yul\":7953:7971   */\n      add\n        /* \"#utility.yul\":7945:7971   */\n      swap1\n      pop\n        /* \"#utility.yul\":7981:8052   */\n      tag_360\n        /* \"#utility.yul\":8049:8050   */\n      0x00\n        /* \"#utility.yul\":8038:8047   */\n      dup4\n        /* \"#utility.yul\":8034:8051   */\n      add\n        /* \"#utility.yul\":8025:8031   */\n      dup5\n        /* \"#utility.yul\":7981:8052   */\n      tag_249\n      jump\t// in\n    tag_360:\n        /* \"#utility.yul\":7837:8059   */\n      swap3\n      swap2\n      pop\n      pop\n      jump\t// out\n        /* \"#utility.yul\":8065:8170   */\n    tag_253:\n        /* \"#utility.yul\":8101:8108   */\n      0x00\n        /* \"#utility.yul\":8141:8163   */\n      0xffffffffffffffffffff\n        /* \"#utility.yul\":8134:8139   */\n      dup3\n        /* \"#utility.yul\":8130:8164   */\n      and\n        /* \"#utility.yul\":8119:8164   */\n      swap1\n      pop\n        /* \"#utility.yul\":8065:8170   */\n      swap2\n      swap1\n      pop\n      jump\t// out\n        /* \"#utility.yul\":8176:8296   */\n    tag_254:\n        /* \"#utility.yul\":8248:8271   */\n      tag_363\n        /* \"#utility.yul\":8265:8270   */\n      dup2\n        /* \"#utility.yul\":8248:8271   */\n      tag_253\n      jump\t// in\n    tag_363:\n        /* \"#utility.yul\":8241:8246   */\n      dup2\n        /* \"#utility.yul\":8238:8272   */\n      eq\n        /* \"#utility.yul\":8228:8290   */\n      tag_364\n      jumpi\n        /* \"#utility.yul\":8286:8287   */\n      0x00\n        /* \"#utility.yul\":8283:8284   */\n      0x00\n        /* \"#utility.yul\":8276:8288   */\n      revert\n        /* \"#utility.yul\":8228:8290   */\n    tag_364:\n        /* \"#utility.yul\":8176:8296   */\n      pop\n      jump\t// out\n        /* \"#utility.yul\":8302:8443   */\n    tag_255:\n        /* \"#utility.yul\":8358:8363   */\n      0x00\n        /* \"#utility.yul\":8389:8395   */\n      dup2\n        /* \"#utility.yul\":8383:8396   */\n      mload\n        /* \"#utility.yul\":8374:8396   */\n      swap1\n      pop\n        /* \"#utility.yul\":8405:8437   */\n      tag_366\n        /* \"#utility.yul\":8431:8436   */\n      dup2\n        /* \"#utility.yul\":8405:8437   */\n      tag_254\n      jump\t// in\n    tag_366:\n        /* \"#utility.yul\":8302:8443   */\n      swap3\n      swap2\n      pop\n      pop\n      jump\t// out\n        /* \"#utility.yul\":8449:8525   */\n    tag_256:\n        /* \"#utility.yul\":8485:8492   */\n      0x00\n        /* \"#utility.yul\":8514:8519   */\n      dup2\n        /* \"#utility.yul\":8503:8519   */\n      swap1\n      pop\n        /* \"#utility.yul\":8449:8525   */\n      swap2\n      swap1\n      pop\n      jump\t// out\n        /* \"#utility.yul\":8531:8651   */\n    tag_257:\n        /* \"#utility.yul\":8603:8626   */\n      tag_369\n        /* \"#utility.yul\":8620:8625   */\n      dup2\n        /* \"#utility.yul\":8603:8626   */\n      tag_256\n      jump\t// in\n    tag_369:\n        /* \"#utility.yul\":8596:8601   */\n      dup2\n        /* \"#utility.yul\":8593:8627   */\n      eq\n        /* \"#utility.yul\":8583:8645   */\n      tag_370\n      jumpi\n        /* \"#utility.yul\":8641:8642   */\n      0x00\n        /* \"#utility.yul\":8638:8639   */\n      0x00\n        /* \"#utility.yul\":8631:8643   */\n      revert\n        /* \"#utility.yul\":8583:8645   */\n    tag_370:\n        /* \"#utility.yul\":8531:8651   */\n      pop\n      jump\t// out\n        /* \"#utility.yul\":8657:8798   */\n    tag_258:\n        /* \"#utility.yul\":8713:8718   */\n      0x00\n        /* \"#utility.yul\":8744:8750   */\n      dup2\n        /* \"#utility.yul\":8738:8751   */\n      mload\n        /* \"#utility.yul\":8729:8751   */\n      swap1\n      pop\n        /* \"#utility.yul\":8760:8792   */\n      tag_372\n        /* \"#utility.yul\":8786:8791   */\n      dup2\n        /* \"#utility.yul\":8760:8792   */\n      tag_257\n      jump\t// in\n    tag_372:\n        /* \"#utility.yul\":8657:8798   */\n      swap3\n      swap2\n      pop\n      pop\n      jump\t// out\n        /* \"#utility.yul\":8804:8947   */\n    tag_259:\n        /* \"#utility.yul\":8861:8866   */\n      0x00\n        /* \"#utility.yul\":8892:8898   */\n      dup2\n        /* \"#utility.yul\":8886:8899   */\n      mload\n        /* \"#utility.yul\":8877:8899   */\n      swap1\n      pop\n        /* \"#utility.yul\":8908:8941   */\n      tag_374\n        /* \"#utility.yul\":8935:8940   */\n      dup2\n        /* \"#utility.yul\":8908:8941   */\n      tag_239\n      jump\t// in\n    tag_374:\n        /* \"#utility.yul\":8804:8947   */\n      swap3\n      swap2\n      pop\n      pop\n      jump\t// out\n        /* \"#utility.yul\":8953:9924   */\n    tag_156:\n        /* \"#utility.yul\":9056:9062   */\n      0x00\n        /* \"#utility.yul\":9064:9070   */\n      0x00\n        /* \"#utility.yul\":9072:9078   */\n      0x00\n        /* \"#utility.yul\":9080:9086   */\n      0x00\n        /* \"#utility.yul\":9088:9094   */\n      0x00\n        /* \"#utility.yul\":9137:9140   */\n      0xa0\n        /* \"#utility.yul\":9125:9134   */\n      dup7\n        /* \"#utility.yul\":9116:9123   */\n      dup9\n        /* \"#utility.yul\":9112:9135   */\n      sub\n        /* \"#utility.yul\":9108:9141   */\n      slt\n        /* \"#utility.yul\":9105:9225   */\n      iszero\n      tag_376\n      jumpi\n        /* \"#utility.yul\":9144:9223   */\n      tag_377\n      tag_232\n      jump\t// in\n    tag_377:\n        /* \"#utility.yul\":9105:9225   */\n    tag_376:\n        /* \"#utility.yul\":9264:9265   */\n      0x00\n        /* \"#utility.yul\":9289:9352   */\n      tag_378\n        /* \"#utility.yul\":9344:9351   */\n      dup9\n        /* \"#utility.yul\":9335:9341   */\n      dup3\n        /* \"#utility.yul\":9324:9333   */\n      dup10\n        /* \"#utility.yul\":9320:9342   */\n      add\n        /* \"#utility.yul\":9289:9352   */\n      tag_255\n      jump\t// in\n    tag_378:\n        /* \"#utility.yul\":9279:9352   */\n      swap6\n      pop\n        /* \"#utility.yul\":9235:9362   */\n      pop\n        /* \"#utility.yul\":9401:9403   */\n      0x20\n        /* \"#utility.yul\":9427:9490   */\n      tag_379\n        /* \"#utility.yul\":9482:9489   */\n      dup9\n        /* \"#utility.yul\":9473:9479   */\n      dup3\n        /* \"#utility.yul\":9462:9471   */\n      dup10\n        /* \"#utility.yul\":9458:9480   */\n      add\n        /* \"#utility.yul\":9427:9490   */\n      tag_258\n      jump\t// in\n    tag_379:\n        /* \"#utility.yul\":9417:9490   */\n      swap5\n      pop\n        /* \"#utility.yul\":9372:9500   */\n      pop\n        /* \"#utility.yul\":9539:9541   */\n      0x40\n        /* \"#utility.yul\":9565:9629   */\n      tag_380\n        /* \"#utility.yul\":9621:9628   */\n      dup9\n        /* \"#utility.yul\":9612:9618   */\n      dup3\n        /* \"#utility.yul\":9601:9610   */\n      dup10\n        /* \"#utility.yul\":9597:9619   */\n      add\n        /* \"#utility.yul\":9565:9629   */\n      tag_259\n      jump\t// in\n    tag_380:\n        /* \"#utility.yul\":9555:9629   */\n      swap4\n      pop\n        /* \"#utility.yul\":9510:9639   */\n      pop\n        /* \"#utility.yul\":9678:9680   */\n      0x60\n        /* \"#utility.yul\":9704:9768   */\n      tag_381\n        /* \"#utility.yul\":9760:9767   */\n      dup9\n        /* \"#utility.yul\":9751:9757   */\n      dup3\n        /* \"#utility.yul\":9740:9749   */\n      dup10\n        /* \"#utility.yul\":9736:9758   */\n      add\n        /* \"#utility.yul\":9704:9768   */\n      tag_259\n      jump\t// in\n    tag_381:\n        /* \"#utility.yul\":9694:9768   */\n      swap3\n      pop\n        /* \"#utility.yul\":9649:9778   */\n      pop\n        /* \"#utility.yul\":9817:9820   */\n      0x80\n        /* \"#utility.yul\":9844:9907   */\n      tag_382\n        /* \"#utility.yul\":9899:9906   */\n      dup9\n        /* \"#utility.yul\":9890:9896   */\n      dup3\n        /* \"#utility.yul\":9879:9888   */\n      dup10\n        /* \"#utility.yul\":9875:9897   */\n      add\n        /* \"#utility.yul\":9844:9907   */\n      tag_255\n      jump\t// in\n    tag_382:\n        /* \"#utility.yul\":9834:9907   */\n      swap2\n      pop\n        /* \"#utility.yul\":9788:9917   */\n      pop\n        /* \"#utility.yul\":8953:9924   */\n      swap3\n      swap6\n      pop\n      swap3\n      swap6\n      swap1\n      swap4\n      pop\n      jump\t// out\n        /* \"#utility.yul\":9930:10262   */\n    tag_168:\n        /* \"#utility.yul\":10051:10055   */\n      0x00\n        /* \"#utility.yul\":10089:10091   */\n      0x40\n        /* \"#utility.yul\":10078:10087   */\n      dup3\n        /* \"#utility.yul\":10074:10092   */\n      add\n        /* \"#utility.yul\":10066:10092   */\n      swap1\n      pop\n        /* \"#utility.yul\":10102:10173   */\n      tag_384\n        /* \"#utility.yul\":10170:10171   */\n      0x00\n        /* \"#utility.yul\":10159:10168   */\n      dup4\n        /* \"#utility.yul\":10155:10172   */\n      add\n        /* \"#utility.yul\":10146:10152   */\n      dup6\n        /* \"#utility.yul\":10102:10173   */\n      tag_249\n      jump\t// in\n    tag_384:\n        /* \"#utility.yul\":10183:10255   */\n      tag_385\n        /* \"#utility.yul\":10251:10253   */\n      0x20\n        /* \"#utility.yul\":10240:10249   */\n      dup4\n        /* \"#utility.yul\":10236:10254   */\n      add\n        /* \"#utility.yul\":10227:10233   */\n      dup5\n        /* \"#utility.yul\":10183:10255   */\n      tag_241\n      jump\t// in\n    tag_385:\n        /* \"#utility.yul\":9930:10262   */\n      swap4\n      swap3\n      pop\n      pop\n      pop\n      jump\t// out\n        /* \"#utility.yul\":10268:10462   */\n    tag_205:\n        /* \"#utility.yul\":10308:10312   */\n      0x00\n        /* \"#utility.yul\":10328:10348   */\n      tag_387\n        /* \"#utility.yul\":10346:10347   */\n      dup3\n        /* \"#utility.yul\":10328:10348   */\n      tag_238\n      jump\t// in\n    tag_387:\n        /* \"#utility.yul\":10323:10348   */\n      swap2\n      pop\n        /* \"#utility.yul\":10362:10382   */\n      tag_388\n        /* \"#utility.yul\":10380:10381   */\n      dup4\n        /* \"#utility.yul\":10362:10382   */\n      tag_238\n      jump\t// in\n    tag_388:\n        /* \"#utility.yul\":10357:10382   */\n      swap3\n      pop\n        /* \"#utility.yul\":10406:10407   */\n      dup3\n        /* \"#utility.yul\":10403:10404   */\n      dup3\n        /* \"#utility.yul\":10399:10408   */\n      sub\n        /* \"#utility.yul\":10391:10408   */\n      swap1\n      pop\n        /* \"#utility.yul\":10430:10431   */\n      dup2\n        /* \"#utility.yul\":10424:10428   */\n      dup2\n        /* \"#utility.yul\":10421:10432   */\n      gt\n        /* \"#utility.yul\":10418:10455   */\n      iszero\n      tag_389\n      jumpi\n        /* \"#utility.yul\":10435:10453   */\n      tag_390\n      tag_247\n      jump\t// in\n    tag_390:\n        /* \"#utility.yul\":10418:10455   */\n    tag_389:\n        /* \"#utility.yul\":10268:10462   */\n      swap3\n      swap2\n      pop\n      pop\n      jump\t// out\n\n    auxdata: 0xa2646970667358221220be4dda95dc4112ccb28efc7c1063637d711aaaefd996fb9ea84b6233e9d6faf664736f6c634300081e0033\n}\n",
				"bytecode": {
					"linkReferences": {},
					"object": "60a060405234801561000f575f5ffd5b50604051611dc0380380611dc083398181016040528101906100319190610414565b60015f819055508051825114610073576040517fb5c5c12600000000000000000000000000000000000000000000000000000000815260040160405180910390fd5b5f73ffffffffffffffffffffffffffffffffffffffff168373ffffffffffffffffffffffffffffffffffffffff16036100d8576040517fef8f9dd100000000000000000000000000000000000000000000000000000000815260040160405180910390fd5b5f5f90505b825181101561021c578181815181106100f9576100f861049c565b5b602002602001015160015f8584815181106101175761011661049c565b5b602002602001015173ffffffffffffffffffffffffffffffffffffffff1673ffffffffffffffffffffffffffffffffffffffff1681526020019081526020015f205f6101000a81548173ffffffffffffffffffffffffffffffffffffffff021916908373ffffffffffffffffffffffffffffffffffffffff16021790555060048382815181106101aa576101a961049c565b5b6020026020010151908060018154018082558091505060019003905f5260205f20015f9091909190916101000a81548173ffffffffffffffffffffffffffffffffffffffff021916908373ffffffffffffffffffffffffffffffffffffffff16021790555080806001019150506100dd565b508273ffffffffffffffffffffffffffffffffffffffff1660808173ffffffffffffffffffffffffffffffffffffffff16815250505050506104c9565b5f604051905090565b5f5ffd5b5f5ffd5b5f73ffffffffffffffffffffffffffffffffffffffff82169050919050565b5f6102938261026a565b9050919050565b6102a381610289565b81146102ad575f5ffd5b50565b5f815190506102be8161029a565b92915050565b5f5ffd5b5f601f19601f8301169050919050565b7f4e487b71000000000000000000000000000000000000000000000000000000005f52604160045260245ffd5b61030e826102c8565b810181811067ffffffffffffffff8211171561032d5761032c6102d8565b5b80604052505050565b5f61033f610259565b905061034b8282610305565b919050565b5f67ffffffffffffffff82111561036a576103696102d8565b5b602082029050602081019050919050565b5f5ffd5b5f61039161038c84610350565b610336565b905080838252602082019050602084028301858111156103b4576103b361037b565b5b835b818110156103dd57806103c988826102b0565b8452602084019350506020810190506103b6565b5050509392505050565b5f82601f8301126103fb576103fa6102c4565b5b815161040b84826020860161037f565b91505092915050565b5f5f5f6060848603121561042b5761042a610262565b5b5f610438868287016102b0565b935050602084015167ffffffffffffffff81111561045957610458610266565b5b610465868287016103e7565b925050604084015167ffffffffffffffff81111561048657610485610266565b5b610492868287016103e7565b9150509250925092565b7f4e487b71000000000000000000000000000000000000000000000000000000005f52603260045260245ffd5b6080516118ca6104f65f395f818161048e01528181610aa901528181611096015261116c01526118ca5ff3fe608060405234801561000f575f5ffd5b5060043610610114575f3560e01c8063a5f352b7116100a0578063c9b7c3271161006f578063c9b7c327146102a8578063e90db8a3146102c4578063f419ea9c146102e0578063f6876608146102fc578063fa76dcf21461031857610114565b8063a5f352b714610232578063aaf5eb681461023c578063afea2e481461025a578063c601676c1461028a57610114565b80637d1a4450116100e75780637d1a44501461018e57806390a8ae9b146101be5780639acd81b3146101dc5780639d45ac89146101f8578063a5d5db0c1461021657610114565b806326c01303146101185780633574d4c4146101345780635e338bb31461015257806365079d7714610170575b5f5ffd5b610132600480360381019061012d919061133e565b610348565b005b61013c610487565b604051610149919061139d565b60405180910390f35b61015a61048c565b6040516101679190611411565b60405180910390f35b6101786104b0565b604051610185919061139d565b60405180910390f35b6101a860048036038101906101a3919061142a565b6104b9565b6040516101b5919061139d565b60405180910390f35b6101c66105b9565b6040516101d3919061139d565b60405180910390f35b6101f660048036038101906101f19190611455565b6105be565b005b610200610622565b60405161020d919061139d565b60405180910390f35b610230600480360381019061022b9190611455565b610627565b005b61023a6108e5565b005b6102446108e7565b604051610251919061139d565b60405180910390f35b610274600480360381019061026f9190611455565b6108f3565b604051610281919061139d565b60405180910390f35b6102926109fc565b60405161029f919061139d565b60405180910390f35b6102c260048036038101906102bd9190611493565b610a08565b005b6102de60048036038101906102d991906114be565b610b88565b005b6102fa60048036038101906102f591906114be565b610ba0565b005b61031660048036038101906103119190611493565b610bb8565b005b610332600480360381019061032d9190611455565b610c0a565b60405161033f919061139d565b60405180910390f35b805f8103610382576040517fcb1d3f7d00000000000000000000000000000000000000000000000000000000815260040160405180910390fd5b61038a610dd6565b5f61039484610e1a565b9050670de0b6b3a764000081106103d7576040517f4dc824ba00000000000000000000000000000000000000000000000000000000815260040160405180910390fd5b5f6103e286856108f3565b90505f6064600a836103f4919061153b565b6103fe91906115a9565b90505f818361040d91906115d9565b905061041b88828933610e6f565b610426868833611040565b5f61043088610e1a565b905084811161046b576040517f7c28362000000000000000000000000000000000000000000000000000000000815260040160405180910390fd5b610474336111f6565b5050505050610481611252565b50505050565b600a81565b7f000000000000000000000000000000000000000000000000000000000000000081565b6402540be40081565b5f5f5f90505b6004805490508111156105b3575f600482815481106104e1576104e061160c565b5b905f5260205f20015f9054906101000a900473ffffffffffffffffffffffffffffffffffffffff1690505f60025f8673ffffffffffffffffffffffffffffffffffffffff1673ffffffffffffffffffffffffffffffffffffffff1681526020019081526020015f205f8373ffffffffffffffffffffffffffffffffffffffff1673ffffffffffffffffffffffffffffffffffffffff1681526020019081526020015f205490506105918282610c0a565b8461059c91906115d9565b9350505080806105ab90611639565b9150506104bf565b50919050565b603281565b6105c6610dd6565b805f8103610600576040517fcb1d3f7d00000000000000000000000000000000000000000000000000000000815260040160405180910390fd5b61060c83833333610e6f565b610615336111f6565b5061061e611252565b5050565b606481565b805f8103610661576040517fcb1d3f7d00000000000000000000000000000000000000000000000000000000815260040160405180910390fd5b825f73ffffffffffffffffffffffffffffffffffffffff1660015f8373ffffffffffffffffffffffffffffffffffffffff1673ffffffffffffffffffffffffffffffffffffffff1681526020019081526020015f205f9054906101000a900473ffffffffffffffffffffffffffffffffffffffff1673ffffffffffffffffffffffffffffffffffffffff1603610723576040517fa802cfbe00000000000000000000000000000000000000000000000000000000815260040160405180910390fd5b61072b610dd6565b8260025f3373ffffffffffffffffffffffffffffffffffffffff1673ffffffffffffffffffffffffffffffffffffffff1681526020019081526020015f205f8673ffffffffffffffffffffffffffffffffffffffff1673ffffffffffffffffffffffffffffffffffffffff1681526020019081526020015f205f8282546107b291906115d9565b925050819055505f8473ffffffffffffffffffffffffffffffffffffffff166323b872dd3330876040518463ffffffff1660e01b81526004016107f79392919061168f565b6020604051808303815f875af1158015610813573d5f5f3e3d5ffd5b505050506040513d601f19601f8201168201806040525081019061083791906116f9565b90508061087b57846040517fbc3fe1270000000000000000000000000000000000000000000000000000000081526004016108729190611724565b60405180910390fd5b838573ffffffffffffffffffffffffffffffffffffffff163373ffffffffffffffffffffffffffffffffffffffff167ff1c0dd7e9b98bbff859029005ef89b127af049cd18df1a8d79f0b7e019911e5660405160405180910390a4506108df611252565b50505050565b565b670de0b6b3a764000081565b5f5f60015f8573ffffffffffffffffffffffffffffffffffffffff1673ffffffffffffffffffffffffffffffffffffffff1681526020019081526020015f205f9054906101000a900473ffffffffffffffffffffffffffffffffffffffff1673ffffffffffffffffffffffffffffffffffffffff1663feaf968c6040518163ffffffff1660e01b815260040160a060405180830381865afa15801561099a573d5f5f3e3d5ffd5b505050506040513d601f19601f820116820180604052508101906109be91906117c3565b5050509150506402540be400816109d5919061153b565b670de0b6b3a7640000846109e9919061153b565b6109f391906115a9565b91505092915050565b670de0b6b3a764000081565b805f8103610a42576040517fcb1d3f7d00000000000000000000000000000000000000000000000000000000815260040160405180910390fd5b610a4a610dd6565b8160035f3373ffffffffffffffffffffffffffffffffffffffff1673ffffffffffffffffffffffffffffffffffffffff1681526020019081526020015f205f828254610a9691906115d9565b92505081905550610aa6336111f6565b5f7f000000000000000000000000000000000000000000000000000000000000000073ffffffffffffffffffffffffffffffffffffffff166340c10f1933856040518363ffffffff1660e01b8152600401610b0292919061183a565b6020604051808303815f875af1158015610b1e573d5f5f3e3d5ffd5b505050506040513d601f19601f82011682018060405250810190610b4291906116f9565b905080610b7b576040517f6f4e810b00000000000000000000000000000000000000000000000000000000815260040160405180910390fd5b50610b84611252565b5050565b610b928383610627565b610b9b81610a08565b505050565b610ba981610bb8565b610bb383836105be565b505050565b805f8103610bf2576040517fcb1d3f7d00000000000000000000000000000000000000000000000000000000815260040160405180910390fd5b610bfd823333611040565b610c06336111f6565b5050565b5f825f73ffffffffffffffffffffffffffffffffffffffff1660015f8373ffffffffffffffffffffffffffffffffffffffff1673ffffffffffffffffffffffffffffffffffffffff1681526020019081526020015f205f9054906101000a900473ffffffffffffffffffffffffffffffffffffffff1673ffffffffffffffffffffffffffffffffffffffff1603610ccd576040517fa802cfbe00000000000000000000000000000000000000000000000000000000815260040160405180910390fd5b5f60015f8673ffffffffffffffffffffffffffffffffffffffff1673ffffffffffffffffffffffffffffffffffffffff1681526020019081526020015f205f9054906101000a900473ffffffffffffffffffffffffffffffffffffffff1673ffffffffffffffffffffffffffffffffffffffff1663feaf968c6040518163ffffffff1660e01b815260040160a060405180830381865afa158015610d73573d5f5f3e3d5ffd5b505050506040513d601f19601f82011682018060405250810190610d9791906117c3565b505050915050670de0b6b3a7640000846402540be40083610db8919061153b565b610dc2919061153b565b610dcc91906115a9565b9250505092915050565b60025f5403610e11576040517f3ee5aeb500000000000000000000000000000000000000000000000000000000815260040160405180910390fd5b60025f81905550565b5f5f5f610e268461125b565b915091505f6064603283610e3a919061153b565b610e4491906115a9565b905082670de0b6b3a764000082610e5b919061153b565b610e6591906115a9565b9350505050919050565b8260025f8473ffffffffffffffffffffffffffffffffffffffff1673ffffffffffffffffffffffffffffffffffffffff1681526020019081526020015f205f8673ffffffffffffffffffffffffffffffffffffffff1673ffffffffffffffffffffffffffffffffffffffff1681526020019081526020015f205f828254610ef69190611861565b925050819055508373ffffffffffffffffffffffffffffffffffffffff168173ffffffffffffffffffffffffffffffffffffffff168373ffffffffffffffffffffffffffffffffffffffff167fb292db12b8dfa23b760ee5e3bd1d3be184cd8f0eeeacd27ce120d4de4e4721f686604051610f71919061139d565b60405180910390a45f8473ffffffffffffffffffffffffffffffffffffffff1663a9059cbb83866040518363ffffffff1660e01b8152600401610fb592919061183a565b6020604051808303815f875af1158015610fd1573d5f5f3e3d5ffd5b505050506040513d601f19601f82011682018060405250810190610ff591906116f9565b90508061103957846040517f2851f4320000000000000000000000000000000000000000000000000000000081526004016110309190611724565b60405180910390fd5b5050505050565b8260035f8473ffffffffffffffffffffffffffffffffffffffff1673ffffffffffffffffffffffffffffffffffffffff1681526020019081526020015f205f82825461108c9190611861565b925050819055505f7f000000000000000000000000000000000000000000000000000000000000000073ffffffffffffffffffffffffffffffffffffffff166323b872dd8330876040518463ffffffff1660e01b81526004016110f19392919061168f565b6020604051808303815f875af115801561110d573d5f5f3e3d5ffd5b505050506040513d601f19601f8201168201806040525081019061113191906116f9565b90508061116a576040517f3a29ac6d00000000000000000000000000000000000000000000000000000000815260040160405180910390fd5b7f000000000000000000000000000000000000000000000000000000000000000073ffffffffffffffffffffffffffffffffffffffff166342966c68856040518263ffffffff1660e01b81526004016111c3919061139d565b5f604051808303815f87803b1580156111da575f5ffd5b505af11580156111ec573d5f5f3e3d5ffd5b5050505050505050565b5f61120082610e1a565b9050670de0b6b3a7640000811161124e57806040517fe580cc61000000000000000000000000000000000000000000000000000000008152600401611245919061139d565b60405180910390fd5b5050565b60015f81905550565b5f5f60035f8473ffffffffffffffffffffffffffffffffffffffff1673ffffffffffffffffffffffffffffffffffffffff1681526020019081526020015f205491506112a6836104b9565b9050915091565b5f5ffd5b5f73ffffffffffffffffffffffffffffffffffffffff82169050919050565b5f6112da826112b1565b9050919050565b6112ea816112d0565b81146112f4575f5ffd5b50565b5f81359050611305816112e1565b92915050565b5f819050919050565b61131d8161130b565b8114611327575f5ffd5b50565b5f8135905061133881611314565b92915050565b5f5f5f60608486031215611355576113546112ad565b5b5f611362868287016112f7565b9350506020611373868287016112f7565b92505060406113848682870161132a565b9150509250925092565b6113978161130b565b82525050565b5f6020820190506113b05f83018461138e565b92915050565b5f819050919050565b5f6113d96113d46113cf846112b1565b6113b6565b6112b1565b9050919050565b5f6113ea826113bf565b9050919050565b5f6113fb826113e0565b9050919050565b61140b816113f1565b82525050565b5f6020820190506114245f830184611402565b92915050565b5f6020828403121561143f5761143e6112ad565b5b5f61144c848285016112f7565b91505092915050565b5f5f6040838503121561146b5761146a6112ad565b5b5f611478858286016112f7565b92505060206114898582860161132a565b9150509250929050565b5f602082840312156114a8576114a76112ad565b5b5f6114b58482850161132a565b91505092915050565b5f5f5f606084860312156114d5576114d46112ad565b5b5f6114e2868287016112f7565b93505060206114f38682870161132a565b92505060406115048682870161132a565b9150509250925092565b7f4e487b71000000000000000000000000000000000000000000000000000000005f52601160045260245ffd5b5f6115458261130b565b91506115508361130b565b925082820261155e8161130b565b915082820484148315176115755761157461150e565b5b5092915050565b7f4e487b71000000000000000000000000000000000000000000000000000000005f52601260045260245ffd5b5f6115b38261130b565b91506115be8361130b565b9250826115ce576115cd61157c565b5b828204905092915050565b5f6115e38261130b565b91506115ee8361130b565b92508282019050808211156116065761160561150e565b5b92915050565b7f4e487b71000000000000000000000000000000000000000000000000000000005f52603260045260245ffd5b5f6116438261130b565b91507fffffffffffffffffffffffffffffffffffffffffffffffffffffffffffffffff82036116755761167461150e565b5b600182019050919050565b611689816112d0565b82525050565b5f6060820190506116a25f830186611680565b6116af6020830185611680565b6116bc604083018461138e565b949350505050565b5f8115159050919050565b6116d8816116c4565b81146116e2575f5ffd5b50565b5f815190506116f3816116cf565b92915050565b5f6020828403121561170e5761170d6112ad565b5b5f61171b848285016116e5565b91505092915050565b5f6020820190506117375f830184611680565b92915050565b5f69ffffffffffffffffffff82169050919050565b61175b8161173d565b8114611765575f5ffd5b50565b5f8151905061177681611752565b92915050565b5f819050919050565b61178e8161177c565b8114611798575f5ffd5b50565b5f815190506117a981611785565b92915050565b5f815190506117bd81611314565b92915050565b5f5f5f5f5f60a086880312156117dc576117db6112ad565b5b5f6117e988828901611768565b95505060206117fa8882890161179b565b945050604061180b888289016117af565b935050606061181c888289016117af565b925050608061182d88828901611768565b9150509295509295909350565b5f60408201905061184d5f830185611680565b61185a602083018461138e565b9392505050565b5f61186b8261130b565b91506118768361130b565b925082820390508181111561188e5761188d61150e565b5b9291505056fea2646970667358221220be4dda95dc4112ccb28efc7c1063637d711aaaefd996fb9ea84b6233e9d6faf664736f6c634300081e0033",
					"opcodes": "PUSH1 0xA0 PUSH1 0x40 MSTORE CALLVALUE DUP1 ISZERO PUSH2 0xF JUMPI PUSH0 PUSH0 REVERT JUMPDEST POP PUSH1 0x40 MLOAD PUSH2 0x1DC0 CODESIZE SUB DUP1 PUSH2 0x1DC0 DUP4 CODECOPY DUP2 DUP2 ADD PUSH1 0x40 MSTORE DUP2 ADD SWAP1 PUSH2 0x31 SWAP2 SWAP1 PUSH2 0x414 JUMP JUMPDEST PUSH1 0x1 PUSH0 DUP2 SWAP1 SSTORE POP DUP1 MLOAD DUP3 MLOAD EQ PUSH2 0x73 JUMPI PUSH1 0x40 MLOAD PUSH32 0xB5C5C12600000000000000000000000000000000000000000000000000000000 DUP2 MSTORE PUSH1 0x4 ADD PUSH1 0x40 MLOAD DUP1 SWAP2 SUB SWAP1 REVERT JUMPDEST PUSH0 PUSH20 0xFFFFFFFFFFFFFFFFFFFFFFFFFFFFFFFFFFFFFFFF AND DUP4 PUSH20 0xFFFFFFFFFFFFFFFFFFFFFFFFFFFFFFFFFFFFFFFF AND SUB PUSH2 0xD8 JUMPI PUSH1 0x40 MLOAD PUSH32 0xEF8F9DD100000000000000000000000000000000000000000000000000000000 DUP2 MSTORE PUSH1 0x4 ADD PUSH1 0x40 MLOAD DUP1 SWAP2 SUB SWAP1 REVERT JUMPDEST PUSH0 PUSH0 SWAP1 POP JUMPDEST DUP3 MLOAD DUP2 LT ISZERO PUSH2 0x21C JUMPI DUP2 DUP2 DUP2 MLOAD DUP2 LT PUSH2 0xF9 JUMPI PUSH2 0xF8 PUSH2 0x49C JUMP JUMPDEST JUMPDEST PUSH1 0x20 MUL PUSH1 0x20 ADD ADD MLOAD PUSH1 0x1 PUSH0 DUP6 DUP5 DUP2 MLOAD DUP2 LT PUSH2 0x117 JUMPI PUSH2 0x116 PUSH2 0x49C JUMP JUMPDEST JUMPDEST PUSH1 0x20 MUL PUSH1 0x20 ADD ADD MLOAD PUSH20 0xFFFFFFFFFFFFFFFFFFFFFFFFFFFFFFFFFFFFFFFF AND PUSH20 0xFFFFFFFFFFFFFFFFFFFFFFFFFFFFFFFFFFFFFFFF AND DUP2 MSTORE PUSH1 0x20 ADD SWAP1 DUP2 MSTORE PUSH1 0x20 ADD PUSH0 KECCAK256 PUSH0 PUSH2 0x100 EXP DUP2 SLOAD DUP2 PUSH20 0xFFFFFFFFFFFFFFFFFFFFFFFFFFFFFFFFFFFFFFFF MUL NOT AND SWAP1 DUP4 PUSH20 0xFFFFFFFFFFFFFFFFFFFFFFFFFFFFFFFFFFFFFFFF AND MUL OR SWAP1 SSTORE POP PUSH1 0x4 DUP4 DUP3 DUP2 MLOAD DUP2 LT PUSH2 0x1AA JUMPI PUSH2 0x1A9 PUSH2 0x49C JUMP JUMPDEST JUMPDEST PUSH1 0x20 MUL PUSH1 0x20 ADD ADD MLOAD SWAP1 DUP1 PUSH1 0x1 DUP2 SLOAD ADD DUP1 DUP3 SSTORE DUP1 SWAP2 POP POP PUSH1 0x1 SWAP1 SUB SWAP1 PUSH0 MSTORE PUSH1 0x20 PUSH0 KECCAK256 ADD PUSH0 SWAP1 SWAP2 SWAP1 SWAP2 SWAP1 SWAP2 PUSH2 0x100 EXP DUP2 SLOAD DUP2 PUSH20 0xFFFFFFFFFFFFFFFFFFFFFFFFFFFFFFFFFFFFFFFF MUL NOT AND SWAP1 DUP4 PUSH20 0xFFFFFFFFFFFFFFFFFFFFFFFFFFFFFFFFFFFFFFFF AND MUL OR SWAP1 SSTORE POP DUP1 DUP1 PUSH1 0x1 ADD SWAP2 POP POP PUSH2 0xDD JUMP JUMPDEST POP DUP3 PUSH20 0xFFFFFFFFFFFFFFFFFFFFFFFFFFFFFFFFFFFFFFFF AND PUSH1 0x80 DUP2 PUSH20 0xFFFFFFFFFFFFFFFFFFFFFFFFFFFFFFFFFFFFFFFF AND DUP2 MSTORE POP POP POP POP POP PUSH2 0x4C9 JUMP JUMPDEST PUSH0 PUSH1 0x40 MLOAD SWAP1 POP SWAP1 JUMP JUMPDEST PUSH0 PUSH0 REVERT JUMPDEST PUSH0 PUSH0 REVERT JUMPDEST PUSH0 PUSH20 0xFFFFFFFFFFFFFFFFFFFFFFFFFFFFFFFFFFFFFFFF DUP3 AND SWAP1 POP SWAP2 SWAP1 POP JUMP JUMPDEST PUSH0 PUSH2 0x293 DUP3 PUSH2 0x26A JUMP JUMPDEST SWAP1 POP SWAP2 SWAP1 POP JUMP JUMPDEST PUSH2 0x2A3 DUP2 PUSH2 0x289 JUMP JUMPDEST DUP2 EQ PUSH2 0x2AD JUMPI PUSH0 PUSH0 REVERT JUMPDEST POP JUMP JUMPDEST PUSH0 DUP2 MLOAD SWAP1 POP PUSH2 0x2BE DUP2 PUSH2 0x29A JUMP JUMPDEST SWAP3 SWAP2 POP POP JUMP JUMPDEST PUSH0 PUSH0 REVERT JUMPDEST PUSH0 PUSH1 0x1F NOT PUSH1 0x1F DUP4 ADD AND SWAP1 POP SWAP2 SWAP1 POP JUMP JUMPDEST PUSH32 0x4E487B7100000000000000000000000000000000000000000000000000000000 PUSH0 MSTORE PUSH1 0x41 PUSH1 0x4 MSTORE PUSH1 0x24 PUSH0 REVERT JUMPDEST PUSH2 0x30E DUP3 PUSH2 0x2C8 JUMP JUMPDEST DUP2 ADD DUP2 DUP2 LT PUSH8 0xFFFFFFFFFFFFFFFF DUP3 GT OR ISZERO PUSH2 0x32D JUMPI PUSH2 0x32C PUSH2 0x2D8 JUMP JUMPDEST JUMPDEST DUP1 PUSH1 0x40 MSTORE POP POP POP JUMP JUMPDEST PUSH0 PUSH2 0x33F PUSH2 0x259 JUMP JUMPDEST SWAP1 POP PUSH2 0x34B DUP3 DUP3 PUSH2 0x305 JUMP JUMPDEST SWAP2 SWAP1 POP JUMP JUMPDEST PUSH0 PUSH8 0xFFFFFFFFFFFFFFFF DUP3 GT ISZERO PUSH2 0x36A JUMPI PUSH2 0x369 PUSH2 0x2D8 JUMP JUMPDEST JUMPDEST PUSH1 0x20 DUP3 MUL SWAP1 POP PUSH1 0x20 DUP2 ADD SWAP1 POP SWAP2 SWAP1 POP JUMP JUMPDEST PUSH0 PUSH0 REVERT JUMPDEST PUSH0 PUSH2 0x391 PUSH2 0x38C DUP5 PUSH2 0x350 JUMP JUMPDEST PUSH2 0x336 JUMP JUMPDEST SWAP1 POP DUP1 DUP4 DUP3 MSTORE PUSH1 0x20 DUP3 ADD SWAP1 POP PUSH1 0x20 DUP5 MUL DUP4 ADD DUP6 DUP2 GT ISZERO PUSH2 0x3B4 JUMPI PUSH2 0x3B3 PUSH2 0x37B JUMP JUMPDEST JUMPDEST DUP4 JUMPDEST DUP2 DUP2 LT ISZERO PUSH2 0x3DD JUMPI DUP1 PUSH2 0x3C9 DUP9 DUP3 PUSH2 0x2B0 JUMP JUMPDEST DUP5 MSTORE PUSH1 0x20 DUP5 ADD SWAP4 POP POP PUSH1 0x20 DUP2 ADD SWAP1 POP PUSH2 0x3B6 JUMP JUMPDEST POP POP POP SWAP4 SWAP3 POP POP POP JUMP JUMPDEST PUSH0 DUP3 PUSH1 0x1F DUP4 ADD SLT PUSH2 0x3FB JUMPI PUSH2 0x3FA PUSH2 0x2C4 JUMP JUMPDEST JUMPDEST DUP2 MLOAD PUSH2 0x40B DUP5 DUP3 PUSH1 0x20 DUP7 ADD PUSH2 0x37F JUMP JUMPDEST SWAP2 POP POP SWAP3 SWAP2 POP POP JUMP JUMPDEST PUSH0 PUSH0 PUSH0 PUSH1 0x60 DUP5 DUP7 SUB SLT ISZERO PUSH2 0x42B JUMPI PUSH2 0x42A PUSH2 0x262 JUMP JUMPDEST JUMPDEST PUSH0 PUSH2 0x438 DUP7 DUP3 DUP8 ADD PUSH2 0x2B0 JUMP JUMPDEST SWAP4 POP POP PUSH1 0x20 DUP5 ADD MLOAD PUSH8 0xFFFFFFFFFFFFFFFF DUP2 GT ISZERO PUSH2 0x459 JUMPI PUSH2 0x458 PUSH2 0x266 JUMP JUMPDEST JUMPDEST PUSH2 0x465 DUP7 DUP3 DUP8 ADD PUSH2 0x3E7 JUMP JUMPDEST SWAP3 POP POP PUSH1 0x40 DUP5 ADD MLOAD PUSH8 0xFFFFFFFFFFFFFFFF DUP2 GT ISZERO PUSH2 0x486 JUMPI PUSH2 0x485 PUSH2 0x266 JUMP JUMPDEST JUMPDEST PUSH2 0x492 DUP7 DUP3 DUP8 ADD PUSH2 0x3E7 JUMP JUMPDEST SWAP2 POP POP SWAP3 POP SWAP3 POP SWAP3 JUMP JUMPDEST PUSH32 0x4E487B7100000000000000000000000000000000000000000000000000000000 PUSH0 MSTORE PUSH1 0x32 PUSH1 0x4 MSTORE PUSH1 0x24 PUSH0 REVERT JUMPDEST PUSH1 0x80 MLOAD PUSH2 0x18CA PUSH2 0x4F6 PUSH0 CODECOPY PUSH0 DUP2 DUP2 PUSH2 0x48E ADD MSTORE DUP2 DUP2 PUSH2 0xAA9 ADD MSTORE DUP2 DUP2 PUSH2 0x1096 ADD MSTORE PUSH2 0x116C ADD MSTORE PUSH2 0x18CA PUSH0 RETURN INVALID PUSH1 0x80 PUSH1 0x40 MSTORE CALLVALUE DUP1 ISZERO PUSH2 0xF JUMPI PUSH0 PUSH0 REVERT JUMPDEST POP PUSH1 0x4 CALLDATASIZE LT PUSH2 0x114 JUMPI PUSH0 CALLDATALOAD PUSH1 0xE0 SHR DUP1 PUSH4 0xA5F352B7 GT PUSH2 0xA0 JUMPI DUP1 PUSH4 0xC9B7C327 GT PUSH2 0x6F JUMPI DUP1 PUSH4 0xC9B7C327 EQ PUSH2 0x2A8 JUMPI DUP1 PUSH4 0xE90DB8A3 EQ PUSH2 0x2C4 JUMPI DUP1 PUSH4 0xF419EA9C EQ PUSH2 0x2E0 JUMPI DUP1 PUSH4 0xF6876608 EQ PUSH2 0x2FC JUMPI DUP1 PUSH4 0xFA76DCF2 EQ PUSH2 0x318 JUMPI PUSH2 0x114 JUMP JUMPDEST DUP1 PUSH4 0xA5F352B7 EQ PUSH2 0x232 JUMPI DUP1 PUSH4 0xAAF5EB68 EQ PUSH2 0x23C JUMPI DUP1 PUSH4 0xAFEA2E48 EQ PUSH2 0x25A JUMPI DUP1 PUSH4 0xC601676C EQ PUSH2 0x28A JUMPI PUSH2 0x114 JUMP JUMPDEST DUP1 PUSH4 0x7D1A4450 GT PUSH2 0xE7 JUMPI DUP1 PUSH4 0x7D1A4450 EQ PUSH2 0x18E JUMPI DUP1 PUSH4 0x90A8AE9B EQ PUSH2 0x1BE JUMPI DUP1 PUSH4 0x9ACD81B3 EQ PUSH2 0x1DC JUMPI DUP1 PUSH4 0x9D45AC89 EQ PUSH2 0x1F8 JUMPI DUP1 PUSH4 0xA5D5DB0C EQ PUSH2 0x216 JUMPI PUSH2 0x114 JUMP JUMPDEST DUP1 PUSH4 0x26C01303 EQ PUSH2 0x118 JUMPI DUP1 PUSH4 0x3574D4C4 EQ PUSH2 0x134 JUMPI DUP1 PUSH4 0x5E338BB3 EQ PUSH2 0x152 JUMPI DUP1 PUSH4 0x65079D77 EQ PUSH2 0x170 JUMPI JUMPDEST PUSH0 PUSH0 REVERT JUMPDEST PUSH2 0x132 PUSH1 0x4 DUP1 CALLDATASIZE SUB DUP2 ADD SWAP1 PUSH2 0x12D SWAP2 SWAP1 PUSH2 0x133E JUMP JUMPDEST PUSH2 0x348 JUMP JUMPDEST STOP JUMPDEST PUSH2 0x13C PUSH2 0x487 JUMP JUMPDEST PUSH1 0x40 MLOAD PUSH2 0x149 SWAP2 SWAP1 PUSH2 0x139D JUMP JUMPDEST PUSH1 0x40 MLOAD DUP1 SWAP2 SUB SWAP1 RETURN JUMPDEST PUSH2 0x15A PUSH2 0x48C JUMP JUMPDEST PUSH1 0x40 MLOAD PUSH2 0x167 SWAP2 SWAP1 PUSH2 0x1411 JUMP JUMPDEST PUSH1 0x40 MLOAD DUP1 SWAP2 SUB SWAP1 RETURN JUMPDEST PUSH2 0x178 PUSH2 0x4B0 JUMP JUMPDEST PUSH1 0x40 MLOAD PUSH2 0x185 SWAP2 SWAP1 PUSH2 0x139D JUMP JUMPDEST PUSH1 0x40 MLOAD DUP1 SWAP2 SUB SWAP1 RETURN JUMPDEST PUSH2 0x1A8 PUSH1 0x4 DUP1 CALLDATASIZE SUB DUP2 ADD SWAP1 PUSH2 0x1A3 SWAP2 SWAP1 PUSH2 0x142A JUMP JUMPDEST PUSH2 0x4B9 JUMP JUMPDEST PUSH1 0x40 MLOAD PUSH2 0x1B5 SWAP2 SWAP1 PUSH2 0x139D JUMP JUMPDEST PUSH1 0x40 MLOAD DUP1 SWAP2 SUB SWAP1 RETURN JUMPDEST PUSH2 0x1C6 PUSH2 0x5B9 JUMP JUMPDEST PUSH1 0x40 MLOAD PUSH2 0x1D3 SWAP2 SWAP1 PUSH2 0x139D JUMP JUMPDEST PUSH1 0x40 MLOAD DUP1 SWAP2 SUB SWAP1 RETURN JUMPDEST PUSH2 0x1F6 PUSH1 0x4 DUP1 CALLDATASIZE SUB DUP2 ADD SWAP1 PUSH2 0x1F1 SWAP2 SWAP1 PUSH2 0x1455 JUMP JUMPDEST PUSH2 0x5BE JUMP JUMPDEST STOP JUMPDEST PUSH2 0x200 PUSH2 0x622 JUMP JUMPDEST PUSH1 0x40 MLOAD PUSH2 0x20D SWAP2 SWAP1 PUSH2 0x139D JUMP JUMPDEST PUSH1 0x40 MLOAD DUP1 SWAP2 SUB SWAP1 RETURN JUMPDEST PUSH2 0x230 PUSH1 0x4 DUP1 CALLDATASIZE SUB DUP2 ADD SWAP1 PUSH2 0x22B SWAP2 SWAP1 PUSH2 0x1455 JUMP JUMPDEST PUSH2 0x627 JUMP JUMPDEST STOP JUMPDEST PUSH2 0x23A PUSH2 0x8E5 JUMP JUMPDEST STOP JUMPDEST PUSH2 0x244 PUSH2 0x8E7 JUMP JUMPDEST PUSH1 0x40 MLOAD PUSH2 0x251 SWAP2 SWAP1 PUSH2 0x139D JUMP JUMPDEST PUSH1 0x40 MLOAD DUP1 SWAP2 SUB SWAP1 RETURN JUMPDEST PUSH2 0x274 PUSH1 0x4 DUP1 CALLDATASIZE SUB DUP2 ADD SWAP1 PUSH2 0x26F SWAP2 SWAP1 PUSH2 0x1455 JUMP JUMPDEST PUSH2 0x8F3 JUMP JUMPDEST PUSH1 0x40 MLOAD PUSH2 0x281 SWAP2 SWAP1 PUSH2 0x139D JUMP JUMPDEST PUSH1 0x40 MLOAD DUP1 SWAP2 SUB SWAP1 RETURN JUMPDEST PUSH2 0x292 PUSH2 0x9FC JUMP JUMPDEST PUSH1 0x40 MLOAD PUSH2 0x29F SWAP2 SWAP1 PUSH2 0x139D JUMP JUMPDEST PUSH1 0x40 MLOAD DUP1 SWAP2 SUB SWAP1 RETURN JUMPDEST PUSH2 0x2C2 PUSH1 0x4 DUP1 CALLDATASIZE SUB DUP2 ADD SWAP1 PUSH2 0x2BD SWAP2 SWAP1 PUSH2 0x1493 JUMP JUMPDEST PUSH2 0xA08 JUMP JUMPDEST STOP JUMPDEST PUSH2 0x2DE PUSH1 0x4 DUP1 CALLDATASIZE SUB DUP2 ADD SWAP1 PUSH2 0x2D9 SWAP2 SWAP1 PUSH2 0x14BE JUMP JUMPDEST PUSH2 0xB88 JUMP JUMPDEST STOP JUMPDEST PUSH2 0x2FA PUSH1 0x4 DUP1 CALLDATASIZE SUB DUP2 ADD SWAP1 PUSH2 0x2F5 SWAP2 SWAP1 PUSH2 0x14BE JUMP JUMPDEST PUSH2 0xBA0 JUMP JUMPDEST STOP JUMPDEST PUSH2 0x316 PUSH1 0x4 DUP1 CALLDATASIZE SUB DUP2 ADD SWAP1 PUSH2 0x311 SWAP2 SWAP1 PUSH2 0x1493 JUMP JUMPDEST PUSH2 0xBB8 JUMP JUMPDEST STOP JUMPDEST PUSH2 0x332 PUSH1 0x4 DUP1 CALLDATASIZE SUB DUP2 ADD SWAP1 PUSH2 0x32D SWAP2 SWAP1 PUSH2 0x1455 JUMP JUMPDEST PUSH2 0xC0A JUMP JUMPDEST PUSH1 0x40 MLOAD PUSH2 0x33F SWAP2 SWAP1 PUSH2 0x139D JUMP JUMPDEST PUSH1 0x40 MLOAD DUP1 SWAP2 SUB SWAP1 RETURN JUMPDEST DUP1 PUSH0 DUP2 SUB PUSH2 0x382 JUMPI PUSH1 0x40 MLOAD PUSH32 0xCB1D3F7D00000000000000000000000000000000000000000000000000000000 DUP2 MSTORE PUSH1 0x4 ADD PUSH1 0x40 MLOAD DUP1 SWAP2 SUB SWAP1 REVERT JUMPDEST PUSH2 0x38A PUSH2 0xDD6 JUMP JUMPDEST PUSH0 PUSH2 0x394 DUP5 PUSH2 0xE1A JUMP JUMPDEST SWAP1 POP PUSH8 0xDE0B6B3A7640000 DUP2 LT PUSH2 0x3D7 JUMPI PUSH1 0x40 MLOAD PUSH32 0x4DC824BA00000000000000000000000000000000000000000000000000000000 DUP2 MSTORE PUSH1 0x4 ADD PUSH1 0x40 MLOAD DUP1 SWAP2 SUB SWAP1 REVERT JUMPDEST PUSH0 PUSH2 0x3E2 DUP7 DUP6 PUSH2 0x8F3 JUMP JUMPDEST SWAP1 POP PUSH0 PUSH1 0x64 PUSH1 0xA DUP4 PUSH2 0x3F4 SWAP2 SWAP1 PUSH2 0x153B JUMP JUMPDEST PUSH2 0x3FE SWAP2 SWAP1 PUSH2 0x15A9 JUMP JUMPDEST SWAP1 POP PUSH0 DUP2 DUP4 PUSH2 0x40D SWAP2 SWAP1 PUSH2 0x15D9 JUMP JUMPDEST SWAP1 POP PUSH2 0x41B DUP9 DUP3 DUP10 CALLER PUSH2 0xE6F JUMP JUMPDEST PUSH2 0x426 DUP7 DUP9 CALLER PUSH2 0x1040 JUMP JUMPDEST PUSH0 PUSH2 0x430 DUP9 PUSH2 0xE1A JUMP JUMPDEST SWAP1 POP DUP5 DUP2 GT PUSH2 0x46B JUMPI PUSH1 0x40 MLOAD PUSH32 0x7C28362000000000000000000000000000000000000000000000000000000000 DUP2 MSTORE PUSH1 0x4 ADD PUSH1 0x40 MLOAD DUP1 SWAP2 SUB SWAP1 REVERT JUMPDEST PUSH2 0x474 CALLER PUSH2 0x11F6 JUMP JUMPDEST POP POP POP POP POP PUSH2 0x481 PUSH2 0x1252 JUMP JUMPDEST POP POP POP POP JUMP JUMPDEST PUSH1 0xA DUP2 JUMP JUMPDEST PUSH32 0x0 DUP2 JUMP JUMPDEST PUSH5 0x2540BE400 DUP2 JUMP JUMPDEST PUSH0 PUSH0 PUSH0 SWAP1 POP JUMPDEST PUSH1 0x4 DUP1 SLOAD SWAP1 POP DUP2 GT ISZERO PUSH2 0x5B3 JUMPI PUSH0 PUSH1 0x4 DUP3 DUP2 SLOAD DUP2 LT PUSH2 0x4E1 JUMPI PUSH2 0x4E0 PUSH2 0x160C JUMP JUMPDEST JUMPDEST SWAP1 PUSH0 MSTORE PUSH1 0x20 PUSH0 KECCAK256 ADD PUSH0 SWAP1 SLOAD SWAP1 PUSH2 0x100 EXP SWAP1 DIV PUSH20 0xFFFFFFFFFFFFFFFFFFFFFFFFFFFFFFFFFFFFFFFF AND SWAP1 POP PUSH0 PUSH1 0x2 PUSH0 DUP7 PUSH20 0xFFFFFFFFFFFFFFFFFFFFFFFFFFFFFFFFFFFFFFFF AND PUSH20 0xFFFFFFFFFFFFFFFFFFFFFFFFFFFFFFFFFFFFFFFF AND DUP2 MSTORE PUSH1 0x20 ADD SWAP1 DUP2 MSTORE PUSH1 0x20 ADD PUSH0 KECCAK256 PUSH0 DUP4 PUSH20 0xFFFFFFFFFFFFFFFFFFFFFFFFFFFFFFFFFFFFFFFF AND PUSH20 0xFFFFFFFFFFFFFFFFFFFFFFFFFFFFFFFFFFFFFFFF AND DUP2 MSTORE PUSH1 0x20 ADD SWAP1 DUP2 MSTORE PUSH1 0x20 ADD PUSH0 KECCAK256 SLOAD SWAP1 POP PUSH2 0x591 DUP3 DUP3 PUSH2 0xC0A JUMP JUMPDEST DUP5 PUSH2 0x59C SWAP2 SWAP1 PUSH2 0x15D9 JUMP JUMPDEST SWAP4 POP POP POP DUP1 DUP1 PUSH2 0x5AB SWAP1 PUSH2 0x1639 JUMP JUMPDEST SWAP2 POP POP PUSH2 0x4BF JUMP JUMPDEST POP SWAP2 SWAP1 POP JUMP JUMPDEST PUSH1 0x32 DUP2 JUMP JUMPDEST PUSH2 0x5C6 PUSH2 0xDD6 JUMP JUMPDEST DUP1 PUSH0 DUP2 SUB PUSH2 0x600 JUMPI PUSH1 0x40 MLOAD PUSH32 0xCB1D3F7D00000000000000000000000000000000000000000000000000000000 DUP2 MSTORE PUSH1 0x4 ADD PUSH1 0x40 MLOAD DUP1 SWAP2 SUB SWAP1 REVERT JUMPDEST PUSH2 0x60C DUP4 DUP4 CALLER CALLER PUSH2 0xE6F JUMP JUMPDEST PUSH2 0x615 CALLER PUSH2 0x11F6 JUMP JUMPDEST POP PUSH2 0x61E PUSH2 0x1252 JUMP JUMPDEST POP POP JUMP JUMPDEST PUSH1 0x64 DUP2 JUMP JUMPDEST DUP1 PUSH0 DUP2 SUB PUSH2 0x661 JUMPI PUSH1 0x40 MLOAD PUSH32 0xCB1D3F7D00000000000000000000000000000000000000000000000000000000 DUP2 MSTORE PUSH1 0x4 ADD PUSH1 0x40 MLOAD DUP1 SWAP2 SUB SWAP1 REVERT JUMPDEST DUP3 PUSH0 PUSH20 0xFFFFFFFFFFFFFFFFFFFFFFFFFFFFFFFFFFFFFFFF AND PUSH1 0x1 PUSH0 DUP4 PUSH20 0xFFFFFFFFFFFFFFFFFFFFFFFFFFFFFFFFFFFFFFFF AND PUSH20 0xFFFFFFFFFFFFFFFFFFFFFFFFFFFFFFFFFFFFFFFF AND DUP2 MSTORE PUSH1 0x20 ADD SWAP1 DUP2 MSTORE PUSH1 0x20 ADD PUSH0 KECCAK256 PUSH0 SWAP1 SLOAD SWAP1 PUSH2 0x100 EXP SWAP1 DIV PUSH20 0xFFFFFFFFFFFFFFFFFFFFFFFFFFFFFFFFFFFFFFFF AND PUSH20 0xFFFFFFFFFFFFFFFFFFFFFFFFFFFFFFFFFFFFFFFF AND SUB PUSH2 0x723 JUMPI PUSH1 0x40 MLOAD PUSH32 0xA802CFBE00000000000000000000000000000000000000000000000000000000 DUP2 MSTORE PUSH1 0x4 ADD PUSH1 0x40 MLOAD DUP1 SWAP2 SUB SWAP1 REVERT JUMPDEST PUSH2 0x72B PUSH2 0xDD6 JUMP JUMPDEST DUP3 PUSH1 0x2 PUSH0 CALLER PUSH20 0xFFFFFFFFFFFFFFFFFFFFFFFFFFFFFFFFFFFFFFFF AND PUSH20 0xFFFFFFFFFFFFFFFFFFFFFFFFFFFFFFFFFFFFFFFF AND DUP2 MSTORE PUSH1 0x20 ADD SWAP1 DUP2 MSTORE PUSH1 0x20 ADD PUSH0 KECCAK256 PUSH0 DUP7 PUSH20 0xFFFFFFFFFFFFFFFFFFFFFFFFFFFFFFFFFFFFFFFF AND PUSH20 0xFFFFFFFFFFFFFFFFFFFFFFFFFFFFFFFFFFFFFFFF AND DUP2 MSTORE PUSH1 0x20 ADD SWAP1 DUP2 MSTORE PUSH1 0x20 ADD PUSH0 KECCAK256 PUSH0 DUP3 DUP3 SLOAD PUSH2 0x7B2 SWAP2 SWAP1 PUSH2 0x15D9 JUMP JUMPDEST SWAP3 POP POP DUP2 SWAP1 SSTORE POP PUSH0 DUP5 PUSH20 0xFFFFFFFFFFFFFFFFFFFFFFFFFFFFFFFFFFFFFFFF AND PUSH4 0x23B872DD CALLER ADDRESS DUP8 PUSH1 0x40 MLOAD DUP5 PUSH4 0xFFFFFFFF AND PUSH1 0xE0 SHL DUP2 MSTORE PUSH1 0x4 ADD PUSH2 0x7F7 SWAP4 SWAP3 SWAP2 SWAP1 PUSH2 0x168F JUMP JUMPDEST PUSH1 0x20 PUSH1 0x40 MLOAD DUP1 DUP4 SUB DUP2 PUSH0 DUP8 GAS CALL ISZERO DUP1 ISZERO PUSH2 0x813 JUMPI RETURNDATASIZE PUSH0 PUSH0 RETURNDATACOPY RETURNDATASIZE PUSH0 REVERT JUMPDEST POP POP POP POP PUSH1 0x40 MLOAD RETURNDATASIZE PUSH1 0x1F NOT PUSH1 0x1F DUP3 ADD AND DUP3 ADD DUP1 PUSH1 0x40 MSTORE POP DUP2 ADD SWAP1 PUSH2 0x837 SWAP2 SWAP1 PUSH2 0x16F9 JUMP JUMPDEST SWAP1 POP DUP1 PUSH2 0x87B JUMPI DUP5 PUSH1 0x40 MLOAD PUSH32 0xBC3FE12700000000000000000000000000000000000000000000000000000000 DUP2 MSTORE PUSH1 0x4 ADD PUSH2 0x872 SWAP2 SWAP1 PUSH2 0x1724 JUMP JUMPDEST PUSH1 0x40 MLOAD DUP1 SWAP2 SUB SWAP1 REVERT JUMPDEST DUP4 DUP6 PUSH20 0xFFFFFFFFFFFFFFFFFFFFFFFFFFFFFFFFFFFFFFFF AND CALLER PUSH20 0xFFFFFFFFFFFFFFFFFFFFFFFFFFFFFFFFFFFFFFFF AND PUSH32 0xF1C0DD7E9B98BBFF859029005EF89B127AF049CD18DF1A8D79F0B7E019911E56 PUSH1 0x40 MLOAD PUSH1 0x40 MLOAD DUP1 SWAP2 SUB SWAP1 LOG4 POP PUSH2 0x8DF PUSH2 0x1252 JUMP JUMPDEST POP POP POP POP JUMP JUMPDEST JUMP JUMPDEST PUSH8 0xDE0B6B3A7640000 DUP2 JUMP JUMPDEST PUSH0 PUSH0 PUSH1 0x1 PUSH0 DUP6 PUSH20 0xFFFFFFFFFFFFFFFFFFFFFFFFFFFFFFFFFFFFFFFF AND PUSH20 0xFFFFFFFFFFFFFFFFFFFFFFFFFFFFFFFFFFFFFFFF AND DUP2 MSTORE PUSH1 0x20 ADD SWAP1 DUP2 MSTORE PUSH1 0x20 ADD PUSH0 KECCAK256 PUSH0 SWAP1 SLOAD SWAP1 PUSH2 0x100 EXP SWAP1 DIV PUSH20 0xFFFFFFFFFFFFFFFFFFFFFFFFFFFFFFFFFFFFFFFF AND PUSH20 0xFFFFFFFFFFFFFFFFFFFFFFFFFFFFFFFFFFFFFFFF AND PUSH4 0xFEAF968C PUSH1 0x40 MLOAD DUP2 PUSH4 0xFFFFFFFF AND PUSH1 0xE0 SHL DUP2 MSTORE PUSH1 0x4 ADD PUSH1 0xA0 PUSH1 0x40 MLOAD DUP1 DUP4 SUB DUP2 DUP7 GAS STATICCALL ISZERO DUP1 ISZERO PUSH2 0x99A JUMPI RETURNDATASIZE PUSH0 PUSH0 RETURNDATACOPY RETURNDATASIZE PUSH0 REVERT JUMPDEST POP POP POP POP PUSH1 0x40 MLOAD RETURNDATASIZE PUSH1 0x1F NOT PUSH1 0x1F DUP3 ADD AND DUP3 ADD DUP1 PUSH1 0x40 MSTORE POP DUP2 ADD SWAP1 PUSH2 0x9BE SWAP2 SWAP1 PUSH2 0x17C3 JUMP JUMPDEST POP POP POP SWAP2 POP POP PUSH5 0x2540BE400 DUP2 PUSH2 0x9D5 SWAP2 SWAP1 PUSH2 0x153B JUMP JUMPDEST PUSH8 0xDE0B6B3A7640000 DUP5 PUSH2 0x9E9 SWAP2 SWAP1 PUSH2 0x153B JUMP JUMPDEST PUSH2 0x9F3 SWAP2 SWAP1 PUSH2 0x15A9 JUMP JUMPDEST SWAP2 POP POP SWAP3 SWAP2 POP POP JUMP JUMPDEST PUSH8 0xDE0B6B3A7640000 DUP2 JUMP JUMPDEST DUP1 PUSH0 DUP2 SUB PUSH2 0xA42 JUMPI PUSH1 0x40 MLOAD PUSH32 0xCB1D3F7D00000000000000000000000000000000000000000000000000000000 DUP2 MSTORE PUSH1 0x4 ADD PUSH1 0x40 MLOAD DUP1 SWAP2 SUB SWAP1 REVERT JUMPDEST PUSH2 0xA4A PUSH2 0xDD6 JUMP JUMPDEST DUP2 PUSH1 0x3 PUSH0 CALLER PUSH20 0xFFFFFFFFFFFFFFFFFFFFFFFFFFFFFFFFFFFFFFFF AND PUSH20 0xFFFFFFFFFFFFFFFFFFFFFFFFFFFFFFFFFFFFFFFF AND DUP2 MSTORE PUSH1 0x20 ADD SWAP1 DUP2 MSTORE PUSH1 0x20 ADD PUSH0 KECCAK256 PUSH0 DUP3 DUP3 SLOAD PUSH2 0xA96 SWAP2 SWAP1 PUSH2 0x15D9 JUMP JUMPDEST SWAP3 POP POP DUP2 SWAP1 SSTORE POP PUSH2 0xAA6 CALLER PUSH2 0x11F6 JUMP JUMPDEST PUSH0 PUSH32 0x0 PUSH20 0xFFFFFFFFFFFFFFFFFFFFFFFFFFFFFFFFFFFFFFFF AND PUSH4 0x40C10F19 CALLER DUP6 PUSH1 0x40 MLOAD DUP4 PUSH4 0xFFFFFFFF AND PUSH1 0xE0 SHL DUP2 MSTORE PUSH1 0x4 ADD PUSH2 0xB02 SWAP3 SWAP2 SWAP1 PUSH2 0x183A JUMP JUMPDEST PUSH1 0x20 PUSH1 0x40 MLOAD DUP1 DUP4 SUB DUP2 PUSH0 DUP8 GAS CALL ISZERO DUP1 ISZERO PUSH2 0xB1E JUMPI RETURNDATASIZE PUSH0 PUSH0 RETURNDATACOPY RETURNDATASIZE PUSH0 REVERT JUMPDEST POP POP POP POP PUSH1 0x40 MLOAD RETURNDATASIZE PUSH1 0x1F NOT PUSH1 0x1F DUP3 ADD AND DUP3 ADD DUP1 PUSH1 0x40 MSTORE POP DUP2 ADD SWAP1 PUSH2 0xB42 SWAP2 SWAP1 PUSH2 0x16F9 JUMP JUMPDEST SWAP1 POP DUP1 PUSH2 0xB7B JUMPI PUSH1 0x40 MLOAD PUSH32 0x6F4E810B00000000000000000000000000000000000000000000000000000000 DUP2 MSTORE PUSH1 0x4 ADD PUSH1 0x40 MLOAD DUP1 SWAP2 SUB SWAP1 REVERT JUMPDEST POP PUSH2 0xB84 PUSH2 0x1252 JUMP JUMPDEST POP POP JUMP JUMPDEST PUSH2 0xB92 DUP4 DUP4 PUSH2 0x627 JUMP JUMPDEST PUSH2 0xB9B DUP2 PUSH2 0xA08 JUMP JUMPDEST POP POP POP JUMP JUMPDEST PUSH2 0xBA9 DUP2 PUSH2 0xBB8 JUMP JUMPDEST PUSH2 0xBB3 DUP4 DUP4 PUSH2 0x5BE JUMP JUMPDEST POP POP POP JUMP JUMPDEST DUP1 PUSH0 DUP2 SUB PUSH2 0xBF2 JUMPI PUSH1 0x40 MLOAD PUSH32 0xCB1D3F7D00000000000000000000000000000000000000000000000000000000 DUP2 MSTORE PUSH1 0x4 ADD PUSH1 0x40 MLOAD DUP1 SWAP2 SUB SWAP1 REVERT JUMPDEST PUSH2 0xBFD DUP3 CALLER CALLER PUSH2 0x1040 JUMP JUMPDEST PUSH2 0xC06 CALLER PUSH2 0x11F6 JUMP JUMPDEST POP POP JUMP JUMPDEST PUSH0 DUP3 PUSH0 PUSH20 0xFFFFFFFFFFFFFFFFFFFFFFFFFFFFFFFFFFFFFFFF AND PUSH1 0x1 PUSH0 DUP4 PUSH20 0xFFFFFFFFFFFFFFFFFFFFFFFFFFFFFFFFFFFFFFFF AND PUSH20 0xFFFFFFFFFFFFFFFFFFFFFFFFFFFFFFFFFFFFFFFF AND DUP2 MSTORE PUSH1 0x20 ADD SWAP1 DUP2 MSTORE PUSH1 0x20 ADD PUSH0 KECCAK256 PUSH0 SWAP1 SLOAD SWAP1 PUSH2 0x100 EXP SWAP1 DIV PUSH20 0xFFFFFFFFFFFFFFFFFFFFFFFFFFFFFFFFFFFFFFFF AND PUSH20 0xFFFFFFFFFFFFFFFFFFFFFFFFFFFFFFFFFFFFFFFF AND SUB PUSH2 0xCCD JUMPI PUSH1 0x40 MLOAD PUSH32 0xA802CFBE00000000000000000000000000000000000000000000000000000000 DUP2 MSTORE PUSH1 0x4 ADD PUSH1 0x40 MLOAD DUP1 SWAP2 SUB SWAP1 REVERT JUMPDEST PUSH0 PUSH1 0x1 PUSH0 DUP7 PUSH20 0xFFFFFFFFFFFFFFFFFFFFFFFFFFFFFFFFFFFFFFFF AND PUSH20 0xFFFFFFFFFFFFFFFFFFFFFFFFFFFFFFFFFFFFFFFF AND DUP2 MSTORE PUSH1 0x20 ADD SWAP1 DUP2 MSTORE PUSH1 0x20 ADD PUSH0 KECCAK256 PUSH0 SWAP1 SLOAD SWAP1 PUSH2 0x100 EXP SWAP1 DIV PUSH20 0xFFFFFFFFFFFFFFFFFFFFFFFFFFFFFFFFFFFFFFFF AND PUSH20 0xFFFFFFFFFFFFFFFFFFFFFFFFFFFFFFFFFFFFFFFF AND PUSH4 0xFEAF968C PUSH1 0x40 MLOAD DUP2 PUSH4 0xFFFFFFFF AND PUSH1 0xE0 SHL DUP2 MSTORE PUSH1 0x4 ADD PUSH1 0xA0 PUSH1 0x40 MLOAD DUP1 DUP4 SUB DUP2 DUP7 GAS STATICCALL ISZERO DUP1 ISZERO PUSH2 0xD73 JUMPI RETURNDATASIZE PUSH0 PUSH0 RETURNDATACOPY RETURNDATASIZE PUSH0 REVERT JUMPDEST POP POP POP POP PUSH1 0x40 MLOAD RETURNDATASIZE PUSH1 0x1F NOT PUSH1 0x1F DUP3 ADD AND DUP3 ADD DUP1 PUSH1 0x40 MSTORE POP DUP2 ADD SWAP1 PUSH2 0xD97 SWAP2 SWAP1 PUSH2 0x17C3 JUMP JUMPDEST POP POP POP SWAP2 POP POP PUSH8 0xDE0B6B3A7640000 DUP5 PUSH5 0x2540BE400 DUP4 PUSH2 0xDB8 SWAP2 SWAP1 PUSH2 0x153B JUMP JUMPDEST PUSH2 0xDC2 SWAP2 SWAP1 PUSH2 0x153B JUMP JUMPDEST PUSH2 0xDCC SWAP2 SWAP1 PUSH2 0x15A9 JUMP JUMPDEST SWAP3 POP POP POP SWAP3 SWAP2 POP POP JUMP JUMPDEST PUSH1 0x2 PUSH0 SLOAD SUB PUSH2 0xE11 JUMPI PUSH1 0x40 MLOAD PUSH32 0x3EE5AEB500000000000000000000000000000000000000000000000000000000 DUP2 MSTORE PUSH1 0x4 ADD PUSH1 0x40 MLOAD DUP1 SWAP2 SUB SWAP1 REVERT JUMPDEST PUSH1 0x2 PUSH0 DUP2 SWAP1 SSTORE POP JUMP JUMPDEST PUSH0 PUSH0 PUSH0 PUSH2 0xE26 DUP5 PUSH2 0x125B JUMP JUMPDEST SWAP2 POP SWAP2 POP PUSH0 PUSH1 0x64 PUSH1 0x32 DUP4 PUSH2 0xE3A SWAP2 SWAP1 PUSH2 0x153B JUMP JUMPDEST PUSH2 0xE44 SWAP2 SWAP1 PUSH2 0x15A9 JUMP JUMPDEST SWAP1 POP DUP3 PUSH8 0xDE0B6B3A7640000 DUP3 PUSH2 0xE5B SWAP2 SWAP1 PUSH2 0x153B JUMP JUMPDEST PUSH2 0xE65 SWAP2 SWAP1 PUSH2 0x15A9 JUMP JUMPDEST SWAP4 POP POP POP POP SWAP2 SWAP1 POP JUMP JUMPDEST DUP3 PUSH1 0x2 PUSH0 DUP5 PUSH20 0xFFFFFFFFFFFFFFFFFFFFFFFFFFFFFFFFFFFFFFFF AND PUSH20 0xFFFFFFFFFFFFFFFFFFFFFFFFFFFFFFFFFFFFFFFF AND DUP2 MSTORE PUSH1 0x20 ADD SWAP1 DUP2 MSTORE PUSH1 0x20 ADD PUSH0 KECCAK256 PUSH0 DUP7 PUSH20 0xFFFFFFFFFFFFFFFFFFFFFFFFFFFFFFFFFFFFFFFF AND PUSH20 0xFFFFFFFFFFFFFFFFFFFFFFFFFFFFFFFFFFFFFFFF AND DUP2 MSTORE PUSH1 0x20 ADD SWAP1 DUP2 MSTORE PUSH1 0x20 ADD PUSH0 KECCAK256 PUSH0 DUP3 DUP3 SLOAD PUSH2 0xEF6 SWAP2 SWAP1 PUSH2 0x1861 JUMP JUMPDEST SWAP3 POP POP DUP2 SWAP1 SSTORE POP DUP4 PUSH20 0xFFFFFFFFFFFFFFFFFFFFFFFFFFFFFFFFFFFFFFFF AND DUP2 PUSH20 0xFFFFFFFFFFFFFFFFFFFFFFFFFFFFFFFFFFFFFFFF AND DUP4 PUSH20 0xFFFFFFFFFFFFFFFFFFFFFFFFFFFFFFFFFFFFFFFF AND PUSH32 0xB292DB12B8DFA23B760EE5E3BD1D3BE184CD8F0EEEACD27CE120D4DE4E4721F6 DUP7 PUSH1 0x40 MLOAD PUSH2 0xF71 SWAP2 SWAP1 PUSH2 0x139D JUMP JUMPDEST PUSH1 0x40 MLOAD DUP1 SWAP2 SUB SWAP1 LOG4 PUSH0 DUP5 PUSH20 0xFFFFFFFFFFFFFFFFFFFFFFFFFFFFFFFFFFFFFFFF AND PUSH4 0xA9059CBB DUP4 DUP7 PUSH1 0x40 MLOAD DUP4 PUSH4 0xFFFFFFFF AND PUSH1 0xE0 SHL DUP2 MSTORE PUSH1 0x4 ADD PUSH2 0xFB5 SWAP3 SWAP2 SWAP1 PUSH2 0x183A JUMP JUMPDEST PUSH1 0x20 PUSH1 0x40 MLOAD DUP1 DUP4 SUB DUP2 PUSH0 DUP8 GAS CALL ISZERO DUP1 ISZERO PUSH2 0xFD1 JUMPI RETURNDATASIZE PUSH0 PUSH0 RETURNDATACOPY RETURNDATASIZE PUSH0 REVERT JUMPDEST POP POP POP POP PUSH1 0x40 MLOAD RETURNDATASIZE PUSH1 0x1F NOT PUSH1 0x1F DUP3 ADD AND DUP3 ADD DUP1 PUSH1 0x40 MSTORE POP DUP2 ADD SWAP1 PUSH2 0xFF5 SWAP2 SWAP1 PUSH2 0x16F9 JUMP JUMPDEST SWAP1 POP DUP1 PUSH2 0x1039 JUMPI DUP5 PUSH1 0x40 MLOAD PUSH32 0x2851F43200000000000000000000000000000000000000000000000000000000 DUP2 MSTORE PUSH1 0x4 ADD PUSH2 0x1030 SWAP2 SWAP1 PUSH2 0x1724 JUMP JUMPDEST PUSH1 0x40 MLOAD DUP1 SWAP2 SUB SWAP1 REVERT JUMPDEST POP POP POP POP POP JUMP JUMPDEST DUP3 PUSH1 0x3 PUSH0 DUP5 PUSH20 0xFFFFFFFFFFFFFFFFFFFFFFFFFFFFFFFFFFFFFFFF AND PUSH20 0xFFFFFFFFFFFFFFFFFFFFFFFFFFFFFFFFFFFFFFFF AND DUP2 MSTORE PUSH1 0x20 ADD SWAP1 DUP2 MSTORE PUSH1 0x20 ADD PUSH0 KECCAK256 PUSH0 DUP3 DUP3 SLOAD PUSH2 0x108C SWAP2 SWAP1 PUSH2 0x1861 JUMP JUMPDEST SWAP3 POP POP DUP2 SWAP1 SSTORE POP PUSH0 PUSH32 0x0 PUSH20 0xFFFFFFFFFFFFFFFFFFFFFFFFFFFFFFFFFFFFFFFF AND PUSH4 0x23B872DD DUP4 ADDRESS DUP8 PUSH1 0x40 MLOAD DUP5 PUSH4 0xFFFFFFFF AND PUSH1 0xE0 SHL DUP2 MSTORE PUSH1 0x4 ADD PUSH2 0x10F1 SWAP4 SWAP3 SWAP2 SWAP1 PUSH2 0x168F JUMP JUMPDEST PUSH1 0x20 PUSH1 0x40 MLOAD DUP1 DUP4 SUB DUP2 PUSH0 DUP8 GAS CALL ISZERO DUP1 ISZERO PUSH2 0x110D JUMPI RETURNDATASIZE PUSH0 PUSH0 RETURNDATACOPY RETURNDATASIZE PUSH0 REVERT JUMPDEST POP POP POP POP PUSH1 0x40 MLOAD RETURNDATASIZE PUSH1 0x1F NOT PUSH1 0x1F DUP3 ADD AND DUP3 ADD DUP1 PUSH1 0x40 MSTORE POP DUP2 ADD SWAP1 PUSH2 0x1131 SWAP2 SWAP1 PUSH2 0x16F9 JUMP JUMPDEST SWAP1 POP DUP1 PUSH2 0x116A JUMPI PUSH1 0x40 MLOAD PUSH32 0x3A29AC6D00000000000000000000000000000000000000000000000000000000 DUP2 MSTORE PUSH1 0x4 ADD PUSH1 0x40 MLOAD DUP1 SWAP2 SUB SWAP1 REVERT JUMPDEST PUSH32 0x0 PUSH20 0xFFFFFFFFFFFFFFFFFFFFFFFFFFFFFFFFFFFFFFFF AND PUSH4 0x42966C68 DUP6 PUSH1 0x40 MLOAD DUP3 PUSH4 0xFFFFFFFF AND PUSH1 0xE0 SHL DUP2 MSTORE PUSH1 0x4 ADD PUSH2 0x11C3 SWAP2 SWAP1 PUSH2 0x139D JUMP JUMPDEST PUSH0 PUSH1 0x40 MLOAD DUP1 DUP4 SUB DUP2 PUSH0 DUP8 DUP1 EXTCODESIZE ISZERO DUP1 ISZERO PUSH2 0x11DA JUMPI PUSH0 PUSH0 REVERT JUMPDEST POP GAS CALL ISZERO DUP1 ISZERO PUSH2 0x11EC JUMPI RETURNDATASIZE PUSH0 PUSH0 RETURNDATACOPY RETURNDATASIZE PUSH0 REVERT JUMPDEST POP POP POP POP POP POP POP POP JUMP JUMPDEST PUSH0 PUSH2 0x1200 DUP3 PUSH2 0xE1A JUMP JUMPDEST SWAP1 POP PUSH8 0xDE0B6B3A7640000 DUP2 GT PUSH2 0x124E JUMPI DUP1 PUSH1 0x40 MLOAD PUSH32 0xE580CC6100000000000000000000000000000000000000000000000000000000 DUP2 MSTORE PUSH1 0x4 ADD PUSH2 0x1245 SWAP2 SWAP1 PUSH2 0x139D JUMP JUMPDEST PUSH1 0x40 MLOAD DUP1 SWAP2 SUB SWAP1 REVERT JUMPDEST POP POP JUMP JUMPDEST PUSH1 0x1 PUSH0 DUP2 SWAP1 SSTORE POP JUMP JUMPDEST PUSH0 PUSH0 PUSH1 0x3 PUSH0 DUP5 PUSH20 0xFFFFFFFFFFFFFFFFFFFFFFFFFFFFFFFFFFFFFFFF AND PUSH20 0xFFFFFFFFFFFFFFFFFFFFFFFFFFFFFFFFFFFFFFFF AND DUP2 MSTORE PUSH1 0x20 ADD SWAP1 DUP2 MSTORE PUSH1 0x20 ADD PUSH0 KECCAK256 SLOAD SWAP2 POP PUSH2 0x12A6 DUP4 PUSH2 0x4B9 JUMP JUMPDEST SWAP1 POP SWAP2 POP SWAP2 JUMP JUMPDEST PUSH0 PUSH0 REVERT JUMPDEST PUSH0 PUSH20 0xFFFFFFFFFFFFFFFFFFFFFFFFFFFFFFFFFFFFFFFF DUP3 AND SWAP1 POP SWAP2 SWAP1 POP JUMP JUMPDEST PUSH0 PUSH2 0x12DA DUP3 PUSH2 0x12B1 JUMP JUMPDEST SWAP1 POP SWAP2 SWAP1 POP JUMP JUMPDEST PUSH2 0x12EA DUP2 PUSH2 0x12D0 JUMP JUMPDEST DUP2 EQ PUSH2 0x12F4 JUMPI PUSH0 PUSH0 REVERT JUMPDEST POP JUMP JUMPDEST PUSH0 DUP2 CALLDATALOAD SWAP1 POP PUSH2 0x1305 DUP2 PUSH2 0x12E1 JUMP JUMPDEST SWAP3 SWAP2 POP POP JUMP JUMPDEST PUSH0 DUP2 SWAP1 POP SWAP2 SWAP1 POP JUMP JUMPDEST PUSH2 0x131D DUP2 PUSH2 0x130B JUMP JUMPDEST DUP2 EQ PUSH2 0x1327 JUMPI PUSH0 PUSH0 REVERT JUMPDEST POP JUMP JUMPDEST PUSH0 DUP2 CALLDATALOAD SWAP1 POP PUSH2 0x1338 DUP2 PUSH2 0x1314 JUMP JUMPDEST SWAP3 SWAP2 POP POP JUMP JUMPDEST PUSH0 PUSH0 PUSH0 PUSH1 0x60 DUP5 DUP7 SUB SLT ISZERO PUSH2 0x1355 JUMPI PUSH2 0x1354 PUSH2 0x12AD JUMP JUMPDEST JUMPDEST PUSH0 PUSH2 0x1362 DUP7 DUP3 DUP8 ADD PUSH2 0x12F7 JUMP JUMPDEST SWAP4 POP POP PUSH1 0x20 PUSH2 0x1373 DUP7 DUP3 DUP8 ADD PUSH2 0x12F7 JUMP JUMPDEST SWAP3 POP POP PUSH1 0x40 PUSH2 0x1384 DUP7 DUP3 DUP8 ADD PUSH2 0x132A JUMP JUMPDEST SWAP2 POP POP SWAP3 POP SWAP3 POP SWAP3 JUMP JUMPDEST PUSH2 0x1397 DUP2 PUSH2 0x130B JUMP JUMPDEST DUP3 MSTORE POP POP JUMP JUMPDEST PUSH0 PUSH1 0x20 DUP3 ADD SWAP1 POP PUSH2 0x13B0 PUSH0 DUP4 ADD DUP5 PUSH2 0x138E JUMP JUMPDEST SWAP3 SWAP2 POP POP JUMP JUMPDEST PUSH0 DUP2 SWAP1 POP SWAP2 SWAP1 POP JUMP JUMPDEST PUSH0 PUSH2 0x13D9 PUSH2 0x13D4 PUSH2 0x13CF DUP5 PUSH2 0x12B1 JUMP JUMPDEST PUSH2 0x13B6 JUMP JUMPDEST PUSH2 0x12B1 JUMP JUMPDEST SWAP1 POP SWAP2 SWAP1 POP JUMP JUMPDEST PUSH0 PUSH2 0x13EA DUP3 PUSH2 0x13BF JUMP JUMPDEST SWAP1 POP SWAP2 SWAP1 POP JUMP JUMPDEST PUSH0 PUSH2 0x13FB DUP3 PUSH2 0x13E0 JUMP JUMPDEST SWAP1 POP SWAP2 SWAP1 POP JUMP JUMPDEST PUSH2 0x140B DUP2 PUSH2 0x13F1 JUMP JUMPDEST DUP3 MSTORE POP POP JUMP JUMPDEST PUSH0 PUSH1 0x20 DUP3 ADD SWAP1 POP PUSH2 0x1424 PUSH0 DUP4 ADD DUP5 PUSH2 0x1402 JUMP JUMPDEST SWAP3 SWAP2 POP POP JUMP JUMPDEST PUSH0 PUSH1 0x20 DUP3 DUP5 SUB SLT ISZERO PUSH2 0x143F JUMPI PUSH2 0x143E PUSH2 0x12AD JUMP JUMPDEST JUMPDEST PUSH0 PUSH2 0x144C DUP5 DUP3 DUP6 ADD PUSH2 0x12F7 JUMP JUMPDEST SWAP2 POP POP SWAP3 SWAP2 POP POP JUMP JUMPDEST PUSH0 PUSH0 PUSH1 0x40 DUP4 DUP6 SUB SLT ISZERO PUSH2 0x146B JUMPI PUSH2 0x146A PUSH2 0x12AD JUMP JUMPDEST JUMPDEST PUSH0 PUSH2 0x1478 DUP6 DUP3 DUP7 ADD PUSH2 0x12F7 JUMP JUMPDEST SWAP3 POP POP PUSH1 0x20 PUSH2 0x1489 DUP6 DUP3 DUP7 ADD PUSH2 0x132A JUMP JUMPDEST SWAP2 POP POP SWAP3 POP SWAP3 SWAP1 POP JUMP JUMPDEST PUSH0 PUSH1 0x20 DUP3 DUP5 SUB SLT ISZERO PUSH2 0x14A8 JUMPI PUSH2 0x14A7 PUSH2 0x12AD JUMP JUMPDEST JUMPDEST PUSH0 PUSH2 0x14B5 DUP5 DUP3 DUP6 ADD PUSH2 0x132A JUMP JUMPDEST SWAP2 POP POP SWAP3 SWAP2 POP POP JUMP JUMPDEST PUSH0 PUSH0 PUSH0 PUSH1 0x60 DUP5 DUP7 SUB SLT ISZERO PUSH2 0x14D5 JUMPI PUSH2 0x14D4 PUSH2 0x12AD JUMP JUMPDEST JUMPDEST PUSH0 PUSH2 0x14E2 DUP7 DUP3 DUP8 ADD PUSH2 0x12F7 JUMP JUMPDEST SWAP4 POP POP PUSH1 0x20 PUSH2 0x14F3 DUP7 DUP3 DUP8 ADD PUSH2 0x132A JUMP JUMPDEST SWAP3 POP POP PUSH1 0x40 PUSH2 0x1504 DUP7 DUP3 DUP8 ADD PUSH2 0x132A JUMP JUMPDEST SWAP2 POP POP SWAP3 POP SWAP3 POP SWAP3 JUMP JUMPDEST PUSH32 0x4E487B7100000000000000000000000000000000000000000000000000000000 PUSH0 MSTORE PUSH1 0x11 PUSH1 0x4 MSTORE PUSH1 0x24 PUSH0 REVERT JUMPDEST PUSH0 PUSH2 0x1545 DUP3 PUSH2 0x130B JUMP JUMPDEST SWAP2 POP PUSH2 0x1550 DUP4 PUSH2 0x130B JUMP JUMPDEST SWAP3 POP DUP3 DUP3 MUL PUSH2 0x155E DUP2 PUSH2 0x130B JUMP JUMPDEST SWAP2 POP DUP3 DUP3 DIV DUP5 EQ DUP4 ISZERO OR PUSH2 0x1575 JUMPI PUSH2 0x1574 PUSH2 0x150E JUMP JUMPDEST JUMPDEST POP SWAP3 SWAP2 POP POP JUMP JUMPDEST PUSH32 0x4E487B7100000000000000000000000000000000000000000000000000000000 PUSH0 MSTORE PUSH1 0x12 PUSH1 0x4 MSTORE PUSH1 0x24 PUSH0 REVERT JUMPDEST PUSH0 PUSH2 0x15B3 DUP3 PUSH2 0x130B JUMP JUMPDEST SWAP2 POP PUSH2 0x15BE DUP4 PUSH2 0x130B JUMP JUMPDEST SWAP3 POP DUP3 PUSH2 0x15CE JUMPI PUSH2 0x15CD PUSH2 0x157C JUMP JUMPDEST JUMPDEST DUP3 DUP3 DIV SWAP1 POP SWAP3 SWAP2 POP POP JUMP JUMPDEST PUSH0 PUSH2 0x15E3 DUP3 PUSH2 0x130B JUMP JUMPDEST SWAP2 POP PUSH2 0x15EE DUP4 PUSH2 0x130B JUMP JUMPDEST SWAP3 POP DUP3 DUP3 ADD SWAP1 POP DUP1 DUP3 GT ISZERO PUSH2 0x1606 JUMPI PUSH2 0x1605 PUSH2 0x150E JUMP JUMPDEST JUMPDEST SWAP3 SWAP2 POP POP JUMP JUMPDEST PUSH32 0x4E487B7100000000000000000000000000000000000000000000000000000000 PUSH0 MSTORE PUSH1 0x32 PUSH1 0x4 MSTORE PUSH1 0x24 PUSH0 REVERT JUMPDEST PUSH0 PUSH2 0x1643 DUP3 PUSH2 0x130B JUMP JUMPDEST SWAP2 POP PUSH32 0xFFFFFFFFFFFFFFFFFFFFFFFFFFFFFFFFFFFFFFFFFFFFFFFFFFFFFFFFFFFFFFFF DUP3 SUB PUSH2 0x1675 JUMPI PUSH2 0x1674 PUSH2 0x150E JUMP JUMPDEST JUMPDEST PUSH1 0x1 DUP3 ADD SWAP1 POP SWAP2 SWAP1 POP JUMP JUMPDEST PUSH2 0x1689 DUP2 PUSH2 0x12D0 JUMP JUMPDEST DUP3 MSTORE POP POP JUMP JUMPDEST PUSH0 PUSH1 0x60 DUP3 ADD SWAP1 POP PUSH2 0x16A2 PUSH0 DUP4 ADD DUP7 PUSH2 0x1680 JUMP JUMPDEST PUSH2 0x16AF PUSH1 0x20 DUP4 ADD DUP6 PUSH2 0x1680 JUMP JUMPDEST PUSH2 0x16BC PUSH1 0x40 DUP4 ADD DUP5 PUSH2 0x138E JUMP JUMPDEST SWAP5 SWAP4 POP POP POP POP JUMP JUMPDEST PUSH0 DUP2 ISZERO ISZERO SWAP1 POP SWAP2 SWAP1 POP JUMP JUMPDEST PUSH2 0x16D8 DUP2 PUSH2 0x16C4 JUMP JUMPDEST DUP2 EQ PUSH2 0x16E2 JUMPI PUSH0 PUSH0 REVERT JUMPDEST POP JUMP JUMPDEST PUSH0 DUP2 MLOAD SWAP1 POP PUSH2 0x16F3 DUP2 PUSH2 0x16CF JUMP JUMPDEST SWAP3 SWAP2 POP POP JUMP JUMPDEST PUSH0 PUSH1 0x20 DUP3 DUP5 SUB SLT ISZERO PUSH2 0x170E JUMPI PUSH2 0x170D PUSH2 0x12AD JUMP JUMPDEST JUMPDEST PUSH0 PUSH2 0x171B DUP5 DUP3 DUP6 ADD PUSH2 0x16E5 JUMP JUMPDEST SWAP2 POP POP SWAP3 SWAP2 POP POP JUMP JUMPDEST PUSH0 PUSH1 0x20 DUP3 ADD SWAP1 POP PUSH2 0x1737 PUSH0 DUP4 ADD DUP5 PUSH2 0x1680 JUMP JUMPDEST SWAP3 SWAP2 POP POP JUMP JUMPDEST PUSH0 PUSH10 0xFFFFFFFFFFFFFFFFFFFF DUP3 AND SWAP1 POP SWAP2 SWAP1 POP JUMP JUMPDEST PUSH2 0x175B DUP2 PUSH2 0x173D JUMP JUMPDEST DUP2 EQ PUSH2 0x1765 JUMPI PUSH0 PUSH0 REVERT JUMPDEST POP JUMP JUMPDEST PUSH0 DUP2 MLOAD SWAP1 POP PUSH2 0x1776 DUP2 PUSH2 0x1752 JUMP JUMPDEST SWAP3 SWAP2 POP POP JUMP JUMPDEST PUSH0 DUP2 SWAP1 POP SWAP2 SWAP1 POP JUMP JUMPDEST PUSH2 0x178E DUP2 PUSH2 0x177C JUMP JUMPDEST DUP2 EQ PUSH2 0x1798 JUMPI PUSH0 PUSH0 REVERT JUMPDEST POP JUMP JUMPDEST PUSH0 DUP2 MLOAD SWAP1 POP PUSH2 0x17A9 DUP2 PUSH2 0x1785 JUMP JUMPDEST SWAP3 SWAP2 POP POP JUMP JUMPDEST PUSH0 DUP2 MLOAD SWAP1 POP PUSH2 0x17BD DUP2 PUSH2 0x1314 JUMP JUMPDEST SWAP3 SWAP2 POP POP JUMP JUMPDEST PUSH0 PUSH0 PUSH0 PUSH0 PUSH0 PUSH1 0xA0 DUP7 DUP9 SUB SLT ISZERO PUSH2 0x17DC JUMPI PUSH2 0x17DB PUSH2 0x12AD JUMP JUMPDEST JUMPDEST PUSH0 PUSH2 0x17E9 DUP9 DUP3 DUP10 ADD PUSH2 0x1768 JUMP JUMPDEST SWAP6 POP POP PUSH1 0x20 PUSH2 0x17FA DUP9 DUP3 DUP10 ADD PUSH2 0x179B JUMP JUMPDEST SWAP5 POP POP PUSH1 0x40 PUSH2 0x180B DUP9 DUP3 DUP10 ADD PUSH2 0x17AF JUMP JUMPDEST SWAP4 POP POP PUSH1 0x60 PUSH2 0x181C DUP9 DUP3 DUP10 ADD PUSH2 0x17AF JUMP JUMPDEST SWAP3 POP POP PUSH1 0x80 PUSH2 0x182D DUP9 DUP3 DUP10 ADD PUSH2 0x1768 JUMP JUMPDEST SWAP2 POP POP SWAP3 SWAP6 POP SWAP3 SWAP6 SWAP1 SWAP4 POP JUMP JUMPDEST PUSH0 PUSH1 0x40 DUP3 ADD SWAP1 POP PUSH2 0x184D PUSH0 DUP4 ADD DUP6 PUSH2 0x1680 JUMP JUMPDEST PUSH2 0x185A PUSH1 0x20 DUP4 ADD DUP5 PUSH2 0x138E JUMP JUMPDEST SWAP4 SWAP3 POP POP POP JUMP JUMPDEST PUSH0 PUSH2 0x186B DUP3 PUSH2 0x130B JUMP JUMPDEST SWAP2 POP PUSH2 0x1876 DUP4 PUSH2 0x130B JUMP JUMPDEST SWAP3 POP DUP3 DUP3 SUB SWAP1 POP DUP2 DUP2 GT ISZERO PUSH2 0x188E JUMPI PUSH2 0x188D PUSH2 0x150E JUMP JUMPDEST JUMPDEST SWAP3 SWAP2 POP POP JUMP INVALID LOG2 PUSH5 0x6970667358 0x22 SLT KECCAK256 0xBE 0x4D 0xDA SWAP6 0xDC COINBASE SLT 0xCC 0xB2 DUP15 0xFC PUSH29 0x1063637D711AAAEFD996FB9EA84B6233E9D6FAF664736F6C634300081E STOP CALLER "
				},
				"gasEstimates": {
					"creation": {
						"codeDepositCost": "1269200",
						"executionCost": "infinite",
						"totalCost": "infinite"
					},
					"external": {
						"ADDITION_FEED_PRECISION()": "415",
						"LIQUIDATION_BONUS()": "371",
						"LIQUIDATION_PRECISION()": "414",
						"LIQUIDATION_THRESHOLD()": "370",
						"MIN_HEALT_FACTOR()": "414",
						"PRECISION()": "370",
						"burnDsc(uint256)": "infinite",
						"depositCollateral(address,uint256)": "infinite",
						"depositCollateralAndMintDsc(address,uint256,uint256)": "infinite",
						"getAccountCollateralValue(address)": "2802",
						"getHealthFactor()": "166",
						"getTokenAmountFromUsd(address,uint256)": "infinite",
						"getUSDValue(address,uint256)": "infinite",
						"i_dsc()": "infinite",
						"liquidate(address,address,uint256)": "infinite",
						"mintDsc(uint256)": "infinite",
						"redeemCollateral(address,uint256)": "infinite",
						"redeemCollateralForDsc(address,uint256,uint256)": "infinite"
					},
					"internal": {
						"_burnDsc(uint256,address,address)": "infinite",
						"_getAccountInformation(address)": "4411",
						"_healthFactor(address)": "infinite",
						"_redeemCollateral(address,uint256,address,address)": "infinite",
						"_revertIfHealthFactorIsBroken(address)": "infinite"
					}
				},
				"methodIdentifiers": {
					"ADDITION_FEED_PRECISION()": "65079d77",
					"LIQUIDATION_BONUS()": "3574d4c4",
					"LIQUIDATION_PRECISION()": "9d45ac89",
					"LIQUIDATION_THRESHOLD()": "90a8ae9b",
					"MIN_HEALT_FACTOR()": "c601676c",
					"PRECISION()": "aaf5eb68",
					"burnDsc(uint256)": "f6876608",
					"depositCollateral(address,uint256)": "a5d5db0c",
					"depositCollateralAndMintDsc(address,uint256,uint256)": "e90db8a3",
					"getAccountCollateralValue(address)": "7d1a4450",
					"getHealthFactor()": "a5f352b7",
					"getTokenAmountFromUsd(address,uint256)": "afea2e48",
					"getUSDValue(address,uint256)": "fa76dcf2",
					"i_dsc()": "5e338bb3",
					"liquidate(address,address,uint256)": "26c01303",
					"mintDsc(uint256)": "c9b7c327",
					"redeemCollateral(address,uint256)": "9acd81b3",
					"redeemCollateralForDsc(address,uint256,uint256)": "f419ea9c"
				}
			},
			"storageLayout": {
				"storage": [
					{
						"astId": 990,
						"contract": "src/DSCEngine.sol:DSCEngine",
						"label": "_status",
						"offset": 0,
						"slot": "0",
						"type": "t_uint256"
					},
					{
						"astId": 1159,
						"contract": "src/DSCEngine.sol:DSCEngine",
						"label": "s_priceFeeds",
						"offset": 0,
						"slot": "1",
						"type": "t_mapping(t_address,t_address)"
					},
					{
						"astId": 1165,
						"contract": "src/DSCEngine.sol:DSCEngine",
						"label": "s_collateralDeposited",
						"offset": 0,
						"slot": "2",
						"type": "t_mapping(t_address,t_mapping(t_address,t_uint256))"
					},
					{
						"astId": 1169,
						"contract": "src/DSCEngine.sol:DSCEngine",
						"label": "s_DscMinted",
						"offset": 0,
						"slot": "3",
						"type": "t_mapping(t_address,t_uint256)"
					},
					{
						"astId": 1172,
						"contract": "src/DSCEngine.sol:DSCEngine",
						"label": "s_collateralTokens",
						"offset": 0,
						"slot": "4",
						"type": "t_array(t_address)dyn_storage"
					}
				],
				"types": {
					"t_address": {
						"encoding": "inplace",
						"label": "address",
						"numberOfBytes": "20"
					},
					"t_array(t_address)dyn_storage": {
						"base": "t_address",
						"encoding": "dynamic_array",
						"label": "address[]",
						"numberOfBytes": "32"
					},
					"t_mapping(t_address,t_address)": {
						"encoding": "mapping",
						"key": "t_address",
						"label": "mapping(address => address)",
						"numberOfBytes": "32",
						"value": "t_address"
					},
					"t_mapping(t_address,t_mapping(t_address,t_uint256))": {
						"encoding": "mapping",
						"key": "t_address",
						"label": "mapping(address => mapping(address => uint256))",
						"numberOfBytes": "32",
						"value": "t_mapping(t_address,t_uint256)"
					},
					"t_mapping(t_address,t_uint256)": {
						"encoding": "mapping",
						"key": "t_address",
						"label": "mapping(address => uint256)",
						"numberOfBytes": "32",
						"value": "t_uint256"
					},
					"t_uint256": {
						"encoding": "inplace",
						"label": "uint256",
						"numberOfBytes": "32"
					}
				}
			},
			"userdoc": {
				"kind": "user",
				"methods": {},
				"version": 1
			}
		}
	}
}