{
	"src/DSCEngine.sol": {
		"DSCEngine": {
			"abi": [
				{
					"inputs": [
						{
							"internalType": "address",
							"name": "_dscAddress",
							"type": "address"
						},
						{
							"internalType": "address[]",
							"name": "_tokenCollateral",
							"type": "address[]"
						},
						{
							"internalType": "address[]",
							"name": "_priceFeed",
							"type": "address[]"
						}
					],
					"stateMutability": "nonpayable",
					"type": "constructor"
				},
				{
					"inputs": [
						{
							"internalType": "address",
							"name": "collateralToken",
							"type": "address"
						}
					],
					"name": "DSCEngine__CollateralDepositFailed",
					"type": "error"
				},
				{
					"inputs": [],
					"name": "DSCEngine__DscAddressCantBeZero",
					"type": "error"
				},
				{
					"inputs": [],
					"name": "DSCEngine__NeedsMoreThanZero",
					"type": "error"
				},
				{
					"inputs": [],
					"name": "DSCEngine__NotAllowedToken",
					"type": "error"
				},
				{
					"inputs": [],
					"name": "DSCEngine__TokenAddressesAndPriceFeedAddressesMustBeSameLength",
					"type": "error"
				},
				{
					"inputs": [],
					"name": "ReentrancyGuardReentrantCall",
					"type": "error"
				},
				{
					"anonymous": false,
					"inputs": [
						{
							"indexed": true,
							"internalType": "address",
							"name": "depositer",
							"type": "address"
						},
						{
							"indexed": true,
							"internalType": "address",
							"name": "tokenCollateralAddress",
							"type": "address"
						},
						{
							"indexed": true,
							"internalType": "uint256",
							"name": "collateralAmount",
							"type": "uint256"
						}
					],
					"name": "CollateralDeposited",
					"type": "event"
				},
				{
					"inputs": [],
					"name": "burnDsc",
					"outputs": [],
					"stateMutability": "nonpayable",
					"type": "function"
				},
				{
					"inputs": [
						{
							"internalType": "address",
							"name": "_tokenCollateralAddress",
							"type": "address"
						},
						{
							"internalType": "uint256",
							"name": "_collateralAmount",
							"type": "uint256"
						}
					],
					"name": "depositCollateral",
					"outputs": [],
					"stateMutability": "nonpayable",
					"type": "function"
				},
				{
					"inputs": [
						{
							"internalType": "address",
							"name": "_tokenCollateralAddress",
							"type": "address"
						},
						{
							"internalType": "uint256",
							"name": "_collateralAmount",
							"type": "uint256"
						}
					],
					"name": "depositCollateralAndMintDsc",
					"outputs": [],
					"stateMutability": "nonpayable",
					"type": "function"
				},
				{
					"inputs": [],
					"name": "getHealthFactor",
					"outputs": [],
					"stateMutability": "view",
					"type": "function"
				},
				{
					"inputs": [],
					"name": "i_dsc",
					"outputs": [
						{
							"internalType": "contract DecentralizedStableCoin",
							"name": "",
							"type": "address"
						}
					],
					"stateMutability": "view",
					"type": "function"
				},
				{
					"inputs": [],
					"name": "liquidate",
					"outputs": [],
					"stateMutability": "nonpayable",
					"type": "function"
				},
				{
					"inputs": [],
					"name": "mintDsc",
					"outputs": [],
					"stateMutability": "nonpayable",
					"type": "function"
				},
				{
					"inputs": [],
					"name": "redeemCollateralForDsc",
					"outputs": [],
					"stateMutability": "nonpayable",
					"type": "function"
				},
				{
					"inputs": [],
					"name": "redeemCollateralc",
					"outputs": [],
					"stateMutability": "nonpayable",
					"type": "function"
				}
			],
			"devdoc": {
				"errors": {
					"ReentrancyGuardReentrantCall()": [
						{
							"details": "Unauthorized reentrant call."
						}
					]
				},
				"kind": "dev",
				"methods": {},
				"version": 1
			},
			"evm": {
				"assembly": "    /* \"src/DSCEngine.sol\":1515:4099  contract DSCEngine is ReentrancyGuard {... */\n  mstore(0x40, 0xa0)\n    /* \"src/DSCEngine.sol\":2486:3071  constructor(... */\n  callvalue\n  dup1\n  iszero\n  tag_1\n  jumpi\n  revert(0x00, 0x00)\ntag_1:\n  pop\n  mload(0x40)\n  sub(codesize, bytecodeSize)\n  dup1\n  bytecodeSize\n  dup4\n  codecopy\n  dup2\n  dup2\n  add\n  0x40\n  mstore\n  dup2\n  add\n  swap1\n  tag_2\n  swap2\n  swap1\n  tag_3\n  jump\t// in\ntag_2:\n    /* \"@openzeppelin/contracts/utils/ReentrancyGuard.sol\":1857:1858  1 */\n  0x01\n    /* \"@openzeppelin/contracts/utils/ReentrancyGuard.sol\":2061:2068  _status */\n  0x00\n    /* \"@openzeppelin/contracts/utils/ReentrancyGuard.sol\":2061:2082  _status = NOT_ENTERED */\n  dup2\n  swap1\n  sstore\n  pop\n    /* \"src/DSCEngine.sol\":2654:2664  _priceFeed */\n  dup1\n    /* \"src/DSCEngine.sol\":2654:2671  _priceFeed.length */\n  mload\n    /* \"src/DSCEngine.sol\":2627:2643  _tokenCollateral */\n  dup3\n    /* \"src/DSCEngine.sol\":2627:2650  _tokenCollateral.length */\n  mload\n    /* \"src/DSCEngine.sol\":2627:2671  _tokenCollateral.length != _priceFeed.length */\n  eq\n    /* \"src/DSCEngine.sol\":2623:2769  if (_tokenCollateral.length != _priceFeed.length) {... */\n  tag_8\n  jumpi\n    /* \"src/DSCEngine.sol\":2694:2758  DSCEngine__TokenAddressesAndPriceFeedAddressesMustBeSameLength() */\n  mload(0x40)\n  0xb5c5c12600000000000000000000000000000000000000000000000000000000\n  dup2\n  mstore\n  0x04\n  add\n  mload(0x40)\n  dup1\n  swap2\n  sub\n  swap1\n  revert\n    /* \"src/DSCEngine.sol\":2623:2769  if (_tokenCollateral.length != _priceFeed.length) {... */\ntag_8:\n    /* \"src/DSCEngine.sol\":2805:2806  0 */\n  0x00\n    /* \"src/DSCEngine.sol\":2782:2807  _dscAddress == address(0) */\n  0xffffffffffffffffffffffffffffffffffffffff\n  and\n    /* \"src/DSCEngine.sol\":2782:2793  _dscAddress */\n  dup4\n    /* \"src/DSCEngine.sol\":2782:2807  _dscAddress == address(0) */\n  0xffffffffffffffffffffffffffffffffffffffff\n  and\n  sub\n    /* \"src/DSCEngine.sol\":2778:2874  if (_dscAddress == address(0)) {... */\n  tag_9\n  jumpi\n    /* \"src/DSCEngine.sol\":2830:2863  DSCEngine__DscAddressCantBeZero() */\n  mload(0x40)\n  0xef8f9dd100000000000000000000000000000000000000000000000000000000\n  dup2\n  mstore\n  0x04\n  add\n  mload(0x40)\n  dup1\n  swap2\n  sub\n  swap1\n  revert\n    /* \"src/DSCEngine.sol\":2778:2874  if (_dscAddress == address(0)) {... */\ntag_9:\n    /* \"src/DSCEngine.sol\":2888:2897  uint256 i */\n  0x00\n    /* \"src/DSCEngine.sol\":2900:2901  0 */\n  0x00\n    /* \"src/DSCEngine.sol\":2888:2901  uint256 i = 0 */\n  swap1\n  pop\n    /* \"src/DSCEngine.sol\":2883:3011  for (uint256 i = 0; i < _tokenCollateral.length; i++) {... */\ntag_10:\n    /* \"src/DSCEngine.sol\":2907:2923  _tokenCollateral */\n  dup3\n    /* \"src/DSCEngine.sol\":2907:2930  _tokenCollateral.length */\n  mload\n    /* \"src/DSCEngine.sol\":2903:2904  i */\n  dup2\n    /* \"src/DSCEngine.sol\":2903:2930  i < _tokenCollateral.length */\n  lt\n    /* \"src/DSCEngine.sol\":2883:3011  for (uint256 i = 0; i < _tokenCollateral.length; i++) {... */\n  iszero\n  tag_11\n  jumpi\n    /* \"src/DSCEngine.sol\":2987:2997  _priceFeed */\n  dup2\n    /* \"src/DSCEngine.sol\":2998:2999  i */\n  dup2\n    /* \"src/DSCEngine.sol\":2987:3000  _priceFeed[i] */\n  dup2\n  mload\n  dup2\n  lt\n  tag_13\n  jumpi\n  tag_14\n  tag_15\n  jump\t// in\ntag_14:\ntag_13:\n  0x20\n  mul\n  0x20\n  add\n  add\n  mload\n    /* \"src/DSCEngine.sol\":2951:2963  s_priceFeeds */\n  0x01\n    /* \"src/DSCEngine.sol\":2951:2984  s_priceFeeds[_tokenCollateral[i]] */\n  0x00\n    /* \"src/DSCEngine.sol\":2964:2980  _tokenCollateral */\n  dup6\n    /* \"src/DSCEngine.sol\":2981:2982  i */\n  dup5\n    /* \"src/DSCEngine.sol\":2964:2983  _tokenCollateral[i] */\n  dup2\n  mload\n  dup2\n  lt\n  tag_16\n  jumpi\n  tag_17\n  tag_15\n  jump\t// in\ntag_17:\ntag_16:\n  0x20\n  mul\n  0x20\n  add\n  add\n  mload\n    /* \"src/DSCEngine.sol\":2951:2984  s_priceFeeds[_tokenCollateral[i]] */\n  0xffffffffffffffffffffffffffffffffffffffff\n  and\n  0xffffffffffffffffffffffffffffffffffffffff\n  and\n  dup2\n  mstore\n  0x20\n  add\n  swap1\n  dup2\n  mstore\n  0x20\n  add\n  0x00\n  keccak256\n  0x00\n    /* \"src/DSCEngine.sol\":2951:3000  s_priceFeeds[_tokenCollateral[i]] = _priceFeed[i] */\n  0x0100\n  exp\n  dup2\n  sload\n  dup2\n  0xffffffffffffffffffffffffffffffffffffffff\n  mul\n  not\n  and\n  swap1\n  dup4\n  0xffffffffffffffffffffffffffffffffffffffff\n  and\n  mul\n  or\n  swap1\n  sstore\n  pop\n    /* \"src/DSCEngine.sol\":2932:2935  i++ */\n  dup1\n  dup1\n  0x01\n  add\n  swap2\n  pop\n  pop\n    /* \"src/DSCEngine.sol\":2883:3011  for (uint256 i = 0; i < _tokenCollateral.length; i++) {... */\n  jump(tag_10)\ntag_11:\n  pop\n    /* \"src/DSCEngine.sol\":3052:3063  _dscAddress */\n  dup3\n    /* \"src/DSCEngine.sol\":3020:3064  i_dsc = DecentralizedStableCoin(_dscAddress) */\n  0xffffffffffffffffffffffffffffffffffffffff\n  and\n  0x80\n  dup2\n  0xffffffffffffffffffffffffffffffffffffffff\n  and\n  dup2\n  mstore\n  pop\n  pop\n    /* \"src/DSCEngine.sol\":2486:3071  constructor(... */\n  pop\n  pop\n  pop\n    /* \"src/DSCEngine.sol\":1515:4099  contract DSCEngine is ReentrancyGuard {... */\n  jump(tag_18)\n    /* \"#utility.yul\":7:82   */\ntag_19:\n    /* \"#utility.yul\":40:46   */\n  0x00\n    /* \"#utility.yul\":73:75   */\n  0x40\n    /* \"#utility.yul\":67:76   */\n  mload\n    /* \"#utility.yul\":57:76   */\n  swap1\n  pop\n    /* \"#utility.yul\":7:82   */\n  swap1\n  jump\t// out\n    /* \"#utility.yul\":88:205   */\ntag_20:\n    /* \"#utility.yul\":197:198   */\n  0x00\n    /* \"#utility.yul\":194:195   */\n  0x00\n    /* \"#utility.yul\":187:199   */\n  revert\n    /* \"#utility.yul\":211:328   */\ntag_21:\n    /* \"#utility.yul\":320:321   */\n  0x00\n    /* \"#utility.yul\":317:318   */\n  0x00\n    /* \"#utility.yul\":310:322   */\n  revert\n    /* \"#utility.yul\":334:460   */\ntag_22:\n    /* \"#utility.yul\":371:378   */\n  0x00\n    /* \"#utility.yul\":411:453   */\n  0xffffffffffffffffffffffffffffffffffffffff\n    /* \"#utility.yul\":404:409   */\n  dup3\n    /* \"#utility.yul\":400:454   */\n  and\n    /* \"#utility.yul\":389:454   */\n  swap1\n  pop\n    /* \"#utility.yul\":334:460   */\n  swap2\n  swap1\n  pop\n  jump\t// out\n    /* \"#utility.yul\":466:562   */\ntag_23:\n    /* \"#utility.yul\":503:510   */\n  0x00\n    /* \"#utility.yul\":532:556   */\n  tag_41\n    /* \"#utility.yul\":550:555   */\n  dup3\n    /* \"#utility.yul\":532:556   */\n  tag_22\n  jump\t// in\ntag_41:\n    /* \"#utility.yul\":521:556   */\n  swap1\n  pop\n    /* \"#utility.yul\":466:562   */\n  swap2\n  swap1\n  pop\n  jump\t// out\n    /* \"#utility.yul\":568:690   */\ntag_24:\n    /* \"#utility.yul\":641:665   */\n  tag_43\n    /* \"#utility.yul\":659:664   */\n  dup2\n    /* \"#utility.yul\":641:665   */\n  tag_23\n  jump\t// in\ntag_43:\n    /* \"#utility.yul\":634:639   */\n  dup2\n    /* \"#utility.yul\":631:666   */\n  eq\n    /* \"#utility.yul\":621:684   */\n  tag_44\n  jumpi\n    /* \"#utility.yul\":680:681   */\n  0x00\n    /* \"#utility.yul\":677:678   */\n  0x00\n    /* \"#utility.yul\":670:682   */\n  revert\n    /* \"#utility.yul\":621:684   */\ntag_44:\n    /* \"#utility.yul\":568:690   */\n  pop\n  jump\t// out\n    /* \"#utility.yul\":696:839   */\ntag_25:\n    /* \"#utility.yul\":753:758   */\n  0x00\n    /* \"#utility.yul\":784:790   */\n  dup2\n    /* \"#utility.yul\":778:791   */\n  mload\n    /* \"#utility.yul\":769:791   */\n  swap1\n  pop\n    /* \"#utility.yul\":800:833   */\n  tag_46\n    /* \"#utility.yul\":827:832   */\n  dup2\n    /* \"#utility.yul\":800:833   */\n  tag_24\n  jump\t// in\ntag_46:\n    /* \"#utility.yul\":696:839   */\n  swap3\n  swap2\n  pop\n  pop\n  jump\t// out\n    /* \"#utility.yul\":845:962   */\ntag_26:\n    /* \"#utility.yul\":954:955   */\n  0x00\n    /* \"#utility.yul\":951:952   */\n  0x00\n    /* \"#utility.yul\":944:956   */\n  revert\n    /* \"#utility.yul\":968:1070   */\ntag_27:\n    /* \"#utility.yul\":1009:1015   */\n  0x00\n    /* \"#utility.yul\":1060:1062   */\n  0x1f\n    /* \"#utility.yul\":1056:1063   */\n  not\n    /* \"#utility.yul\":1051:1053   */\n  0x1f\n    /* \"#utility.yul\":1044:1049   */\n  dup4\n    /* \"#utility.yul\":1040:1054   */\n  add\n    /* \"#utility.yul\":1036:1064   */\n  and\n    /* \"#utility.yul\":1026:1064   */\n  swap1\n  pop\n    /* \"#utility.yul\":968:1070   */\n  swap2\n  swap1\n  pop\n  jump\t// out\n    /* \"#utility.yul\":1076:1256   */\ntag_28:\n    /* \"#utility.yul\":1124:1201   */\n  0x4e487b7100000000000000000000000000000000000000000000000000000000\n    /* \"#utility.yul\":1121:1122   */\n  0x00\n    /* \"#utility.yul\":1114:1202   */\n  mstore\n    /* \"#utility.yul\":1221:1225   */\n  0x41\n    /* \"#utility.yul\":1218:1219   */\n  0x04\n    /* \"#utility.yul\":1211:1226   */\n  mstore\n    /* \"#utility.yul\":1245:1249   */\n  0x24\n    /* \"#utility.yul\":1242:1243   */\n  0x00\n    /* \"#utility.yul\":1235:1250   */\n  revert\n    /* \"#utility.yul\":1262:1543   */\ntag_29:\n    /* \"#utility.yul\":1345:1372   */\n  tag_51\n    /* \"#utility.yul\":1367:1371   */\n  dup3\n    /* \"#utility.yul\":1345:1372   */\n  tag_27\n  jump\t// in\ntag_51:\n    /* \"#utility.yul\":1337:1343   */\n  dup2\n    /* \"#utility.yul\":1333:1373   */\n  add\n    /* \"#utility.yul\":1475:1481   */\n  dup2\n    /* \"#utility.yul\":1463:1473   */\n  dup2\n    /* \"#utility.yul\":1460:1482   */\n  lt\n    /* \"#utility.yul\":1439:1457   */\n  0xffffffffffffffff\n    /* \"#utility.yul\":1427:1437   */\n  dup3\n    /* \"#utility.yul\":1424:1458   */\n  gt\n    /* \"#utility.yul\":1421:1483   */\n  or\n    /* \"#utility.yul\":1418:1506   */\n  iszero\n  tag_52\n  jumpi\n    /* \"#utility.yul\":1486:1504   */\n  tag_53\n  tag_28\n  jump\t// in\ntag_53:\n    /* \"#utility.yul\":1418:1506   */\ntag_52:\n    /* \"#utility.yul\":1526:1536   */\n  dup1\n    /* \"#utility.yul\":1522:1524   */\n  0x40\n    /* \"#utility.yul\":1515:1537   */\n  mstore\n    /* \"#utility.yul\":1305:1543   */\n  pop\n    /* \"#utility.yul\":1262:1543   */\n  pop\n  pop\n  jump\t// out\n    /* \"#utility.yul\":1549:1678   */\ntag_30:\n    /* \"#utility.yul\":1583:1589   */\n  0x00\n    /* \"#utility.yul\":1610:1630   */\n  tag_55\n  tag_19\n  jump\t// in\ntag_55:\n    /* \"#utility.yul\":1600:1630   */\n  swap1\n  pop\n    /* \"#utility.yul\":1639:1672   */\n  tag_56\n    /* \"#utility.yul\":1667:1671   */\n  dup3\n    /* \"#utility.yul\":1659:1665   */\n  dup3\n    /* \"#utility.yul\":1639:1672   */\n  tag_29\n  jump\t// in\ntag_56:\n    /* \"#utility.yul\":1549:1678   */\n  swap2\n  swap1\n  pop\n  jump\t// out\n    /* \"#utility.yul\":1684:1995   */\ntag_31:\n    /* \"#utility.yul\":1761:1765   */\n  0x00\n    /* \"#utility.yul\":1851:1869   */\n  0xffffffffffffffff\n    /* \"#utility.yul\":1843:1849   */\n  dup3\n    /* \"#utility.yul\":1840:1870   */\n  gt\n    /* \"#utility.yul\":1837:1893   */\n  iszero\n  tag_58\n  jumpi\n    /* \"#utility.yul\":1873:1891   */\n  tag_59\n  tag_28\n  jump\t// in\ntag_59:\n    /* \"#utility.yul\":1837:1893   */\ntag_58:\n    /* \"#utility.yul\":1923:1927   */\n  0x20\n    /* \"#utility.yul\":1915:1921   */\n  dup3\n    /* \"#utility.yul\":1911:1928   */\n  mul\n    /* \"#utility.yul\":1903:1928   */\n  swap1\n  pop\n    /* \"#utility.yul\":1983:1987   */\n  0x20\n    /* \"#utility.yul\":1977:1981   */\n  dup2\n    /* \"#utility.yul\":1973:1988   */\n  add\n    /* \"#utility.yul\":1965:1988   */\n  swap1\n  pop\n    /* \"#utility.yul\":1684:1995   */\n  swap2\n  swap1\n  pop\n  jump\t// out\n    /* \"#utility.yul\":2001:2118   */\ntag_32:\n    /* \"#utility.yul\":2110:2111   */\n  0x00\n    /* \"#utility.yul\":2107:2108   */\n  0x00\n    /* \"#utility.yul\":2100:2112   */\n  revert\n    /* \"#utility.yul\":2141:2873   */\ntag_33:\n    /* \"#utility.yul\":2248:2253   */\n  0x00\n    /* \"#utility.yul\":2273:2354   */\n  tag_62\n    /* \"#utility.yul\":2289:2353   */\n  tag_63\n    /* \"#utility.yul\":2346:2352   */\n  dup5\n    /* \"#utility.yul\":2289:2353   */\n  tag_31\n  jump\t// in\ntag_63:\n    /* \"#utility.yul\":2273:2354   */\n  tag_30\n  jump\t// in\ntag_62:\n    /* \"#utility.yul\":2264:2354   */\n  swap1\n  pop\n    /* \"#utility.yul\":2374:2379   */\n  dup1\n    /* \"#utility.yul\":2403:2409   */\n  dup4\n    /* \"#utility.yul\":2396:2401   */\n  dup3\n    /* \"#utility.yul\":2389:2410   */\n  mstore\n    /* \"#utility.yul\":2437:2441   */\n  0x20\n    /* \"#utility.yul\":2430:2435   */\n  dup3\n    /* \"#utility.yul\":2426:2442   */\n  add\n    /* \"#utility.yul\":2419:2442   */\n  swap1\n  pop\n    /* \"#utility.yul\":2490:2494   */\n  0x20\n    /* \"#utility.yul\":2482:2488   */\n  dup5\n    /* \"#utility.yul\":2478:2495   */\n  mul\n    /* \"#utility.yul\":2470:2476   */\n  dup4\n    /* \"#utility.yul\":2466:2496   */\n  add\n    /* \"#utility.yul\":2519:2522   */\n  dup6\n    /* \"#utility.yul\":2511:2517   */\n  dup2\n    /* \"#utility.yul\":2508:2523   */\n  gt\n    /* \"#utility.yul\":2505:2627   */\n  iszero\n  tag_64\n  jumpi\n    /* \"#utility.yul\":2538:2617   */\n  tag_65\n  tag_32\n  jump\t// in\ntag_65:\n    /* \"#utility.yul\":2505:2627   */\ntag_64:\n    /* \"#utility.yul\":2653:2659   */\n  dup4\n    /* \"#utility.yul\":2636:2867   */\ntag_66:\n    /* \"#utility.yul\":2670:2676   */\n  dup2\n    /* \"#utility.yul\":2665:2668   */\n  dup2\n    /* \"#utility.yul\":2662:2677   */\n  lt\n    /* \"#utility.yul\":2636:2867   */\n  iszero\n  tag_68\n  jumpi\n    /* \"#utility.yul\":2745:2748   */\n  dup1\n    /* \"#utility.yul\":2774:2822   */\n  tag_69\n    /* \"#utility.yul\":2818:2821   */\n  dup9\n    /* \"#utility.yul\":2806:2816   */\n  dup3\n    /* \"#utility.yul\":2774:2822   */\n  tag_25\n  jump\t// in\ntag_69:\n    /* \"#utility.yul\":2769:2772   */\n  dup5\n    /* \"#utility.yul\":2762:2823   */\n  mstore\n    /* \"#utility.yul\":2852:2856   */\n  0x20\n    /* \"#utility.yul\":2847:2850   */\n  dup5\n    /* \"#utility.yul\":2843:2857   */\n  add\n    /* \"#utility.yul\":2836:2857   */\n  swap4\n  pop\n    /* \"#utility.yul\":2712:2867   */\n  pop\n    /* \"#utility.yul\":2696:2700   */\n  0x20\n    /* \"#utility.yul\":2691:2694   */\n  dup2\n    /* \"#utility.yul\":2687:2701   */\n  add\n    /* \"#utility.yul\":2680:2701   */\n  swap1\n  pop\n    /* \"#utility.yul\":2636:2867   */\n  jump(tag_66)\ntag_68:\n    /* \"#utility.yul\":2640:2661   */\n  pop\n    /* \"#utility.yul\":2254:2873   */\n  pop\n  pop\n    /* \"#utility.yul\":2141:2873   */\n  swap4\n  swap3\n  pop\n  pop\n  pop\n  jump\t// out\n    /* \"#utility.yul\":2896:3281   */\ntag_34:\n    /* \"#utility.yul\":2978:2983   */\n  0x00\n    /* \"#utility.yul\":3027:3030   */\n  dup3\n    /* \"#utility.yul\":3020:3024   */\n  0x1f\n    /* \"#utility.yul\":3012:3018   */\n  dup4\n    /* \"#utility.yul\":3008:3025   */\n  add\n    /* \"#utility.yul\":3004:3031   */\n  slt\n    /* \"#utility.yul\":2994:3116   */\n  tag_71\n  jumpi\n    /* \"#utility.yul\":3035:3114   */\n  tag_72\n  tag_26\n  jump\t// in\ntag_72:\n    /* \"#utility.yul\":2994:3116   */\ntag_71:\n    /* \"#utility.yul\":3145:3151   */\n  dup2\n    /* \"#utility.yul\":3139:3152   */\n  mload\n    /* \"#utility.yul\":3170:3275   */\n  tag_73\n    /* \"#utility.yul\":3271:3274   */\n  dup5\n    /* \"#utility.yul\":3263:3269   */\n  dup3\n    /* \"#utility.yul\":3256:3260   */\n  0x20\n    /* \"#utility.yul\":3248:3254   */\n  dup7\n    /* \"#utility.yul\":3244:3261   */\n  add\n    /* \"#utility.yul\":3170:3275   */\n  tag_33\n  jump\t// in\ntag_73:\n    /* \"#utility.yul\":3161:3275   */\n  swap2\n  pop\n    /* \"#utility.yul\":2984:3281   */\n  pop\n    /* \"#utility.yul\":2896:3281   */\n  swap3\n  swap2\n  pop\n  pop\n  jump\t// out\n    /* \"#utility.yul\":3287:4356   */\ntag_3:\n    /* \"#utility.yul\":3425:3431   */\n  0x00\n    /* \"#utility.yul\":3433:3439   */\n  0x00\n    /* \"#utility.yul\":3441:3447   */\n  0x00\n    /* \"#utility.yul\":3490:3492   */\n  0x60\n    /* \"#utility.yul\":3478:3487   */\n  dup5\n    /* \"#utility.yul\":3469:3476   */\n  dup7\n    /* \"#utility.yul\":3465:3488   */\n  sub\n    /* \"#utility.yul\":3461:3493   */\n  slt\n    /* \"#utility.yul\":3458:3577   */\n  iszero\n  tag_75\n  jumpi\n    /* \"#utility.yul\":3496:3575   */\n  tag_76\n  tag_20\n  jump\t// in\ntag_76:\n    /* \"#utility.yul\":3458:3577   */\ntag_75:\n    /* \"#utility.yul\":3616:3617   */\n  0x00\n    /* \"#utility.yul\":3641:3705   */\n  tag_77\n    /* \"#utility.yul\":3697:3704   */\n  dup7\n    /* \"#utility.yul\":3688:3694   */\n  dup3\n    /* \"#utility.yul\":3677:3686   */\n  dup8\n    /* \"#utility.yul\":3673:3695   */\n  add\n    /* \"#utility.yul\":3641:3705   */\n  tag_25\n  jump\t// in\ntag_77:\n    /* \"#utility.yul\":3631:3705   */\n  swap4\n  pop\n    /* \"#utility.yul\":3587:3715   */\n  pop\n    /* \"#utility.yul\":3775:3777   */\n  0x20\n    /* \"#utility.yul\":3764:3773   */\n  dup5\n    /* \"#utility.yul\":3760:3778   */\n  add\n    /* \"#utility.yul\":3754:3779   */\n  mload\n    /* \"#utility.yul\":3806:3824   */\n  0xffffffffffffffff\n    /* \"#utility.yul\":3798:3804   */\n  dup2\n    /* \"#utility.yul\":3795:3825   */\n  gt\n    /* \"#utility.yul\":3792:3909   */\n  iszero\n  tag_78\n  jumpi\n    /* \"#utility.yul\":3828:3907   */\n  tag_79\n  tag_21\n  jump\t// in\ntag_79:\n    /* \"#utility.yul\":3792:3909   */\ntag_78:\n    /* \"#utility.yul\":3933:4022   */\n  tag_80\n    /* \"#utility.yul\":4014:4021   */\n  dup7\n    /* \"#utility.yul\":4005:4011   */\n  dup3\n    /* \"#utility.yul\":3994:4003   */\n  dup8\n    /* \"#utility.yul\":3990:4012   */\n  add\n    /* \"#utility.yul\":3933:4022   */\n  tag_34\n  jump\t// in\ntag_80:\n    /* \"#utility.yul\":3923:4022   */\n  swap3\n  pop\n    /* \"#utility.yul\":3725:4032   */\n  pop\n    /* \"#utility.yul\":4092:4094   */\n  0x40\n    /* \"#utility.yul\":4081:4090   */\n  dup5\n    /* \"#utility.yul\":4077:4095   */\n  add\n    /* \"#utility.yul\":4071:4096   */\n  mload\n    /* \"#utility.yul\":4123:4141   */\n  0xffffffffffffffff\n    /* \"#utility.yul\":4115:4121   */\n  dup2\n    /* \"#utility.yul\":4112:4142   */\n  gt\n    /* \"#utility.yul\":4109:4226   */\n  iszero\n  tag_81\n  jumpi\n    /* \"#utility.yul\":4145:4224   */\n  tag_82\n  tag_21\n  jump\t// in\ntag_82:\n    /* \"#utility.yul\":4109:4226   */\ntag_81:\n    /* \"#utility.yul\":4250:4339   */\n  tag_83\n    /* \"#utility.yul\":4331:4338   */\n  dup7\n    /* \"#utility.yul\":4322:4328   */\n  dup3\n    /* \"#utility.yul\":4311:4320   */\n  dup8\n    /* \"#utility.yul\":4307:4329   */\n  add\n    /* \"#utility.yul\":4250:4339   */\n  tag_34\n  jump\t// in\ntag_83:\n    /* \"#utility.yul\":4240:4339   */\n  swap2\n  pop\n    /* \"#utility.yul\":4042:4349   */\n  pop\n    /* \"#utility.yul\":3287:4356   */\n  swap3\n  pop\n  swap3\n  pop\n  swap3\n  jump\t// out\n    /* \"#utility.yul\":4362:4542   */\ntag_15:\n    /* \"#utility.yul\":4410:4487   */\n  0x4e487b7100000000000000000000000000000000000000000000000000000000\n    /* \"#utility.yul\":4407:4408   */\n  0x00\n    /* \"#utility.yul\":4400:4488   */\n  mstore\n    /* \"#utility.yul\":4507:4511   */\n  0x32\n    /* \"#utility.yul\":4504:4505   */\n  0x04\n    /* \"#utility.yul\":4497:4512   */\n  mstore\n    /* \"#utility.yul\":4531:4535   */\n  0x24\n    /* \"#utility.yul\":4528:4529   */\n  0x00\n    /* \"#utility.yul\":4521:4536   */\n  revert\n    /* \"src/DSCEngine.sol\":1515:4099  contract DSCEngine is ReentrancyGuard {... */\ntag_18:\n  mload(0x80)\n  codecopy(0x00, dataOffset(sub_0), dataSize(sub_0))\n  0x00\n  assignImmutable(\"0x20e311027065c95561c40effaf724127bfdb8654c0b37b7cc547ec426ff88a29\")\n  return(0x00, dataSize(sub_0))\nstop\n\nsub_0: assembly {\n        /* \"src/DSCEngine.sol\":1515:4099  contract DSCEngine is ReentrancyGuard {... */\n      mstore(0x40, 0x80)\n      callvalue\n      dup1\n      iszero\n      tag_1\n      jumpi\n      revert(0x00, 0x00)\n    tag_1:\n      pop\n      jumpi(tag_2, lt(calldatasize, 0x04))\n      shr(0xe0, calldataload(0x00))\n      dup1\n      0xa5d5db0c\n      gt\n      tag_12\n      jumpi\n      dup1\n      0xa5d5db0c\n      eq\n      tag_7\n      jumpi\n      dup1\n      0xa5f352b7\n      eq\n      tag_8\n      jumpi\n      dup1\n      0xc9457f6d\n      eq\n      tag_9\n      jumpi\n      dup1\n      0xca5ba61f\n      eq\n      tag_10\n      jumpi\n      dup1\n      0xffde1fba\n      eq\n      tag_11\n      jumpi\n      jump(tag_2)\n    tag_12:\n      dup1\n      0x28a07025\n      eq\n      tag_3\n      jumpi\n      dup1\n      0x50328a60\n      eq\n      tag_4\n      jumpi\n      dup1\n      0x5e338bb3\n      eq\n      tag_5\n      jumpi\n      dup1\n      0x9e297554\n      eq\n      tag_6\n      jumpi\n    tag_2:\n      revert(0x00, 0x00)\n        /* \"src/DSCEngine.sol\":4016:4048  function liquidate() external {} */\n    tag_3:\n      tag_13\n      tag_14\n      jump\t// in\n    tag_13:\n      stop\n        /* \"src/DSCEngine.sol\":3077:3197  function depositCollateralAndMintDsc(address _tokenCollateralAddress, uint256 _collateralAmount)... */\n    tag_4:\n      tag_15\n      0x04\n      dup1\n      calldatasize\n      sub\n      dup2\n      add\n      swap1\n      tag_16\n      swap2\n      swap1\n      tag_17\n      jump\t// in\n    tag_16:\n      tag_18\n      jump\t// in\n    tag_15:\n      stop\n        /* \"src/DSCEngine.sol\":1835:1881  DecentralizedStableCoin public immutable i_dsc */\n    tag_5:\n      tag_19\n      tag_20\n      jump\t// in\n    tag_19:\n      mload(0x40)\n      tag_21\n      swap2\n      swap1\n      tag_22\n      jump\t// in\n    tag_21:\n      mload(0x40)\n      dup1\n      swap2\n      sub\n      swap1\n      return\n        /* \"src/DSCEngine.sol\":3847:3892  function redeemCollateralForDsc() external {} */\n    tag_6:\n      tag_23\n      tag_24\n      jump\t// in\n    tag_23:\n      stop\n        /* \"src/DSCEngine.sol\":3203:3841  function depositCollateral(address _tokenCollateralAddress, uint256 _collateralAmount)... */\n    tag_7:\n      tag_25\n      0x04\n      dup1\n      calldatasize\n      sub\n      dup2\n      add\n      swap1\n      tag_26\n      swap2\n      swap1\n      tag_17\n      jump\t// in\n    tag_26:\n      tag_27\n      jump\t// in\n    tag_25:\n      stop\n        /* \"src/DSCEngine.sol\":4054:4097  function getHealthFactor() external view {} */\n    tag_8:\n      tag_28\n      tag_29\n      jump\t// in\n    tag_28:\n      stop\n        /* \"src/DSCEngine.sol\":3898:3938  function redeemCollateralc() external {} */\n    tag_9:\n      tag_30\n      tag_31\n      jump\t// in\n    tag_30:\n      stop\n        /* \"src/DSCEngine.sol\":3944:3974  function mintDsc() external {} */\n    tag_10:\n      tag_32\n      tag_33\n      jump\t// in\n    tag_32:\n      stop\n        /* \"src/DSCEngine.sol\":3980:4010  function burnDsc() external {} */\n    tag_11:\n      tag_34\n      tag_35\n      jump\t// in\n    tag_34:\n      stop\n        /* \"src/DSCEngine.sol\":4016:4048  function liquidate() external {} */\n    tag_14:\n      jump\t// out\n        /* \"src/DSCEngine.sol\":3077:3197  function depositCollateralAndMintDsc(address _tokenCollateralAddress, uint256 _collateralAmount)... */\n    tag_18:\n      pop\n      pop\n      jump\t// out\n        /* \"src/DSCEngine.sol\":1835:1881  DecentralizedStableCoin public immutable i_dsc */\n    tag_20:\n      immutable(\"0x20e311027065c95561c40effaf724127bfdb8654c0b37b7cc547ec426ff88a29\")\n      dup2\n      jump\t// out\n        /* \"src/DSCEngine.sol\":3847:3892  function redeemCollateralForDsc() external {} */\n    tag_24:\n      jump\t// out\n        /* \"src/DSCEngine.sol\":3203:3841  function depositCollateral(address _tokenCollateralAddress, uint256 _collateralAmount)... */\n    tag_27:\n        /* \"src/DSCEngine.sol\":3328:3345  _collateralAmount */\n      dup1\n        /* \"src/DSCEngine.sol\":2220:2221  0 */\n      0x00\n        /* \"src/DSCEngine.sol\":2210:2216  amount */\n      dup2\n        /* \"src/DSCEngine.sol\":2210:2221  amount == 0 */\n      sub\n        /* \"src/DSCEngine.sol\":2206:2285  if (amount == 0) {... */\n      tag_40\n      jumpi\n        /* \"src/DSCEngine.sol\":2244:2274  DSCEngine__NeedsMoreThanZero() */\n      mload(0x40)\n      0xcb1d3f7d00000000000000000000000000000000000000000000000000000000\n      dup2\n      mstore\n      0x04\n      add\n      mload(0x40)\n      dup1\n      swap2\n      sub\n      swap1\n      revert\n        /* \"src/DSCEngine.sol\":2206:2285  if (amount == 0) {... */\n    tag_40:\n        /* \"src/DSCEngine.sol\":3375:3398  _tokenCollateralAddress */\n      dup3\n        /* \"src/DSCEngine.sol\":2399:2400  0 */\n      0x00\n        /* \"src/DSCEngine.sol\":2367:2401  s_priceFeeds[_token] == address(0) */\n      0xffffffffffffffffffffffffffffffffffffffff\n      and\n        /* \"src/DSCEngine.sol\":2367:2379  s_priceFeeds */\n      0x01\n        /* \"src/DSCEngine.sol\":2367:2387  s_priceFeeds[_token] */\n      0x00\n        /* \"src/DSCEngine.sol\":2380:2386  _token */\n      dup4\n        /* \"src/DSCEngine.sol\":2367:2387  s_priceFeeds[_token] */\n      0xffffffffffffffffffffffffffffffffffffffff\n      and\n      0xffffffffffffffffffffffffffffffffffffffff\n      and\n      dup2\n      mstore\n      0x20\n      add\n      swap1\n      dup2\n      mstore\n      0x20\n      add\n      0x00\n      keccak256\n      0x00\n      swap1\n      sload\n      swap1\n      0x0100\n      exp\n      swap1\n      div\n      0xffffffffffffffffffffffffffffffffffffffff\n      and\n        /* \"src/DSCEngine.sol\":2367:2401  s_priceFeeds[_token] == address(0) */\n      0xffffffffffffffffffffffffffffffffffffffff\n      and\n      sub\n        /* \"src/DSCEngine.sol\":2363:2463  if (s_priceFeeds[_token] == address(0)) {... */\n      tag_42\n      jumpi\n        /* \"src/DSCEngine.sol\":2424:2452  DSCEngine__NotAllowedToken() */\n      mload(0x40)\n      0xa802cfbe00000000000000000000000000000000000000000000000000000000\n      dup2\n      mstore\n      0x04\n      add\n      mload(0x40)\n      dup1\n      swap2\n      sub\n      swap1\n      revert\n        /* \"src/DSCEngine.sol\":2363:2463  if (s_priceFeeds[_token] == address(0)) {... */\n    tag_42:\n        /* \"@openzeppelin/contracts/utils/ReentrancyGuard.sol\":2500:2521  _nonReentrantBefore() */\n      tag_44\n        /* \"@openzeppelin/contracts/utils/ReentrancyGuard.sol\":2500:2519  _nonReentrantBefore */\n      tag_45\n        /* \"@openzeppelin/contracts/utils/ReentrancyGuard.sol\":2500:2521  _nonReentrantBefore() */\n      jump\t// in\n    tag_44:\n        /* \"src/DSCEngine.sol\":3497:3514  _collateralAmount */\n      dup3\n        /* \"src/DSCEngine.sol\":3435:3456  s_collateralDeposited */\n      0x02\n        /* \"src/DSCEngine.sol\":3435:3468  s_collateralDeposited[msg.sender] */\n      0x00\n        /* \"src/DSCEngine.sol\":3457:3467  msg.sender */\n      caller\n        /* \"src/DSCEngine.sol\":3435:3468  s_collateralDeposited[msg.sender] */\n      0xffffffffffffffffffffffffffffffffffffffff\n      and\n      0xffffffffffffffffffffffffffffffffffffffff\n      and\n      dup2\n      mstore\n      0x20\n      add\n      swap1\n      dup2\n      mstore\n      0x20\n      add\n      0x00\n      keccak256\n        /* \"src/DSCEngine.sol\":3435:3493  s_collateralDeposited[msg.sender][_tokenCollateralAddress] */\n      0x00\n        /* \"src/DSCEngine.sol\":3469:3492  _tokenCollateralAddress */\n      dup7\n        /* \"src/DSCEngine.sol\":3435:3493  s_collateralDeposited[msg.sender][_tokenCollateralAddress] */\n      0xffffffffffffffffffffffffffffffffffffffff\n      and\n      0xffffffffffffffffffffffffffffffffffffffff\n      and\n      dup2\n      mstore\n      0x20\n      add\n      swap1\n      dup2\n      mstore\n      0x20\n      add\n      0x00\n      keccak256\n      0x00\n        /* \"src/DSCEngine.sol\":3435:3514  s_collateralDeposited[msg.sender][_tokenCollateralAddress] += _collateralAmount */\n      dup3\n      dup3\n      sload\n      tag_47\n      swap2\n      swap1\n      tag_48\n      jump\t// in\n    tag_47:\n      swap3\n      pop\n      pop\n      dup2\n      swap1\n      sstore\n      pop\n        /* \"src/DSCEngine.sol\":3524:3536  bool success */\n      0x00\n        /* \"src/DSCEngine.sol\":3546:3569  _tokenCollateralAddress */\n      dup5\n        /* \"src/DSCEngine.sol\":3539:3583  IERC20(_tokenCollateralAddress).transferFrom */\n      0xffffffffffffffffffffffffffffffffffffffff\n      and\n      0x23b872dd\n        /* \"src/DSCEngine.sol\":3584:3594  msg.sender */\n      caller\n        /* \"src/DSCEngine.sol\":3604:3608  this */\n      address\n        /* \"src/DSCEngine.sol\":3611:3628  _collateralAmount */\n      dup8\n        /* \"src/DSCEngine.sol\":3539:3629  IERC20(_tokenCollateralAddress).transferFrom(msg.sender, address(this), _collateralAmount) */\n      mload(0x40)\n      dup5\n      0xffffffff\n      and\n      0xe0\n      shl\n      dup2\n      mstore\n      0x04\n      add\n      tag_49\n      swap4\n      swap3\n      swap2\n      swap1\n      tag_50\n      jump\t// in\n    tag_49:\n      0x20\n      mload(0x40)\n      dup1\n      dup4\n      sub\n      dup2\n      0x00\n      dup8\n      gas\n      call\n      iszero\n      dup1\n      iszero\n      tag_52\n      jumpi\n      returndatacopy(0x00, 0x00, returndatasize)\n      revert(0x00, returndatasize)\n    tag_52:\n      pop\n      pop\n      pop\n      pop\n      mload(0x40)\n      returndatasize\n      not(0x1f)\n      0x1f\n      dup3\n      add\n      and\n      dup3\n      add\n      dup1\n      0x40\n      mstore\n      pop\n      dup2\n      add\n      swap1\n      tag_53\n      swap2\n      swap1\n      tag_54\n      jump\t// in\n    tag_53:\n        /* \"src/DSCEngine.sol\":3524:3629  bool success = IERC20(_tokenCollateralAddress).transferFrom(msg.sender, address(this), _collateralAmount) */\n      swap1\n      pop\n        /* \"src/DSCEngine.sol\":3644:3651  success */\n      dup1\n        /* \"src/DSCEngine.sol\":3639:3744  if (!success) {... */\n      tag_55\n      jumpi\n        /* \"src/DSCEngine.sol\":3709:3732  _tokenCollateralAddress */\n      dup5\n        /* \"src/DSCEngine.sol\":3674:3733  DSCEngine__CollateralDepositFailed(_tokenCollateralAddress) */\n      mload(0x40)\n      0xbc3fe12700000000000000000000000000000000000000000000000000000000\n      dup2\n      mstore\n      0x04\n      add\n      tag_56\n      swap2\n      swap1\n      tag_57\n      jump\t// in\n    tag_56:\n      mload(0x40)\n      dup1\n      swap2\n      sub\n      swap1\n      revert\n        /* \"src/DSCEngine.sol\":3639:3744  if (!success) {... */\n    tag_55:\n        /* \"src/DSCEngine.sol\":3816:3833  _collateralAmount */\n      dup4\n        /* \"src/DSCEngine.sol\":3791:3814  _tokenCollateralAddress */\n      dup6\n        /* \"src/DSCEngine.sol\":3759:3834  CollateralDeposited(msg.sender, _tokenCollateralAddress, _collateralAmount) */\n      0xffffffffffffffffffffffffffffffffffffffff\n      and\n        /* \"src/DSCEngine.sol\":3779:3789  msg.sender */\n      caller\n        /* \"src/DSCEngine.sol\":3759:3834  CollateralDeposited(msg.sender, _tokenCollateralAddress, _collateralAmount) */\n      0xffffffffffffffffffffffffffffffffffffffff\n      and\n      0xf1c0dd7e9b98bbff859029005ef89b127af049cd18df1a8d79f0b7e019911e56\n      mload(0x40)\n      mload(0x40)\n      dup1\n      swap2\n      sub\n      swap1\n      log4\n        /* \"src/DSCEngine.sol\":3425:3841  {... */\n      pop\n        /* \"@openzeppelin/contracts/utils/ReentrancyGuard.sol\":2542:2562  _nonReentrantAfter() */\n      tag_58\n        /* \"@openzeppelin/contracts/utils/ReentrancyGuard.sol\":2542:2560  _nonReentrantAfter */\n      tag_59\n        /* \"@openzeppelin/contracts/utils/ReentrancyGuard.sol\":2542:2562  _nonReentrantAfter() */\n      jump\t// in\n    tag_58:\n        /* \"src/DSCEngine.sol\":2294:2295  _ */\n      pop\n        /* \"src/DSCEngine.sol\":3203:3841  function depositCollateral(address _tokenCollateralAddress, uint256 _collateralAmount)... */\n      pop\n      pop\n      pop\n      jump\t// out\n        /* \"src/DSCEngine.sol\":4054:4097  function getHealthFactor() external view {} */\n    tag_29:\n      jump\t// out\n        /* \"src/DSCEngine.sol\":3898:3938  function redeemCollateralc() external {} */\n    tag_31:\n      jump\t// out\n        /* \"src/DSCEngine.sol\":3944:3974  function mintDsc() external {} */\n    tag_33:\n      jump\t// out\n        /* \"src/DSCEngine.sol\":3980:4010  function burnDsc() external {} */\n    tag_35:\n      jump\t// out\n        /* \"@openzeppelin/contracts/utils/ReentrancyGuard.sol\":2575:2882  function _nonReentrantBefore() private {... */\n    tag_45:\n        /* \"@openzeppelin/contracts/utils/ReentrancyGuard.sol\":1899:1900  2 */\n      0x02\n        /* \"@openzeppelin/contracts/utils/ReentrancyGuard.sol\":2702:2709  _status */\n      sload(0x00)\n        /* \"@openzeppelin/contracts/utils/ReentrancyGuard.sol\":2702:2720  _status == ENTERED */\n      sub\n        /* \"@openzeppelin/contracts/utils/ReentrancyGuard.sol\":2698:2784  if (_status == ENTERED) {... */\n      tag_65\n      jumpi\n        /* \"@openzeppelin/contracts/utils/ReentrancyGuard.sol\":2743:2773  ReentrancyGuardReentrantCall() */\n      mload(0x40)\n      0x3ee5aeb500000000000000000000000000000000000000000000000000000000\n      dup2\n      mstore\n      0x04\n      add\n      mload(0x40)\n      dup1\n      swap2\n      sub\n      swap1\n      revert\n        /* \"@openzeppelin/contracts/utils/ReentrancyGuard.sol\":2698:2784  if (_status == ENTERED) {... */\n    tag_65:\n        /* \"@openzeppelin/contracts/utils/ReentrancyGuard.sol\":1899:1900  2 */\n      0x02\n        /* \"@openzeppelin/contracts/utils/ReentrancyGuard.sol\":2858:2865  _status */\n      0x00\n        /* \"@openzeppelin/contracts/utils/ReentrancyGuard.sol\":2858:2875  _status = ENTERED */\n      dup2\n      swap1\n      sstore\n      pop\n        /* \"@openzeppelin/contracts/utils/ReentrancyGuard.sol\":2575:2882  function _nonReentrantBefore() private {... */\n      jump\t// out\n        /* \"@openzeppelin/contracts/utils/ReentrancyGuard.sol\":2888:3096  function _nonReentrantAfter() private {... */\n    tag_59:\n        /* \"@openzeppelin/contracts/utils/ReentrancyGuard.sol\":1857:1858  1 */\n      0x01\n        /* \"@openzeppelin/contracts/utils/ReentrancyGuard.sol\":3068:3075  _status */\n      0x00\n        /* \"@openzeppelin/contracts/utils/ReentrancyGuard.sol\":3068:3089  _status = NOT_ENTERED */\n      dup2\n      swap1\n      sstore\n      pop\n        /* \"@openzeppelin/contracts/utils/ReentrancyGuard.sol\":2888:3096  function _nonReentrantAfter() private {... */\n      jump\t// out\n        /* \"#utility.yul\":88:205   */\n    tag_68:\n        /* \"#utility.yul\":197:198   */\n      0x00\n        /* \"#utility.yul\":194:195   */\n      0x00\n        /* \"#utility.yul\":187:199   */\n      revert\n        /* \"#utility.yul\":334:460   */\n    tag_70:\n        /* \"#utility.yul\":371:378   */\n      0x00\n        /* \"#utility.yul\":411:453   */\n      0xffffffffffffffffffffffffffffffffffffffff\n        /* \"#utility.yul\":404:409   */\n      dup3\n        /* \"#utility.yul\":400:454   */\n      and\n        /* \"#utility.yul\":389:454   */\n      swap1\n      pop\n        /* \"#utility.yul\":334:460   */\n      swap2\n      swap1\n      pop\n      jump\t// out\n        /* \"#utility.yul\":466:562   */\n    tag_71:\n        /* \"#utility.yul\":503:510   */\n      0x00\n        /* \"#utility.yul\":532:556   */\n      tag_94\n        /* \"#utility.yul\":550:555   */\n      dup3\n        /* \"#utility.yul\":532:556   */\n      tag_70\n      jump\t// in\n    tag_94:\n        /* \"#utility.yul\":521:556   */\n      swap1\n      pop\n        /* \"#utility.yul\":466:562   */\n      swap2\n      swap1\n      pop\n      jump\t// out\n        /* \"#utility.yul\":568:690   */\n    tag_72:\n        /* \"#utility.yul\":641:665   */\n      tag_96\n        /* \"#utility.yul\":659:664   */\n      dup2\n        /* \"#utility.yul\":641:665   */\n      tag_71\n      jump\t// in\n    tag_96:\n        /* \"#utility.yul\":634:639   */\n      dup2\n        /* \"#utility.yul\":631:666   */\n      eq\n        /* \"#utility.yul\":621:684   */\n      tag_97\n      jumpi\n        /* \"#utility.yul\":680:681   */\n      0x00\n        /* \"#utility.yul\":677:678   */\n      0x00\n        /* \"#utility.yul\":670:682   */\n      revert\n        /* \"#utility.yul\":621:684   */\n    tag_97:\n        /* \"#utility.yul\":568:690   */\n      pop\n      jump\t// out\n        /* \"#utility.yul\":696:835   */\n    tag_73:\n        /* \"#utility.yul\":742:747   */\n      0x00\n        /* \"#utility.yul\":780:786   */\n      dup2\n        /* \"#utility.yul\":767:787   */\n      calldataload\n        /* \"#utility.yul\":758:787   */\n      swap1\n      pop\n        /* \"#utility.yul\":796:829   */\n      tag_99\n        /* \"#utility.yul\":823:828   */\n      dup2\n        /* \"#utility.yul\":796:829   */\n      tag_72\n      jump\t// in\n    tag_99:\n        /* \"#utility.yul\":696:835   */\n      swap3\n      swap2\n      pop\n      pop\n      jump\t// out\n        /* \"#utility.yul\":841:918   */\n    tag_74:\n        /* \"#utility.yul\":878:885   */\n      0x00\n        /* \"#utility.yul\":907:912   */\n      dup2\n        /* \"#utility.yul\":896:912   */\n      swap1\n      pop\n        /* \"#utility.yul\":841:918   */\n      swap2\n      swap1\n      pop\n      jump\t// out\n        /* \"#utility.yul\":924:1046   */\n    tag_75:\n        /* \"#utility.yul\":997:1021   */\n      tag_102\n        /* \"#utility.yul\":1015:1020   */\n      dup2\n        /* \"#utility.yul\":997:1021   */\n      tag_74\n      jump\t// in\n    tag_102:\n        /* \"#utility.yul\":990:995   */\n      dup2\n        /* \"#utility.yul\":987:1022   */\n      eq\n        /* \"#utility.yul\":977:1040   */\n      tag_103\n      jumpi\n        /* \"#utility.yul\":1036:1037   */\n      0x00\n        /* \"#utility.yul\":1033:1034   */\n      0x00\n        /* \"#utility.yul\":1026:1038   */\n      revert\n        /* \"#utility.yul\":977:1040   */\n    tag_103:\n        /* \"#utility.yul\":924:1046   */\n      pop\n      jump\t// out\n        /* \"#utility.yul\":1052:1191   */\n    tag_76:\n        /* \"#utility.yul\":1098:1103   */\n      0x00\n        /* \"#utility.yul\":1136:1142   */\n      dup2\n        /* \"#utility.yul\":1123:1143   */\n      calldataload\n        /* \"#utility.yul\":1114:1143   */\n      swap1\n      pop\n        /* \"#utility.yul\":1152:1185   */\n      tag_105\n        /* \"#utility.yul\":1179:1184   */\n      dup2\n        /* \"#utility.yul\":1152:1185   */\n      tag_75\n      jump\t// in\n    tag_105:\n        /* \"#utility.yul\":1052:1191   */\n      swap3\n      swap2\n      pop\n      pop\n      jump\t// out\n        /* \"#utility.yul\":1197:1671   */\n    tag_17:\n        /* \"#utility.yul\":1265:1271   */\n      0x00\n        /* \"#utility.yul\":1273:1279   */\n      0x00\n        /* \"#utility.yul\":1322:1324   */\n      0x40\n        /* \"#utility.yul\":1310:1319   */\n      dup4\n        /* \"#utility.yul\":1301:1308   */\n      dup6\n        /* \"#utility.yul\":1297:1320   */\n      sub\n        /* \"#utility.yul\":1293:1325   */\n      slt\n        /* \"#utility.yul\":1290:1409   */\n      iszero\n      tag_107\n      jumpi\n        /* \"#utility.yul\":1328:1407   */\n      tag_108\n      tag_68\n      jump\t// in\n    tag_108:\n        /* \"#utility.yul\":1290:1409   */\n    tag_107:\n        /* \"#utility.yul\":1448:1449   */\n      0x00\n        /* \"#utility.yul\":1473:1526   */\n      tag_109\n        /* \"#utility.yul\":1518:1525   */\n      dup6\n        /* \"#utility.yul\":1509:1515   */\n      dup3\n        /* \"#utility.yul\":1498:1507   */\n      dup7\n        /* \"#utility.yul\":1494:1516   */\n      add\n        /* \"#utility.yul\":1473:1526   */\n      tag_73\n      jump\t// in\n    tag_109:\n        /* \"#utility.yul\":1463:1526   */\n      swap3\n      pop\n        /* \"#utility.yul\":1419:1536   */\n      pop\n        /* \"#utility.yul\":1575:1577   */\n      0x20\n        /* \"#utility.yul\":1601:1654   */\n      tag_110\n        /* \"#utility.yul\":1646:1653   */\n      dup6\n        /* \"#utility.yul\":1637:1643   */\n      dup3\n        /* \"#utility.yul\":1626:1635   */\n      dup7\n        /* \"#utility.yul\":1622:1644   */\n      add\n        /* \"#utility.yul\":1601:1654   */\n      tag_76\n      jump\t// in\n    tag_110:\n        /* \"#utility.yul\":1591:1654   */\n      swap2\n      pop\n        /* \"#utility.yul\":1546:1664   */\n      pop\n        /* \"#utility.yul\":1197:1671   */\n      swap3\n      pop\n      swap3\n      swap1\n      pop\n      jump\t// out\n        /* \"#utility.yul\":1677:1737   */\n    tag_77:\n        /* \"#utility.yul\":1705:1708   */\n      0x00\n        /* \"#utility.yul\":1726:1731   */\n      dup2\n        /* \"#utility.yul\":1719:1731   */\n      swap1\n      pop\n        /* \"#utility.yul\":1677:1737   */\n      swap2\n      swap1\n      pop\n      jump\t// out\n        /* \"#utility.yul\":1743:1885   */\n    tag_78:\n        /* \"#utility.yul\":1793:1802   */\n      0x00\n        /* \"#utility.yul\":1826:1879   */\n      tag_113\n        /* \"#utility.yul\":1844:1878   */\n      tag_114\n        /* \"#utility.yul\":1853:1877   */\n      tag_115\n        /* \"#utility.yul\":1871:1876   */\n      dup5\n        /* \"#utility.yul\":1853:1877   */\n      tag_70\n      jump\t// in\n    tag_115:\n        /* \"#utility.yul\":1844:1878   */\n      tag_77\n      jump\t// in\n    tag_114:\n        /* \"#utility.yul\":1826:1879   */\n      tag_70\n      jump\t// in\n    tag_113:\n        /* \"#utility.yul\":1813:1879   */\n      swap1\n      pop\n        /* \"#utility.yul\":1743:1885   */\n      swap2\n      swap1\n      pop\n      jump\t// out\n        /* \"#utility.yul\":1891:2017   */\n    tag_79:\n        /* \"#utility.yul\":1941:1950   */\n      0x00\n        /* \"#utility.yul\":1974:2011   */\n      tag_117\n        /* \"#utility.yul\":2005:2010   */\n      dup3\n        /* \"#utility.yul\":1974:2011   */\n      tag_78\n      jump\t// in\n    tag_117:\n        /* \"#utility.yul\":1961:2011   */\n      swap1\n      pop\n        /* \"#utility.yul\":1891:2017   */\n      swap2\n      swap1\n      pop\n      jump\t// out\n        /* \"#utility.yul\":2023:2181   */\n    tag_80:\n        /* \"#utility.yul\":2105:2114   */\n      0x00\n        /* \"#utility.yul\":2138:2175   */\n      tag_119\n        /* \"#utility.yul\":2169:2174   */\n      dup3\n        /* \"#utility.yul\":2138:2175   */\n      tag_79\n      jump\t// in\n    tag_119:\n        /* \"#utility.yul\":2125:2175   */\n      swap1\n      pop\n        /* \"#utility.yul\":2023:2181   */\n      swap2\n      swap1\n      pop\n      jump\t// out\n        /* \"#utility.yul\":2187:2382   */\n    tag_81:\n        /* \"#utility.yul\":2306:2375   */\n      tag_121\n        /* \"#utility.yul\":2369:2374   */\n      dup2\n        /* \"#utility.yul\":2306:2375   */\n      tag_80\n      jump\t// in\n    tag_121:\n        /* \"#utility.yul\":2301:2304   */\n      dup3\n        /* \"#utility.yul\":2294:2376   */\n      mstore\n        /* \"#utility.yul\":2187:2382   */\n      pop\n      pop\n      jump\t// out\n        /* \"#utility.yul\":2388:2674   */\n    tag_22:\n        /* \"#utility.yul\":2513:2517   */\n      0x00\n        /* \"#utility.yul\":2551:2553   */\n      0x20\n        /* \"#utility.yul\":2540:2549   */\n      dup3\n        /* \"#utility.yul\":2536:2554   */\n      add\n        /* \"#utility.yul\":2528:2554   */\n      swap1\n      pop\n        /* \"#utility.yul\":2564:2667   */\n      tag_123\n        /* \"#utility.yul\":2664:2665   */\n      0x00\n        /* \"#utility.yul\":2653:2662   */\n      dup4\n        /* \"#utility.yul\":2649:2666   */\n      add\n        /* \"#utility.yul\":2640:2646   */\n      dup5\n        /* \"#utility.yul\":2564:2667   */\n      tag_81\n      jump\t// in\n    tag_123:\n        /* \"#utility.yul\":2388:2674   */\n      swap3\n      swap2\n      pop\n      pop\n      jump\t// out\n        /* \"#utility.yul\":2680:2860   */\n    tag_82:\n        /* \"#utility.yul\":2728:2805   */\n      0x4e487b7100000000000000000000000000000000000000000000000000000000\n        /* \"#utility.yul\":2725:2726   */\n      0x00\n        /* \"#utility.yul\":2718:2806   */\n      mstore\n        /* \"#utility.yul\":2825:2829   */\n      0x11\n        /* \"#utility.yul\":2822:2823   */\n      0x04\n        /* \"#utility.yul\":2815:2830   */\n      mstore\n        /* \"#utility.yul\":2849:2853   */\n      0x24\n        /* \"#utility.yul\":2846:2847   */\n      0x00\n        /* \"#utility.yul\":2839:2854   */\n      revert\n        /* \"#utility.yul\":2866:3057   */\n    tag_48:\n        /* \"#utility.yul\":2906:2909   */\n      0x00\n        /* \"#utility.yul\":2925:2945   */\n      tag_126\n        /* \"#utility.yul\":2943:2944   */\n      dup3\n        /* \"#utility.yul\":2925:2945   */\n      tag_74\n      jump\t// in\n    tag_126:\n        /* \"#utility.yul\":2920:2945   */\n      swap2\n      pop\n        /* \"#utility.yul\":2959:2979   */\n      tag_127\n        /* \"#utility.yul\":2977:2978   */\n      dup4\n        /* \"#utility.yul\":2959:2979   */\n      tag_74\n      jump\t// in\n    tag_127:\n        /* \"#utility.yul\":2954:2979   */\n      swap3\n      pop\n        /* \"#utility.yul\":3002:3003   */\n      dup3\n        /* \"#utility.yul\":2999:3000   */\n      dup3\n        /* \"#utility.yul\":2995:3004   */\n      add\n        /* \"#utility.yul\":2988:3004   */\n      swap1\n      pop\n        /* \"#utility.yul\":3023:3026   */\n      dup1\n        /* \"#utility.yul\":3020:3021   */\n      dup3\n        /* \"#utility.yul\":3017:3027   */\n      gt\n        /* \"#utility.yul\":3014:3050   */\n      iszero\n      tag_128\n      jumpi\n        /* \"#utility.yul\":3030:3048   */\n      tag_129\n      tag_82\n      jump\t// in\n    tag_129:\n        /* \"#utility.yul\":3014:3050   */\n    tag_128:\n        /* \"#utility.yul\":2866:3057   */\n      swap3\n      swap2\n      pop\n      pop\n      jump\t// out\n        /* \"#utility.yul\":3063:3181   */\n    tag_83:\n        /* \"#utility.yul\":3150:3174   */\n      tag_131\n        /* \"#utility.yul\":3168:3173   */\n      dup2\n        /* \"#utility.yul\":3150:3174   */\n      tag_71\n      jump\t// in\n    tag_131:\n        /* \"#utility.yul\":3145:3148   */\n      dup3\n        /* \"#utility.yul\":3138:3175   */\n      mstore\n        /* \"#utility.yul\":3063:3181   */\n      pop\n      pop\n      jump\t// out\n        /* \"#utility.yul\":3187:3305   */\n    tag_84:\n        /* \"#utility.yul\":3274:3298   */\n      tag_133\n        /* \"#utility.yul\":3292:3297   */\n      dup2\n        /* \"#utility.yul\":3274:3298   */\n      tag_74\n      jump\t// in\n    tag_133:\n        /* \"#utility.yul\":3269:3272   */\n      dup3\n        /* \"#utility.yul\":3262:3299   */\n      mstore\n        /* \"#utility.yul\":3187:3305   */\n      pop\n      pop\n      jump\t// out\n        /* \"#utility.yul\":3311:3753   */\n    tag_50:\n        /* \"#utility.yul\":3460:3464   */\n      0x00\n        /* \"#utility.yul\":3498:3500   */\n      0x60\n        /* \"#utility.yul\":3487:3496   */\n      dup3\n        /* \"#utility.yul\":3483:3501   */\n      add\n        /* \"#utility.yul\":3475:3501   */\n      swap1\n      pop\n        /* \"#utility.yul\":3511:3582   */\n      tag_135\n        /* \"#utility.yul\":3579:3580   */\n      0x00\n        /* \"#utility.yul\":3568:3577   */\n      dup4\n        /* \"#utility.yul\":3564:3581   */\n      add\n        /* \"#utility.yul\":3555:3561   */\n      dup7\n        /* \"#utility.yul\":3511:3582   */\n      tag_83\n      jump\t// in\n    tag_135:\n        /* \"#utility.yul\":3592:3664   */\n      tag_136\n        /* \"#utility.yul\":3660:3662   */\n      0x20\n        /* \"#utility.yul\":3649:3658   */\n      dup4\n        /* \"#utility.yul\":3645:3663   */\n      add\n        /* \"#utility.yul\":3636:3642   */\n      dup6\n        /* \"#utility.yul\":3592:3664   */\n      tag_83\n      jump\t// in\n    tag_136:\n        /* \"#utility.yul\":3674:3746   */\n      tag_137\n        /* \"#utility.yul\":3742:3744   */\n      0x40\n        /* \"#utility.yul\":3731:3740   */\n      dup4\n        /* \"#utility.yul\":3727:3745   */\n      add\n        /* \"#utility.yul\":3718:3724   */\n      dup5\n        /* \"#utility.yul\":3674:3746   */\n      tag_84\n      jump\t// in\n    tag_137:\n        /* \"#utility.yul\":3311:3753   */\n      swap5\n      swap4\n      pop\n      pop\n      pop\n      pop\n      jump\t// out\n        /* \"#utility.yul\":3759:3849   */\n    tag_85:\n        /* \"#utility.yul\":3793:3800   */\n      0x00\n        /* \"#utility.yul\":3836:3841   */\n      dup2\n        /* \"#utility.yul\":3829:3842   */\n      iszero\n        /* \"#utility.yul\":3822:3843   */\n      iszero\n        /* \"#utility.yul\":3811:3843   */\n      swap1\n      pop\n        /* \"#utility.yul\":3759:3849   */\n      swap2\n      swap1\n      pop\n      jump\t// out\n        /* \"#utility.yul\":3855:3971   */\n    tag_86:\n        /* \"#utility.yul\":3925:3946   */\n      tag_140\n        /* \"#utility.yul\":3940:3945   */\n      dup2\n        /* \"#utility.yul\":3925:3946   */\n      tag_85\n      jump\t// in\n    tag_140:\n        /* \"#utility.yul\":3918:3923   */\n      dup2\n        /* \"#utility.yul\":3915:3947   */\n      eq\n        /* \"#utility.yul\":3905:3965   */\n      tag_141\n      jumpi\n        /* \"#utility.yul\":3961:3962   */\n      0x00\n        /* \"#utility.yul\":3958:3959   */\n      0x00\n        /* \"#utility.yul\":3951:3963   */\n      revert\n        /* \"#utility.yul\":3905:3965   */\n    tag_141:\n        /* \"#utility.yul\":3855:3971   */\n      pop\n      jump\t// out\n        /* \"#utility.yul\":3977:4114   */\n    tag_87:\n        /* \"#utility.yul\":4031:4036   */\n      0x00\n        /* \"#utility.yul\":4062:4068   */\n      dup2\n        /* \"#utility.yul\":4056:4069   */\n      mload\n        /* \"#utility.yul\":4047:4069   */\n      swap1\n      pop\n        /* \"#utility.yul\":4078:4108   */\n      tag_143\n        /* \"#utility.yul\":4102:4107   */\n      dup2\n        /* \"#utility.yul\":4078:4108   */\n      tag_86\n      jump\t// in\n    tag_143:\n        /* \"#utility.yul\":3977:4114   */\n      swap3\n      swap2\n      pop\n      pop\n      jump\t// out\n        /* \"#utility.yul\":4120:4465   */\n    tag_54:\n        /* \"#utility.yul\":4187:4193   */\n      0x00\n        /* \"#utility.yul\":4236:4238   */\n      0x20\n        /* \"#utility.yul\":4224:4233   */\n      dup3\n        /* \"#utility.yul\":4215:4222   */\n      dup5\n        /* \"#utility.yul\":4211:4234   */\n      sub\n        /* \"#utility.yul\":4207:4239   */\n      slt\n        /* \"#utility.yul\":4204:4323   */\n      iszero\n      tag_145\n      jumpi\n        /* \"#utility.yul\":4242:4321   */\n      tag_146\n      tag_68\n      jump\t// in\n    tag_146:\n        /* \"#utility.yul\":4204:4323   */\n    tag_145:\n        /* \"#utility.yul\":4362:4363   */\n      0x00\n        /* \"#utility.yul\":4387:4448   */\n      tag_147\n        /* \"#utility.yul\":4440:4447   */\n      dup5\n        /* \"#utility.yul\":4431:4437   */\n      dup3\n        /* \"#utility.yul\":4420:4429   */\n      dup6\n        /* \"#utility.yul\":4416:4438   */\n      add\n        /* \"#utility.yul\":4387:4448   */\n      tag_87\n      jump\t// in\n    tag_147:\n        /* \"#utility.yul\":4377:4448   */\n      swap2\n      pop\n        /* \"#utility.yul\":4333:4458   */\n      pop\n        /* \"#utility.yul\":4120:4465   */\n      swap3\n      swap2\n      pop\n      pop\n      jump\t// out\n        /* \"#utility.yul\":4471:4693   */\n    tag_57:\n        /* \"#utility.yul\":4564:4568   */\n      0x00\n        /* \"#utility.yul\":4602:4604   */\n      0x20\n        /* \"#utility.yul\":4591:4600   */\n      dup3\n        /* \"#utility.yul\":4587:4605   */\n      add\n        /* \"#utility.yul\":4579:4605   */\n      swap1\n      pop\n        /* \"#utility.yul\":4615:4686   */\n      tag_149\n        /* \"#utility.yul\":4683:4684   */\n      0x00\n        /* \"#utility.yul\":4672:4681   */\n      dup4\n        /* \"#utility.yul\":4668:4685   */\n      add\n        /* \"#utility.yul\":4659:4665   */\n      dup5\n        /* \"#utility.yul\":4615:4686   */\n      tag_83\n      jump\t// in\n    tag_149:\n        /* \"#utility.yul\":4471:4693   */\n      swap3\n      swap2\n      pop\n      pop\n      jump\t// out\n\n    auxdata: 0xa264697066735822122076c643777ad9558a0fc1d6811b77869b5e61bbe3a8e7f03e4db40d80c3d4f41164736f6c634300081e0033\n}\n",
				"bytecode": {
					"linkReferences": {},
					"object": "60a060405234801561000f575f5ffd5b50604051610b72380380610b728339818101604052810190610031919061039a565b60015f819055508051825114610073576040517fb5c5c12600000000000000000000000000000000000000000000000000000000815260040160405180910390fd5b5f73ffffffffffffffffffffffffffffffffffffffff168373ffffffffffffffffffffffffffffffffffffffff16036100d8576040517fef8f9dd100000000000000000000000000000000000000000000000000000000815260040160405180910390fd5b5f5f90505b82518110156101a2578181815181106100f9576100f8610422565b5b602002602001015160015f85848151811061011757610116610422565b5b602002602001015173ffffffffffffffffffffffffffffffffffffffff1673ffffffffffffffffffffffffffffffffffffffff1681526020019081526020015f205f6101000a81548173ffffffffffffffffffffffffffffffffffffffff021916908373ffffffffffffffffffffffffffffffffffffffff16021790555080806001019150506100dd565b508273ffffffffffffffffffffffffffffffffffffffff1660808173ffffffffffffffffffffffffffffffffffffffff168152505050505061044f565b5f604051905090565b5f5ffd5b5f5ffd5b5f73ffffffffffffffffffffffffffffffffffffffff82169050919050565b5f610219826101f0565b9050919050565b6102298161020f565b8114610233575f5ffd5b50565b5f8151905061024481610220565b92915050565b5f5ffd5b5f601f19601f8301169050919050565b7f4e487b71000000000000000000000000000000000000000000000000000000005f52604160045260245ffd5b6102948261024e565b810181811067ffffffffffffffff821117156102b3576102b261025e565b5b80604052505050565b5f6102c56101df565b90506102d1828261028b565b919050565b5f67ffffffffffffffff8211156102f0576102ef61025e565b5b602082029050602081019050919050565b5f5ffd5b5f610317610312846102d6565b6102bc565b9050808382526020820190506020840283018581111561033a57610339610301565b5b835b81811015610363578061034f8882610236565b84526020840193505060208101905061033c565b5050509392505050565b5f82601f8301126103815761038061024a565b5b8151610391848260208601610305565b91505092915050565b5f5f5f606084860312156103b1576103b06101e8565b5b5f6103be86828701610236565b935050602084015167ffffffffffffffff8111156103df576103de6101ec565b5b6103eb8682870161036d565b925050604084015167ffffffffffffffff81111561040c5761040b6101ec565b5b6104188682870161036d565b9150509250925092565b7f4e487b71000000000000000000000000000000000000000000000000000000005f52603260045260245ffd5b60805161070b6104675f395f61012f015261070b5ff3fe608060405234801561000f575f5ffd5b5060043610610091575f3560e01c8063a5d5db0c11610064578063a5d5db0c146100e3578063a5f352b7146100ff578063c9457f6d14610109578063ca5ba61f14610113578063ffde1fba1461011d57610091565b806328a070251461009557806350328a601461009f5780635e338bb3146100bb5780639e297554146100d9575b5f5ffd5b61009d610127565b005b6100b960048036038101906100b491906104f7565b610129565b005b6100c361012d565b6040516100d09190610590565b60405180910390f35b6100e1610151565b005b6100fd60048036038101906100f891906104f7565b610153565b005b610107610411565b005b610111610413565b005b61011b610415565b005b610125610417565b005b565b5050565b7f000000000000000000000000000000000000000000000000000000000000000081565b565b805f810361018d576040517fcb1d3f7d00000000000000000000000000000000000000000000000000000000815260040160405180910390fd5b825f73ffffffffffffffffffffffffffffffffffffffff1660015f8373ffffffffffffffffffffffffffffffffffffffff1673ffffffffffffffffffffffffffffffffffffffff1681526020019081526020015f205f9054906101000a900473ffffffffffffffffffffffffffffffffffffffff1673ffffffffffffffffffffffffffffffffffffffff160361024f576040517fa802cfbe00000000000000000000000000000000000000000000000000000000815260040160405180910390fd5b610257610419565b8260025f3373ffffffffffffffffffffffffffffffffffffffff1673ffffffffffffffffffffffffffffffffffffffff1681526020019081526020015f205f8673ffffffffffffffffffffffffffffffffffffffff1673ffffffffffffffffffffffffffffffffffffffff1681526020019081526020015f205f8282546102de91906105d6565b925050819055505f8473ffffffffffffffffffffffffffffffffffffffff166323b872dd3330876040518463ffffffff1660e01b815260040161032393929190610627565b6020604051808303815f875af115801561033f573d5f5f3e3d5ffd5b505050506040513d601f19601f820116820180604052508101906103639190610691565b9050806103a757846040517fbc3fe12700000000000000000000000000000000000000000000000000000000815260040161039e91906106bc565b60405180910390fd5b838573ffffffffffffffffffffffffffffffffffffffff163373ffffffffffffffffffffffffffffffffffffffff167ff1c0dd7e9b98bbff859029005ef89b127af049cd18df1a8d79f0b7e019911e5660405160405180910390a45061040b61045d565b50505050565b565b565b565b565b60025f5403610454576040517f3ee5aeb500000000000000000000000000000000000000000000000000000000815260040160405180910390fd5b60025f81905550565b60015f81905550565b5f5ffd5b5f73ffffffffffffffffffffffffffffffffffffffff82169050919050565b5f6104938261046a565b9050919050565b6104a381610489565b81146104ad575f5ffd5b50565b5f813590506104be8161049a565b92915050565b5f819050919050565b6104d6816104c4565b81146104e0575f5ffd5b50565b5f813590506104f1816104cd565b92915050565b5f5f6040838503121561050d5761050c610466565b5b5f61051a858286016104b0565b925050602061052b858286016104e3565b9150509250929050565b5f819050919050565b5f61055861055361054e8461046a565b610535565b61046a565b9050919050565b5f6105698261053e565b9050919050565b5f61057a8261055f565b9050919050565b61058a81610570565b82525050565b5f6020820190506105a35f830184610581565b92915050565b7f4e487b71000000000000000000000000000000000000000000000000000000005f52601160045260245ffd5b5f6105e0826104c4565b91506105eb836104c4565b9250828201905080821115610603576106026105a9565b5b92915050565b61061281610489565b82525050565b610621816104c4565b82525050565b5f60608201905061063a5f830186610609565b6106476020830185610609565b6106546040830184610618565b949350505050565b5f8115159050919050565b6106708161065c565b811461067a575f5ffd5b50565b5f8151905061068b81610667565b92915050565b5f602082840312156106a6576106a5610466565b5b5f6106b38482850161067d565b91505092915050565b5f6020820190506106cf5f830184610609565b9291505056fea264697066735822122076c643777ad9558a0fc1d6811b77869b5e61bbe3a8e7f03e4db40d80c3d4f41164736f6c634300081e0033",
					"opcodes": "PUSH1 0xA0 PUSH1 0x40 MSTORE CALLVALUE DUP1 ISZERO PUSH2 0xF JUMPI PUSH0 PUSH0 REVERT JUMPDEST POP PUSH1 0x40 MLOAD PUSH2 0xB72 CODESIZE SUB DUP1 PUSH2 0xB72 DUP4 CODECOPY DUP2 DUP2 ADD PUSH1 0x40 MSTORE DUP2 ADD SWAP1 PUSH2 0x31 SWAP2 SWAP1 PUSH2 0x39A JUMP JUMPDEST PUSH1 0x1 PUSH0 DUP2 SWAP1 SSTORE POP DUP1 MLOAD DUP3 MLOAD EQ PUSH2 0x73 JUMPI PUSH1 0x40 MLOAD PUSH32 0xB5C5C12600000000000000000000000000000000000000000000000000000000 DUP2 MSTORE PUSH1 0x4 ADD PUSH1 0x40 MLOAD DUP1 SWAP2 SUB SWAP1 REVERT JUMPDEST PUSH0 PUSH20 0xFFFFFFFFFFFFFFFFFFFFFFFFFFFFFFFFFFFFFFFF AND DUP4 PUSH20 0xFFFFFFFFFFFFFFFFFFFFFFFFFFFFFFFFFFFFFFFF AND SUB PUSH2 0xD8 JUMPI PUSH1 0x40 MLOAD PUSH32 0xEF8F9DD100000000000000000000000000000000000000000000000000000000 DUP2 MSTORE PUSH1 0x4 ADD PUSH1 0x40 MLOAD DUP1 SWAP2 SUB SWAP1 REVERT JUMPDEST PUSH0 PUSH0 SWAP1 POP JUMPDEST DUP3 MLOAD DUP2 LT ISZERO PUSH2 0x1A2 JUMPI DUP2 DUP2 DUP2 MLOAD DUP2 LT PUSH2 0xF9 JUMPI PUSH2 0xF8 PUSH2 0x422 JUMP JUMPDEST JUMPDEST PUSH1 0x20 MUL PUSH1 0x20 ADD ADD MLOAD PUSH1 0x1 PUSH0 DUP6 DUP5 DUP2 MLOAD DUP2 LT PUSH2 0x117 JUMPI PUSH2 0x116 PUSH2 0x422 JUMP JUMPDEST JUMPDEST PUSH1 0x20 MUL PUSH1 0x20 ADD ADD MLOAD PUSH20 0xFFFFFFFFFFFFFFFFFFFFFFFFFFFFFFFFFFFFFFFF AND PUSH20 0xFFFFFFFFFFFFFFFFFFFFFFFFFFFFFFFFFFFFFFFF AND DUP2 MSTORE PUSH1 0x20 ADD SWAP1 DUP2 MSTORE PUSH1 0x20 ADD PUSH0 KECCAK256 PUSH0 PUSH2 0x100 EXP DUP2 SLOAD DUP2 PUSH20 0xFFFFFFFFFFFFFFFFFFFFFFFFFFFFFFFFFFFFFFFF MUL NOT AND SWAP1 DUP4 PUSH20 0xFFFFFFFFFFFFFFFFFFFFFFFFFFFFFFFFFFFFFFFF AND MUL OR SWAP1 SSTORE POP DUP1 DUP1 PUSH1 0x1 ADD SWAP2 POP POP PUSH2 0xDD JUMP JUMPDEST POP DUP3 PUSH20 0xFFFFFFFFFFFFFFFFFFFFFFFFFFFFFFFFFFFFFFFF AND PUSH1 0x80 DUP2 PUSH20 0xFFFFFFFFFFFFFFFFFFFFFFFFFFFFFFFFFFFFFFFF AND DUP2 MSTORE POP POP POP POP POP PUSH2 0x44F JUMP JUMPDEST PUSH0 PUSH1 0x40 MLOAD SWAP1 POP SWAP1 JUMP JUMPDEST PUSH0 PUSH0 REVERT JUMPDEST PUSH0 PUSH0 REVERT JUMPDEST PUSH0 PUSH20 0xFFFFFFFFFFFFFFFFFFFFFFFFFFFFFFFFFFFFFFFF DUP3 AND SWAP1 POP SWAP2 SWAP1 POP JUMP JUMPDEST PUSH0 PUSH2 0x219 DUP3 PUSH2 0x1F0 JUMP JUMPDEST SWAP1 POP SWAP2 SWAP1 POP JUMP JUMPDEST PUSH2 0x229 DUP2 PUSH2 0x20F JUMP JUMPDEST DUP2 EQ PUSH2 0x233 JUMPI PUSH0 PUSH0 REVERT JUMPDEST POP JUMP JUMPDEST PUSH0 DUP2 MLOAD SWAP1 POP PUSH2 0x244 DUP2 PUSH2 0x220 JUMP JUMPDEST SWAP3 SWAP2 POP POP JUMP JUMPDEST PUSH0 PUSH0 REVERT JUMPDEST PUSH0 PUSH1 0x1F NOT PUSH1 0x1F DUP4 ADD AND SWAP1 POP SWAP2 SWAP1 POP JUMP JUMPDEST PUSH32 0x4E487B7100000000000000000000000000000000000000000000000000000000 PUSH0 MSTORE PUSH1 0x41 PUSH1 0x4 MSTORE PUSH1 0x24 PUSH0 REVERT JUMPDEST PUSH2 0x294 DUP3 PUSH2 0x24E JUMP JUMPDEST DUP2 ADD DUP2 DUP2 LT PUSH8 0xFFFFFFFFFFFFFFFF DUP3 GT OR ISZERO PUSH2 0x2B3 JUMPI PUSH2 0x2B2 PUSH2 0x25E JUMP JUMPDEST JUMPDEST DUP1 PUSH1 0x40 MSTORE POP POP POP JUMP JUMPDEST PUSH0 PUSH2 0x2C5 PUSH2 0x1DF JUMP JUMPDEST SWAP1 POP PUSH2 0x2D1 DUP3 DUP3 PUSH2 0x28B JUMP JUMPDEST SWAP2 SWAP1 POP JUMP JUMPDEST PUSH0 PUSH8 0xFFFFFFFFFFFFFFFF DUP3 GT ISZERO PUSH2 0x2F0 JUMPI PUSH2 0x2EF PUSH2 0x25E JUMP JUMPDEST JUMPDEST PUSH1 0x20 DUP3 MUL SWAP1 POP PUSH1 0x20 DUP2 ADD SWAP1 POP SWAP2 SWAP1 POP JUMP JUMPDEST PUSH0 PUSH0 REVERT JUMPDEST PUSH0 PUSH2 0x317 PUSH2 0x312 DUP5 PUSH2 0x2D6 JUMP JUMPDEST PUSH2 0x2BC JUMP JUMPDEST SWAP1 POP DUP1 DUP4 DUP3 MSTORE PUSH1 0x20 DUP3 ADD SWAP1 POP PUSH1 0x20 DUP5 MUL DUP4 ADD DUP6 DUP2 GT ISZERO PUSH2 0x33A JUMPI PUSH2 0x339 PUSH2 0x301 JUMP JUMPDEST JUMPDEST DUP4 JUMPDEST DUP2 DUP2 LT ISZERO PUSH2 0x363 JUMPI DUP1 PUSH2 0x34F DUP9 DUP3 PUSH2 0x236 JUMP JUMPDEST DUP5 MSTORE PUSH1 0x20 DUP5 ADD SWAP4 POP POP PUSH1 0x20 DUP2 ADD SWAP1 POP PUSH2 0x33C JUMP JUMPDEST POP POP POP SWAP4 SWAP3 POP POP POP JUMP JUMPDEST PUSH0 DUP3 PUSH1 0x1F DUP4 ADD SLT PUSH2 0x381 JUMPI PUSH2 0x380 PUSH2 0x24A JUMP JUMPDEST JUMPDEST DUP2 MLOAD PUSH2 0x391 DUP5 DUP3 PUSH1 0x20 DUP7 ADD PUSH2 0x305 JUMP JUMPDEST SWAP2 POP POP SWAP3 SWAP2 POP POP JUMP JUMPDEST PUSH0 PUSH0 PUSH0 PUSH1 0x60 DUP5 DUP7 SUB SLT ISZERO PUSH2 0x3B1 JUMPI PUSH2 0x3B0 PUSH2 0x1E8 JUMP JUMPDEST JUMPDEST PUSH0 PUSH2 0x3BE DUP7 DUP3 DUP8 ADD PUSH2 0x236 JUMP JUMPDEST SWAP4 POP POP PUSH1 0x20 DUP5 ADD MLOAD PUSH8 0xFFFFFFFFFFFFFFFF DUP2 GT ISZERO PUSH2 0x3DF JUMPI PUSH2 0x3DE PUSH2 0x1EC JUMP JUMPDEST JUMPDEST PUSH2 0x3EB DUP7 DUP3 DUP8 ADD PUSH2 0x36D JUMP JUMPDEST SWAP3 POP POP PUSH1 0x40 DUP5 ADD MLOAD PUSH8 0xFFFFFFFFFFFFFFFF DUP2 GT ISZERO PUSH2 0x40C JUMPI PUSH2 0x40B PUSH2 0x1EC JUMP JUMPDEST JUMPDEST PUSH2 0x418 DUP7 DUP3 DUP8 ADD PUSH2 0x36D JUMP JUMPDEST SWAP2 POP POP SWAP3 POP SWAP3 POP SWAP3 JUMP JUMPDEST PUSH32 0x4E487B7100000000000000000000000000000000000000000000000000000000 PUSH0 MSTORE PUSH1 0x32 PUSH1 0x4 MSTORE PUSH1 0x24 PUSH0 REVERT JUMPDEST PUSH1 0x80 MLOAD PUSH2 0x70B PUSH2 0x467 PUSH0 CODECOPY PUSH0 PUSH2 0x12F ADD MSTORE PUSH2 0x70B PUSH0 RETURN INVALID PUSH1 0x80 PUSH1 0x40 MSTORE CALLVALUE DUP1 ISZERO PUSH2 0xF JUMPI PUSH0 PUSH0 REVERT JUMPDEST POP PUSH1 0x4 CALLDATASIZE LT PUSH2 0x91 JUMPI PUSH0 CALLDATALOAD PUSH1 0xE0 SHR DUP1 PUSH4 0xA5D5DB0C GT PUSH2 0x64 JUMPI DUP1 PUSH4 0xA5D5DB0C EQ PUSH2 0xE3 JUMPI DUP1 PUSH4 0xA5F352B7 EQ PUSH2 0xFF JUMPI DUP1 PUSH4 0xC9457F6D EQ PUSH2 0x109 JUMPI DUP1 PUSH4 0xCA5BA61F EQ PUSH2 0x113 JUMPI DUP1 PUSH4 0xFFDE1FBA EQ PUSH2 0x11D JUMPI PUSH2 0x91 JUMP JUMPDEST DUP1 PUSH4 0x28A07025 EQ PUSH2 0x95 JUMPI DUP1 PUSH4 0x50328A60 EQ PUSH2 0x9F JUMPI DUP1 PUSH4 0x5E338BB3 EQ PUSH2 0xBB JUMPI DUP1 PUSH4 0x9E297554 EQ PUSH2 0xD9 JUMPI JUMPDEST PUSH0 PUSH0 REVERT JUMPDEST PUSH2 0x9D PUSH2 0x127 JUMP JUMPDEST STOP JUMPDEST PUSH2 0xB9 PUSH1 0x4 DUP1 CALLDATASIZE SUB DUP2 ADD SWAP1 PUSH2 0xB4 SWAP2 SWAP1 PUSH2 0x4F7 JUMP JUMPDEST PUSH2 0x129 JUMP JUMPDEST STOP JUMPDEST PUSH2 0xC3 PUSH2 0x12D JUMP JUMPDEST PUSH1 0x40 MLOAD PUSH2 0xD0 SWAP2 SWAP1 PUSH2 0x590 JUMP JUMPDEST PUSH1 0x40 MLOAD DUP1 SWAP2 SUB SWAP1 RETURN JUMPDEST PUSH2 0xE1 PUSH2 0x151 JUMP JUMPDEST STOP JUMPDEST PUSH2 0xFD PUSH1 0x4 DUP1 CALLDATASIZE SUB DUP2 ADD SWAP1 PUSH2 0xF8 SWAP2 SWAP1 PUSH2 0x4F7 JUMP JUMPDEST PUSH2 0x153 JUMP JUMPDEST STOP JUMPDEST PUSH2 0x107 PUSH2 0x411 JUMP JUMPDEST STOP JUMPDEST PUSH2 0x111 PUSH2 0x413 JUMP JUMPDEST STOP JUMPDEST PUSH2 0x11B PUSH2 0x415 JUMP JUMPDEST STOP JUMPDEST PUSH2 0x125 PUSH2 0x417 JUMP JUMPDEST STOP JUMPDEST JUMP JUMPDEST POP POP JUMP JUMPDEST PUSH32 0x0 DUP2 JUMP JUMPDEST JUMP JUMPDEST DUP1 PUSH0 DUP2 SUB PUSH2 0x18D JUMPI PUSH1 0x40 MLOAD PUSH32 0xCB1D3F7D00000000000000000000000000000000000000000000000000000000 DUP2 MSTORE PUSH1 0x4 ADD PUSH1 0x40 MLOAD DUP1 SWAP2 SUB SWAP1 REVERT JUMPDEST DUP3 PUSH0 PUSH20 0xFFFFFFFFFFFFFFFFFFFFFFFFFFFFFFFFFFFFFFFF AND PUSH1 0x1 PUSH0 DUP4 PUSH20 0xFFFFFFFFFFFFFFFFFFFFFFFFFFFFFFFFFFFFFFFF AND PUSH20 0xFFFFFFFFFFFFFFFFFFFFFFFFFFFFFFFFFFFFFFFF AND DUP2 MSTORE PUSH1 0x20 ADD SWAP1 DUP2 MSTORE PUSH1 0x20 ADD PUSH0 KECCAK256 PUSH0 SWAP1 SLOAD SWAP1 PUSH2 0x100 EXP SWAP1 DIV PUSH20 0xFFFFFFFFFFFFFFFFFFFFFFFFFFFFFFFFFFFFFFFF AND PUSH20 0xFFFFFFFFFFFFFFFFFFFFFFFFFFFFFFFFFFFFFFFF AND SUB PUSH2 0x24F JUMPI PUSH1 0x40 MLOAD PUSH32 0xA802CFBE00000000000000000000000000000000000000000000000000000000 DUP2 MSTORE PUSH1 0x4 ADD PUSH1 0x40 MLOAD DUP1 SWAP2 SUB SWAP1 REVERT JUMPDEST PUSH2 0x257 PUSH2 0x419 JUMP JUMPDEST DUP3 PUSH1 0x2 PUSH0 CALLER PUSH20 0xFFFFFFFFFFFFFFFFFFFFFFFFFFFFFFFFFFFFFFFF AND PUSH20 0xFFFFFFFFFFFFFFFFFFFFFFFFFFFFFFFFFFFFFFFF AND DUP2 MSTORE PUSH1 0x20 ADD SWAP1 DUP2 MSTORE PUSH1 0x20 ADD PUSH0 KECCAK256 PUSH0 DUP7 PUSH20 0xFFFFFFFFFFFFFFFFFFFFFFFFFFFFFFFFFFFFFFFF AND PUSH20 0xFFFFFFFFFFFFFFFFFFFFFFFFFFFFFFFFFFFFFFFF AND DUP2 MSTORE PUSH1 0x20 ADD SWAP1 DUP2 MSTORE PUSH1 0x20 ADD PUSH0 KECCAK256 PUSH0 DUP3 DUP3 SLOAD PUSH2 0x2DE SWAP2 SWAP1 PUSH2 0x5D6 JUMP JUMPDEST SWAP3 POP POP DUP2 SWAP1 SSTORE POP PUSH0 DUP5 PUSH20 0xFFFFFFFFFFFFFFFFFFFFFFFFFFFFFFFFFFFFFFFF AND PUSH4 0x23B872DD CALLER ADDRESS DUP8 PUSH1 0x40 MLOAD DUP5 PUSH4 0xFFFFFFFF AND PUSH1 0xE0 SHL DUP2 MSTORE PUSH1 0x4 ADD PUSH2 0x323 SWAP4 SWAP3 SWAP2 SWAP1 PUSH2 0x627 JUMP JUMPDEST PUSH1 0x20 PUSH1 0x40 MLOAD DUP1 DUP4 SUB DUP2 PUSH0 DUP8 GAS CALL ISZERO DUP1 ISZERO PUSH2 0x33F JUMPI RETURNDATASIZE PUSH0 PUSH0 RETURNDATACOPY RETURNDATASIZE PUSH0 REVERT JUMPDEST POP POP POP POP PUSH1 0x40 MLOAD RETURNDATASIZE PUSH1 0x1F NOT PUSH1 0x1F DUP3 ADD AND DUP3 ADD DUP1 PUSH1 0x40 MSTORE POP DUP2 ADD SWAP1 PUSH2 0x363 SWAP2 SWAP1 PUSH2 0x691 JUMP JUMPDEST SWAP1 POP DUP1 PUSH2 0x3A7 JUMPI DUP5 PUSH1 0x40 MLOAD PUSH32 0xBC3FE12700000000000000000000000000000000000000000000000000000000 DUP2 MSTORE PUSH1 0x4 ADD PUSH2 0x39E SWAP2 SWAP1 PUSH2 0x6BC JUMP JUMPDEST PUSH1 0x40 MLOAD DUP1 SWAP2 SUB SWAP1 REVERT JUMPDEST DUP4 DUP6 PUSH20 0xFFFFFFFFFFFFFFFFFFFFFFFFFFFFFFFFFFFFFFFF AND CALLER PUSH20 0xFFFFFFFFFFFFFFFFFFFFFFFFFFFFFFFFFFFFFFFF AND PUSH32 0xF1C0DD7E9B98BBFF859029005EF89B127AF049CD18DF1A8D79F0B7E019911E56 PUSH1 0x40 MLOAD PUSH1 0x40 MLOAD DUP1 SWAP2 SUB SWAP1 LOG4 POP PUSH2 0x40B PUSH2 0x45D JUMP JUMPDEST POP POP POP POP JUMP JUMPDEST JUMP JUMPDEST JUMP JUMPDEST JUMP JUMPDEST JUMP JUMPDEST PUSH1 0x2 PUSH0 SLOAD SUB PUSH2 0x454 JUMPI PUSH1 0x40 MLOAD PUSH32 0x3EE5AEB500000000000000000000000000000000000000000000000000000000 DUP2 MSTORE PUSH1 0x4 ADD PUSH1 0x40 MLOAD DUP1 SWAP2 SUB SWAP1 REVERT JUMPDEST PUSH1 0x2 PUSH0 DUP2 SWAP1 SSTORE POP JUMP JUMPDEST PUSH1 0x1 PUSH0 DUP2 SWAP1 SSTORE POP JUMP JUMPDEST PUSH0 PUSH0 REVERT JUMPDEST PUSH0 PUSH20 0xFFFFFFFFFFFFFFFFFFFFFFFFFFFFFFFFFFFFFFFF DUP3 AND SWAP1 POP SWAP2 SWAP1 POP JUMP JUMPDEST PUSH0 PUSH2 0x493 DUP3 PUSH2 0x46A JUMP JUMPDEST SWAP1 POP SWAP2 SWAP1 POP JUMP JUMPDEST PUSH2 0x4A3 DUP2 PUSH2 0x489 JUMP JUMPDEST DUP2 EQ PUSH2 0x4AD JUMPI PUSH0 PUSH0 REVERT JUMPDEST POP JUMP JUMPDEST PUSH0 DUP2 CALLDATALOAD SWAP1 POP PUSH2 0x4BE DUP2 PUSH2 0x49A JUMP JUMPDEST SWAP3 SWAP2 POP POP JUMP JUMPDEST PUSH0 DUP2 SWAP1 POP SWAP2 SWAP1 POP JUMP JUMPDEST PUSH2 0x4D6 DUP2 PUSH2 0x4C4 JUMP JUMPDEST DUP2 EQ PUSH2 0x4E0 JUMPI PUSH0 PUSH0 REVERT JUMPDEST POP JUMP JUMPDEST PUSH0 DUP2 CALLDATALOAD SWAP1 POP PUSH2 0x4F1 DUP2 PUSH2 0x4CD JUMP JUMPDEST SWAP3 SWAP2 POP POP JUMP JUMPDEST PUSH0 PUSH0 PUSH1 0x40 DUP4 DUP6 SUB SLT ISZERO PUSH2 0x50D JUMPI PUSH2 0x50C PUSH2 0x466 JUMP JUMPDEST JUMPDEST PUSH0 PUSH2 0x51A DUP6 DUP3 DUP7 ADD PUSH2 0x4B0 JUMP JUMPDEST SWAP3 POP POP PUSH1 0x20 PUSH2 0x52B DUP6 DUP3 DUP7 ADD PUSH2 0x4E3 JUMP JUMPDEST SWAP2 POP POP SWAP3 POP SWAP3 SWAP1 POP JUMP JUMPDEST PUSH0 DUP2 SWAP1 POP SWAP2 SWAP1 POP JUMP JUMPDEST PUSH0 PUSH2 0x558 PUSH2 0x553 PUSH2 0x54E DUP5 PUSH2 0x46A JUMP JUMPDEST PUSH2 0x535 JUMP JUMPDEST PUSH2 0x46A JUMP JUMPDEST SWAP1 POP SWAP2 SWAP1 POP JUMP JUMPDEST PUSH0 PUSH2 0x569 DUP3 PUSH2 0x53E JUMP JUMPDEST SWAP1 POP SWAP2 SWAP1 POP JUMP JUMPDEST PUSH0 PUSH2 0x57A DUP3 PUSH2 0x55F JUMP JUMPDEST SWAP1 POP SWAP2 SWAP1 POP JUMP JUMPDEST PUSH2 0x58A DUP2 PUSH2 0x570 JUMP JUMPDEST DUP3 MSTORE POP POP JUMP JUMPDEST PUSH0 PUSH1 0x20 DUP3 ADD SWAP1 POP PUSH2 0x5A3 PUSH0 DUP4 ADD DUP5 PUSH2 0x581 JUMP JUMPDEST SWAP3 SWAP2 POP POP JUMP JUMPDEST PUSH32 0x4E487B7100000000000000000000000000000000000000000000000000000000 PUSH0 MSTORE PUSH1 0x11 PUSH1 0x4 MSTORE PUSH1 0x24 PUSH0 REVERT JUMPDEST PUSH0 PUSH2 0x5E0 DUP3 PUSH2 0x4C4 JUMP JUMPDEST SWAP2 POP PUSH2 0x5EB DUP4 PUSH2 0x4C4 JUMP JUMPDEST SWAP3 POP DUP3 DUP3 ADD SWAP1 POP DUP1 DUP3 GT ISZERO PUSH2 0x603 JUMPI PUSH2 0x602 PUSH2 0x5A9 JUMP JUMPDEST JUMPDEST SWAP3 SWAP2 POP POP JUMP JUMPDEST PUSH2 0x612 DUP2 PUSH2 0x489 JUMP JUMPDEST DUP3 MSTORE POP POP JUMP JUMPDEST PUSH2 0x621 DUP2 PUSH2 0x4C4 JUMP JUMPDEST DUP3 MSTORE POP POP JUMP JUMPDEST PUSH0 PUSH1 0x60 DUP3 ADD SWAP1 POP PUSH2 0x63A PUSH0 DUP4 ADD DUP7 PUSH2 0x609 JUMP JUMPDEST PUSH2 0x647 PUSH1 0x20 DUP4 ADD DUP6 PUSH2 0x609 JUMP JUMPDEST PUSH2 0x654 PUSH1 0x40 DUP4 ADD DUP5 PUSH2 0x618 JUMP JUMPDEST SWAP5 SWAP4 POP POP POP POP JUMP JUMPDEST PUSH0 DUP2 ISZERO ISZERO SWAP1 POP SWAP2 SWAP1 POP JUMP JUMPDEST PUSH2 0x670 DUP2 PUSH2 0x65C JUMP JUMPDEST DUP2 EQ PUSH2 0x67A JUMPI PUSH0 PUSH0 REVERT JUMPDEST POP JUMP JUMPDEST PUSH0 DUP2 MLOAD SWAP1 POP PUSH2 0x68B DUP2 PUSH2 0x667 JUMP JUMPDEST SWAP3 SWAP2 POP POP JUMP JUMPDEST PUSH0 PUSH1 0x20 DUP3 DUP5 SUB SLT ISZERO PUSH2 0x6A6 JUMPI PUSH2 0x6A5 PUSH2 0x466 JUMP JUMPDEST JUMPDEST PUSH0 PUSH2 0x6B3 DUP5 DUP3 DUP6 ADD PUSH2 0x67D JUMP JUMPDEST SWAP2 POP POP SWAP3 SWAP2 POP POP JUMP JUMPDEST PUSH0 PUSH1 0x20 DUP3 ADD SWAP1 POP PUSH2 0x6CF PUSH0 DUP4 ADD DUP5 PUSH2 0x609 JUMP JUMPDEST SWAP3 SWAP2 POP POP JUMP INVALID LOG2 PUSH5 0x6970667358 0x22 SLT KECCAK256 PUSH23 0xC643777AD9558A0FC1D6811B77869B5E61BBE3A8E7F03E 0x4D 0xB4 0xD DUP1 0xC3 0xD4 DELEGATECALL GT PUSH5 0x736F6C6343 STOP ADDMOD 0x1E STOP CALLER "
				},
				"gasEstimates": {
					"creation": {
						"codeDepositCost": "360600",
						"executionCost": "infinite",
						"totalCost": "infinite"
					},
					"external": {
						"burnDsc()": "231",
						"depositCollateral(address,uint256)": "infinite",
						"depositCollateralAndMintDsc(address,uint256)": "642",
						"getHealthFactor()": "165",
						"i_dsc()": "infinite",
						"liquidate()": "144",
						"mintDsc()": "209",
						"redeemCollateralForDsc()": "210",
						"redeemCollateralc()": "187"
					}
				},
				"methodIdentifiers": {
					"burnDsc()": "ffde1fba",
					"depositCollateral(address,uint256)": "a5d5db0c",
					"depositCollateralAndMintDsc(address,uint256)": "50328a60",
					"getHealthFactor()": "a5f352b7",
					"i_dsc()": "5e338bb3",
					"liquidate()": "28a07025",
					"mintDsc()": "ca5ba61f",
					"redeemCollateralForDsc()": "9e297554",
					"redeemCollateralc()": "c9457f6d"
				}
			},
			"storageLayout": {
				"storage": [
					{
						"astId": 990,
						"contract": "src/DSCEngine.sol:DSCEngine",
						"label": "_status",
						"offset": 0,
						"slot": "0",
						"type": "t_uint256"
					},
					{
						"astId": 1077,
						"contract": "src/DSCEngine.sol:DSCEngine",
						"label": "s_priceFeeds",
						"offset": 0,
						"slot": "1",
						"type": "t_mapping(t_address,t_address)"
					},
					{
						"astId": 1083,
						"contract": "src/DSCEngine.sol:DSCEngine",
						"label": "s_collateralDeposited",
						"offset": 0,
						"slot": "2",
						"type": "t_mapping(t_address,t_mapping(t_address,t_uint256))"
					}
				],
				"types": {
					"t_address": {
						"encoding": "inplace",
						"label": "address",
						"numberOfBytes": "20"
					},
					"t_mapping(t_address,t_address)": {
						"encoding": "mapping",
						"key": "t_address",
						"label": "mapping(address => address)",
						"numberOfBytes": "32",
						"value": "t_address"
					},
					"t_mapping(t_address,t_mapping(t_address,t_uint256))": {
						"encoding": "mapping",
						"key": "t_address",
						"label": "mapping(address => mapping(address => uint256))",
						"numberOfBytes": "32",
						"value": "t_mapping(t_address,t_uint256)"
					},
					"t_mapping(t_address,t_uint256)": {
						"encoding": "mapping",
						"key": "t_address",
						"label": "mapping(address => uint256)",
						"numberOfBytes": "32",
						"value": "t_uint256"
					},
					"t_uint256": {
						"encoding": "inplace",
						"label": "uint256",
						"numberOfBytes": "32"
					}
				}
			},
			"userdoc": {
				"kind": "user",
				"methods": {},
				"version": 1
			}
		}
	}
}