{
	"data": {
		"bytecode": {
			"linkReferences": {},
			"object": "60a060405234801561000f575f5ffd5b50604051610bfb380380610bfb8339818101604052810190610031919061039a565b60015f819055508051825114610073576040517fb5c5c12600000000000000000000000000000000000000000000000000000000815260040160405180910390fd5b5f73ffffffffffffffffffffffffffffffffffffffff168373ffffffffffffffffffffffffffffffffffffffff16036100d8576040517fef8f9dd100000000000000000000000000000000000000000000000000000000815260040160405180910390fd5b5f5f90505b82518110156101a2578181815181106100f9576100f8610422565b5b602002602001015160015f85848151811061011757610116610422565b5b602002602001015173ffffffffffffffffffffffffffffffffffffffff1673ffffffffffffffffffffffffffffffffffffffff1681526020019081526020015f205f6101000a81548173ffffffffffffffffffffffffffffffffffffffff021916908373ffffffffffffffffffffffffffffffffffffffff16021790555080806001019150506100dd565b508273ffffffffffffffffffffffffffffffffffffffff1660808173ffffffffffffffffffffffffffffffffffffffff168152505050505061044f565b5f604051905090565b5f5ffd5b5f5ffd5b5f73ffffffffffffffffffffffffffffffffffffffff82169050919050565b5f610219826101f0565b9050919050565b6102298161020f565b8114610233575f5ffd5b50565b5f8151905061024481610220565b92915050565b5f5ffd5b5f601f19601f8301169050919050565b7f4e487b71000000000000000000000000000000000000000000000000000000005f52604160045260245ffd5b6102948261024e565b810181811067ffffffffffffffff821117156102b3576102b261025e565b5b80604052505050565b5f6102c56101df565b90506102d1828261028b565b919050565b5f67ffffffffffffffff8211156102f0576102ef61025e565b5b602082029050602081019050919050565b5f5ffd5b5f610317610312846102d6565b6102bc565b9050808382526020820190506020840283018581111561033a57610339610301565b5b835b81811015610363578061034f8882610236565b84526020840193505060208101905061033c565b5050509392505050565b5f82601f8301126103815761038061024a565b5b8151610391848260208601610305565b91505092915050565b5f5f5f606084860312156103b1576103b06101e8565b5b5f6103be86828701610236565b935050602084015167ffffffffffffffff8111156103df576103de6101ec565b5b6103eb8682870161036d565b925050604084015167ffffffffffffffff81111561040c5761040b6101ec565b5b6104188682870161036d565b9150509250925092565b7f4e487b71000000000000000000000000000000000000000000000000000000005f52603260045260245ffd5b6080516107946104675f395f61014101526107945ff3fe608060405234801561000f575f5ffd5b5060043610610091575f3560e01c8063a5d5db0c11610064578063a5d5db0c146100e3578063a5f352b7146100ff578063c9457f6d14610109578063c9b7c32714610113578063ffde1fba1461012f57610091565b806328a070251461009557806350328a601461009f5780635e338bb3146100bb5780639e297554146100d9575b5f5ffd5b61009d610139565b005b6100b960048036038101906100b49190610555565b61013b565b005b6100c361013f565b6040516100d091906105ee565b60405180910390f35b6100e1610163565b005b6100fd60048036038101906100f89190610555565b610165565b005b610107610423565b005b610111610425565b005b61012d60048036038101906101289190610607565b610427565b005b610137610475565b005b565b5050565b7f000000000000000000000000000000000000000000000000000000000000000081565b565b805f810361019f576040517fcb1d3f7d00000000000000000000000000000000000000000000000000000000815260040160405180910390fd5b825f73ffffffffffffffffffffffffffffffffffffffff1660015f8373ffffffffffffffffffffffffffffffffffffffff1673ffffffffffffffffffffffffffffffffffffffff1681526020019081526020015f205f9054906101000a900473ffffffffffffffffffffffffffffffffffffffff1673ffffffffffffffffffffffffffffffffffffffff1603610261576040517fa802cfbe00000000000000000000000000000000000000000000000000000000815260040160405180910390fd5b610269610477565b8260025f3373ffffffffffffffffffffffffffffffffffffffff1673ffffffffffffffffffffffffffffffffffffffff1681526020019081526020015f205f8673ffffffffffffffffffffffffffffffffffffffff1673ffffffffffffffffffffffffffffffffffffffff1681526020019081526020015f205f8282546102f0919061065f565b925050819055505f8473ffffffffffffffffffffffffffffffffffffffff166323b872dd3330876040518463ffffffff1660e01b8152600401610335939291906106b0565b6020604051808303815f875af1158015610351573d5f5f3e3d5ffd5b505050506040513d601f19601f82011682018060405250810190610375919061071a565b9050806103b957846040517fbc3fe1270000000000000000000000000000000000000000000000000000000081526004016103b09190610745565b60405180910390fd5b838573ffffffffffffffffffffffffffffffffffffffff163373ffffffffffffffffffffffffffffffffffffffff167ff1c0dd7e9b98bbff859029005ef89b127af049cd18df1a8d79f0b7e019911e5660405160405180910390a45061041d6104bb565b50505050565b565b565b805f8103610461576040517fcb1d3f7d00000000000000000000000000000000000000000000000000000000815260040160405180910390fd5b610469610477565b6104716104bb565b5050565b565b60025f54036104b2576040517f3ee5aeb500000000000000000000000000000000000000000000000000000000815260040160405180910390fd5b60025f81905550565b60015f81905550565b5f5ffd5b5f73ffffffffffffffffffffffffffffffffffffffff82169050919050565b5f6104f1826104c8565b9050919050565b610501816104e7565b811461050b575f5ffd5b50565b5f8135905061051c816104f8565b92915050565b5f819050919050565b61053481610522565b811461053e575f5ffd5b50565b5f8135905061054f8161052b565b92915050565b5f5f6040838503121561056b5761056a6104c4565b5b5f6105788582860161050e565b925050602061058985828601610541565b9150509250929050565b5f819050919050565b5f6105b66105b16105ac846104c8565b610593565b6104c8565b9050919050565b5f6105c78261059c565b9050919050565b5f6105d8826105bd565b9050919050565b6105e8816105ce565b82525050565b5f6020820190506106015f8301846105df565b92915050565b5f6020828403121561061c5761061b6104c4565b5b5f61062984828501610541565b91505092915050565b7f4e487b71000000000000000000000000000000000000000000000000000000005f52601160045260245ffd5b5f61066982610522565b915061067483610522565b925082820190508082111561068c5761068b610632565b5b92915050565b61069b816104e7565b82525050565b6106aa81610522565b82525050565b5f6060820190506106c35f830186610692565b6106d06020830185610692565b6106dd60408301846106a1565b949350505050565b5f8115159050919050565b6106f9816106e5565b8114610703575f5ffd5b50565b5f81519050610714816106f0565b92915050565b5f6020828403121561072f5761072e6104c4565b5b5f61073c84828501610706565b91505092915050565b5f6020820190506107585f830184610692565b9291505056fea26469706673582212209cfc495ff01d6bbfcbda4481d5a011ff951033acbdbf69826fecbaf7c343d41c64736f6c634300081e0033",
			"opcodes": "PUSH1 0xA0 PUSH1 0x40 MSTORE CALLVALUE DUP1 ISZERO PUSH2 0xF JUMPI PUSH0 PUSH0 REVERT JUMPDEST POP PUSH1 0x40 MLOAD PUSH2 0xBFB CODESIZE SUB DUP1 PUSH2 0xBFB DUP4 CODECOPY DUP2 DUP2 ADD PUSH1 0x40 MSTORE DUP2 ADD SWAP1 PUSH2 0x31 SWAP2 SWAP1 PUSH2 0x39A JUMP JUMPDEST PUSH1 0x1 PUSH0 DUP2 SWAP1 SSTORE POP DUP1 MLOAD DUP3 MLOAD EQ PUSH2 0x73 JUMPI PUSH1 0x40 MLOAD PUSH32 0xB5C5C12600000000000000000000000000000000000000000000000000000000 DUP2 MSTORE PUSH1 0x4 ADD PUSH1 0x40 MLOAD DUP1 SWAP2 SUB SWAP1 REVERT JUMPDEST PUSH0 PUSH20 0xFFFFFFFFFFFFFFFFFFFFFFFFFFFFFFFFFFFFFFFF AND DUP4 PUSH20 0xFFFFFFFFFFFFFFFFFFFFFFFFFFFFFFFFFFFFFFFF AND SUB PUSH2 0xD8 JUMPI PUSH1 0x40 MLOAD PUSH32 0xEF8F9DD100000000000000000000000000000000000000000000000000000000 DUP2 MSTORE PUSH1 0x4 ADD PUSH1 0x40 MLOAD DUP1 SWAP2 SUB SWAP1 REVERT JUMPDEST PUSH0 PUSH0 SWAP1 POP JUMPDEST DUP3 MLOAD DUP2 LT ISZERO PUSH2 0x1A2 JUMPI DUP2 DUP2 DUP2 MLOAD DUP2 LT PUSH2 0xF9 JUMPI PUSH2 0xF8 PUSH2 0x422 JUMP JUMPDEST JUMPDEST PUSH1 0x20 MUL PUSH1 0x20 ADD ADD MLOAD PUSH1 0x1 PUSH0 DUP6 DUP5 DUP2 MLOAD DUP2 LT PUSH2 0x117 JUMPI PUSH2 0x116 PUSH2 0x422 JUMP JUMPDEST JUMPDEST PUSH1 0x20 MUL PUSH1 0x20 ADD ADD MLOAD PUSH20 0xFFFFFFFFFFFFFFFFFFFFFFFFFFFFFFFFFFFFFFFF AND PUSH20 0xFFFFFFFFFFFFFFFFFFFFFFFFFFFFFFFFFFFFFFFF AND DUP2 MSTORE PUSH1 0x20 ADD SWAP1 DUP2 MSTORE PUSH1 0x20 ADD PUSH0 KECCAK256 PUSH0 PUSH2 0x100 EXP DUP2 SLOAD DUP2 PUSH20 0xFFFFFFFFFFFFFFFFFFFFFFFFFFFFFFFFFFFFFFFF MUL NOT AND SWAP1 DUP4 PUSH20 0xFFFFFFFFFFFFFFFFFFFFFFFFFFFFFFFFFFFFFFFF AND MUL OR SWAP1 SSTORE POP DUP1 DUP1 PUSH1 0x1 ADD SWAP2 POP POP PUSH2 0xDD JUMP JUMPDEST POP DUP3 PUSH20 0xFFFFFFFFFFFFFFFFFFFFFFFFFFFFFFFFFFFFFFFF AND PUSH1 0x80 DUP2 PUSH20 0xFFFFFFFFFFFFFFFFFFFFFFFFFFFFFFFFFFFFFFFF AND DUP2 MSTORE POP POP POP POP POP PUSH2 0x44F JUMP JUMPDEST PUSH0 PUSH1 0x40 MLOAD SWAP1 POP SWAP1 JUMP JUMPDEST PUSH0 PUSH0 REVERT JUMPDEST PUSH0 PUSH0 REVERT JUMPDEST PUSH0 PUSH20 0xFFFFFFFFFFFFFFFFFFFFFFFFFFFFFFFFFFFFFFFF DUP3 AND SWAP1 POP SWAP2 SWAP1 POP JUMP JUMPDEST PUSH0 PUSH2 0x219 DUP3 PUSH2 0x1F0 JUMP JUMPDEST SWAP1 POP SWAP2 SWAP1 POP JUMP JUMPDEST PUSH2 0x229 DUP2 PUSH2 0x20F JUMP JUMPDEST DUP2 EQ PUSH2 0x233 JUMPI PUSH0 PUSH0 REVERT JUMPDEST POP JUMP JUMPDEST PUSH0 DUP2 MLOAD SWAP1 POP PUSH2 0x244 DUP2 PUSH2 0x220 JUMP JUMPDEST SWAP3 SWAP2 POP POP JUMP JUMPDEST PUSH0 PUSH0 REVERT JUMPDEST PUSH0 PUSH1 0x1F NOT PUSH1 0x1F DUP4 ADD AND SWAP1 POP SWAP2 SWAP1 POP JUMP JUMPDEST PUSH32 0x4E487B7100000000000000000000000000000000000000000000000000000000 PUSH0 MSTORE PUSH1 0x41 PUSH1 0x4 MSTORE PUSH1 0x24 PUSH0 REVERT JUMPDEST PUSH2 0x294 DUP3 PUSH2 0x24E JUMP JUMPDEST DUP2 ADD DUP2 DUP2 LT PUSH8 0xFFFFFFFFFFFFFFFF DUP3 GT OR ISZERO PUSH2 0x2B3 JUMPI PUSH2 0x2B2 PUSH2 0x25E JUMP JUMPDEST JUMPDEST DUP1 PUSH1 0x40 MSTORE POP POP POP JUMP JUMPDEST PUSH0 PUSH2 0x2C5 PUSH2 0x1DF JUMP JUMPDEST SWAP1 POP PUSH2 0x2D1 DUP3 DUP3 PUSH2 0x28B JUMP JUMPDEST SWAP2 SWAP1 POP JUMP JUMPDEST PUSH0 PUSH8 0xFFFFFFFFFFFFFFFF DUP3 GT ISZERO PUSH2 0x2F0 JUMPI PUSH2 0x2EF PUSH2 0x25E JUMP JUMPDEST JUMPDEST PUSH1 0x20 DUP3 MUL SWAP1 POP PUSH1 0x20 DUP2 ADD SWAP1 POP SWAP2 SWAP1 POP JUMP JUMPDEST PUSH0 PUSH0 REVERT JUMPDEST PUSH0 PUSH2 0x317 PUSH2 0x312 DUP5 PUSH2 0x2D6 JUMP JUMPDEST PUSH2 0x2BC JUMP JUMPDEST SWAP1 POP DUP1 DUP4 DUP3 MSTORE PUSH1 0x20 DUP3 ADD SWAP1 POP PUSH1 0x20 DUP5 MUL DUP4 ADD DUP6 DUP2 GT ISZERO PUSH2 0x33A JUMPI PUSH2 0x339 PUSH2 0x301 JUMP JUMPDEST JUMPDEST DUP4 JUMPDEST DUP2 DUP2 LT ISZERO PUSH2 0x363 JUMPI DUP1 PUSH2 0x34F DUP9 DUP3 PUSH2 0x236 JUMP JUMPDEST DUP5 MSTORE PUSH1 0x20 DUP5 ADD SWAP4 POP POP PUSH1 0x20 DUP2 ADD SWAP1 POP PUSH2 0x33C JUMP JUMPDEST POP POP POP SWAP4 SWAP3 POP POP POP JUMP JUMPDEST PUSH0 DUP3 PUSH1 0x1F DUP4 ADD SLT PUSH2 0x381 JUMPI PUSH2 0x380 PUSH2 0x24A JUMP JUMPDEST JUMPDEST DUP2 MLOAD PUSH2 0x391 DUP5 DUP3 PUSH1 0x20 DUP7 ADD PUSH2 0x305 JUMP JUMPDEST SWAP2 POP POP SWAP3 SWAP2 POP POP JUMP JUMPDEST PUSH0 PUSH0 PUSH0 PUSH1 0x60 DUP5 DUP7 SUB SLT ISZERO PUSH2 0x3B1 JUMPI PUSH2 0x3B0 PUSH2 0x1E8 JUMP JUMPDEST JUMPDEST PUSH0 PUSH2 0x3BE DUP7 DUP3 DUP8 ADD PUSH2 0x236 JUMP JUMPDEST SWAP4 POP POP PUSH1 0x20 DUP5 ADD MLOAD PUSH8 0xFFFFFFFFFFFFFFFF DUP2 GT ISZERO PUSH2 0x3DF JUMPI PUSH2 0x3DE PUSH2 0x1EC JUMP JUMPDEST JUMPDEST PUSH2 0x3EB DUP7 DUP3 DUP8 ADD PUSH2 0x36D JUMP JUMPDEST SWAP3 POP POP PUSH1 0x40 DUP5 ADD MLOAD PUSH8 0xFFFFFFFFFFFFFFFF DUP2 GT ISZERO PUSH2 0x40C JUMPI PUSH2 0x40B PUSH2 0x1EC JUMP JUMPDEST JUMPDEST PUSH2 0x418 DUP7 DUP3 DUP8 ADD PUSH2 0x36D JUMP JUMPDEST SWAP2 POP POP SWAP3 POP SWAP3 POP SWAP3 JUMP JUMPDEST PUSH32 0x4E487B7100000000000000000000000000000000000000000000000000000000 PUSH0 MSTORE PUSH1 0x32 PUSH1 0x4 MSTORE PUSH1 0x24 PUSH0 REVERT JUMPDEST PUSH1 0x80 MLOAD PUSH2 0x794 PUSH2 0x467 PUSH0 CODECOPY PUSH0 PUSH2 0x141 ADD MSTORE PUSH2 0x794 PUSH0 RETURN INVALID PUSH1 0x80 PUSH1 0x40 MSTORE CALLVALUE DUP1 ISZERO PUSH2 0xF JUMPI PUSH0 PUSH0 REVERT JUMPDEST POP PUSH1 0x4 CALLDATASIZE LT PUSH2 0x91 JUMPI PUSH0 CALLDATALOAD PUSH1 0xE0 SHR DUP1 PUSH4 0xA5D5DB0C GT PUSH2 0x64 JUMPI DUP1 PUSH4 0xA5D5DB0C EQ PUSH2 0xE3 JUMPI DUP1 PUSH4 0xA5F352B7 EQ PUSH2 0xFF JUMPI DUP1 PUSH4 0xC9457F6D EQ PUSH2 0x109 JUMPI DUP1 PUSH4 0xC9B7C327 EQ PUSH2 0x113 JUMPI DUP1 PUSH4 0xFFDE1FBA EQ PUSH2 0x12F JUMPI PUSH2 0x91 JUMP JUMPDEST DUP1 PUSH4 0x28A07025 EQ PUSH2 0x95 JUMPI DUP1 PUSH4 0x50328A60 EQ PUSH2 0x9F JUMPI DUP1 PUSH4 0x5E338BB3 EQ PUSH2 0xBB JUMPI DUP1 PUSH4 0x9E297554 EQ PUSH2 0xD9 JUMPI JUMPDEST PUSH0 PUSH0 REVERT JUMPDEST PUSH2 0x9D PUSH2 0x139 JUMP JUMPDEST STOP JUMPDEST PUSH2 0xB9 PUSH1 0x4 DUP1 CALLDATASIZE SUB DUP2 ADD SWAP1 PUSH2 0xB4 SWAP2 SWAP1 PUSH2 0x555 JUMP JUMPDEST PUSH2 0x13B JUMP JUMPDEST STOP JUMPDEST PUSH2 0xC3 PUSH2 0x13F JUMP JUMPDEST PUSH1 0x40 MLOAD PUSH2 0xD0 SWAP2 SWAP1 PUSH2 0x5EE JUMP JUMPDEST PUSH1 0x40 MLOAD DUP1 SWAP2 SUB SWAP1 RETURN JUMPDEST PUSH2 0xE1 PUSH2 0x163 JUMP JUMPDEST STOP JUMPDEST PUSH2 0xFD PUSH1 0x4 DUP1 CALLDATASIZE SUB DUP2 ADD SWAP1 PUSH2 0xF8 SWAP2 SWAP1 PUSH2 0x555 JUMP JUMPDEST PUSH2 0x165 JUMP JUMPDEST STOP JUMPDEST PUSH2 0x107 PUSH2 0x423 JUMP JUMPDEST STOP JUMPDEST PUSH2 0x111 PUSH2 0x425 JUMP JUMPDEST STOP JUMPDEST PUSH2 0x12D PUSH1 0x4 DUP1 CALLDATASIZE SUB DUP2 ADD SWAP1 PUSH2 0x128 SWAP2 SWAP1 PUSH2 0x607 JUMP JUMPDEST PUSH2 0x427 JUMP JUMPDEST STOP JUMPDEST PUSH2 0x137 PUSH2 0x475 JUMP JUMPDEST STOP JUMPDEST JUMP JUMPDEST POP POP JUMP JUMPDEST PUSH32 0x0 DUP2 JUMP JUMPDEST JUMP JUMPDEST DUP1 PUSH0 DUP2 SUB PUSH2 0x19F JUMPI PUSH1 0x40 MLOAD PUSH32 0xCB1D3F7D00000000000000000000000000000000000000000000000000000000 DUP2 MSTORE PUSH1 0x4 ADD PUSH1 0x40 MLOAD DUP1 SWAP2 SUB SWAP1 REVERT JUMPDEST DUP3 PUSH0 PUSH20 0xFFFFFFFFFFFFFFFFFFFFFFFFFFFFFFFFFFFFFFFF AND PUSH1 0x1 PUSH0 DUP4 PUSH20 0xFFFFFFFFFFFFFFFFFFFFFFFFFFFFFFFFFFFFFFFF AND PUSH20 0xFFFFFFFFFFFFFFFFFFFFFFFFFFFFFFFFFFFFFFFF AND DUP2 MSTORE PUSH1 0x20 ADD SWAP1 DUP2 MSTORE PUSH1 0x20 ADD PUSH0 KECCAK256 PUSH0 SWAP1 SLOAD SWAP1 PUSH2 0x100 EXP SWAP1 DIV PUSH20 0xFFFFFFFFFFFFFFFFFFFFFFFFFFFFFFFFFFFFFFFF AND PUSH20 0xFFFFFFFFFFFFFFFFFFFFFFFFFFFFFFFFFFFFFFFF AND SUB PUSH2 0x261 JUMPI PUSH1 0x40 MLOAD PUSH32 0xA802CFBE00000000000000000000000000000000000000000000000000000000 DUP2 MSTORE PUSH1 0x4 ADD PUSH1 0x40 MLOAD DUP1 SWAP2 SUB SWAP1 REVERT JUMPDEST PUSH2 0x269 PUSH2 0x477 JUMP JUMPDEST DUP3 PUSH1 0x2 PUSH0 CALLER PUSH20 0xFFFFFFFFFFFFFFFFFFFFFFFFFFFFFFFFFFFFFFFF AND PUSH20 0xFFFFFFFFFFFFFFFFFFFFFFFFFFFFFFFFFFFFFFFF AND DUP2 MSTORE PUSH1 0x20 ADD SWAP1 DUP2 MSTORE PUSH1 0x20 ADD PUSH0 KECCAK256 PUSH0 DUP7 PUSH20 0xFFFFFFFFFFFFFFFFFFFFFFFFFFFFFFFFFFFFFFFF AND PUSH20 0xFFFFFFFFFFFFFFFFFFFFFFFFFFFFFFFFFFFFFFFF AND DUP2 MSTORE PUSH1 0x20 ADD SWAP1 DUP2 MSTORE PUSH1 0x20 ADD PUSH0 KECCAK256 PUSH0 DUP3 DUP3 SLOAD PUSH2 0x2F0 SWAP2 SWAP1 PUSH2 0x65F JUMP JUMPDEST SWAP3 POP POP DUP2 SWAP1 SSTORE POP PUSH0 DUP5 PUSH20 0xFFFFFFFFFFFFFFFFFFFFFFFFFFFFFFFFFFFFFFFF AND PUSH4 0x23B872DD CALLER ADDRESS DUP8 PUSH1 0x40 MLOAD DUP5 PUSH4 0xFFFFFFFF AND PUSH1 0xE0 SHL DUP2 MSTORE PUSH1 0x4 ADD PUSH2 0x335 SWAP4 SWAP3 SWAP2 SWAP1 PUSH2 0x6B0 JUMP JUMPDEST PUSH1 0x20 PUSH1 0x40 MLOAD DUP1 DUP4 SUB DUP2 PUSH0 DUP8 GAS CALL ISZERO DUP1 ISZERO PUSH2 0x351 JUMPI RETURNDATASIZE PUSH0 PUSH0 RETURNDATACOPY RETURNDATASIZE PUSH0 REVERT JUMPDEST POP POP POP POP PUSH1 0x40 MLOAD RETURNDATASIZE PUSH1 0x1F NOT PUSH1 0x1F DUP3 ADD AND DUP3 ADD DUP1 PUSH1 0x40 MSTORE POP DUP2 ADD SWAP1 PUSH2 0x375 SWAP2 SWAP1 PUSH2 0x71A JUMP JUMPDEST SWAP1 POP DUP1 PUSH2 0x3B9 JUMPI DUP5 PUSH1 0x40 MLOAD PUSH32 0xBC3FE12700000000000000000000000000000000000000000000000000000000 DUP2 MSTORE PUSH1 0x4 ADD PUSH2 0x3B0 SWAP2 SWAP1 PUSH2 0x745 JUMP JUMPDEST PUSH1 0x40 MLOAD DUP1 SWAP2 SUB SWAP1 REVERT JUMPDEST DUP4 DUP6 PUSH20 0xFFFFFFFFFFFFFFFFFFFFFFFFFFFFFFFFFFFFFFFF AND CALLER PUSH20 0xFFFFFFFFFFFFFFFFFFFFFFFFFFFFFFFFFFFFFFFF AND PUSH32 0xF1C0DD7E9B98BBFF859029005EF89B127AF049CD18DF1A8D79F0B7E019911E56 PUSH1 0x40 MLOAD PUSH1 0x40 MLOAD DUP1 SWAP2 SUB SWAP1 LOG4 POP PUSH2 0x41D PUSH2 0x4BB JUMP JUMPDEST POP POP POP POP JUMP JUMPDEST JUMP JUMPDEST JUMP JUMPDEST DUP1 PUSH0 DUP2 SUB PUSH2 0x461 JUMPI PUSH1 0x40 MLOAD PUSH32 0xCB1D3F7D00000000000000000000000000000000000000000000000000000000 DUP2 MSTORE PUSH1 0x4 ADD PUSH1 0x40 MLOAD DUP1 SWAP2 SUB SWAP1 REVERT JUMPDEST PUSH2 0x469 PUSH2 0x477 JUMP JUMPDEST PUSH2 0x471 PUSH2 0x4BB JUMP JUMPDEST POP POP JUMP JUMPDEST JUMP JUMPDEST PUSH1 0x2 PUSH0 SLOAD SUB PUSH2 0x4B2 JUMPI PUSH1 0x40 MLOAD PUSH32 0x3EE5AEB500000000000000000000000000000000000000000000000000000000 DUP2 MSTORE PUSH1 0x4 ADD PUSH1 0x40 MLOAD DUP1 SWAP2 SUB SWAP1 REVERT JUMPDEST PUSH1 0x2 PUSH0 DUP2 SWAP1 SSTORE POP JUMP JUMPDEST PUSH1 0x1 PUSH0 DUP2 SWAP1 SSTORE POP JUMP JUMPDEST PUSH0 PUSH0 REVERT JUMPDEST PUSH0 PUSH20 0xFFFFFFFFFFFFFFFFFFFFFFFFFFFFFFFFFFFFFFFF DUP3 AND SWAP1 POP SWAP2 SWAP1 POP JUMP JUMPDEST PUSH0 PUSH2 0x4F1 DUP3 PUSH2 0x4C8 JUMP JUMPDEST SWAP1 POP SWAP2 SWAP1 POP JUMP JUMPDEST PUSH2 0x501 DUP2 PUSH2 0x4E7 JUMP JUMPDEST DUP2 EQ PUSH2 0x50B JUMPI PUSH0 PUSH0 REVERT JUMPDEST POP JUMP JUMPDEST PUSH0 DUP2 CALLDATALOAD SWAP1 POP PUSH2 0x51C DUP2 PUSH2 0x4F8 JUMP JUMPDEST SWAP3 SWAP2 POP POP JUMP JUMPDEST PUSH0 DUP2 SWAP1 POP SWAP2 SWAP1 POP JUMP JUMPDEST PUSH2 0x534 DUP2 PUSH2 0x522 JUMP JUMPDEST DUP2 EQ PUSH2 0x53E JUMPI PUSH0 PUSH0 REVERT JUMPDEST POP JUMP JUMPDEST PUSH0 DUP2 CALLDATALOAD SWAP1 POP PUSH2 0x54F DUP2 PUSH2 0x52B JUMP JUMPDEST SWAP3 SWAP2 POP POP JUMP JUMPDEST PUSH0 PUSH0 PUSH1 0x40 DUP4 DUP6 SUB SLT ISZERO PUSH2 0x56B JUMPI PUSH2 0x56A PUSH2 0x4C4 JUMP JUMPDEST JUMPDEST PUSH0 PUSH2 0x578 DUP6 DUP3 DUP7 ADD PUSH2 0x50E JUMP JUMPDEST SWAP3 POP POP PUSH1 0x20 PUSH2 0x589 DUP6 DUP3 DUP7 ADD PUSH2 0x541 JUMP JUMPDEST SWAP2 POP POP SWAP3 POP SWAP3 SWAP1 POP JUMP JUMPDEST PUSH0 DUP2 SWAP1 POP SWAP2 SWAP1 POP JUMP JUMPDEST PUSH0 PUSH2 0x5B6 PUSH2 0x5B1 PUSH2 0x5AC DUP5 PUSH2 0x4C8 JUMP JUMPDEST PUSH2 0x593 JUMP JUMPDEST PUSH2 0x4C8 JUMP JUMPDEST SWAP1 POP SWAP2 SWAP1 POP JUMP JUMPDEST PUSH0 PUSH2 0x5C7 DUP3 PUSH2 0x59C JUMP JUMPDEST SWAP1 POP SWAP2 SWAP1 POP JUMP JUMPDEST PUSH0 PUSH2 0x5D8 DUP3 PUSH2 0x5BD JUMP JUMPDEST SWAP1 POP SWAP2 SWAP1 POP JUMP JUMPDEST PUSH2 0x5E8 DUP2 PUSH2 0x5CE JUMP JUMPDEST DUP3 MSTORE POP POP JUMP JUMPDEST PUSH0 PUSH1 0x20 DUP3 ADD SWAP1 POP PUSH2 0x601 PUSH0 DUP4 ADD DUP5 PUSH2 0x5DF JUMP JUMPDEST SWAP3 SWAP2 POP POP JUMP JUMPDEST PUSH0 PUSH1 0x20 DUP3 DUP5 SUB SLT ISZERO PUSH2 0x61C JUMPI PUSH2 0x61B PUSH2 0x4C4 JUMP JUMPDEST JUMPDEST PUSH0 PUSH2 0x629 DUP5 DUP3 DUP6 ADD PUSH2 0x541 JUMP JUMPDEST SWAP2 POP POP SWAP3 SWAP2 POP POP JUMP JUMPDEST PUSH32 0x4E487B7100000000000000000000000000000000000000000000000000000000 PUSH0 MSTORE PUSH1 0x11 PUSH1 0x4 MSTORE PUSH1 0x24 PUSH0 REVERT JUMPDEST PUSH0 PUSH2 0x669 DUP3 PUSH2 0x522 JUMP JUMPDEST SWAP2 POP PUSH2 0x674 DUP4 PUSH2 0x522 JUMP JUMPDEST SWAP3 POP DUP3 DUP3 ADD SWAP1 POP DUP1 DUP3 GT ISZERO PUSH2 0x68C JUMPI PUSH2 0x68B PUSH2 0x632 JUMP JUMPDEST JUMPDEST SWAP3 SWAP2 POP POP JUMP JUMPDEST PUSH2 0x69B DUP2 PUSH2 0x4E7 JUMP JUMPDEST DUP3 MSTORE POP POP JUMP JUMPDEST PUSH2 0x6AA DUP2 PUSH2 0x522 JUMP JUMPDEST DUP3 MSTORE POP POP JUMP JUMPDEST PUSH0 PUSH1 0x60 DUP3 ADD SWAP1 POP PUSH2 0x6C3 PUSH0 DUP4 ADD DUP7 PUSH2 0x692 JUMP JUMPDEST PUSH2 0x6D0 PUSH1 0x20 DUP4 ADD DUP6 PUSH2 0x692 JUMP JUMPDEST PUSH2 0x6DD PUSH1 0x40 DUP4 ADD DUP5 PUSH2 0x6A1 JUMP JUMPDEST SWAP5 SWAP4 POP POP POP POP JUMP JUMPDEST PUSH0 DUP2 ISZERO ISZERO SWAP1 POP SWAP2 SWAP1 POP JUMP JUMPDEST PUSH2 0x6F9 DUP2 PUSH2 0x6E5 JUMP JUMPDEST DUP2 EQ PUSH2 0x703 JUMPI PUSH0 PUSH0 REVERT JUMPDEST POP JUMP JUMPDEST PUSH0 DUP2 MLOAD SWAP1 POP PUSH2 0x714 DUP2 PUSH2 0x6F0 JUMP JUMPDEST SWAP3 SWAP2 POP POP JUMP JUMPDEST PUSH0 PUSH1 0x20 DUP3 DUP5 SUB SLT ISZERO PUSH2 0x72F JUMPI PUSH2 0x72E PUSH2 0x4C4 JUMP JUMPDEST JUMPDEST PUSH0 PUSH2 0x73C DUP5 DUP3 DUP6 ADD PUSH2 0x706 JUMP JUMPDEST SWAP2 POP POP SWAP3 SWAP2 POP POP JUMP JUMPDEST PUSH0 PUSH1 0x20 DUP3 ADD SWAP1 POP PUSH2 0x758 PUSH0 DUP4 ADD DUP5 PUSH2 0x692 JUMP JUMPDEST SWAP3 SWAP2 POP POP JUMP INVALID LOG2 PUSH5 0x6970667358 0x22 SLT KECCAK256 SWAP13 0xFC BLOBHASH PUSH0 CREATE SAR PUSH12 0xBFCBDA4481D5A011FF951033 0xAC 0xBD 0xBF PUSH10 0x826FECBAF7C343D41C64 PUSH20 0x6F6C634300081E00330000000000000000000000 "
		},
		"gasEstimates": {
			"creation": {
				"codeDepositCost": "388000",
				"executionCost": "infinite",
				"totalCost": "infinite"
			},
			"external": {
				"burnDsc()": "231",
				"depositCollateral(address,uint256)": "infinite",
				"depositCollateralAndMintDsc(address,uint256)": "642",
				"getHealthFactor()": "165",
				"i_dsc()": "infinite",
				"liquidate()": "144",
				"mintDsc(uint256)": "29790",
				"redeemCollateralForDsc()": "210",
				"redeemCollateralc()": "187"
			}
		},
		"methodIdentifiers": {
			"burnDsc()": "ffde1fba",
			"depositCollateral(address,uint256)": "a5d5db0c",
			"depositCollateralAndMintDsc(address,uint256)": "50328a60",
			"getHealthFactor()": "a5f352b7",
			"i_dsc()": "5e338bb3",
			"liquidate()": "28a07025",
			"mintDsc(uint256)": "c9b7c327",
			"redeemCollateralForDsc()": "9e297554",
			"redeemCollateralc()": "c9457f6d"
		}
	},
	"abi": [
		{
			"inputs": [
				{
					"internalType": "address",
					"name": "_dscAddress",
					"type": "address"
				},
				{
					"internalType": "address[]",
					"name": "_tokenCollateral",
					"type": "address[]"
				},
				{
					"internalType": "address[]",
					"name": "_priceFeed",
					"type": "address[]"
				}
			],
			"stateMutability": "nonpayable",
			"type": "constructor"
		},
		{
			"inputs": [
				{
					"internalType": "address",
					"name": "collateralToken",
					"type": "address"
				}
			],
			"name": "DSCEngine__CollateralDepositFailed",
			"type": "error"
		},
		{
			"inputs": [],
			"name": "DSCEngine__DscAddressCantBeZero",
			"type": "error"
		},
		{
			"inputs": [],
			"name": "DSCEngine__NeedsMoreThanZero",
			"type": "error"
		},
		{
			"inputs": [],
			"name": "DSCEngine__NotAllowedToken",
			"type": "error"
		},
		{
			"inputs": [],
			"name": "DSCEngine__TokenAddressesAndPriceFeedAddressesMustBeSameLength",
			"type": "error"
		},
		{
			"inputs": [],
			"name": "ReentrancyGuardReentrantCall",
			"type": "error"
		},
		{
			"anonymous": false,
			"inputs": [
				{
					"indexed": true,
					"internalType": "address",
					"name": "depositer",
					"type": "address"
				},
				{
					"indexed": true,
					"internalType": "address",
					"name": "tokenCollateralAddress",
					"type": "address"
				},
				{
					"indexed": true,
					"internalType": "uint256",
					"name": "collateralAmount",
					"type": "uint256"
				}
			],
			"name": "CollateralDeposited",
			"type": "event"
		},
		{
			"inputs": [],
			"name": "burnDsc",
			"outputs": [],
			"stateMutability": "nonpayable",
			"type": "function"
		},
		{
			"inputs": [
				{
					"internalType": "address",
					"name": "_tokenCollateralAddress",
					"type": "address"
				},
				{
					"internalType": "uint256",
					"name": "_collateralAmount",
					"type": "uint256"
				}
			],
			"name": "depositCollateral",
			"outputs": [],
			"stateMutability": "nonpayable",
			"type": "function"
		},
		{
			"inputs": [
				{
					"internalType": "address",
					"name": "_tokenCollateralAddress",
					"type": "address"
				},
				{
					"internalType": "uint256",
					"name": "_collateralAmount",
					"type": "uint256"
				}
			],
			"name": "depositCollateralAndMintDsc",
			"outputs": [],
			"stateMutability": "nonpayable",
			"type": "function"
		},
		{
			"inputs": [],
			"name": "getHealthFactor",
			"outputs": [],
			"stateMutability": "view",
			"type": "function"
		},
		{
			"inputs": [],
			"name": "i_dsc",
			"outputs": [
				{
					"internalType": "contract DecentralizedStableCoin",
					"name": "",
					"type": "address"
				}
			],
			"stateMutability": "view",
			"type": "function"
		},
		{
			"inputs": [],
			"name": "liquidate",
			"outputs": [],
			"stateMutability": "nonpayable",
			"type": "function"
		},
		{
			"inputs": [
				{
					"internalType": "uint256",
					"name": "_amountDscToMint",
					"type": "uint256"
				}
			],
			"name": "mintDsc",
			"outputs": [],
			"stateMutability": "nonpayable",
			"type": "function"
		},
		{
			"inputs": [],
			"name": "redeemCollateralForDsc",
			"outputs": [],
			"stateMutability": "nonpayable",
			"type": "function"
		},
		{
			"inputs": [],
			"name": "redeemCollateralc",
			"outputs": [],
			"stateMutability": "nonpayable",
			"type": "function"
		}
	]
}